{
  "_format": "hh-sol-artifact-1",
  "contractName": "PlaylistReputationNFT",
  "sourceName": "contracts/PlaylistReputationNFT.sol",
  "abi": [
    {
      "inputs": [
        {
          "internalType": "address",
          "name": "_entropy",
          "type": "address"
        },
        {
          "internalType": "address",
          "name": "_provider",
          "type": "address"
        }
      ],
      "stateMutability": "nonpayable",
      "type": "constructor"
    },
    {
      "inputs": [],
      "name": "ApprovalCallerNotOwnerNorApproved",
      "type": "error"
    },
    {
      "inputs": [],
      "name": "ApprovalQueryForNonexistentToken",
      "type": "error"
    },
    {
      "inputs": [],
      "name": "BalanceQueryForZeroAddress",
      "type": "error"
    },
    {
      "inputs": [],
      "name": "MintERC2309QuantityExceedsLimit",
      "type": "error"
    },
    {
      "inputs": [],
      "name": "MintToZeroAddress",
      "type": "error"
    },
    {
      "inputs": [],
      "name": "MintZeroQuantity",
      "type": "error"
    },
    {
      "inputs": [],
      "name": "NotCompatibleWithSpotMints",
      "type": "error"
    },
    {
      "inputs": [
        {
          "internalType": "address",
          "name": "owner",
          "type": "address"
        }
      ],
      "name": "OwnableInvalidOwner",
      "type": "error"
    },
    {
      "inputs": [
        {
          "internalType": "address",
          "name": "account",
          "type": "address"
        }
      ],
      "name": "OwnableUnauthorizedAccount",
      "type": "error"
    },
    {
      "inputs": [],
      "name": "OwnerQueryForNonexistentToken",
      "type": "error"
    },
    {
      "inputs": [],
      "name": "OwnershipNotInitializedForExtraData",
      "type": "error"
    },
    {
      "inputs": [],
      "name": "SequentialMintExceedsLimit",
      "type": "error"
    },
    {
      "inputs": [],
      "name": "SequentialUpToTooSmall",
      "type": "error"
    },
    {
      "inputs": [],
      "name": "SpotMintTokenIdTooSmall",
      "type": "error"
    },
    {
      "inputs": [],
      "name": "TokenAlreadyExists",
      "type": "error"
    },
    {
      "inputs": [],
      "name": "TransferCallerNotOwnerNorApproved",
      "type": "error"
    },
    {
      "inputs": [],
      "name": "TransferFromIncorrectOwner",
      "type": "error"
    },
    {
      "inputs": [],
      "name": "TransferToNonERC721ReceiverImplementer",
      "type": "error"
    },
    {
      "inputs": [],
      "name": "TransferToZeroAddress",
      "type": "error"
    },
    {
      "inputs": [],
      "name": "URIQueryForNonexistentToken",
      "type": "error"
    },
    {
      "anonymous": false,
      "inputs": [
        {
          "indexed": true,
          "internalType": "address",
          "name": "owner",
          "type": "address"
        },
        {
          "indexed": true,
          "internalType": "address",
          "name": "approved",
          "type": "address"
        },
        {
          "indexed": true,
          "internalType": "uint256",
          "name": "tokenId",
          "type": "uint256"
        }
      ],
      "name": "Approval",
      "type": "event"
    },
    {
      "anonymous": false,
      "inputs": [
        {
          "indexed": true,
          "internalType": "address",
          "name": "owner",
          "type": "address"
        },
        {
          "indexed": true,
          "internalType": "address",
          "name": "operator",
          "type": "address"
        },
        {
          "indexed": false,
          "internalType": "bool",
          "name": "approved",
          "type": "bool"
        }
      ],
      "name": "ApprovalForAll",
      "type": "event"
    },
    {
      "anonymous": false,
      "inputs": [
        {
          "indexed": true,
          "internalType": "uint256",
          "name": "fromTokenId",
          "type": "uint256"
        },
        {
          "indexed": false,
          "internalType": "uint256",
          "name": "toTokenId",
          "type": "uint256"
        },
        {
          "indexed": true,
          "internalType": "address",
          "name": "from",
          "type": "address"
        },
        {
          "indexed": true,
          "internalType": "address",
          "name": "to",
          "type": "address"
        }
      ],
      "name": "ConsecutiveTransfer",
      "type": "event"
    },
    {
      "anonymous": false,
      "inputs": [
        {
          "indexed": true,
          "internalType": "uint256",
          "name": "tokenId",
          "type": "uint256"
        },
        {
          "indexed": false,
          "internalType": "uint64",
          "name": "sequenceNumber",
          "type": "uint64"
        }
      ],
      "name": "DecayTriggered",
      "type": "event"
    },
    {
      "anonymous": false,
      "inputs": [
        {
          "indexed": true,
          "internalType": "address",
          "name": "previousOwner",
          "type": "address"
        },
        {
          "indexed": true,
          "internalType": "address",
          "name": "newOwner",
          "type": "address"
        }
      ],
      "name": "OwnershipTransferred",
      "type": "event"
    },
    {
      "anonymous": false,
      "inputs": [
        {
          "indexed": true,
          "internalType": "uint256",
          "name": "tokenId",
          "type": "uint256"
        },
        {
          "indexed": false,
          "internalType": "string",
          "name": "name",
          "type": "string"
        },
        {
          "indexed": false,
          "internalType": "string",
          "name": "playlistId",
          "type": "string"
        }
      ],
      "name": "PlaylistMinted",
      "type": "event"
    },
    {
      "anonymous": false,
      "inputs": [
        {
          "indexed": true,
          "internalType": "uint256",
          "name": "tokenId",
          "type": "uint256"
        },
        {
          "indexed": false,
          "internalType": "uint256",
          "name": "newReputation",
          "type": "uint256"
        }
      ],
      "name": "ReputationDecayed",
      "type": "event"
    },
    {
      "anonymous": false,
      "inputs": [
        {
          "indexed": true,
          "internalType": "uint256",
          "name": "tokenId",
          "type": "uint256"
        },
        {
          "indexed": false,
          "internalType": "uint256",
          "name": "newReputation",
          "type": "uint256"
        },
        {
          "indexed": false,
          "internalType": "address",
          "name": "voter",
          "type": "address"
        }
      ],
      "name": "ReputationGrown",
      "type": "event"
    },
    {
      "anonymous": false,
      "inputs": [
        {
          "indexed": true,
          "internalType": "address",
          "name": "from",
          "type": "address"
        },
        {
          "indexed": true,
          "internalType": "address",
          "name": "to",
          "type": "address"
        },
        {
          "indexed": true,
          "internalType": "uint256",
          "name": "tokenId",
          "type": "uint256"
        }
      ],
      "name": "Transfer",
      "type": "event"
    },
    {
      "inputs": [],
      "name": "DECAY_CHANCE",
      "outputs": [
        {
          "internalType": "uint256",
          "name": "",
          "type": "uint256"
        }
      ],
      "stateMutability": "view",
      "type": "function"
    },
    {
      "inputs": [],
      "name": "GROWTH_PER_VOTE",
      "outputs": [
        {
          "internalType": "uint256",
          "name": "",
          "type": "uint256"
        }
      ],
      "stateMutability": "view",
      "type": "function"
    },
    {
      "inputs": [],
      "name": "MAX_REPUTATION",
      "outputs": [
        {
          "internalType": "uint256",
          "name": "",
          "type": "uint256"
        }
      ],
      "stateMutability": "view",
      "type": "function"
    },
    {
      "inputs": [
        {
          "internalType": "uint64",
          "name": "sequence",
          "type": "uint64"
        },
        {
          "internalType": "address",
          "name": "provider",
          "type": "address"
        },
        {
          "internalType": "bytes32",
          "name": "randomNumber",
          "type": "bytes32"
        }
      ],
      "name": "_entropyCallback",
      "outputs": [],
      "stateMutability": "nonpayable",
      "type": "function"
    },
    {
      "inputs": [
        {
          "internalType": "address",
          "name": "to",
          "type": "address"
        },
        {
          "internalType": "uint256",
          "name": "tokenId",
          "type": "uint256"
        }
      ],
      "name": "approve",
      "outputs": [],
      "stateMutability": "payable",
      "type": "function"
    },
    {
      "inputs": [
        {
          "internalType": "address",
          "name": "owner",
          "type": "address"
        }
      ],
      "name": "balanceOf",
      "outputs": [
        {
          "internalType": "uint256",
          "name": "",
          "type": "uint256"
        }
      ],
      "stateMutability": "view",
      "type": "function"
    },
    {
      "inputs": [
        {
          "internalType": "uint256",
          "name": "tokenId",
          "type": "uint256"
        }
      ],
      "name": "getApproved",
      "outputs": [
        {
          "internalType": "address",
          "name": "",
          "type": "address"
        }
      ],
      "stateMutability": "view",
      "type": "function"
    },
    {
      "inputs": [
        {
          "internalType": "uint256",
          "name": "tokenId",
          "type": "uint256"
        }
      ],
      "name": "getPlaylistInfo",
      "outputs": [
        {
          "components": [
            {
              "internalType": "string",
              "name": "name",
              "type": "string"
            },
            {
              "internalType": "string",
              "name": "playlistId",
              "type": "string"
            },
            {
              "internalType": "uint256",
              "name": "reputation",
              "type": "uint256"
            },
            {
              "internalType": "uint256",
              "name": "createdAt",
              "type": "uint256"
            },
            {
              "internalType": "bool",
              "name": "isActive",
              "type": "bool"
            }
          ],
          "internalType": "struct PlaylistReputationNFT.PlaylistInfo",
          "name": "",
          "type": "tuple"
        }
      ],
      "stateMutability": "view",
      "type": "function"
    },
    {
      "inputs": [
        {
          "internalType": "address",
          "name": "",
          "type": "address"
        },
        {
          "internalType": "uint256",
          "name": "",
          "type": "uint256"
        }
      ],
      "name": "hasVoted",
      "outputs": [
        {
          "internalType": "bool",
          "name": "",
          "type": "bool"
        }
      ],
      "stateMutability": "view",
      "type": "function"
    },
    {
      "inputs": [
        {
          "internalType": "address",
          "name": "owner",
          "type": "address"
        },
        {
          "internalType": "address",
          "name": "operator",
          "type": "address"
        }
      ],
      "name": "isApprovedForAll",
      "outputs": [
        {
          "internalType": "bool",
          "name": "",
          "type": "bool"
        }
      ],
      "stateMutability": "view",
      "type": "function"
    },
    {
      "inputs": [
        {
          "internalType": "address",
          "name": "to",
          "type": "address"
        },
        {
          "internalType": "string",
          "name": "name",
          "type": "string"
        },
        {
          "internalType": "string",
          "name": "playlistId",
          "type": "string"
        }
      ],
      "name": "mintPlaylist",
      "outputs": [
        {
          "internalType": "uint256",
          "name": "",
          "type": "uint256"
        }
      ],
      "stateMutability": "nonpayable",
      "type": "function"
    },
    {
      "inputs": [],
      "name": "name",
      "outputs": [
        {
          "internalType": "string",
          "name": "",
          "type": "string"
        }
      ],
      "stateMutability": "view",
      "type": "function"
    },
    {
      "inputs": [],
      "name": "owner",
      "outputs": [
        {
          "internalType": "address",
          "name": "",
          "type": "address"
        }
      ],
      "stateMutability": "view",
      "type": "function"
    },
    {
      "inputs": [
        {
          "internalType": "uint256",
          "name": "tokenId",
          "type": "uint256"
        }
      ],
      "name": "ownerOf",
      "outputs": [
        {
          "internalType": "address",
          "name": "",
          "type": "address"
        }
      ],
      "stateMutability": "view",
      "type": "function"
    },
    {
      "inputs": [
        {
          "internalType": "uint64",
          "name": "",
          "type": "uint64"
        }
      ],
      "name": "pendingDecayRequests",
      "outputs": [
        {
          "internalType": "uint256",
          "name": "",
          "type": "uint256"
        }
      ],
      "stateMutability": "view",
      "type": "function"
    },
    {
      "inputs": [
        {
          "internalType": "uint256",
          "name": "",
          "type": "uint256"
        }
      ],
      "name": "playlists",
      "outputs": [
        {
          "internalType": "string",
          "name": "name",
          "type": "string"
        },
        {
          "internalType": "string",
          "name": "playlistId",
          "type": "string"
        },
        {
          "internalType": "uint256",
          "name": "reputation",
          "type": "uint256"
        },
        {
          "internalType": "uint256",
          "name": "createdAt",
          "type": "uint256"
        },
        {
          "internalType": "bool",
          "name": "isActive",
          "type": "bool"
        }
      ],
      "stateMutability": "view",
      "type": "function"
    },
    {
      "inputs": [],
      "name": "renounceOwnership",
      "outputs": [],
      "stateMutability": "nonpayable",
      "type": "function"
    },
    {
      "inputs": [
        {
          "internalType": "address",
          "name": "from",
          "type": "address"
        },
        {
          "internalType": "address",
          "name": "to",
          "type": "address"
        },
        {
          "internalType": "uint256",
          "name": "tokenId",
          "type": "uint256"
        }
      ],
      "name": "safeTransferFrom",
      "outputs": [],
      "stateMutability": "payable",
      "type": "function"
    },
    {
      "inputs": [
        {
          "internalType": "address",
          "name": "from",
          "type": "address"
        },
        {
          "internalType": "address",
          "name": "to",
          "type": "address"
        },
        {
          "internalType": "uint256",
          "name": "tokenId",
          "type": "uint256"
        },
        {
          "internalType": "bytes",
          "name": "_data",
          "type": "bytes"
        }
      ],
      "name": "safeTransferFrom",
      "outputs": [],
      "stateMutability": "payable",
      "type": "function"
    },
    {
      "inputs": [
        {
          "internalType": "address",
          "name": "operator",
          "type": "address"
        },
        {
          "internalType": "bool",
          "name": "approved",
          "type": "bool"
        }
      ],
      "name": "setApprovalForAll",
      "outputs": [],
      "stateMutability": "nonpayable",
      "type": "function"
    },
    {
      "inputs": [
        {
          "internalType": "bytes4",
          "name": "interfaceId",
          "type": "bytes4"
        }
      ],
      "name": "supportsInterface",
      "outputs": [
        {
          "internalType": "bool",
          "name": "",
          "type": "bool"
        }
      ],
      "stateMutability": "view",
      "type": "function"
    },
    {
      "inputs": [],
      "name": "symbol",
      "outputs": [
        {
          "internalType": "string",
          "name": "",
          "type": "string"
        }
      ],
      "stateMutability": "view",
      "type": "function"
    },
    {
      "inputs": [
        {
          "internalType": "uint256",
          "name": "tokenId",
          "type": "uint256"
        }
      ],
      "name": "tokenURI",
      "outputs": [
        {
          "internalType": "string",
          "name": "",
          "type": "string"
        }
      ],
      "stateMutability": "view",
      "type": "function"
    },
    {
      "inputs": [
        {
          "internalType": "address",
          "name": "owner",
          "type": "address"
        }
      ],
      "name": "tokensOfOwner",
      "outputs": [
        {
          "internalType": "uint256[]",
          "name": "",
          "type": "uint256[]"
        }
      ],
      "stateMutability": "view",
      "type": "function"
    },
    {
      "inputs": [],
      "name": "totalSupply",
      "outputs": [
        {
          "internalType": "uint256",
          "name": "result",
          "type": "uint256"
        }
      ],
      "stateMutability": "view",
      "type": "function"
    },
    {
      "inputs": [
        {
          "internalType": "address",
          "name": "from",
          "type": "address"
        },
        {
          "internalType": "address",
          "name": "to",
          "type": "address"
        },
        {
          "internalType": "uint256",
          "name": "tokenId",
          "type": "uint256"
        }
      ],
      "name": "transferFrom",
      "outputs": [],
      "stateMutability": "payable",
      "type": "function"
    },
    {
      "inputs": [
        {
          "internalType": "address",
          "name": "newOwner",
          "type": "address"
        }
      ],
      "name": "transferOwnership",
      "outputs": [],
      "stateMutability": "nonpayable",
      "type": "function"
    },
    {
      "inputs": [
        {
          "internalType": "uint256",
          "name": "tokenId",
          "type": "uint256"
        }
      ],
      "name": "triggerDecay",
      "outputs": [],
      "stateMutability": "payable",
      "type": "function"
    },
    {
      "inputs": [
        {
          "internalType": "uint256",
          "name": "tokenId",
          "type": "uint256"
        }
      ],
      "name": "voteForPlaylist",
      "outputs": [],
      "stateMutability": "nonpayable",
      "type": "function"
    }
  ],
  "bytecode": "0x6080604052346200021e57620026d960408138039182620000208162000259565b9384928339810103126200021e5762000039816200027f565b6200004860208093016200027f565b6200005262000294565b926a0506c61796c6973745265760ac1b8185015262000070620002a5565b640504c5245560dc1b82820152845190916001600160401b0382116200021857620000a882620000a2600254620002b6565b620002f3565b80601f83116001146200018357509080620000e292620000eb95969760009262000177575b50508160011b916000199060031b1c19161790565b600255620003a9565b6000805533156200015e576200012c6200014e926200010a3362000497565b600a80546001600160a01b0319166001600160a01b0392909216919091179055565b600b80546001600160a01b0319166001600160a01b0392909216919091179055565b6040516121f89081620004e18239f35b604051631e4fbdf760e01b815260006004820152602490fd5b015190503880620000cd565b6002600052601f198316969091907f405787fa12a823e0f2b7631cc41b3ba8828b3321ca811111fa75cd3aa3bb5ace926000905b898210620001ff57505090839291600194620000eb97989910620001e5575b505050811b01600255620003a9565b015160001960f88460031b161c19169055388080620001d6565b80600185968294968601518155019501930190620001b7565b62000223565b600080fd5b634e487b7160e01b600052604160045260246000fd5b60408051919082016001600160401b038111838210176200021857604052565b6040519190601f01601f191682016001600160401b038111838210176200021857604052565b51906001600160a01b03821682036200021e57565b6200029e62000239565b90600b8252565b620002af62000239565b9060058252565b90600182811c92168015620002e8575b6020831014620002d257565b634e487b7160e01b600052602260045260246000fd5b91607f1691620002c6565b601f811162000300575050565b60009060026000526020600020906020601f850160051c8301941062000343575b601f0160051c01915b8281106200033757505050565b8181556001016200032a565b909250829062000321565b601f81116200035b575050565b60009060036000526020600020906020601f850160051c830194106200039e575b601f0160051c01915b8281106200039257505050565b81815560010162000385565b90925082906200037c565b80519091906001600160401b0381116200021857620003d581620003cf600354620002b6565b6200034e565b602080601f83116001146200040f575081906200040a9394600092620001775750508160011b916000199060031b1c19161790565b600355565b6003600052601f198316949091907fc2575a0e9e593c00f959f8c92f12db2869c3395a3b0502d05e2516446f71f85b926000905b8782106200047e57505083600195961062000464575b505050811b01600355565b015160001960f88460031b161c1916905538808062000459565b8060018596829496860151815501950193019062000443565b600980546001600160a01b039283166001600160a01b0319821681179092559091167f8be0079c531659141344cd1fd0a4f28419497f9722a3daafe3b4186f6b6457e0600080a356fe6080604052600436101561001257600080fd5b60003560e01c806301ffc9a7146101e757806306fdde03146101e2578063081812fc146101dd578063095ea7b3146101d857806318160ddd146101d357806323b872dd146101ce57806341ac50b3146101c957806342545825146101c457806342842e0e146101bf5780634535f1c1146101ba57806352a5f1f8146101b55780636352211e146101b057806370a08231146101ab578063715018a6146101a657806377ee63f1146101a15780638462151c1461019c57806385de8b3c146101975780638da5cb5b1461019257806395d89b411461018d578063a22cb46514610188578063a7384a4c14610183578063a9182f3f1461017e578063b88d4fde14610179578063baccd1d214610174578063c87b56dd1461016f578063d213c0f21461016a578063e985e9c514610165578063ecc6362f146101605763f2fde38b1461015b57600080fd5b61154b565b6114c2565b611383565b611367565b6112e6565b6112a7565b61124c565b6110c8565b610ea9565b610ddd565b610d35565b610d0e565b610aeb565b610a0c565b6109b4565b61094b565b610920565b6108f1565b6107f8565b6107ca565b6107a7565b61075a565b610614565b610600565b6105a8565b6104c3565b61042a565b610341565b61021b565b7fffffffff0000000000000000000000000000000000000000000000000000000081160361021657565b600080fd5b346102165760203660031901126102165760207fffffffff0000000000000000000000000000000000000000000000000000000060043561025b816101ec565b167f01ffc9a70000000000000000000000000000000000000000000000000000000081149081156102c3575b8115610299575b506040519015158152f35b7f5b5e139f000000000000000000000000000000000000000000000000000000009150143861028e565b7f80ac58cd0000000000000000000000000000000000000000000000000000000081149150610287565b919082519283825260005b848110610319575050826000602080949584010152601f8019910116010190565b6020818301810151848301820152016102f8565b90602061033e9281815201906102ed565b90565b346102165760008060031936011261042757604051908060025490610365826113e5565b808552916020916001918281169081156103fa57506001146103a2575b61039e86610392818803826111c8565b6040519182918261032d565b0390f35b9350600284527f405787fa12a823e0f2b7631cc41b3ba8828b3321ca811111fa75cd3aa3bb5ace5b8385106103e7575050505081016020016103928261039e38610382565b80548686018401529382019381016103ca565b905086955061039e9693506020925061039294915060ff191682840152151560051b820101929338610382565b80fd5b346102165760203660031901126102165760043561044781611d50565b1561046d57600052600660205260206001600160a01b0360406000205416604051908152f35b7fcf4700e40000000000000000000000000000000000000000000000000000000060005260046000fd5b600435906001600160a01b038216820361021657565b602435906001600160a01b038216820361021657565b6040366003190112610216576104d7610497565b6024356001600160a01b0391826104ed83611e4c565b1680330361054c575b6000938385526006602052604085209216918273ffffffffffffffffffffffffffffffffffffffff198254161790557f8c5be1e5ebec7d5bd14f71427d1e84f3dd0314c0f7b2291e5b200ac8c7c3b9258480a480f35b80600052600760205260ff610578336040600020906001600160a01b0316600052602052604060002090565b54166104f6577fcfb3b9420000000000000000000000000000000000000000000000000000000060005260046000fd5b346102165760003660031901126102165760206000546001549003604051908152f35b6060906003190112610216576001600160a01b0390600435828116810361021657916024359081168103610216579060443590565b61061261060c366105cb565b916115f7565b005b346102165760203660031901126102165760043561063961063482611d50565b6117a4565b33600052600e60205261067361066e61066a61066384604060002090600052602052604060002090565b5460ff1690565b1590565b6117ef565b61069c610697600461068f84600052600c602052604060002090565b015460ff1690565b61183a565b7fa15ea89cb51fc8f208d4fa88319ed1c6e182726c46c64f91dca36f6d7fe2ab2061074c60026106d684600052600c602052604060002090565b0160646106e3825461189b565b11610751576106f2815461189b565b81555b61073561072885610719336001600160a01b0316600052600e602052604060002090565b90600052602052604060002090565b805460ff19166001179055565b546040805191825233602083015290918291820190565b0390a2005b606481556106f5565b34610216576040366003190112610216576001600160a01b0361077b610497565b16600052600e6020526040600020602435600052602052602060ff604060002054166040519015158152f35b6106126107b3366105cb565b90604051926107c1846111ac565b60008452611cf4565b34610216576000366003190112610216576020604051601e8152f35b67ffffffffffffffff81160361021657565b3461021657606036600319011261021657600435610815816107e6565b61081d6104ad565b506001600160a01b03600a541680156108ad573303610843576106129060443590611ed6565b608460405162461bcd60e51b815260206004820152602360248201527f4f6e6c7920456e74726f70792063616e2063616c6c20746869732066756e637460448201527f696f6e00000000000000000000000000000000000000000000000000000000006064820152fd5b606460405162461bcd60e51b815260206004820152601760248201527f456e74726f70792061646472657373206e6f74207365740000000000000000006044820152fd5b346102165760203660031901126102165760206001600160a01b03610917600435611e4c565b16604051908152f35b3461021657602036600319011261021657602061094361093e610497565b6118ae565b604051908152f35b346102165760008060031936011261042757610965611ff8565b806001600160a01b0360095473ffffffffffffffffffffffffffffffffffffffff198116600955167f8be0079c531659141344cd1fd0a4f28419497f9722a3daafe3b4186f6b6457e08280a380f35b3461021657600036600319011261021657602060405160058152f35b602090602060408183019282815285518094520193019160005b8281106109f8575050505090565b8351855293810193928101926001016109ea565b3461021657602036600319011261021657610a25610497565b600080610a31836118ae565b91610a3b83611902565b93604091610a4c60405196876111c8565b848652601f19610a5b86611902565b01366020880137610a6a61191a565b506001600160a01b0391821692845b868603610a8e576040518061039e8a826109d0565b610a978161203c565b80830151610ae257516001600160a01b0316848116610ad9575b506001908585851614610ac5575b01610a79565b80610ad3838901988b611950565b52610abf565b92506001610ab1565b50600190610abf565b6020806003193601126102165760043590610b0861063483611d50565b610b24610697600461068f85600052600c602052604060002090565b610b466002610b3d84600052600c602052604060002090565b0154151561197a565b610b67610b5b600a546001600160a01b031690565b6001600160a01b031690565b90610b7a600b546001600160a01b031690565b6040517fb88c91480000000000000000000000000000000000000000000000000000000081526001600160a01b038216600482015290928282602481845afa908115610cdc576fffffffffffffffffffffffffffffffff610c3a928594600091610ce1575b501694610bee863410156119f9565b6040519586809481937f19cb825f0000000000000000000000000000000000000000000000000000000083526004830160206000919392936001600160a01b0360408201951681520152565b03925af18015610cdc577f6b73c3afb9de0065bce909a5c6990021f060efc3b19313411293559b0238e0739261074c92600092610caf575b505083610c938267ffffffffffffffff16600052600d602052604060002090565b5560405167ffffffffffffffff90911681529081906020820190565b610cce9250803d10610cd5575b610cc681836111c8565b810190611a44565b3880610c72565b503d610cbc565b6119ed565b610d019150853d8711610d07575b610cf981836111c8565b8101906119c5565b38610bdf565b503d610cef565b346102165760003660031901126102165760206001600160a01b0360095416604051908152f35b346102165760008060031936011261042757604051908060035490610d59826113e5565b808552916020916001918281169081156103fa5750600114610d855761039e86610392818803826111c8565b9350600384527fc2575a0e9e593c00f959f8c92f12db2869c3395a3b0502d05e2516446f71f85b5b838510610dca575050505081016020016103928261039e38610382565b8054868601840152938201938101610dad565b3461021657604036600319011261021657610df6610497565b6024358015159182820361021657610e4b6001600160a01b0392336000526007602052610e3a836040600020906001600160a01b0316600052602052604060002090565b9060ff801983541691151516179055565b60405192835216907f17307eab39ab6107e8899845ad3d59bd9653f200f220920489ca2b5937696c3160203392a3005b9181601f840112156102165782359167ffffffffffffffff8311610216576020838186019501011161021657565b3461021657606036600319011261021657610ec2610497565b67ffffffffffffffff9060243582811161021657610ee4903690600401610e7b565b909260443590811161021657610efe903690600401610e7b565b600094916001600160a01b03865495610f2a81600160e11b906001600160a01b034260a01b9116171790565b610f3e886000526004602052604060002090565b55610f5c816001600160a01b03166000526005602052604060002090565b6801000000000000000181540190551695861561106f57600186810197879180805b61102a575b505050508594927fc3c15e44adc8e6b4ddd1ca6261359e4970bb28b9530420d68222c21d2e80bcc2949261039e98611017935561100b610fc16111ea565b610fcc368888611215565b8152610fd9368585611215565b6020820152603260408201524260608201526001608082015261100689600052600c602052604060002090565b611b85565b60405194859485611ccd565b0390a26040519081529081906020820190565b1561105e575b83818484877fddf252ad1be2c89b69c2b068fc378daa952ba7f163c4a11628f55a4df523b3ef8180a4610f7e565b809201918983036110305780610f83565b611d93565b6020815260a060806110aa611094855184602087015260c08601906102ed565b6020860151858203601f190160408701526102ed565b93604081015160608501526060810151828501520151151591015290565b346102165760203660031901126102165761039e6004356040906000608083516110f18161118b565b60608152606060208201528285820152826060820152015261111561063482611d50565b600052600c602052806000209060ff60048251936111328561118b565b61113b8161141f565b85526111496001820161141f565b602086015260028101548486015260038101546060860152015416151560808301525191829182611074565b634e487b7160e01b600052604160045260246000fd5b60a0810190811067ffffffffffffffff8211176111a757604052565b611175565b6020810190811067ffffffffffffffff8211176111a757604052565b90601f8019910116810190811067ffffffffffffffff8211176111a757604052565b604051906111f78261118b565b565b67ffffffffffffffff81116111a757601f01601f191660200190565b929192611221826111f9565b9161122f60405193846111c8565b829481845281830111610216578281602093846000960137010152565b608036600319011261021657611260610497565b6112686104ad565b6064359167ffffffffffffffff831161021657366023840112156102165761129d610612933690602481600401359101611215565b9160443591611cf4565b346102165760203660031901126102165767ffffffffffffffff6004356112cd816107e6565b16600052600d6020526020604060002054604051908152f35b3461021657602036600319011261021657611302600435611d50565b1561133d576000604051611315816111ac565b5261039e604051611325816111ac565b600081526040519182916020835260208301906102ed565b7fa14c4b500000000000000000000000000000000000000000000000000000000060005260046000fd5b3461021657600036600319011261021657602060405160648152f35b3461021657604036600319011261021657602060ff6113d96113a3610497565b6001600160a01b036113b36104ad565b9116600052600784526040600020906001600160a01b0316600052602052604060002090565b54166040519015158152f35b90600182811c92168015611415575b60208310146113ff57565b634e487b7160e01b600052602260045260246000fd5b91607f16916113f4565b90604051918260008254611432816113e5565b908184526020946001916001811690816000146114a05750600114611461575b5050506111f7925003836111c8565b600090815285812095935091905b8183106114885750506111f79350820101388080611452565b8554888401850152948501948794509183019161146f565b925050506111f794925060ff191682840152151560051b820101388080611452565b3461021657602036600319011261021657600435600052600c60205261152760406000206114ef8161141f565b906114fc6001820161141f565b60028201549161153560ff60046003840154930154169260405196879660a0885260a08801906102ed565b9086820360208801526102ed565b9260408501526060840152151560808301520390f35b3461021657602036600319011261021657611564610497565b61156c611ff8565b6001600160a01b038091169081156115c6576009548273ffffffffffffffffffffffffffffffffffffffff19821617600955167f8be0079c531659141344cd1fd0a4f28419497f9722a3daafe3b4186f6b6457e0600080a3005b60246040517f1e4fbdf700000000000000000000000000000000000000000000000000000000815260006004820152fd5b91909161160382611e4c565b926001600160a01b0380921693848382160361179f57600084815260066020526040902080546116426001600160a01b03881633908114908314171590565b611756575b61174c575b5061166a856001600160a01b03166000526005602052604060002090565b805460001901905561168f826001600160a01b03166000526005602052604060002090565b805460010190556001600160a01b0382164260a01b17600160e11b176116bf856000526004602052604060002090565b55600160e11b811615611702575b501680927fddf252ad1be2c89b69c2b068fc378daa952ba7f163c4a11628f55a4df523b3ef600080a4156116fd57565b611e11565b6001840161171a816000526004602052604060002090565b5415611727575b506116cd565b600054811461172157611744906000526004602052604060002090565b553880611721565b600090553861164c565b61179561066a6106633361177d8b6001600160a01b03166000526007602052604060002090565b906001600160a01b0316600052602052604060002090565b1561164757611de7565b611dbd565b156117ab57565b606460405162461bcd60e51b815260206004820152601760248201527f506c61796c69737420646f6573206e6f742065786973740000000000000000006044820152fd5b156117f657565b606460405162461bcd60e51b815260206004820152601f60248201527f416c726561647920766f74656420666f72207468697320706c61796c697374006044820152fd5b1561184157565b606460405162461bcd60e51b815260206004820152601460248201527f506c61796c69737420697320696e6163746976650000000000000000000000006044820152fd5b634e487b7160e01b600052601160045260246000fd5b90600582018092116118a957565b611885565b6001600160a01b031680156118d857600052600560205267ffffffffffffffff6040600020541690565b7f8f4eb6040000000000000000000000000000000000000000000000000000000060005260046000fd5b67ffffffffffffffff81116111a75760051b60200190565b604051906080820182811067ffffffffffffffff8211176111a75760405260006060838281528260208201528260408201520152565b80518210156119645760209160051b010190565b634e487b7160e01b600052603260045260246000fd5b1561198157565b606460405162461bcd60e51b815260206004820152601d60248201527f52657075746174696f6e20616c7265616479206174206d696e696d756d0000006044820152fd5b9081602091031261021657516fffffffffffffffffffffffffffffffff811681036102165790565b6040513d6000823e3d90fd5b15611a0057565b606460405162461bcd60e51b815260206004820152600f60248201527f4e6f7420656e6f756768206665657300000000000000000000000000000000006044820152fd5b90816020910312610216575161033e816107e6565b90601f8111611a6757505050565b6000916000526020600020906020601f850160051c83019410611aa5575b601f0160051c01915b828110611a9a57505050565b818155600101611a8e565b9092508290611a85565b919091825167ffffffffffffffff81116111a757611ad781611ad184546113e5565b84611a59565b602080601f8311600114611b1a57508190611b0b939495600092611b0f575b50508160011b916000199060031b1c19161790565b9055565b015190503880611af6565b90601f19831695611b3085600052602060002090565b926000905b888210611b6d57505083600195969710611b54575b505050811b019055565b015160001960f88460031b161c19169055388080611b4a565b80600185968294968601518155019501930190611b35565b919091825192835167ffffffffffffffff81116111a757611bb081611baa85546113e5565b85611a59565b602080601f8311600114611c305750600492611bee83611c1d946080946111f7999a600092611b0f5750508160011b916000199060031b1c19161790565b85555b611c02602082015160018701611aaf565b60408101516002860155606081015160038601550151151590565b91019060ff801983541691151516179055565b90601f19831696611c4686600052602060002090565b926000905b898210611c945750508360809360049693600193611c1d976111f79b9c10611c7b575b505050811b018555611bf1565b015160001960f88460031b161c19169055388080611c6e565b80600185968294968601518155019501930190611c4b565b908060209392818452848401376000828201840152601f01601f1916010190565b9290611ce69061033e9593604086526040860191611cac565b926020818503910152611cac565b929190611d028282866115f7565b803b611d0f575b50505050565b611d18936120d9565b15611d265738808080611d09565b7fd1a57ed60000000000000000000000000000000000000000000000000000000060005260046000fd5b90600091600080548210611d62575050565b92505b8083526004602052604083205480611d87575080156118a95760001901611d65565b600160e01b1615925050565b7f2e0763000000000000000000000000000000000000000000000000000000000060005260046000fd5b7fa11481000000000000000000000000000000000000000000000000000000000060005260046000fd5b7f59c896be0000000000000000000000000000000000000000000000000000000060005260046000fd5b7fea553b340000000000000000000000000000000000000000000000000000000060005260046000fd5b636f96cda160e11b60005260046000fd5b611e60816000526004602052604060002090565b54908115611e775750600160e01b8116611e3b5790565b9050600090600054811015611e3b575b60001901600081815260046020526040902054908115611ec25750600160e01b811615611ebd57600482636f96cda160e11b8152fd5b905090565b9050611e87565b919082039182116118a957565b9067ffffffffffffffff8216600052600d602052604060002054918215611fb45782611f3a92601e6064611f16600097600052600c602052604060002090565b920610611f3d575b505067ffffffffffffffff16600052600d602052604060002090565b55565b611f968160027f7a497b48779931a19dd3c9f9f85ea0edf18e2ed7f9e0478ed1fcd451fd9d56b39301908154600a81048091118914611fa057611f8291508254611ec9565b81555b546040519081529081906020820190565b0390a23880611f1e565b50878255600401805460ff19169055611f85565b606460405162461bcd60e51b815260206004820152601160248201527f52657175657374206e6f7420666f756e640000000000000000000000000000006044820152fd5b6001600160a01b0360095416330361200c57565b60246040517f118cdaa7000000000000000000000000000000000000000000000000000000008152336004820152fd5b61204461191a565b50600052600460205260406000205461205b61191a565b906001600160a01b038116825267ffffffffffffffff8160a01c166020830152600160e01b81161515604083015260e81c606082015290565b90816020910312610216575161033e816101ec565b3d156120d4573d906120ba826111f9565b916120c860405193846111c8565b82523d6000602084013e565b606090565b9260209161213c9360006001600160a01b03604051809781968295847f150b7a02000000000000000000000000000000000000000000000000000000009c8d865233600487015216602485015260448401526080606484015260848301906102ed565b0393165af160009181612191575b5061216b576121576120a9565b80511561216657805190602001fd5b611d26565b7fffffffff00000000000000000000000000000000000000000000000000000000161490565b6121b491925060203d6020116121bb575b6121ac81836111c8565b810190612094565b903861214a565b503d6121a256fea2646970667358221220649ab3cc62c09364c79c73543aa7b741fe67ac724ca30a13292c9240418700c164736f6c63430008180033",
  "linkReferences": {},
  "deployedLinkReferences": {}
}