{
  "_format": "hh-sol-artifact-1",
  "contractName": "RandomSeed",
  "sourceName": "contracts/RandomSeed.sol",
  "abi": [
    {
      "inputs": [
        {
          "internalType": "address",
          "name": "entropyAddress",
          "type": "address"
        }
      ],
      "stateMutability": "nonpayable",
      "type": "constructor"
    },
    {
      "anonymous": false,
      "inputs": [
        {
          "indexed": false,
          "internalType": "bytes32",
          "name": "seed",
          "type": "bytes32"
        }
      ],
      "name": "RandomSeedGenerated",
      "type": "event"
    },
    {
      "inputs": [
        {
          "internalType": "uint64",
          "name": "sequence",
          "type": "uint64"
        },
        {
          "internalType": "address",
          "name": "provider",
          "type": "address"
        },
        {
          "internalType": "bytes32",
          "name": "randomNumber",
          "type": "bytes32"
        }
      ],
      "name": "_entropyCallback",
      "outputs": [],
      "stateMutability": "nonpayable",
      "type": "function"
    },
    {
      "inputs": [],
      "name": "currentSeed",
      "outputs": [
        {
          "internalType": "bytes32",
          "name": "",
          "type": "bytes32"
        }
      ],
      "stateMutability": "view",
      "type": "function"
    },
    {
      "inputs": [],
      "name": "entropy",
      "outputs": [
        {
          "internalType": "contract IEntropyV2",
          "name": "",
          "type": "address"
        }
      ],
      "stateMutability": "view",
      "type": "function"
    },
    {
      "inputs": [],
      "name": "requestRandomSeed",
      "outputs": [],
      "stateMutability": "payable",
      "type": "function"
    }
  ],
  "bytecode": "0x60803461007457601f61049e38819003918201601f19168301916001600160401b038311848410176100795780849260209460405283398101031261007457516001600160a01b0381169081900361007457600080546001600160a01b03191691909117905560405161040e90816100908239f35b600080fd5b634e487b7160e01b600052604160045260246000fdfe608060408181526004908136101561001657600080fd5b600092833560e01c90816347ce07cc146103575750806352a5f1f81461021e57806383220626146101ff5763e1da26c61461005057600080fd5b826003193601126101fb5773ffffffffffffffffffffffffffffffffffffffff835416908051917f8204b67a00000000000000000000000000000000000000000000000000000000835260209283818681855afa80156101f1578690610197575b6fffffffffffffffffffffffffffffffff91501693843410610155579083918351809681937f7b43155d0000000000000000000000000000000000000000000000000000000083525af190811561014c575061010b578280f35b81813d8311610145575b61011f8183610387565b81010312610141575167ffffffffffffffff81160361013e5738808280f35b80fd5b5080fd5b503d610115565b513d85823e3d90fd5b6064908484519162461bcd60e51b8352820152601060248201527f496e73756666696369656e7420666565000000000000000000000000000000006044820152fd5b508381813d83116101ea575b6101ad8183610387565b810103126101e657516fffffffffffffffffffffffffffffffff811681036101e6576fffffffffffffffffffffffffffffffff906100b1565b8580fd5b503d6101a3565b83513d88823e3d90fd5b8280fd5b8382346101415781600319360112610141576020906001549051908152f35b50346101fb5760603660031901126101fb57813567ffffffffffffffff8116036101fb5773ffffffffffffffffffffffffffffffffffffffff9160243583811603610353576044359284541680156103105733036102a85750816020917fc600f4f27b95655ff15fbda8c260832f9b9f6523c218ffcfaa2afda37ad563909360015551908152a180f35b6020608492519162461bcd60e51b8352820152602360248201527f4f6e6c7920456e74726f70792063616e2063616c6c20746869732066756e637460448201527f696f6e00000000000000000000000000000000000000000000000000000000006064820152fd5b506020606492519162461bcd60e51b8352820152601760248201527f456e74726f70792061646472657373206e6f74207365740000000000000000006044820152fd5b8380fd5b84903461014157816003193601126101415773ffffffffffffffffffffffffffffffffffffffff60209254168152f35b90601f8019910116810190811067ffffffffffffffff8211176103a957604052565b7f4e487b7100000000000000000000000000000000000000000000000000000000600052604160045260246000fdfea264697066735822122040148961cbcee2b836102c073a7110e4e3b136bd516b7c37267477a91d1b03b064736f6c63430008180033",
  "linkReferences": {},
  "deployedLinkReferences": {}
}