{"abi":[{"type":"constructor","inputs":[{"name":"_usdcToken","type":"address","internalType":"address"},{"name":"_pythIntegration","type":"address","internalType":"address"},{"name":"_ticketPrice","type":"uint256","internalType":"uint256"}],"stateMutability":"nonpayable"},{"type":"receive","stateMutability":"payable"},{"type":"function","name":"FIRST_PAYMENT_MONTHS","inputs":[],"outputs":[{"name":"","type":"uint256","internalType":"uint256"}],"stateMutability":"view"},{"type":"function","name":"JACKPOT_PERCENTAGE","inputs":[],"outputs":[{"name":"","type":"uint256","internalType":"uint256"}],"stateMutability":"view"},{"type":"function","name":"PERCENTAGE_DIVISOR","inputs":[],"outputs":[{"name":"","type":"uint256","internalType":"uint256"}],"stateMutability":"view"},{"type":"function","name":"REFERRAL_PERCENTAGE","inputs":[],"outputs":[{"name":"","type":"uint256","internalType":"uint256"}],"stateMutability":"view"},{"type":"function","name":"SECONDS_PER_DAY","inputs":[],"outputs":[{"name":"","type":"uint256","internalType":"uint256"}],"stateMutability":"view"},{"type":"function","name":"TOTAL_VESTING_MONTHS","inputs":[],"outputs":[{"name":"","type":"uint256","internalType":"uint256"}],"stateMutability":"view"},{"type":"function","name":"_entropyCallback","inputs":[{"name":"sequence","type":"uint64","internalType":"uint64"},{"name":"provider","type":"address","internalType":"address"},{"name":"randomNumber","type":"bytes32","internalType":"bytes32"}],"outputs":[],"stateMutability":"nonpayable"},{"type":"function","name":"buyTicket","inputs":[{"name":"amount","type":"uint256","internalType":"uint256"},{"name":"referrer","type":"address","internalType":"address"}],"outputs":[],"stateMutability":"nonpayable"},{"type":"function","name":"currentDay","inputs":[],"outputs":[{"name":"","type":"uint256","internalType":"uint256"}],"stateMutability":"view"},{"type":"function","name":"currentDayStart","inputs":[],"outputs":[{"name":"","type":"uint256","internalType":"uint256"}],"stateMutability":"view"},{"type":"function","name":"currentDayTickets","inputs":[{"name":"","type":"uint256","internalType":"uint256"}],"outputs":[{"name":"","type":"address","internalType":"address"}],"stateMutability":"view"},{"type":"function","name":"currentJackpot","inputs":[],"outputs":[{"name":"","type":"uint256","internalType":"uint256"}],"stateMutability":"view"},{"type":"function","name":"dayDrawn","inputs":[{"name":"","type":"uint256","internalType":"uint256"}],"outputs":[{"name":"","type":"bool","internalType":"bool"}],"stateMutability":"view"},{"type":"function","name":"dayWinners","inputs":[{"name":"","type":"uint256","internalType":"uint256"}],"outputs":[{"name":"","type":"address","internalType":"address"}],"stateMutability":"view"},{"type":"function","name":"emergencyWithdraw","inputs":[{"name":"token","type":"address","internalType":"address"},{"name":"to","type":"address","internalType":"address"},{"name":"amount","type":"uint256","internalType":"uint256"}],"outputs":[],"stateMutability":"nonpayable"},{"type":"function","name":"getCurrentDayInfo","inputs":[],"outputs":[{"name":"_currentDay","type":"uint256","internalType":"uint256"},{"name":"_jackpot","type":"uint256","internalType":"uint256"},{"name":"_ticketCount","type":"uint256","internalType":"uint256"},{"name":"_startTime","type":"uint256","internalType":"uint256"}],"stateMutability":"view"},{"type":"function","name":"getWinner","inputs":[{"name":"day","type":"uint256","internalType":"uint256"}],"outputs":[{"name":"winner","type":"address","internalType":"address"}],"stateMutability":"view"},{"type":"function","name":"owner","inputs":[],"outputs":[{"name":"","type":"address","internalType":"address"}],"stateMutability":"view"},{"type":"function","name":"pythIntegration","inputs":[],"outputs":[{"name":"","type":"address","internalType":"contract PythIntegration"}],"stateMutability":"view"},{"type":"function","name":"renounceOwnership","inputs":[],"outputs":[],"stateMutability":"nonpayable"},{"type":"function","name":"requestDrawWinner","inputs":[],"outputs":[],"stateMutability":"payable"},{"type":"function","name":"sequenceProcessed","inputs":[{"name":"","type":"uint64","internalType":"uint64"}],"outputs":[{"name":"","type":"bool","internalType":"bool"}],"stateMutability":"view"},{"type":"function","name":"sequenceToDay","inputs":[{"name":"","type":"uint64","internalType":"uint64"}],"outputs":[{"name":"","type":"uint256","internalType":"uint256"}],"stateMutability":"view"},{"type":"function","name":"setTicketPrice","inputs":[{"name":"newPrice","type":"uint256","internalType":"uint256"}],"outputs":[],"stateMutability":"nonpayable"},{"type":"function","name":"setVestingContract","inputs":[{"name":"_vestingContract","type":"address","internalType":"address"}],"outputs":[],"stateMutability":"nonpayable"},{"type":"function","name":"ticketPrice","inputs":[],"outputs":[{"name":"","type":"uint256","internalType":"uint256"}],"stateMutability":"view"},{"type":"function","name":"transferOwnership","inputs":[{"name":"newOwner","type":"address","internalType":"address"}],"outputs":[],"stateMutability":"nonpayable"},{"type":"function","name":"usdcToken","inputs":[],"outputs":[{"name":"","type":"address","internalType":"contract IERC20"}],"stateMutability":"view"},{"type":"function","name":"vestingContract","inputs":[],"outputs":[{"name":"","type":"address","internalType":"contract MegaYieldVesting"}],"stateMutability":"view"},{"type":"function","name":"withdrawETH","inputs":[{"name":"to","type":"address","internalType":"address payable"}],"outputs":[],"stateMutability":"nonpayable"},{"type":"event","name":"DayReset","inputs":[{"name":"newDay","type":"uint256","indexed":true,"internalType":"uint256"},{"name":"newJackpot","type":"uint256","indexed":false,"internalType":"uint256"}],"anonymous":false},{"type":"event","name":"FirstPaymentClaimed","inputs":[{"name":"winner","type":"address","indexed":true,"internalType":"address"},{"name":"amount","type":"uint256","indexed":false,"internalType":"uint256"}],"anonymous":false},{"type":"event","name":"OwnershipTransferred","inputs":[{"name":"previousOwner","type":"address","indexed":true,"internalType":"address"},{"name":"newOwner","type":"address","indexed":true,"internalType":"address"}],"anonymous":false},{"type":"event","name":"RandomNumberRequested","inputs":[{"name":"sequenceNumber","type":"uint64","indexed":true,"internalType":"uint64"},{"name":"day","type":"uint256","indexed":true,"internalType":"uint256"}],"anonymous":false},{"type":"event","name":"TicketPurchased","inputs":[{"name":"buyer","type":"address","indexed":true,"internalType":"address"},{"name":"amount","type":"uint256","indexed":false,"internalType":"uint256"},{"name":"referrer","type":"address","indexed":true,"internalType":"address"}],"anonymous":false},{"type":"event","name":"VestingInitialized","inputs":[{"name":"winner","type":"address","indexed":true,"internalType":"address"},{"name":"vestingAmount","type":"uint256","indexed":false,"internalType":"uint256"}],"anonymous":false},{"type":"event","name":"WinnerDrawn","inputs":[{"name":"day","type":"uint256","indexed":true,"internalType":"uint256"},{"name":"winner","type":"address","indexed":true,"internalType":"address"},{"name":"jackpotAmount","type":"uint256","indexed":false,"internalType":"uint256"}],"anonymous":false},{"type":"error","name":"OwnableInvalidOwner","inputs":[{"name":"owner","type":"address","internalType":"address"}]},{"type":"error","name":"OwnableUnauthorizedAccount","inputs":[{"name":"account","type":"address","internalType":"address"}]},{"type":"error","name":"ReentrancyGuardReentrantCall","inputs":[]},{"type":"error","name":"SafeERC20FailedOperation","inputs":[{"name":"token","type":"address","internalType":"address"}]}],"bytecode":{"object":"0x60c0346200026257601f6200190a38819003918201601f191683019291906001600160401b0384118385101762000266578160609284926040968752833981010312620002625762000051816200027a565b908262000061602083016200027a565b9101519133156200024b575f8054336001600160a01b03198216811783558651946001600160a01b0394909385939192918416907f8be0079c531659141344cd1fd0a4f28419497f9722a3daafe3b4186f6b6457e09080a360017f9b779b17422d0df92223018b32b4d1fa46e071723d6817e2486d003becc55f005516928315620001fa5750169081156200019c578215620001495760805260a052600255620151804204600855426004555161167a908162000290823960805181818161092501528181610f8b0152611484015260a05181818161039601528181610c8d01526110020152f35b835162461bcd60e51b815260206004820152602660248201527f4d6567615969656c644c6f74746572793a20696e76616c6964207469636b657460448201526520707269636560d01b6064820152608490fd5b835162461bcd60e51b815260206004820152603160248201527f4d6567615969656c644c6f74746572793a20696e76616c69642050797468496e604482015270746567726174696f6e206164647265737360781b6064820152608490fd5b62461bcd60e51b815260206004820152602660248201527f4d6567615969656c644c6f74746572793a20696e76616c69642055534443206160448201526564647265737360d01b6064820152608490fd5b8351631e4fbdf760e01b81525f6004820152602490fd5b5f80fd5b634e487b7160e01b5f52604160045260245ffd5b51906001600160a01b0382168203620002625756fe6080604090808252600480361015610021575b505050361561001f575f80fd5b005b5f3560e01c918263022f841e14610ff0575081630bddc26214610fd55781630c2e05e014610fba57816311eac85514610f775781631209b1f614610f595781631598165014610edc5781633061bbea14610e9f5781634129b2c91461088e578163469966f714610e7357816352a5f1f814610c4b5781635a4d30cd14610c2f5781635c9302c914610c115781635e6f604514610be957816362a845ec146108bd5781636434f2db1461088e578163690d83201461082c578163699c2f7d146107ec578163715018a614610795578163749915691461069357816374f0314f14610676578163871b39ca146103595781638da5cb5b14610332578163a6858ee614610317578163aae031d6146102fc578163c6ba6a8d146102c5578163caf29765146102aa578163df9267ea14610272578163e63ea40814610227578163f2fde38b1461019a575063f9cee0bd14610179578080610012565b34610196575f366003190112610196576020906003549051908152f35b5f80fd5b905034610196576020366003190112610196576101b561105e565b906101be6111cd565b6001600160a01b039182169283156102115750505f54826bffffffffffffffffffffffff60a01b8216175f55167f8be0079c531659141344cd1fd0a4f28419497f9722a3daafe3b4186f6b6457e05f80a3005b905f6024925191631e4fbdf760e01b8352820152fd5b346101965760603660031901126101965761001f61024361105e565b61024b611048565b6102536111cd565b6001600160a01b0361026882821615156110eb565b6044359216611326565b82346101965760203660031901126101965760209067ffffffffffffffff610298611031565b165f5260098252805f20549051908152f35b8234610196575f366003190112610196576020905160648152f35b905034610196575f366003190112610196576080916008549160035491600554915492815194855260208501528301526060820152f35b8234610196575f366003190112610196576020905160018152f35b8234610196575f366003190112610196576020905160468152f35b8234610196575f366003190112610196575f5490516001600160a01b039091168152602090f35b90505f36600319011261019657620151804204906008548211610668575b8251630f98d06f60e41b8152602092906001600160a01b0390848185817f000000000000000000000000000000000000000000000000000000000000000086165afa90811561065e57849286915f9361062f575b50650da475abf0008034105f1461062157506001600160801b038034165b1693849389519485938492637b43155d60e01b8452165af15f91816105e1575b50610551575050503d5f1461054a573d67ffffffffffffffff81116105375783519061043e601f8201601f191685018361116b565b81523d5f8483013e5b8051156104cf576104c18460449495519061049f60358389810196740283cba34103932b8bab2b9ba103330b4b632b21d1605d1b885261048f815180928d86860191016111ac565b810103601581018552018361116b565b5195869462461bcd60e51b8652850152518092816024860152858501906111ac565b601f01601f19168101030190fd5b50915162461bcd60e51b815291820152603e60248201527f507974682072657175657374206661696c65643a20756e6b6e6f776e2065727260448201527f6f722028706f737369626c79205250432072617465206c696d697465642900006064820152608490fd5b604182634e487b7160e01b5f525260245ffd5b6060610447565b84918691908034116105aa575b5067ffffffffffffffff600a911692835f526009815284835f2055525f2060ff1981541690557fda3248a3a7f3ff7de8a4a54af699a8e14619e5fecd2feab66333fb4f31d98e1d5f80a3005b5f80806105b88194346110bd565b8181156105d8575b3390f1156105ce578461055e565b50513d5f823e3d90fd5b506108fc6105c0565b9091508581813d831161061a575b6105f9818361116b565b81010312610196575167ffffffffffffffff8116810361019657905f610409565b503d6105ef565b6001600160801b03906103e9565b610650919350823d8411610657575b610648818361116b565b81019061118d565b915f6103cb565b503d61063e565b86513d5f823e3d90fd5b61067182611289565b610377565b8234610196575f3660031901126101965760209051620151808152f35b905034610196576020366003190112610196576106ae61105e565b906106b76111cd565b6001600160a01b0391821692831561073f576001549283166106e55750506001600160a01b03191617600155005b906020608492519162461bcd60e51b8352820152602e60248201527f4d6567615969656c644c6f74746572793a2076657374696e6720636f6e74726160448201526d18dd08185b1c9958591e481cd95d60921b6064820152fd5b906020608492519162461bcd60e51b8352820152602a60248201527f4d6567615969656c644c6f74746572793a20696e76616c69642076657374696e60448201526919c818dbdb9d1c9858dd60b21b6064820152fd5b34610196575f366003190112610196576107ad6111cd565b5f80546001600160a01b0319811682556001600160a01b03167f8be0079c531659141344cd1fd0a4f28419497f9722a3daafe3b4186f6b6457e08280a3005b90503461019657602036600319011261019657359060055482101561019657610816602092611074565b905491519160018060a01b039160031b1c168152f35b90503461019657602036600319011261019657356001600160a01b03811690819003610196575f8080809361085f6111cd565b61086a8115156110eb565b4790828215610885575bf11561087c57005b513d5f823e3d90fd5b506108fc610874565b823461019657602036600319011261019657602091355f526006825260018060a01b03815f2054169051908152f35b823461019657806003193601126101965781356108d8611048565b916108e16111f8565b8115610b8f576001805490946001600160a01b0391821615610b39576201518042046008548111610b2a575b506002549084820291808304861490151715610b17577f00000000000000000000000000000000000000000000000000000000000000009584516323b872dd60e01b5f52338352306024528360445260205f606481808c5af1895f5114811615610af9575b8187525f60605215610ae357506046830283810460461484151715610ad057606461099f910480946110bd565b6109ad6003946003546110de565b91826003558581169889151580610ac6575b15610ab3576109ce9350611326565b5f809288600554945b858110610a88575b50505015610a39575b505050519081527f1da04c1b02057648c0a5ab384b68f07d8bd1eef9ef1917857ee32c1f2f022c8f60203392a37f9b779b17422d0df92223018b32b4d1fa46e071723d6817e2486d003becc55f0055005b68010000000000000000821015610a7557508086610a5a9201600555611074565b819291549060031b9133831b921b19161790558480806109e8565b604190634e487b7160e01b5f525260245ffd5b86610a9282611074565b905490851b1c163314610aa7570189906109d7565b509150508888816109df565b5050610abe916110de565b6003556109ce565b50338a14156109bf565b601183634e487b7160e01b5f525260245ffd5b635274afe760e01b815287851683820152602490fd5b89811516610b0e57883b15153d151616610972565b503d5f823e3d90fd5b601190634e487b7160e01b5f525260245ffd5b610b3390611289565b8661090d565b608490602084519162461bcd60e51b8352820152602a60248201527f4d6567615969656c644c6f74746572793a2076657374696e6720636f6e74726160448201526918dd081b9bdd081cd95d60b21b6064820152fd5b5162461bcd60e51b8152602081850152602f60248201527f4d6567615969656c644c6f74746572793a20616d6f756e74206d75737420626560448201526e02067726561746572207468616e203608c1b6064820152608490fd5b8234610196575f3660031901126101965760015490516001600160a01b039091168152602090f35b8234610196575f366003190112610196576020906008549051908152f35b8234610196575f36600319011261019657602091549051908152f35b823461019657606036600319011261019657610c65611031565b610c6d611048565b508151630f98d06f60e41b8152602093906001600160a01b0390858184817f000000000000000000000000000000000000000000000000000000000000000086165afa908115610e69575f91610e4c575b50168015610e09573303610dba575067ffffffffffffffff165f52600a8252805f20805460ff811615610daa575b505060098252805f20908154918215610d99575b50600554151580610d8e575b15610d4e5750610d289150610d1f6111f8565b604435906113a4565b60017f9b779b17422d0df92223018b32b4d1fa46e071723d6817e2486d003becc55f0055005b5f927f9c1e776cbdf221420917b223eb09503e61c8e990a1c09065cbf15bdff06a555e9183855260078252808520600160ff1982541617905551848152a3005b506003541515610d0c565b915062015180420480925583610d00565b60ff191660011790558280610cec565b825162461bcd60e51b8152908101849052602360248201527f4f6e6c7920456e74726f70792063616e2063616c6c20746869732066756e637460448201526234b7b760e91b6064820152608490fd5b835162461bcd60e51b8152808301869052601760248201527f456e74726f70792061646472657373206e6f74207365740000000000000000006044820152606490fd5b610e639150863d881161065757610648818361116b565b86610cbe565b85513d5f823e3d90fd5b823461019657602036600319011261019657602091355f526007825260ff815f20541690519015158152f35b82346101965760203660031901126101965760209067ffffffffffffffff610ec5611031565b165f52600a825260ff815f20541690519015158152f35b90503461019657602036600319011261019657803591610efa6111cd565b8215610f07576002839055005b906020608492519162461bcd60e51b8352820152602660248201527f4d6567615969656c644c6f74746572793a20696e76616c6964207469636b657460448201526520707269636560d01b6064820152fd5b8234610196575f366003190112610196576020906002549051908152f35b8234610196575f36600319011261019657517f00000000000000000000000000000000000000000000000000000000000000006001600160a01b03168152602090f35b8234610196575f3660031901126101965760209051601e8152f35b8234610196575f366003190112610196576020905160788152f35b34610196575f366003190112610196577f00000000000000000000000000000000000000000000000000000000000000006001600160a01b03168152602090f35b6004359067ffffffffffffffff8216820361019657565b602435906001600160a01b038216820361019657565b600435906001600160a01b038216820361019657565b6005548110156110a95760055f527f036b6384b5eca791c62761152d0c79bb0604c104a5fb6f4eb0703f3154bb3db001905f90565b634e487b7160e01b5f52603260045260245ffd5b919082039182116110ca57565b634e487b7160e01b5f52601160045260245ffd5b919082018092116110ca57565b156110f257565b60405162461bcd60e51b815260206004820152602360248201527f4d6567615969656c644c6f74746572793a20696e76616c696420726563697069604482015262195b9d60ea1b6064820152608490fd5b67ffffffffffffffff811161115757604052565b634e487b7160e01b5f52604160045260245ffd5b90601f8019910116810190811067ffffffffffffffff82111761115757604052565b9081602091031261019657516001600160a01b03811681036101965790565b5f5b8381106111bd5750505f910152565b81810151838201526020016111ae565b5f546001600160a01b031633036111e057565b60405163118cdaa760e01b8152336004820152602490fd5b7f9b779b17422d0df92223018b32b4d1fa46e071723d6817e2486d003becc55f0060028154146112285760029055565b604051633ee5aeb560e01b8152600490fd5b6005545f600555806112495750565b60055f527f036b6384b5eca791c62761152d0c79bb0604c104a5fb6f4eb0703f3154bb3db0908101905b81811061127e575050565b5f8155600101611273565b60035415158061130d575b156112d957807f7fdc1a45cb7572dc339c78f23539c91d447b9e68212492b486ed8352935494bc6020600354604051908152a25b6112d061123a565b60085542600455565b5f600355807f7fdc1a45cb7572dc339c78f23539c91d447b9e68212492b486ed8352935494bc60206040515f8152a26112c8565b506008545f52600760205260ff60405f20541615611294565b60405163a9059cbb60e01b5f9081526001600160a01b039384166004526024949094529260209060448180855af160015f5114811615611385575b836040521561136f57505050565b635274afe760e01b835216600482015260249150fd5b600181151661139b57813b15153d151616611361565b833d5f823e3d90fd5b9190915f90604090815191829160055480855283602080960160055f527f036b6384b5eca791c62761152d0c79bb0604c104a5fb6f4eb0703f3154bb3db0925f5b88828210611625575050506113fc9250038461116b565b600354968351156115de5783519081156115ca570683518110156110a9578460018060a01b0394859260051b0101511694815f5260078552825f20600160ff1982541617905560068552825f20866bffffffffffffffffffffffff60a01b825416179055878004600114881517156110ca57607888049361147d858a6110bd565b906114b9827f00000000000000000000000000000000000000000000000000000000000000006114ae898c83611326565b836001541690611326565b8060015416803b15610196575f809160648b89519485938492633d0d630f60e11b845260048401528860248401528c60448401525af1801561065e576115b7575b506001541690813b156115b3578291602483928751948593849262d1fa5b60e71b845260048401525af161159c575b50907f9c1e776cbdf221420917b223eb09503e61c8e990a1c09065cbf15bdff06a555e858798997fca5c1b8a7b2ee0e77bd3780cfe2037472acfefa0dedc4e9b907517184abdb6999894600854851461158b575b508551908152a351908152a2565b60035561159661123a565b5f61157d565b6115a68291611143565b6115b0575f611529565b80fd5b8280fd5b6115c2919350611143565b5f915f6114fa565b634e487b7160e01b5f52601260045260245ffd5b505f809697508195507f9c1e776cbdf221420917b223eb09503e61c8e990a1c09065cbf15bdff06a555e9493505260078252808520600160ff1982541617905551848152a3565b85546001600160a01b03168452600195860195899550930192016113e556fea2646970667358221220402a3bf0cbeaaeedb8066cb63fed53e9c397327503e527ab72f46292cfe46cba64736f6c63430008180033","linkReferences":{}},"methodIdentifiers":{"FIRST_PAYMENT_MONTHS()":"aae031d6","JACKPOT_PERCENTAGE()":"a6858ee6","PERCENTAGE_DIVISOR()":"caf29765","REFERRAL_PERCENTAGE()":"0c2e05e0","SECONDS_PER_DAY()":"74f0314f","TOTAL_VESTING_MONTHS()":"0bddc262","_entropyCallback(uint64,address,bytes32)":"52a5f1f8","buyTicket(uint256,address)":"62a845ec","currentDay()":"5c9302c9","currentDayStart()":"5a4d30cd","currentDayTickets(uint256)":"699c2f7d","currentJackpot()":"f9cee0bd","dayDrawn(uint256)":"469966f7","dayWinners(uint256)":"6434f2db","emergencyWithdraw(address,address,uint256)":"e63ea408","getCurrentDayInfo()":"c6ba6a8d","getWinner(uint256)":"4129b2c9","owner()":"8da5cb5b","pythIntegration()":"022f841e","renounceOwnership()":"715018a6","requestDrawWinner()":"871b39ca","sequenceProcessed(uint64)":"3061bbea","sequenceToDay(uint64)":"df9267ea","setTicketPrice(uint256)":"15981650","setVestingContract(address)":"74991569","ticketPrice()":"1209b1f6","transferOwnership(address)":"f2fde38b","usdcToken()":"11eac855","vestingContract()":"5e6f6045","withdrawETH(address)":"690d8320"},"id":34}