{"abi":[{"type":"constructor","inputs":[{"name":"_entropy","type":"address","internalType":"address"}],"stateMutability":"nonpayable"},{"type":"function","name":"_entropyCallback","inputs":[{"name":"sequence","type":"uint64","internalType":"uint64"},{"name":"provider","type":"address","internalType":"address"},{"name":"randomNumber","type":"bytes32","internalType":"bytes32"}],"outputs":[],"stateMutability":"nonpayable"},{"type":"function","name":"beasts","inputs":[{"name":"","type":"uint256","internalType":"uint256"}],"outputs":[{"name":"tokenId","type":"uint256","internalType":"uint256"},{"name":"strength","type":"uint256","internalType":"uint256"},{"name":"intelligence","type":"uint256","internalType":"uint256"}],"stateMutability":"view"},{"type":"function","name":"getBeast","inputs":[{"name":"tokenId","type":"uint256","internalType":"uint256"}],"outputs":[{"name":"","type":"tuple","internalType":"struct EntropyBeasts.Beast","components":[{"name":"tokenId","type":"uint256","internalType":"uint256"},{"name":"strength","type":"uint256","internalType":"uint256"},{"name":"intelligence","type":"uint256","internalType":"uint256"}]}],"stateMutability":"view"},{"type":"function","name":"getFee","inputs":[{"name":"gasLimit","type":"uint32","internalType":"uint32"}],"outputs":[{"name":"","type":"uint256","internalType":"uint256"}],"stateMutability":"view"},{"type":"function","name":"mintBeast","inputs":[{"name":"gasLimit","type":"uint32","internalType":"uint32"},{"name":"isBig","type":"bool","internalType":"bool"}],"outputs":[{"name":"","type":"uint256","internalType":"uint256"}],"stateMutability":"payable"},{"type":"function","name":"mintSmallBeast","inputs":[{"name":"gasLimit","type":"uint32","internalType":"uint32"}],"outputs":[{"name":"","type":"uint256","internalType":"uint256"}],"stateMutability":"payable"},{"type":"function","name":"pendingIsBig","inputs":[{"name":"","type":"uint64","internalType":"uint64"}],"outputs":[{"name":"","type":"bool","internalType":"bool"}],"stateMutability":"view"},{"type":"function","name":"pendingMints","inputs":[{"name":"","type":"uint64","internalType":"uint64"}],"outputs":[{"name":"","type":"uint256","internalType":"uint256"}],"stateMutability":"view"},{"type":"function","name":"provider","inputs":[],"outputs":[{"name":"","type":"address","internalType":"address"}],"stateMutability":"view"},{"type":"function","name":"totalSupply","inputs":[],"outputs":[{"name":"","type":"uint256","internalType":"uint256"}],"stateMutability":"view"},{"type":"event","name":"BeastMinted","inputs":[{"name":"tokenId","type":"uint256","indexed":true,"internalType":"uint256"},{"name":"strength","type":"uint256","indexed":false,"internalType":"uint256"},{"name":"intelligence","type":"uint256","indexed":false,"internalType":"uint256"},{"name":"gasUsed","type":"uint32","indexed":false,"internalType":"uint32"}],"anonymous":false}],"bytecode":{"object":"0x608060405234801561000f575f5ffd5b5060405161176a38038061176a833981810160405281019061003191906101a0565b805f5f6101000a81548173ffffffffffffffffffffffffffffffffffffffff021916908373ffffffffffffffffffffffffffffffffffffffff1602179055505f5f9054906101000a900473ffffffffffffffffffffffffffffffffffffffff1673ffffffffffffffffffffffffffffffffffffffff166382ee990c6040518163ffffffff1660e01b8152600401602060405180830381865afa1580156100d9573d5f5f3e3d5ffd5b505050506040513d601f19601f820116820180604052508101906100fd91906101a0565b60035f6101000a81548173ffffffffffffffffffffffffffffffffffffffff021916908373ffffffffffffffffffffffffffffffffffffffff160217905550506101cb565b5f5ffd5b5f73ffffffffffffffffffffffffffffffffffffffff82169050919050565b5f61016f82610146565b9050919050565b61017f81610165565b8114610189575f5ffd5b50565b5f8151905061019a81610176565b92915050565b5f602082840312156101b5576101b4610142565b5b5f6101c28482850161018c565b91505092915050565b611592806101d85f395ff3fe608060405260043610610090575f3560e01c806397b6d7121161005857806397b6d7121461017c578063bcda2a76146101ba578063c0b603dc146101f6578063cb7e64dd14610232578063fcc8bfa21461026e57610090565b8063085d48831461009457806318160ddd146100be57806324f95e2a146100e857806352a5f1f8146101245780636e5bcf2b1461014c575b5f5ffd5b34801561009f575f5ffd5b506100a861029e565b6040516100b59190610ca0565b60405180910390f35b3480156100c9575f5ffd5b506100d26102c3565b6040516100df9190610cd1565b60405180910390f35b3480156100f3575f5ffd5b5061010e60048036038101906101099190610d2b565b6102c9565b60405161011b9190610d70565b60405180910390f35b34801561012f575f5ffd5b5061014a60048036038101906101459190610de6565b6102e6565b005b61016660048036038101906101619190610e6f565b6103de565b6040516101739190610cd1565b60405180910390f35b348015610187575f5ffd5b506101a2600480360381019061019d9190610ec4565b6105b9565b6040516101b193929190610eef565b60405180910390f35b3480156101c5575f5ffd5b506101e060048036038101906101db9190610e6f565b6105df565b6040516101ed9190610cd1565b60405180910390f35b348015610201575f5ffd5b5061021c60048036038101906102179190610ec4565b610691565b6040516102299190610f73565b60405180910390f35b34801561023d575f5ffd5b5061025860048036038101906102539190610d2b565b61072e565b6040516102659190610cd1565b60405180910390f35b61028860048036038101906102839190610fb6565b610743565b6040516102959190610cd1565b60405180910390f35b60035f9054906101000a900473ffffffffffffffffffffffffffffffffffffffff1681565b60045481565b6005602052805f5260405f205f915054906101000a900460ff1681565b5f6102ef61095b565b90505f73ffffffffffffffffffffffffffffffffffffffff168173ffffffffffffffffffffffffffffffffffffffff160361035f576040517f08c379a00000000000000000000000000000000000000000000000000000000081526004016103569061104e565b60405180910390fd5b8073ffffffffffffffffffffffffffffffffffffffff163373ffffffffffffffffffffffffffffffffffffffff16146103cd576040517f08c379a00000000000000000000000000000000000000000000000000000000081526004016103c4906110dc565b60405180910390fd5b6103d8848484610982565b50505050565b5f5f5f5f9054906101000a900473ffffffffffffffffffffffffffffffffffffffff1673ffffffffffffffffffffffffffffffffffffffff1663ca1642e1846040518263ffffffff1660e01b81526004016104399190611109565b602060405180830381865afa158015610454573d5f5f3e3d5ffd5b505050506040513d601f19601f820116820180604052508101906104789190611167565b6fffffffffffffffffffffffffffffffff169050803410156104cf576040517f08c379a00000000000000000000000000000000000000000000000000000000081526004016104c6906111dc565b60405180910390fd5b5f60045f81546104de90611227565b91905081905590505f5f5f9054906101000a900473ffffffffffffffffffffffffffffffffffffffff1673ffffffffffffffffffffffffffffffffffffffff16630bed189f84876040518363ffffffff1660e01b81526004016105419190611109565b60206040518083038185885af115801561055d573d5f5f3e3d5ffd5b50505050506040513d601f19601f820116820180604052508101906105829190611282565b90508160025f8367ffffffffffffffff1667ffffffffffffffff1681526020019081526020015f2081905550819350505050919050565b6001602052805f5260405f205f91509050805f0154908060010154908060020154905083565b5f5f5f9054906101000a900473ffffffffffffffffffffffffffffffffffffffff1673ffffffffffffffffffffffffffffffffffffffff1663ca1642e1836040518263ffffffff1660e01b81526004016106399190611109565b602060405180830381865afa158015610654573d5f5f3e3d5ffd5b505050506040513d601f19601f820116820180604052508101906106789190611167565b6fffffffffffffffffffffffffffffffff169050919050565b610699610c43565b5f60015f8481526020019081526020015f205f0154036106ee576040517f08c379a00000000000000000000000000000000000000000000000000000000081526004016106e5906112f7565b60405180910390fd5b60015f8381526020019081526020015f206040518060600160405290815f8201548152602001600182015481526020016002820154815250509050919050565b6002602052805f5260405f205f915090505481565b5f5f5f5f9054906101000a900473ffffffffffffffffffffffffffffffffffffffff1673ffffffffffffffffffffffffffffffffffffffff1663ca1642e1856040518263ffffffff1660e01b815260040161079e9190611109565b602060405180830381865afa1580156107b9573d5f5f3e3d5ffd5b505050506040513d601f19601f820116820180604052508101906107dd9190611167565b6fffffffffffffffffffffffffffffffff16905080341015610834576040517f08c379a000000000000000000000000000000000000000000000000000000000815260040161082b906111dc565b60405180910390fd5b5f60045f815461084390611227565b91905081905590505f5f5f9054906101000a900473ffffffffffffffffffffffffffffffffffffffff1673ffffffffffffffffffffffffffffffffffffffff16630bed189f84886040518363ffffffff1660e01b81526004016108a69190611109565b60206040518083038185885af11580156108c2573d5f5f3e3d5ffd5b50505050506040513d601f19601f820116820180604052508101906108e79190611282565b90508160025f8367ffffffffffffffff1667ffffffffffffffff1681526020019081526020015f20819055508460055f8367ffffffffffffffff1667ffffffffffffffff1681526020019081526020015f205f6101000a81548160ff02191690831515021790555081935050505092915050565b5f5f5f9054906101000a900473ffffffffffffffffffffffffffffffffffffffff16905090565b5f60025f8567ffffffffffffffff1667ffffffffffffffff1681526020019081526020015f205490505f81036109ed576040517f08c379a00000000000000000000000000000000000000000000000000000000081526004016109e49061135f565b60405180910390fd5b5f825f1c90505f6001606483610a0391906113aa565b610a0d91906113da565b90505f60016064846001604051602001610a2892919061145b565b604051602081830303815290604052805190602001205f1c610a4a91906113aa565b610a5491906113da565b905060405180606001604052808581526020018381526020018281525060015f8681526020019081526020015f205f820151815f0155602082015181600101556040820151816002015590505060055f8867ffffffffffffffff1667ffffffffffffffff1681526020019081526020015f205f9054906101000a900460ff1615610b9d575f6103e867ffffffffffffffff811115610af557610af4611482565b5b604051908082528060200260200182016040528015610b235781602001602082028036833780820191505090505b5090505f5f90505b6103e8811015610b9a57620f42408186604051602001610b4c9291906114cf565b604051602081830303815290604052805190602001205f1c610b6e91906113aa565b828281518110610b8157610b806114fa565b5b6020026020010181815250508080600101915050610b2b565b50505b60025f8867ffffffffffffffff1667ffffffffffffffff1681526020019081526020015f205f905560055f8867ffffffffffffffff1667ffffffffffffffff1681526020019081526020015f205f6101000a81549060ff02191690555f5a9050847fb0609894a6327cfa6588749b58e3c94822eb8dabe54fef3d1eaf6c3ff5b77c11848484604051610c3193929190611527565b60405180910390a25050505050505050565b60405180606001604052805f81526020015f81526020015f81525090565b5f73ffffffffffffffffffffffffffffffffffffffff82169050919050565b5f610c8a82610c61565b9050919050565b610c9a81610c80565b82525050565b5f602082019050610cb35f830184610c91565b92915050565b5f819050919050565b610ccb81610cb9565b82525050565b5f602082019050610ce45f830184610cc2565b92915050565b5f5ffd5b5f67ffffffffffffffff82169050919050565b610d0a81610cee565b8114610d14575f5ffd5b50565b5f81359050610d2581610d01565b92915050565b5f60208284031215610d4057610d3f610cea565b5b5f610d4d84828501610d17565b91505092915050565b5f8115159050919050565b610d6a81610d56565b82525050565b5f602082019050610d835f830184610d61565b92915050565b610d9281610c80565b8114610d9c575f5ffd5b50565b5f81359050610dad81610d89565b92915050565b5f819050919050565b610dc581610db3565b8114610dcf575f5ffd5b50565b5f81359050610de081610dbc565b92915050565b5f5f5f60608486031215610dfd57610dfc610cea565b5b5f610e0a86828701610d17565b9350506020610e1b86828701610d9f565b9250506040610e2c86828701610dd2565b9150509250925092565b5f63ffffffff82169050919050565b610e4e81610e36565b8114610e58575f5ffd5b50565b5f81359050610e6981610e45565b92915050565b5f60208284031215610e8457610e83610cea565b5b5f610e9184828501610e5b565b91505092915050565b610ea381610cb9565b8114610ead575f5ffd5b50565b5f81359050610ebe81610e9a565b92915050565b5f60208284031215610ed957610ed8610cea565b5b5f610ee684828501610eb0565b91505092915050565b5f606082019050610f025f830186610cc2565b610f0f6020830185610cc2565b610f1c6040830184610cc2565b949350505050565b610f2d81610cb9565b82525050565b606082015f820151610f475f850182610f24565b506020820151610f5a6020850182610f24565b506040820151610f6d6040850182610f24565b50505050565b5f606082019050610f865f830184610f33565b92915050565b610f9581610d56565b8114610f9f575f5ffd5b50565b5f81359050610fb081610f8c565b92915050565b5f5f60408385031215610fcc57610fcb610cea565b5b5f610fd985828601610e5b565b9250506020610fea85828601610fa2565b9150509250929050565b5f82825260208201905092915050565b7f456e74726f70792061646472657373206e6f74207365740000000000000000005f82015250565b5f611038601783610ff4565b915061104382611004565b602082019050919050565b5f6020820190508181035f8301526110658161102c565b9050919050565b7f4f6e6c7920456e74726f70792063616e2063616c6c20746869732066756e63745f8201527f696f6e0000000000000000000000000000000000000000000000000000000000602082015250565b5f6110c6602383610ff4565b91506110d18261106c565b604082019050919050565b5f6020820190508181035f8301526110f3816110ba565b9050919050565b61110381610e36565b82525050565b5f60208201905061111c5f8301846110fa565b92915050565b5f6fffffffffffffffffffffffffffffffff82169050919050565b61114681611122565b8114611150575f5ffd5b50565b5f815190506111618161113d565b92915050565b5f6020828403121561117c5761117b610cea565b5b5f61118984828501611153565b91505092915050565b7f496e73756666696369656e7420666565000000000000000000000000000000005f82015250565b5f6111c6601083610ff4565b91506111d182611192565b602082019050919050565b5f6020820190508181035f8301526111f3816111ba565b9050919050565b7f4e487b71000000000000000000000000000000000000000000000000000000005f52601160045260245ffd5b5f61123182610cb9565b91507fffffffffffffffffffffffffffffffffffffffffffffffffffffffffffffffff8203611263576112626111fa565b5b600182019050919050565b5f8151905061127c81610d01565b92915050565b5f6020828403121561129757611296610cea565b5b5f6112a48482850161126e565b91505092915050565b7f4265617374206e6f7420666f756e6400000000000000000000000000000000005f82015250565b5f6112e1600f83610ff4565b91506112ec826112ad565b602082019050919050565b5f6020820190508181035f83015261130e816112d5565b9050919050565b7f496e76616c69642073657175656e6365206e756d6265720000000000000000005f82015250565b5f611349601783610ff4565b915061135482611315565b602082019050919050565b5f6020820190508181035f8301526113768161133d565b9050919050565b7f4e487b71000000000000000000000000000000000000000000000000000000005f52601260045260245ffd5b5f6113b482610cb9565b91506113bf83610cb9565b9250826113cf576113ce61137d565b5b828206905092915050565b5f6113e482610cb9565b91506113ef83610cb9565b9250828201905080821115611407576114066111fa565b5b92915050565b5f819050919050565b5f60ff82169050919050565b5f819050919050565b5f61144561144061143b8461140d565b611422565b611416565b9050919050565b6114558161142b565b82525050565b5f60408201905061146e5f830185610cc2565b61147b602083018461144c565b9392505050565b7f4e487b71000000000000000000000000000000000000000000000000000000005f52604160045260245ffd5b5f819050919050565b6114c96114c482610cb9565b6114af565b82525050565b5f6114da82856114b8565b6020820191506114ea82846114b8565b6020820191508190509392505050565b7f4e487b71000000000000000000000000000000000000000000000000000000005f52603260045260245ffd5b5f60608201905061153a5f830186610cc2565b6115476020830185610cc2565b61155460408301846110fa565b94935050505056fea2646970667358221220d89ace21661480f0658c322e8753bf15917792c11f112ab14773a4f346a25d5964736f6c634300081d0033","linkReferences":{}},"methodIdentifiers":{"_entropyCallback(uint64,address,bytes32)":"52a5f1f8","beasts(uint256)":"97b6d712","getBeast(uint256)":"c0b603dc","getFee(uint32)":"bcda2a76","mintBeast(uint32,bool)":"fcc8bfa2","mintSmallBeast(uint32)":"6e5bcf2b","pendingIsBig(uint64)":"24f95e2a","pendingMints(uint64)":"cb7e64dd","provider()":"085d4883","totalSupply()":"18160ddd"},"id":6}