{"abi":[{"type":"constructor","inputs":[{"name":"_entropy","type":"address","internalType":"address"}],"stateMutability":"nonpayable"},{"type":"function","name":"_entropyCallback","inputs":[{"name":"sequence","type":"uint64","internalType":"uint64"},{"name":"provider","type":"address","internalType":"address"},{"name":"randomNumber","type":"bytes32","internalType":"bytes32"}],"outputs":[],"stateMutability":"nonpayable"},{"type":"function","name":"beasts","inputs":[{"name":"","type":"uint256","internalType":"uint256"}],"outputs":[{"name":"tokenId","type":"uint256","internalType":"uint256"},{"name":"strength","type":"uint256","internalType":"uint256"},{"name":"intelligence","type":"uint256","internalType":"uint256"}],"stateMutability":"view"},{"type":"function","name":"getBeast","inputs":[{"name":"tokenId","type":"uint256","internalType":"uint256"}],"outputs":[{"name":"","type":"tuple","internalType":"struct EntropyBeasts.Beast","components":[{"name":"tokenId","type":"uint256","internalType":"uint256"},{"name":"strength","type":"uint256","internalType":"uint256"},{"name":"intelligence","type":"uint256","internalType":"uint256"}]}],"stateMutability":"view"},{"type":"function","name":"mintBeast","inputs":[{"name":"gasLimit","type":"uint32","internalType":"uint32"},{"name":"isBig","type":"bool","internalType":"bool"}],"outputs":[{"name":"","type":"uint256","internalType":"uint256"}],"stateMutability":"payable"},{"type":"function","name":"pendingIsBig","inputs":[{"name":"","type":"uint64","internalType":"uint64"}],"outputs":[{"name":"","type":"bool","internalType":"bool"}],"stateMutability":"view"},{"type":"function","name":"pendingMints","inputs":[{"name":"","type":"uint64","internalType":"uint64"}],"outputs":[{"name":"","type":"uint256","internalType":"uint256"}],"stateMutability":"view"},{"type":"function","name":"provider","inputs":[],"outputs":[{"name":"","type":"address","internalType":"address"}],"stateMutability":"view"},{"type":"function","name":"totalSupply","inputs":[],"outputs":[{"name":"","type":"uint256","internalType":"uint256"}],"stateMutability":"view"},{"type":"event","name":"BeastMintRequested","inputs":[{"name":"tokenId","type":"uint256","indexed":true,"internalType":"uint256"},{"name":"gasLimit","type":"uint32","indexed":false,"internalType":"uint32"},{"name":"isBig","type":"bool","indexed":false,"internalType":"bool"},{"name":"sequenceNumber","type":"uint64","indexed":false,"internalType":"uint64"}],"anonymous":false},{"type":"event","name":"BeastMinted","inputs":[{"name":"tokenId","type":"uint256","indexed":true,"internalType":"uint256"},{"name":"strength","type":"uint256","indexed":false,"internalType":"uint256"},{"name":"intelligence","type":"uint256","indexed":false,"internalType":"uint256"},{"name":"gasUsed","type":"uint32","indexed":false,"internalType":"uint32"}],"anonymous":false}],"bytecode":{"object":"0x608060405234801561000f575f5ffd5b506040516114b03803806114b0833981810160405281019061003191906101a0565b805f5f6101000a81548173ffffffffffffffffffffffffffffffffffffffff021916908373ffffffffffffffffffffffffffffffffffffffff1602179055505f5f9054906101000a900473ffffffffffffffffffffffffffffffffffffffff1673ffffffffffffffffffffffffffffffffffffffff166382ee990c6040518163ffffffff1660e01b8152600401602060405180830381865afa1580156100d9573d5f5f3e3d5ffd5b505050506040513d601f19601f820116820180604052508101906100fd91906101a0565b60035f6101000a81548173ffffffffffffffffffffffffffffffffffffffff021916908373ffffffffffffffffffffffffffffffffffffffff160217905550506101cb565b5f5ffd5b5f73ffffffffffffffffffffffffffffffffffffffff82169050919050565b5f61016f82610146565b9050919050565b61017f81610165565b8114610189575f5ffd5b50565b5f8151905061019a81610176565b92915050565b5f602082840312156101b5576101b4610142565b5b5f6101c28482850161018c565b91505092915050565b6112d8806101d85f395ff3fe60806040526004361061007a575f3560e01c806397b6d7121161004d57806397b6d71214610136578063c0b603dc14610174578063cb7e64dd146101b0578063fcc8bfa2146101ec5761007a565b8063085d48831461007e57806318160ddd146100a857806324f95e2a146100d257806352a5f1f81461010e575b5f5ffd5b348015610089575f5ffd5b5061009261021c565b60405161009f91906109cd565b60405180910390f35b3480156100b3575f5ffd5b506100bc610241565b6040516100c991906109fe565b60405180910390f35b3480156100dd575f5ffd5b506100f860048036038101906100f39190610a58565b610247565b6040516101059190610a9d565b60405180910390f35b348015610119575f5ffd5b50610134600480360381019061012f9190610b13565b610264565b005b348015610141575f5ffd5b5061015c60048036038101906101579190610b8d565b61035c565b60405161016b93929190610bb8565b60405180910390f35b34801561017f575f5ffd5b5061019a60048036038101906101959190610b8d565b610382565b6040516101a79190610c3c565b60405180910390f35b3480156101bb575f5ffd5b506101d660048036038101906101d19190610a58565b61041f565b6040516101e391906109fe565b60405180910390f35b61020660048036038101906102019190610cb8565b610434565b60405161021391906109fe565b60405180910390f35b60035f9054906101000a900473ffffffffffffffffffffffffffffffffffffffff1681565b60045481565b6005602052805f5260405f205f915054906101000a900460ff1681565b5f61026d610688565b90505f73ffffffffffffffffffffffffffffffffffffffff168173ffffffffffffffffffffffffffffffffffffffff16036102dd576040517f08c379a00000000000000000000000000000000000000000000000000000000081526004016102d490610d50565b60405180910390fd5b8073ffffffffffffffffffffffffffffffffffffffff163373ffffffffffffffffffffffffffffffffffffffff161461034b576040517f08c379a000000000000000000000000000000000000000000000000000000000815260040161034290610dde565b60405180910390fd5b6103568484846106af565b50505050565b6001602052805f5260405f205f91509050805f0154908060010154908060020154905083565b61038a610970565b5f60015f8481526020019081526020015f205f0154036103df576040517f08c379a00000000000000000000000000000000000000000000000000000000081526004016103d690610e46565b60405180910390fd5b60015f8381526020019081526020015f206040518060600160405290815f8201548152602001600182015481526020016002820154815250509050919050565b6002602052805f5260405f205f915090505481565b5f5f5f5f9054906101000a900473ffffffffffffffffffffffffffffffffffffffff1673ffffffffffffffffffffffffffffffffffffffff1663ca1642e1856040518263ffffffff1660e01b815260040161048f9190610e73565b602060405180830381865afa1580156104aa573d5f5f3e3d5ffd5b505050506040513d601f19601f820116820180604052508101906104ce9190610ed1565b6fffffffffffffffffffffffffffffffff16905080341015610525576040517f08c379a000000000000000000000000000000000000000000000000000000000815260040161051c90610f46565b60405180910390fd5b5f60045f815461053490610f91565b91905081905590505f5f5f9054906101000a900473ffffffffffffffffffffffffffffffffffffffff1673ffffffffffffffffffffffffffffffffffffffff16630bed189f84886040518363ffffffff1660e01b81526004016105979190610e73565b60206040518083038185885af11580156105b3573d5f5f3e3d5ffd5b50505050506040513d601f19601f820116820180604052508101906105d89190610fec565b90508160025f8367ffffffffffffffff1667ffffffffffffffff1681526020019081526020015f20819055508460055f8367ffffffffffffffff1667ffffffffffffffff1681526020019081526020015f205f6101000a81548160ff021916908315150217905550817f9a0a81bc2e7849f360dd94e7c5141e0b492021710e826369dbc1d5f55c9b746887878460405161067493929190611026565b60405180910390a281935050505092915050565b5f5f5f9054906101000a900473ffffffffffffffffffffffffffffffffffffffff16905090565b5f60025f8567ffffffffffffffff1667ffffffffffffffff1681526020019081526020015f205490505f810361071a576040517f08c379a0000000000000000000000000000000000000000000000000000000008152600401610711906110a5565b60405180910390fd5b5f825f1c90505f600160648361073091906110f0565b61073a9190611120565b90505f600160648460016040516020016107559291906111a1565b604051602081830303815290604052805190602001205f1c61077791906110f0565b6107819190611120565b905060405180606001604052808581526020018381526020018281525060015f8681526020019081526020015f205f820151815f0155602082015181600101556040820151816002015590505060055f8867ffffffffffffffff1667ffffffffffffffff1681526020019081526020015f205f9054906101000a900460ff16156108ca575f6103e867ffffffffffffffff811115610822576108216111c8565b5b6040519080825280602002602001820160405280156108505781602001602082028036833780820191505090505b5090505f5f90505b6103e88110156108c757620f42408186604051602001610879929190611215565b604051602081830303815290604052805190602001205f1c61089b91906110f0565b8282815181106108ae576108ad611240565b5b6020026020010181815250508080600101915050610858565b50505b60025f8867ffffffffffffffff1667ffffffffffffffff1681526020019081526020015f205f905560055f8867ffffffffffffffff1667ffffffffffffffff1681526020019081526020015f205f6101000a81549060ff02191690555f5a9050847fb0609894a6327cfa6588749b58e3c94822eb8dabe54fef3d1eaf6c3ff5b77c1184848460405161095e9392919061126d565b60405180910390a25050505050505050565b60405180606001604052805f81526020015f81526020015f81525090565b5f73ffffffffffffffffffffffffffffffffffffffff82169050919050565b5f6109b78261098e565b9050919050565b6109c7816109ad565b82525050565b5f6020820190506109e05f8301846109be565b92915050565b5f819050919050565b6109f8816109e6565b82525050565b5f602082019050610a115f8301846109ef565b92915050565b5f5ffd5b5f67ffffffffffffffff82169050919050565b610a3781610a1b565b8114610a41575f5ffd5b50565b5f81359050610a5281610a2e565b92915050565b5f60208284031215610a6d57610a6c610a17565b5b5f610a7a84828501610a44565b91505092915050565b5f8115159050919050565b610a9781610a83565b82525050565b5f602082019050610ab05f830184610a8e565b92915050565b610abf816109ad565b8114610ac9575f5ffd5b50565b5f81359050610ada81610ab6565b92915050565b5f819050919050565b610af281610ae0565b8114610afc575f5ffd5b50565b5f81359050610b0d81610ae9565b92915050565b5f5f5f60608486031215610b2a57610b29610a17565b5b5f610b3786828701610a44565b9350506020610b4886828701610acc565b9250506040610b5986828701610aff565b9150509250925092565b610b6c816109e6565b8114610b76575f5ffd5b50565b5f81359050610b8781610b63565b92915050565b5f60208284031215610ba257610ba1610a17565b5b5f610baf84828501610b79565b91505092915050565b5f606082019050610bcb5f8301866109ef565b610bd860208301856109ef565b610be560408301846109ef565b949350505050565b610bf6816109e6565b82525050565b606082015f820151610c105f850182610bed565b506020820151610c236020850182610bed565b506040820151610c366040850182610bed565b50505050565b5f606082019050610c4f5f830184610bfc565b92915050565b5f63ffffffff82169050919050565b610c6d81610c55565b8114610c77575f5ffd5b50565b5f81359050610c8881610c64565b92915050565b610c9781610a83565b8114610ca1575f5ffd5b50565b5f81359050610cb281610c8e565b92915050565b5f5f60408385031215610cce57610ccd610a17565b5b5f610cdb85828601610c7a565b9250506020610cec85828601610ca4565b9150509250929050565b5f82825260208201905092915050565b7f456e74726f70792061646472657373206e6f74207365740000000000000000005f82015250565b5f610d3a601783610cf6565b9150610d4582610d06565b602082019050919050565b5f6020820190508181035f830152610d6781610d2e565b9050919050565b7f4f6e6c7920456e74726f70792063616e2063616c6c20746869732066756e63745f8201527f696f6e0000000000000000000000000000000000000000000000000000000000602082015250565b5f610dc8602383610cf6565b9150610dd382610d6e565b604082019050919050565b5f6020820190508181035f830152610df581610dbc565b9050919050565b7f4265617374206e6f7420666f756e6400000000000000000000000000000000005f82015250565b5f610e30600f83610cf6565b9150610e3b82610dfc565b602082019050919050565b5f6020820190508181035f830152610e5d81610e24565b9050919050565b610e6d81610c55565b82525050565b5f602082019050610e865f830184610e64565b92915050565b5f6fffffffffffffffffffffffffffffffff82169050919050565b610eb081610e8c565b8114610eba575f5ffd5b50565b5f81519050610ecb81610ea7565b92915050565b5f60208284031215610ee657610ee5610a17565b5b5f610ef384828501610ebd565b91505092915050565b7f496e73756666696369656e7420666565000000000000000000000000000000005f82015250565b5f610f30601083610cf6565b9150610f3b82610efc565b602082019050919050565b5f6020820190508181035f830152610f5d81610f24565b9050919050565b7f4e487b71000000000000000000000000000000000000000000000000000000005f52601160045260245ffd5b5f610f9b826109e6565b91507fffffffffffffffffffffffffffffffffffffffffffffffffffffffffffffffff8203610fcd57610fcc610f64565b5b600182019050919050565b5f81519050610fe681610a2e565b92915050565b5f6020828403121561100157611000610a17565b5b5f61100e84828501610fd8565b91505092915050565b61102081610a1b565b82525050565b5f6060820190506110395f830186610e64565b6110466020830185610a8e565b6110536040830184611017565b949350505050565b7f496e76616c69642073657175656e6365206e756d6265720000000000000000005f82015250565b5f61108f601783610cf6565b915061109a8261105b565b602082019050919050565b5f6020820190508181035f8301526110bc81611083565b9050919050565b7f4e487b71000000000000000000000000000000000000000000000000000000005f52601260045260245ffd5b5f6110fa826109e6565b9150611105836109e6565b925082611115576111146110c3565b5b828206905092915050565b5f61112a826109e6565b9150611135836109e6565b925082820190508082111561114d5761114c610f64565b5b92915050565b5f819050919050565b5f60ff82169050919050565b5f819050919050565b5f61118b61118661118184611153565b611168565b61115c565b9050919050565b61119b81611171565b82525050565b5f6040820190506111b45f8301856109ef565b6111c16020830184611192565b9392505050565b7f4e487b71000000000000000000000000000000000000000000000000000000005f52604160045260245ffd5b5f819050919050565b61120f61120a826109e6565b6111f5565b82525050565b5f61122082856111fe565b60208201915061123082846111fe565b6020820191508190509392505050565b7f4e487b71000000000000000000000000000000000000000000000000000000005f52603260045260245ffd5b5f6060820190506112805f8301866109ef565b61128d60208301856109ef565b61129a6040830184610e64565b94935050505056fea264697066735822122058c8bd00b92634443f9d1379d5ee259d262d8449cc2be221e007f5d0bf8c4f6464736f6c634300081d0033","linkReferences":{}},"methodIdentifiers":{"_entropyCallback(uint64,address,bytes32)":"52a5f1f8","beasts(uint256)":"97b6d712","getBeast(uint256)":"c0b603dc","mintBeast(uint32,bool)":"fcc8bfa2","pendingIsBig(uint64)":"24f95e2a","pendingMints(uint64)":"cb7e64dd","provider()":"085d4883","totalSupply()":"18160ddd"},"id":22}