{"contracts/Betting.sol":{"FriendsGroupBets":{"abi":[{"anonymous":false,"inputs":[{"indexed":true,"internalType":"uint256","name":"id","type":"uint256"},{"indexed":true,"internalType":"address","name":"user","type":"address"},{"indexed":false,"internalType":"uint256","name":"outcome","type":"uint256"},{"indexed":false,"internalType":"uint256","name":"amt","type":"uint256"}],"name":"BetPlaced","type":"event"},{"anonymous":false,"inputs":[{"indexed":true,"internalType":"uint256","name":"id","type":"uint256"},{"indexed":false,"internalType":"bool","name":"forced","type":"bool"}],"name":"MarketCancelled","type":"event"},{"anonymous":false,"inputs":[{"indexed":true,"internalType":"uint256","name":"id","type":"uint256"},{"indexed":false,"internalType":"bytes32","name":"metadataHash","type":"bytes32"}],"name":"MarketCreated","type":"event"},{"anonymous":false,"inputs":[{"indexed":true,"internalType":"uint256","name":"id","type":"uint256"},{"indexed":false,"internalType":"uint8","name":"outcome","type":"uint8"},{"indexed":false,"internalType":"bool","name":"forced","type":"bool"}],"name":"MarketResolved","type":"event"},{"anonymous":false,"inputs":[{"indexed":true,"internalType":"uint256","name":"id","type":"uint256"},{"indexed":true,"internalType":"address","name":"user","type":"address"},{"indexed":false,"internalType":"bool","name":"cancelVote","type":"bool"}],"name":"VoteCancel","type":"event"},{"anonymous":false,"inputs":[{"indexed":true,"internalType":"uint256","name":"id","type":"uint256"},{"indexed":true,"internalType":"address","name":"user","type":"address"},{"indexed":false,"internalType":"uint8","name":"outcome","type":"uint8"}],"name":"VoteOutcome","type":"event"},{"anonymous":false,"inputs":[{"indexed":true,"internalType":"uint256","name":"id","type":"uint256"},{"indexed":true,"internalType":"address","name":"user","type":"address"},{"indexed":false,"internalType":"uint256","name":"amount","type":"uint256"}],"name":"Withdrawal","type":"event"},{"inputs":[{"internalType":"bytes32","name":"metadataHash","type":"bytes32"},{"internalType":"uint64","name":"deadline","type":"uint64"},{"internalType":"address","name":"resolverAddr","type":"address"},{"internalType":"uint256","name":"shareSize","type":"uint256"},{"internalType":"address[]","name":"targetList","type":"address[]"},{"internalType":"uint256","name":"outcomesCount","type":"uint256"}],"name":"createMarket","outputs":[{"internalType":"uint256","name":"id","type":"uint256"}],"stateMutability":"nonpayable","type":"function"},{"inputs":[{"internalType":"uint256","name":"","type":"uint256"},{"internalType":"address","name":"","type":"address"}],"name":"hasWithdrawn","outputs":[{"internalType":"bool","name":"","type":"bool"}],"stateMutability":"view","type":"function"},{"inputs":[{"internalType":"uint256","name":"","type":"uint256"},{"internalType":"address","name":"","type":"address"}],"name":"isParticipant","outputs":[{"internalType":"bool","name":"","type":"bool"}],"stateMutability":"view","type":"function"},{"inputs":[{"internalType":"uint256","name":"","type":"uint256"},{"internalType":"address","name":"","type":"address"}],"name":"isTarget","outputs":[{"internalType":"bool","name":"","type":"bool"}],"stateMutability":"view","type":"function"},{"inputs":[{"internalType":"uint256","name":"","type":"uint256"}],"name":"markets","outputs":[{"internalType":"uint256","name":"id","type":"uint256"},{"internalType":"address","name":"creator","type":"address"},{"internalType":"address","name":"resolver","type":"address"},{"internalType":"bytes32","name":"metadataHash","type":"bytes32"},{"internalType":"uint64","name":"deadline","type":"uint64"},{"internalType":"uint256","name":"shareSize","type":"uint256"},{"internalType":"bool","name":"resolved","type":"bool"},{"internalType":"bool","name":"cancelled","type":"bool"},{"internalType":"uint8","name":"winningOutcome","type":"uint8"}],"stateMutability":"view","type":"function"},{"inputs":[],"name":"nextMarketId","outputs":[{"internalType":"uint256","name":"","type":"uint256"}],"stateMutability":"view","type":"function"},{"inputs":[{"internalType":"uint256","name":"id","type":"uint256"},{"internalType":"uint256","name":"outcome","type":"uint256"}],"name":"placeBet","outputs":[],"stateMutability":"payable","type":"function"},{"inputs":[{"internalType":"uint256","name":"","type":"uint256"},{"internalType":"address","name":"","type":"address"},{"internalType":"uint256","name":"","type":"uint256"}],"name":"stakes","outputs":[{"internalType":"uint256","name":"","type":"uint256"}],"stateMutability":"view","type":"function"},{"inputs":[{"internalType":"uint256","name":"id","type":"uint256"}],"name":"systemCancel","outputs":[],"stateMutability":"nonpayable","type":"function"},{"inputs":[{"internalType":"uint256","name":"id","type":"uint256"},{"internalType":"uint8","name":"outcome","type":"uint8"},{"internalType":"bytes32","name":"metadataHash","type":"bytes32"}],"name":"systemResolve","outputs":[],"stateMutability":"nonpayable","type":"function"},{"inputs":[{"internalType":"uint256","name":"","type":"uint256"},{"internalType":"address","name":"","type":"address"}],"name":"voteCancel","outputs":[{"internalType":"bool","name":"","type":"bool"}],"stateMutability":"view","type":"function"},{"inputs":[{"internalType":"uint256","name":"","type":"uint256"},{"internalType":"address","name":"","type":"address"}],"name":"voteOutcome","outputs":[{"internalType":"uint8","name":"","type":"uint8"}],"stateMutability":"view","type":"function"},{"inputs":[{"internalType":"uint256","name":"id","type":"uint256"},{"internalType":"uint8","name":"outcome","type":"uint8"}],"name":"voteResolve","outputs":[],"stateMutability":"nonpayable","type":"function"},{"inputs":[{"internalType":"uint256","name":"id","type":"uint256"},{"internalType":"bool","name":"v","type":"bool"}],"name":"voteToCancel","outputs":[],"stateMutability":"nonpayable","type":"function"},{"inputs":[{"internalType":"uint256","name":"id","type":"uint256"}],"name":"withdraw","outputs":[],"stateMutability":"nonpayable","type":"function"}],"evm":{"bytecode":{"linkReferences":{},"object":"608060405234801561001057600080fd5b506130a3806100206000396000f3fe6080604052600436106100e85760003560e01c806355a2bf911161008a578063b1283e7711610059578063b1283e771461031d578063b1427ac114610362578063f36130ab1461039f578063f65eb997146103c8576100e8565b806355a2bf911461023d57806355c1bd1014610266578063758d9b89146102a357806394cec7a7146102e0576100e8565b8063406ef2ef116100c6578063406ef2ef1461017c57806348f06b75146101a75780634afe62b5146101e457806353d3632414610200576100e8565b80630faff2d8146100ed5780631915c9381461012a5780632e1a7d4d14610153575b600080fd5b3480156100f957600080fd5b50610114600480360381019061010f9190612148565b6103f1565b60405161012191906121a3565b60405180910390f35b34801561013657600080fd5b50610151600480360381019061014c91906121f7565b610420565b005b34801561015f57600080fd5b5061017a60048036038101906101759190612237565b610653565b005b34801561018857600080fd5b50610191610b8d565b60405161019e9190612273565b60405180910390f35b3480156101b357600080fd5b506101ce60048036038101906101c99190612148565b610b93565b6040516101db919061229d565b60405180910390f35b6101fe60048036038101906101f991906122b8565b610bc2565b005b34801561020c57600080fd5b50610227600480360381019061022291906124c7565b6111aa565b6040516102349190612273565b60405180910390f35b34801561024957600080fd5b50610264600480360381019061025f919061259c565b611542565b005b34801561027257600080fd5b5061028d60048036038101906102889190612148565b611728565b60405161029a91906121a3565b60405180910390f35b3480156102af57600080fd5b506102ca60048036038101906102c59190612148565b611757565b6040516102d791906121a3565b60405180910390f35b3480156102ec57600080fd5b5061030760048036038101906103029190612148565b611786565b60405161031491906121a3565b60405180910390f35b34801561032957600080fd5b50610344600480360381019061033f9190612237565b6117b5565b60405161035999989796959493929190612609565b60405180910390f35b34801561036e57600080fd5b5061038960048036038101906103849190612696565b61187e565b6040516103969190612273565b60405180910390f35b3480156103ab57600080fd5b506103c660048036038101906103c191906126e9565b6118bc565b005b3480156103d457600080fd5b506103ef60048036038101906103ea9190612237565b611a76565b005b60056020528160005260406000206020528060005260406000206000915091509054906101000a900460ff1681565b60006001600084815260200190815260200160002090506004600084815260200190815260200160002060003373ffffffffffffffffffffffffffffffffffffffff1673ffffffffffffffffffffffffffffffffffffffff16815260200190815260200160002060009054906101000a900460ff166104d4576040517f08c379a00000000000000000000000000000000000000000000000000000000081526004016104cb90612799565b60405180910390fd5b8060060160009054906101000a900460ff1615801561050257508060060160019054906101000a900460ff16155b610541576040517f08c379a000000000000000000000000000000000000000000000000000000000815260040161053890612805565b60405180910390fd5b80600901805490508260ff161061058d576040517f08c379a000000000000000000000000000000000000000000000000000000000815260040161058490612871565b60405180910390fd5b816006600085815260200190815260200160002060003373ffffffffffffffffffffffffffffffffffffffff1673ffffffffffffffffffffffffffffffffffffffff16815260200190815260200160002060006101000a81548160ff021916908360ff1602179055503373ffffffffffffffffffffffffffffffffffffffff16837f02b9dc5073d0e672405722e89d9baece3535737a0982ca5f2e744ff9cab0ed618460405161063d919061229d565b60405180910390a361064e83611b9b565b505050565b60006001600083815260200190815260200160002090508060060160009054906101000a900460ff168061069557508060060160019054906101000a900460ff165b806106c257508060040160009054906101000a900467ffffffffffffffff1667ffffffffffffffff164210155b610701576040517f08c379a00000000000000000000000000000000000000000000000000000000081526004016106f8906128dd565b60405180910390fd5b6003600083815260200190815260200160002060003373ffffffffffffffffffffffffffffffffffffffff1673ffffffffffffffffffffffffffffffffffffffff16815260200190815260200160002060009054906101000a900460ff161561079f576040517f08c379a000000000000000000000000000000000000000000000000000000000815260040161079690612949565b60405180910390fd5b8060060160009054906101000a900460ff161580156107cd57508060060160019054906101000a900460ff16155b80156107fb57508060040160009054906101000a900467ffffffffffffffff1667ffffffffffffffff164210155b1561080c5761080b826000611d43565b5b60016003600084815260200190815260200160002060003373ffffffffffffffffffffffffffffffffffffffff1673ffffffffffffffffffffffffffffffffffffffff16815260200190815260200160002060006101000a81548160ff02191690831515021790555060006002600084815260200190815260200160002060003373ffffffffffffffffffffffffffffffffffffffff1673ffffffffffffffffffffffffffffffffffffffff168152602001908152602001600020905060008260060160019054906101000a900460ff16156109355760005b828054905081101561092f5782818154811061090457610903612969565b5b90600052602060002001548261091a91906129c7565b91508080610927906129fb565b9150506108e5565b50610a71565b60008360060160029054906101000a900460ff1690506000838260ff168154811061096357610962612969565b5b906000526020600020015490506000805b86600901805490508110156109c45786600901818154811061099957610998612969565b5b9060005260206000200154826109af91906129c7565b915080806109bc906129fb565b915050610974565b506000866009018460ff16815481106109e0576109df612969565b5b9060005260206000200154905060008103610a485760005b8680549050811015610a4257868181548110610a1757610a16612969565b5b906000526020600020015486610a2d91906129c7565b95508080610a3a906129fb565b9150506109f8565b50610a6c565b6000831115610a6b57808284610a5e9190612a43565b610a689190612ab4565b94505b5b505050505b60005b8280549050811015610ab6576000838281548110610a9557610a94612969565b5b90600052602060002001819055508080610aae906129fb565b915050610a74565b506000811115610b385760003373ffffffffffffffffffffffffffffffffffffffff1682604051610ae690612b16565b60006040518083038185875af1925050503d8060008114610b23576040519150601f19603f3d011682016040523d82523d6000602084013e610b28565b606091505b5050905080610b3657600080fd5b505b3373ffffffffffffffffffffffffffffffffffffffff16847f37e8063b72a944a76de602f32b82fd8c2a1c6f99564c727ffaf913c7762cd42083604051610b7f9190612273565b60405180910390a350505050565b60005481565b60066020528160005260406000206020528060005260406000206000915091509054906101000a900460ff1681565b60006001600084815260200190815260200160002090508060060160009054906101000a900460ff16158015610c0757508060060160019054906101000a900460ff16155b610c46576040517f08c379a0000000000000000000000000000000000000000000000000000000008152600401610c3d90612b77565b60405180910390fd5b8060040160009054906101000a900467ffffffffffffffff1667ffffffffffffffff164210610caa576040517f08c379a0000000000000000000000000000000000000000000000000000000008152600401610ca190612be3565b60405180910390fd5b6005600084815260200190815260200160002060003373ffffffffffffffffffffffffffffffffffffffff1673ffffffffffffffffffffffffffffffffffffffff16815260200190815260200160002060009054906101000a900460ff1615610d48576040517f08c379a0000000000000000000000000000000000000000000000000000000008152600401610d3f90612c4f565b60405180910390fd5b80600901805490508210610d91576040517f08c379a0000000000000000000000000000000000000000000000000000000008152600401610d8890612cbb565b60405180910390fd5b600034118015610db057506000816005015434610dae9190612cdb565b145b610def576040517f08c379a0000000000000000000000000000000000000000000000000000000008152600401610de690612d58565b60405180910390fd5b6004600084815260200190815260200160002060003373ffffffffffffffffffffffffffffffffffffffff1673ffffffffffffffffffffffffffffffffffffffff16815260200190815260200160002060009054906101000a900460ff16610f8a5760016004600085815260200190815260200160002060003373ffffffffffffffffffffffffffffffffffffffff1673ffffffffffffffffffffffffffffffffffffffff16815260200190815260200160002060006101000a81548160ff02191690831515021790555080600701339080600181540180825580915050600190039060005260206000200160009091909190916101000a81548173ffffffffffffffffffffffffffffffffffffffff021916908373ffffffffffffffffffffffffffffffffffffffff16021790555060ff6006600085815260200190815260200160002060003373ffffffffffffffffffffffffffffffffffffffff1673ffffffffffffffffffffffffffffffffffffffff16815260200190815260200160002060006101000a81548160ff021916908360ff1602179055505b60006002600085815260200190815260200160002060003373ffffffffffffffffffffffffffffffffffffffff1673ffffffffffffffffffffffffffffffffffffffff168152602001908152602001600020805490500361109a57806009018054905067ffffffffffffffff81111561100657611005612384565b5b6040519080825280602002602001820160405280156110345781602001602082028036833780820191505090505b506002600085815260200190815260200160002060003373ffffffffffffffffffffffffffffffffffffffff1673ffffffffffffffffffffffffffffffffffffffff1681526020019081526020016000209080519060200190611098929190611fac565b505b348160090183815481106110b1576110b0612969565b5b9060005260206000200160008282546110ca91906129c7565b92505081905550346002600085815260200190815260200160002060003373ffffffffffffffffffffffffffffffffffffffff1673ffffffffffffffffffffffffffffffffffffffff168152602001908152602001600020838154811061113457611133612969565b5b90600052602060002001600082825461114d91906129c7565b925050819055503373ffffffffffffffffffffffffffffffffffffffff16837f1b8a9031cb9351278d70a994f81536e9e08c91162e64f92b2fe4766fb7a891b4843460405161119d929190612d78565b60405180910390a3505050565b6000428667ffffffffffffffff16116111f8576040517f08c379a00000000000000000000000000000000000000000000000000000000081526004016111ef90612ded565b60405180910390fd5b6000801b870361123d576040517f08c379a000000000000000000000000000000000000000000000000000000000815260040161123490612e59565b60405180910390fd5b60008411611280576040517f08c379a000000000000000000000000000000000000000000000000000000000815260040161127790612ec5565b60405180910390fd5b600082116112c3576040517f08c379a00000000000000000000000000000000000000000000000000000000081526004016112ba90612f31565b60405180910390fd5b6000808154809291906112d5906129fb565b9190505590506000600160008381526020019081526020016000209050818160000181905550338160010160006101000a81548173ffffffffffffffffffffffffffffffffffffffff021916908373ffffffffffffffffffffffffffffffffffffffff160217905550858160020160006101000a81548173ffffffffffffffffffffffffffffffffffffffff021916908373ffffffffffffffffffffffffffffffffffffffff160217905550878160030181905550868160040160006101000a81548167ffffffffffffffff021916908367ffffffffffffffff16021790555084816005018190555060ff8160060160026101000a81548160ff021916908360ff16021790555060008367ffffffffffffffff8111156113f8576113f7612384565b5b6040519080825280602002602001820160405280156114265781602001602082028036833780820191505090505b50905080826009019080519060200190611441929190611fac565b508482600801908051906020019061145a929190611ff9565b5060005b85518110156114fd57600160056000868152602001908152602001600020600088848151811061149157611490612969565b5b602002602001015173ffffffffffffffffffffffffffffffffffffffff1673ffffffffffffffffffffffffffffffffffffffff16815260200190815260200160002060006101000a81548160ff02191690831515021790555080806114f5906129fb565b91505061145e565b50827f0e0cce0c049093081a7ae14ed0e94f3c83fe1dbe13a98491bb10dc6e774a76808a60405161152e9190612f51565b60405180910390a250509695505050505050565b60006001600084815260200190815260200160002090506004600084815260200190815260200160002060003373ffffffffffffffffffffffffffffffffffffffff1673ffffffffffffffffffffffffffffffffffffffff16815260200190815260200160002060009054906101000a900460ff166115f6576040517f08c379a00000000000000000000000000000000000000000000000000000000081526004016115ed90612799565b60405180910390fd5b8060060160009054906101000a900460ff1615801561162457508060060160019054906101000a900460ff16155b611663576040517f08c379a000000000000000000000000000000000000000000000000000000000815260040161165a90612805565b60405180910390fd5b816007600085815260200190815260200160002060003373ffffffffffffffffffffffffffffffffffffffff1673ffffffffffffffffffffffffffffffffffffffff16815260200190815260200160002060006101000a81548160ff0219169083151502179055503373ffffffffffffffffffffffffffffffffffffffff16837f1310e9d377982d16f80d093f614bb79981ced34d220c72d1848fc4379e9267308460405161171291906121a3565b60405180910390a361172383611db4565b505050565b60076020528160005260406000206020528060005260406000206000915091509054906101000a900460ff1681565b60046020528160005260406000206020528060005260406000206000915091509054906101000a900460ff1681565b60036020528160005260406000206020528060005260406000206000915091509054906101000a900460ff1681565b60016020528060005260406000206000915090508060000154908060010160009054906101000a900473ffffffffffffffffffffffffffffffffffffffff16908060020160009054906101000a900473ffffffffffffffffffffffffffffffffffffffff16908060030154908060040160009054906101000a900467ffffffffffffffff16908060050154908060060160009054906101000a900460ff16908060060160019054906101000a900460ff16908060060160029054906101000a900460ff16905089565b600260205282600052604060002060205281600052604060002081815481106118a657600080fd5b9060005260206000200160009250925050505481565b60006001600085815260200190815260200160002090508060020160009054906101000a900473ffffffffffffffffffffffffffffffffffffffff1673ffffffffffffffffffffffffffffffffffffffff163373ffffffffffffffffffffffffffffffffffffffff1614611965576040517f08c379a000000000000000000000000000000000000000000000000000000000815260040161195c90612fb8565b60405180910390fd5b8060060160009054906101000a900460ff1615801561199357508060060160019054906101000a900460ff16155b6119d2576040517f08c379a00000000000000000000000000000000000000000000000000000000081526004016119c990612949565b60405180910390fd5b80600901805490508360ff1610611a1e576040517f08c379a0000000000000000000000000000000000000000000000000000000008152600401611a1590612cbb565b60405180910390fd5b80600301548214611a64576040517f08c379a0000000000000000000000000000000000000000000000000000000008152600401611a5b90613024565b60405180910390fd5b611a7084846001611f1b565b50505050565b60006001600083815260200190815260200160002090508060020160009054906101000a900473ffffffffffffffffffffffffffffffffffffffff1673ffffffffffffffffffffffffffffffffffffffff163373ffffffffffffffffffffffffffffffffffffffff1614611b1f576040517f08c379a0000000000000000000000000000000000000000000000000000000008152600401611b1690612fb8565b60405180910390fd5b8060060160009054906101000a900460ff16158015611b4d57508060060160019054906101000a900460ff16155b611b8c576040517f08c379a0000000000000000000000000000000000000000000000000000000008152600401611b8390612949565b60405180910390fd5b611b97826001611d43565b5050565b6000600160008381526020019081526020016000209050600060ff905060005b8260070180549050811015611d30576000836007018281548110611be257611be1612969565b5b9060005260206000200160009054906101000a900473ffffffffffffffffffffffffffffffffffffffff1690506005600086815260200190815260200160002060008273ffffffffffffffffffffffffffffffffffffffff1673ffffffffffffffffffffffffffffffffffffffff16815260200190815260200160002060009054906101000a900460ff1615611c785750611d1d565b60006006600087815260200190815260200160002060008373ffffffffffffffffffffffffffffffffffffffff1673ffffffffffffffffffffffffffffffffffffffff16815260200190815260200160002060009054906101000a900460ff16905060ff8160ff1603611cef575050505050611d40565b60ff8460ff1603611d0257809350611d1a565b8360ff168160ff1614611d19575050505050611d40565b5b50505b8080611d28906129fb565b915050611bbb565b50611d3d83826000611f1b565b50505b50565b600060016000848152602001908152602001600020905060018160060160016101000a81548160ff021916908315150217905550827f60427d9b24ee23bb5e643b4f71d1ccc669f65cb093e59c8e5d6eee31c086207c83604051611da791906121a3565b60405180910390a2505050565b600060016000838152602001908152602001600020905060005b8160070180549050811015611f0a576000826007018281548110611df557611df4612969565b5b9060005260206000200160009054906101000a900473ffffffffffffffffffffffffffffffffffffffff1690506005600085815260200190815260200160002060008273ffffffffffffffffffffffffffffffffffffffff1673ffffffffffffffffffffffffffffffffffffffff16815260200190815260200160002060009054906101000a900460ff1615611e8b5750611ef7565b6007600085815260200190815260200160002060008273ffffffffffffffffffffffffffffffffffffffff1673ffffffffffffffffffffffffffffffffffffffff16815260200190815260200160002060009054906101000a900460ff16611ef557505050611f18565b505b8080611f02906129fb565b915050611dce565b50611f16826000611d43565b505b50565b600060016000858152602001908152602001600020905060018160060160006101000a81548160ff021916908315150217905550828160060160026101000a81548160ff021916908360ff160217905550837feb81c972317adb92322af1a2faf2bef5309afe1b1537c0d196b2dfcb36b919888484604051611f9e929190613044565b60405180910390a250505050565b828054828255906000526020600020908101928215611fe8579160200282015b82811115611fe7578251825591602001919060010190611fcc565b5b509050611ff59190612083565b5090565b828054828255906000526020600020908101928215612072579160200282015b828111156120715782518260006101000a81548173ffffffffffffffffffffffffffffffffffffffff021916908373ffffffffffffffffffffffffffffffffffffffff16021790555091602001919060010190612019565b5b50905061207f9190612083565b5090565b5b8082111561209c576000816000905550600101612084565b5090565b6000604051905090565b600080fd5b600080fd5b6000819050919050565b6120c7816120b4565b81146120d257600080fd5b50565b6000813590506120e4816120be565b92915050565b600073ffffffffffffffffffffffffffffffffffffffff82169050919050565b6000612115826120ea565b9050919050565b6121258161210a565b811461213057600080fd5b50565b6000813590506121428161211c565b92915050565b6000806040838503121561215f5761215e6120aa565b5b600061216d858286016120d5565b925050602061217e85828601612133565b9150509250929050565b60008115159050919050565b61219d81612188565b82525050565b60006020820190506121b86000830184612194565b92915050565b600060ff82169050919050565b6121d4816121be565b81146121df57600080fd5b50565b6000813590506121f1816121cb565b92915050565b6000806040838503121561220e5761220d6120aa565b5b600061221c858286016120d5565b925050602061222d858286016121e2565b9150509250929050565b60006020828403121561224d5761224c6120aa565b5b600061225b848285016120d5565b91505092915050565b61226d816120b4565b82525050565b60006020820190506122886000830184612264565b92915050565b612297816121be565b82525050565b60006020820190506122b2600083018461228e565b92915050565b600080604083850312156122cf576122ce6120aa565b5b60006122dd858286016120d5565b92505060206122ee858286016120d5565b9150509250929050565b6000819050919050565b61230b816122f8565b811461231657600080fd5b50565b60008135905061232881612302565b92915050565b600067ffffffffffffffff82169050919050565b61234b8161232e565b811461235657600080fd5b50565b60008135905061236881612342565b92915050565b600080fd5b6000601f19601f8301169050919050565b7f4e487b7100000000000000000000000000000000000000000000000000000000600052604160045260246000fd5b6123bc82612373565b810181811067ffffffffffffffff821117156123db576123da612384565b5b80604052505050565b60006123ee6120a0565b90506123fa82826123b3565b919050565b600067ffffffffffffffff82111561241a57612419612384565b5b602082029050602081019050919050565b600080fd5b600061244361243e846123ff565b6123e4565b905080838252602082019050602084028301858111156124665761246561242b565b5b835b8181101561248f578061247b8882612133565b845260208401935050602081019050612468565b5050509392505050565b600082601f8301126124ae576124ad61236e565b5b81356124be848260208601612430565b91505092915050565b60008060008060008060c087890312156124e4576124e36120aa565b5b60006124f289828a01612319565b965050602061250389828a01612359565b955050604061251489828a01612133565b945050606061252589828a016120d5565b935050608087013567ffffffffffffffff811115612546576125456120af565b5b61255289828a01612499565b92505060a061256389828a016120d5565b9150509295509295509295565b61257981612188565b811461258457600080fd5b50565b60008135905061259681612570565b92915050565b600080604083850312156125b3576125b26120aa565b5b60006125c1858286016120d5565b92505060206125d285828601612587565b9150509250929050565b6125e58161210a565b82525050565b6125f4816122f8565b82525050565b6126038161232e565b82525050565b60006101208201905061261f600083018c612264565b61262c602083018b6125dc565b612639604083018a6125dc565b61264660608301896125eb565b61265360808301886125fa565b61266060a0830187612264565b61266d60c0830186612194565b61267a60e0830185612194565b61268861010083018461228e565b9a9950505050505050505050565b6000806000606084860312156126af576126ae6120aa565b5b60006126bd868287016120d5565b93505060206126ce86828701612133565b92505060406126df868287016120d5565b9150509250925092565b600080600060608486031215612702576127016120aa565b5b6000612710868287016120d5565b9350506020612721868287016121e2565b925050604061273286828701612319565b9150509250925092565b600082825260208201905092915050565b7f6e6f742070617274000000000000000000000000000000000000000000000000600082015250565b600061278360088361273c565b915061278e8261274d565b602082019050919050565b600060208201905081810360008301526127b281612776565b9050919050565b7f66696e616c000000000000000000000000000000000000000000000000000000600082015250565b60006127ef60058361273c565b91506127fa826127b9565b602082019050919050565b6000602082019050818103600083015261281e816127e2565b9050919050565b7f6261640000000000000000000000000000000000000000000000000000000000600082015250565b600061285b60038361273c565b915061286682612825565b602082019050919050565b6000602082019050818103600083015261288a8161284e565b9050919050565b7f6e6f742066696e616c0000000000000000000000000000000000000000000000600082015250565b60006128c760098361273c565b91506128d282612891565b602082019050919050565b600060208201905081810360008301526128f6816128ba565b9050919050565b7f646f6e6500000000000000000000000000000000000000000000000000000000600082015250565b600061293360048361273c565b915061293e826128fd565b602082019050919050565b6000602082019050818103600083015261296281612926565b9050919050565b7f4e487b7100000000000000000000000000000000000000000000000000000000600052603260045260246000fd5b7f4e487b7100000000000000000000000000000000000000000000000000000000600052601160045260246000fd5b60006129d2826120b4565b91506129dd836120b4565b92508282019050808211156129f5576129f4612998565b5b92915050565b6000612a06826120b4565b91507fffffffffffffffffffffffffffffffffffffffffffffffffffffffffffffffff8203612a3857612a37612998565b5b600182019050919050565b6000612a4e826120b4565b9150612a59836120b4565b9250828202612a67816120b4565b91508282048414831517612a7e57612a7d612998565b5b5092915050565b7f4e487b7100000000000000000000000000000000000000000000000000000000600052601260045260246000fd5b6000612abf826120b4565b9150612aca836120b4565b925082612ada57612ad9612a85565b5b828204905092915050565b600081905092915050565b50565b6000612b00600083612ae5565b9150612b0b82612af0565b600082019050919050565b6000612b2182612af3565b9150819050919050565b7f636c6f7365640000000000000000000000000000000000000000000000000000600082015250565b6000612b6160068361273c565b9150612b6c82612b2b565b602082019050919050565b60006020820190508181036000830152612b9081612b54565b9050919050565b7f646561646c696e65000000000000000000000000000000000000000000000000600082015250565b6000612bcd60088361273c565b9150612bd882612b97565b602082019050919050565b60006020820190508181036000830152612bfc81612bc0565b9050919050565b7f7461726765740000000000000000000000000000000000000000000000000000600082015250565b6000612c3960068361273c565b9150612c4482612c03565b602082019050919050565b60006020820190508181036000830152612c6881612c2c565b9050919050565b7f6261642069647800000000000000000000000000000000000000000000000000600082015250565b6000612ca560078361273c565b9150612cb082612c6f565b602082019050919050565b60006020820190508181036000830152612cd481612c98565b9050919050565b6000612ce6826120b4565b9150612cf1836120b4565b925082612d0157612d00612a85565b5b828206905092915050565b7f62616420616d7400000000000000000000000000000000000000000000000000600082015250565b6000612d4260078361273c565b9150612d4d82612d0c565b602082019050919050565b60006020820190508181036000830152612d7181612d35565b9050919050565b6000604082019050612d8d6000830185612264565b612d9a6020830184612264565b9392505050565b7f62616420646561646c696e650000000000000000000000000000000000000000600082015250565b6000612dd7600c8361273c565b9150612de282612da1565b602082019050919050565b60006020820190508181036000830152612e0681612dca565b9050919050565b7f6e6f206861736800000000000000000000000000000000000000000000000000600082015250565b6000612e4360078361273c565b9150612e4e82612e0d565b602082019050919050565b60006020820190508181036000830152612e7281612e36565b9050919050565b7f6261642073686172650000000000000000000000000000000000000000000000600082015250565b6000612eaf60098361273c565b9150612eba82612e79565b602082019050919050565b60006020820190508181036000830152612ede81612ea2565b9050919050565b7f6e6f206f7574636f6d6573000000000000000000000000000000000000000000600082015250565b6000612f1b600b8361273c565b9150612f2682612ee5565b602082019050919050565b60006020820190508181036000830152612f4a81612f0e565b9050919050565b6000602082019050612f6660008301846125eb565b92915050565b7f6e6f742073797300000000000000000000000000000000000000000000000000600082015250565b6000612fa260078361273c565b9150612fad82612f6c565b602082019050919050565b60006020820190508181036000830152612fd181612f95565b9050919050565b7f6261642068617368000000000000000000000000000000000000000000000000600082015250565b600061300e60088361273c565b915061301982612fd8565b602082019050919050565b6000602082019050818103600083015261303d81613001565b9050919050565b6000604082019050613059600083018561228e565b6130666020830184612194565b939250505056fea26469706673582212208ce660d007debc6a63116d2b415cc096220d8ee96ec94e3e34ea3672e4d08f0764736f6c63430008140033","opcodes":"PUSH1 0x80 PUSH1 0x40 MSTORE CALLVALUE DUP1 ISZERO PUSH2 0x10 JUMPI PUSH1 0x0 DUP1 REVERT JUMPDEST POP PUSH2 0x30A3 DUP1 PUSH2 0x20 PUSH1 0x0 CODECOPY PUSH1 0x0 RETURN INVALID PUSH1 0x80 PUSH1 0x40 MSTORE PUSH1 0x4 CALLDATASIZE LT PUSH2 0xE8 JUMPI PUSH1 0x0 CALLDATALOAD PUSH1 0xE0 SHR DUP1 PUSH4 0x55A2BF91 GT PUSH2 0x8A JUMPI DUP1 PUSH4 0xB1283E77 GT PUSH2 0x59 JUMPI DUP1 PUSH4 0xB1283E77 EQ PUSH2 0x31D JUMPI DUP1 PUSH4 0xB1427AC1 EQ PUSH2 0x362 JUMPI DUP1 PUSH4 0xF36130AB EQ PUSH2 0x39F JUMPI DUP1 PUSH4 0xF65EB997 EQ PUSH2 0x3C8 JUMPI PUSH2 0xE8 JUMP JUMPDEST DUP1 PUSH4 0x55A2BF91 EQ PUSH2 0x23D JUMPI DUP1 PUSH4 0x55C1BD10 EQ PUSH2 0x266 JUMPI DUP1 PUSH4 0x758D9B89 EQ PUSH2 0x2A3 JUMPI DUP1 PUSH4 0x94CEC7A7 EQ PUSH2 0x2E0 JUMPI PUSH2 0xE8 JUMP JUMPDEST DUP1 PUSH4 0x406EF2EF GT PUSH2 0xC6 JUMPI DUP1 PUSH4 0x406EF2EF EQ PUSH2 0x17C JUMPI DUP1 PUSH4 0x48F06B75 EQ PUSH2 0x1A7 JUMPI DUP1 PUSH4 0x4AFE62B5 EQ PUSH2 0x1E4 JUMPI DUP1 PUSH4 0x53D36324 EQ PUSH2 0x200 JUMPI PUSH2 0xE8 JUMP JUMPDEST DUP1 PUSH4 0xFAFF2D8 EQ PUSH2 0xED JUMPI DUP1 PUSH4 0x1915C938 EQ PUSH2 0x12A JUMPI DUP1 PUSH4 0x2E1A7D4D EQ PUSH2 0x153 JUMPI JUMPDEST PUSH1 0x0 DUP1 REVERT JUMPDEST CALLVALUE DUP1 ISZERO PUSH2 0xF9 JUMPI PUSH1 0x0 DUP1 REVERT JUMPDEST POP PUSH2 0x114 PUSH1 0x4 DUP1 CALLDATASIZE SUB DUP2 ADD SWAP1 PUSH2 0x10F SWAP2 SWAP1 PUSH2 0x2148 JUMP JUMPDEST PUSH2 0x3F1 JUMP JUMPDEST PUSH1 0x40 MLOAD PUSH2 0x121 SWAP2 SWAP1 PUSH2 0x21A3 JUMP JUMPDEST PUSH1 0x40 MLOAD DUP1 SWAP2 SUB SWAP1 RETURN JUMPDEST CALLVALUE DUP1 ISZERO PUSH2 0x136 JUMPI PUSH1 0x0 DUP1 REVERT JUMPDEST POP PUSH2 0x151 PUSH1 0x4 DUP1 CALLDATASIZE SUB DUP2 ADD SWAP1 PUSH2 0x14C SWAP2 SWAP1 PUSH2 0x21F7 JUMP JUMPDEST PUSH2 0x420 JUMP JUMPDEST STOP JUMPDEST CALLVALUE DUP1 ISZERO PUSH2 0x15F JUMPI PUSH1 0x0 DUP1 REVERT JUMPDEST POP PUSH2 0x17A PUSH1 0x4 DUP1 CALLDATASIZE SUB DUP2 ADD SWAP1 PUSH2 0x175 SWAP2 SWAP1 PUSH2 0x2237 JUMP JUMPDEST PUSH2 0x653 JUMP JUMPDEST STOP JUMPDEST CALLVALUE DUP1 ISZERO PUSH2 0x188 JUMPI PUSH1 0x0 DUP1 REVERT JUMPDEST POP PUSH2 0x191 PUSH2 0xB8D JUMP JUMPDEST PUSH1 0x40 MLOAD PUSH2 0x19E SWAP2 SWAP1 PUSH2 0x2273 JUMP JUMPDEST PUSH1 0x40 MLOAD DUP1 SWAP2 SUB SWAP1 RETURN JUMPDEST CALLVALUE DUP1 ISZERO PUSH2 0x1B3 JUMPI PUSH1 0x0 DUP1 REVERT JUMPDEST POP PUSH2 0x1CE PUSH1 0x4 DUP1 CALLDATASIZE SUB DUP2 ADD SWAP1 PUSH2 0x1C9 SWAP2 SWAP1 PUSH2 0x2148 JUMP JUMPDEST PUSH2 0xB93 JUMP JUMPDEST PUSH1 0x40 MLOAD PUSH2 0x1DB SWAP2 SWAP1 PUSH2 0x229D JUMP JUMPDEST PUSH1 0x40 MLOAD DUP1 SWAP2 SUB SWAP1 RETURN JUMPDEST PUSH2 0x1FE PUSH1 0x4 DUP1 CALLDATASIZE SUB DUP2 ADD SWAP1 PUSH2 0x1F9 SWAP2 SWAP1 PUSH2 0x22B8 JUMP JUMPDEST PUSH2 0xBC2 JUMP JUMPDEST STOP JUMPDEST CALLVALUE DUP1 ISZERO PUSH2 0x20C JUMPI PUSH1 0x0 DUP1 REVERT JUMPDEST POP PUSH2 0x227 PUSH1 0x4 DUP1 CALLDATASIZE SUB DUP2 ADD SWAP1 PUSH2 0x222 SWAP2 SWAP1 PUSH2 0x24C7 JUMP JUMPDEST PUSH2 0x11AA JUMP JUMPDEST PUSH1 0x40 MLOAD PUSH2 0x234 SWAP2 SWAP1 PUSH2 0x2273 JUMP JUMPDEST PUSH1 0x40 MLOAD DUP1 SWAP2 SUB SWAP1 RETURN JUMPDEST CALLVALUE DUP1 ISZERO PUSH2 0x249 JUMPI PUSH1 0x0 DUP1 REVERT JUMPDEST POP PUSH2 0x264 PUSH1 0x4 DUP1 CALLDATASIZE SUB DUP2 ADD SWAP1 PUSH2 0x25F SWAP2 SWAP1 PUSH2 0x259C JUMP JUMPDEST PUSH2 0x1542 JUMP JUMPDEST STOP JUMPDEST CALLVALUE DUP1 ISZERO PUSH2 0x272 JUMPI PUSH1 0x0 DUP1 REVERT JUMPDEST POP PUSH2 0x28D PUSH1 0x4 DUP1 CALLDATASIZE SUB DUP2 ADD SWAP1 PUSH2 0x288 SWAP2 SWAP1 PUSH2 0x2148 JUMP JUMPDEST PUSH2 0x1728 JUMP JUMPDEST PUSH1 0x40 MLOAD PUSH2 0x29A SWAP2 SWAP1 PUSH2 0x21A3 JUMP JUMPDEST PUSH1 0x40 MLOAD DUP1 SWAP2 SUB SWAP1 RETURN JUMPDEST CALLVALUE DUP1 ISZERO PUSH2 0x2AF JUMPI PUSH1 0x0 DUP1 REVERT JUMPDEST POP PUSH2 0x2CA PUSH1 0x4 DUP1 CALLDATASIZE SUB DUP2 ADD SWAP1 PUSH2 0x2C5 SWAP2 SWAP1 PUSH2 0x2148 JUMP JUMPDEST PUSH2 0x1757 JUMP JUMPDEST PUSH1 0x40 MLOAD PUSH2 0x2D7 SWAP2 SWAP1 PUSH2 0x21A3 JUMP JUMPDEST PUSH1 0x40 MLOAD DUP1 SWAP2 SUB SWAP1 RETURN JUMPDEST CALLVALUE DUP1 ISZERO PUSH2 0x2EC JUMPI PUSH1 0x0 DUP1 REVERT JUMPDEST POP PUSH2 0x307 PUSH1 0x4 DUP1 CALLDATASIZE SUB DUP2 ADD SWAP1 PUSH2 0x302 SWAP2 SWAP1 PUSH2 0x2148 JUMP JUMPDEST PUSH2 0x1786 JUMP JUMPDEST PUSH1 0x40 MLOAD PUSH2 0x314 SWAP2 SWAP1 PUSH2 0x21A3 JUMP JUMPDEST PUSH1 0x40 MLOAD DUP1 SWAP2 SUB SWAP1 RETURN JUMPDEST CALLVALUE DUP1 ISZERO PUSH2 0x329 JUMPI PUSH1 0x0 DUP1 REVERT JUMPDEST POP PUSH2 0x344 PUSH1 0x4 DUP1 CALLDATASIZE SUB DUP2 ADD SWAP1 PUSH2 0x33F SWAP2 SWAP1 PUSH2 0x2237 JUMP JUMPDEST PUSH2 0x17B5 JUMP JUMPDEST PUSH1 0x40 MLOAD PUSH2 0x359 SWAP10 SWAP9 SWAP8 SWAP7 SWAP6 SWAP5 SWAP4 SWAP3 SWAP2 SWAP1 PUSH2 0x2609 JUMP JUMPDEST PUSH1 0x40 MLOAD DUP1 SWAP2 SUB SWAP1 RETURN JUMPDEST CALLVALUE DUP1 ISZERO PUSH2 0x36E JUMPI PUSH1 0x0 DUP1 REVERT JUMPDEST POP PUSH2 0x389 PUSH1 0x4 DUP1 CALLDATASIZE SUB DUP2 ADD SWAP1 PUSH2 0x384 SWAP2 SWAP1 PUSH2 0x2696 JUMP JUMPDEST PUSH2 0x187E JUMP JUMPDEST PUSH1 0x40 MLOAD PUSH2 0x396 SWAP2 SWAP1 PUSH2 0x2273 JUMP JUMPDEST PUSH1 0x40 MLOAD DUP1 SWAP2 SUB SWAP1 RETURN JUMPDEST CALLVALUE DUP1 ISZERO PUSH2 0x3AB JUMPI PUSH1 0x0 DUP1 REVERT JUMPDEST POP PUSH2 0x3C6 PUSH1 0x4 DUP1 CALLDATASIZE SUB DUP2 ADD SWAP1 PUSH2 0x3C1 SWAP2 SWAP1 PUSH2 0x26E9 JUMP JUMPDEST PUSH2 0x18BC JUMP JUMPDEST STOP JUMPDEST CALLVALUE DUP1 ISZERO PUSH2 0x3D4 JUMPI PUSH1 0x0 DUP1 REVERT JUMPDEST POP PUSH2 0x3EF PUSH1 0x4 DUP1 CALLDATASIZE SUB DUP2 ADD SWAP1 PUSH2 0x3EA SWAP2 SWAP1 PUSH2 0x2237 JUMP JUMPDEST PUSH2 0x1A76 JUMP JUMPDEST STOP JUMPDEST PUSH1 0x5 PUSH1 0x20 MSTORE DUP2 PUSH1 0x0 MSTORE PUSH1 0x40 PUSH1 0x0 KECCAK256 PUSH1 0x20 MSTORE DUP1 PUSH1 0x0 MSTORE PUSH1 0x40 PUSH1 0x0 KECCAK256 PUSH1 0x0 SWAP2 POP SWAP2 POP SWAP1 SLOAD SWAP1 PUSH2 0x100 EXP SWAP1 DIV PUSH1 0xFF AND DUP2 JUMP JUMPDEST PUSH1 0x0 PUSH1 0x1 PUSH1 0x0 DUP5 DUP2 MSTORE PUSH1 0x20 ADD SWAP1 DUP2 MSTORE PUSH1 0x20 ADD PUSH1 0x0 KECCAK256 SWAP1 POP PUSH1 0x4 PUSH1 0x0 DUP5 DUP2 MSTORE PUSH1 0x20 ADD SWAP1 DUP2 MSTORE PUSH1 0x20 ADD PUSH1 0x0 KECCAK256 PUSH1 0x0 CALLER PUSH20 0xFFFFFFFFFFFFFFFFFFFFFFFFFFFFFFFFFFFFFFFF AND PUSH20 0xFFFFFFFFFFFFFFFFFFFFFFFFFFFFFFFFFFFFFFFF AND DUP2 MSTORE PUSH1 0x20 ADD SWAP1 DUP2 MSTORE PUSH1 0x20 ADD PUSH1 0x0 KECCAK256 PUSH1 0x0 SWAP1 SLOAD SWAP1 PUSH2 0x100 EXP SWAP1 DIV PUSH1 0xFF AND PUSH2 0x4D4 JUMPI PUSH1 0x40 MLOAD PUSH32 0x8C379A000000000000000000000000000000000000000000000000000000000 DUP2 MSTORE PUSH1 0x4 ADD PUSH2 0x4CB SWAP1 PUSH2 0x2799 JUMP JUMPDEST PUSH1 0x40 MLOAD DUP1 SWAP2 SUB SWAP1 REVERT JUMPDEST DUP1 PUSH1 0x6 ADD PUSH1 0x0 SWAP1 SLOAD SWAP1 PUSH2 0x100 EXP SWAP1 DIV PUSH1 0xFF AND ISZERO DUP1 ISZERO PUSH2 0x502 JUMPI POP DUP1 PUSH1 0x6 ADD PUSH1 0x1 SWAP1 SLOAD SWAP1 PUSH2 0x100 EXP SWAP1 DIV PUSH1 0xFF AND ISZERO JUMPDEST PUSH2 0x541 JUMPI PUSH1 0x40 MLOAD PUSH32 0x8C379A000000000000000000000000000000000000000000000000000000000 DUP2 MSTORE PUSH1 0x4 ADD PUSH2 0x538 SWAP1 PUSH2 0x2805 JUMP JUMPDEST PUSH1 0x40 MLOAD DUP1 SWAP2 SUB SWAP1 REVERT JUMPDEST DUP1 PUSH1 0x9 ADD DUP1 SLOAD SWAP1 POP DUP3 PUSH1 0xFF AND LT PUSH2 0x58D JUMPI PUSH1 0x40 MLOAD PUSH32 0x8C379A000000000000000000000000000000000000000000000000000000000 DUP2 MSTORE PUSH1 0x4 ADD PUSH2 0x584 SWAP1 PUSH2 0x2871 JUMP JUMPDEST PUSH1 0x40 MLOAD DUP1 SWAP2 SUB SWAP1 REVERT JUMPDEST DUP2 PUSH1 0x6 PUSH1 0x0 DUP6 DUP2 MSTORE PUSH1 0x20 ADD SWAP1 DUP2 MSTORE PUSH1 0x20 ADD PUSH1 0x0 KECCAK256 PUSH1 0x0 CALLER PUSH20 0xFFFFFFFFFFFFFFFFFFFFFFFFFFFFFFFFFFFFFFFF AND PUSH20 0xFFFFFFFFFFFFFFFFFFFFFFFFFFFFFFFFFFFFFFFF AND DUP2 MSTORE PUSH1 0x20 ADD SWAP1 DUP2 MSTORE PUSH1 0x20 ADD PUSH1 0x0 KECCAK256 PUSH1 0x0 PUSH2 0x100 EXP DUP2 SLOAD DUP2 PUSH1 0xFF MUL NOT AND SWAP1 DUP4 PUSH1 0xFF AND MUL OR SWAP1 SSTORE POP CALLER PUSH20 0xFFFFFFFFFFFFFFFFFFFFFFFFFFFFFFFFFFFFFFFF AND DUP4 PUSH32 0x2B9DC5073D0E672405722E89D9BAECE3535737A0982CA5F2E744FF9CAB0ED61 DUP5 PUSH1 0x40 MLOAD PUSH2 0x63D SWAP2 SWAP1 PUSH2 0x229D JUMP JUMPDEST PUSH1 0x40 MLOAD DUP1 SWAP2 SUB SWAP1 LOG3 PUSH2 0x64E DUP4 PUSH2 0x1B9B JUMP JUMPDEST POP POP POP JUMP JUMPDEST PUSH1 0x0 PUSH1 0x1 PUSH1 0x0 DUP4 DUP2 MSTORE PUSH1 0x20 ADD SWAP1 DUP2 MSTORE PUSH1 0x20 ADD PUSH1 0x0 KECCAK256 SWAP1 POP DUP1 PUSH1 0x6 ADD PUSH1 0x0 SWAP1 SLOAD SWAP1 PUSH2 0x100 EXP SWAP1 DIV PUSH1 0xFF AND DUP1 PUSH2 0x695 JUMPI POP DUP1 PUSH1 0x6 ADD PUSH1 0x1 SWAP1 SLOAD SWAP1 PUSH2 0x100 EXP SWAP1 DIV PUSH1 0xFF AND JUMPDEST DUP1 PUSH2 0x6C2 JUMPI POP DUP1 PUSH1 0x4 ADD PUSH1 0x0 SWAP1 SLOAD SWAP1 PUSH2 0x100 EXP SWAP1 DIV PUSH8 0xFFFFFFFFFFFFFFFF AND PUSH8 0xFFFFFFFFFFFFFFFF AND TIMESTAMP LT ISZERO JUMPDEST PUSH2 0x701 JUMPI PUSH1 0x40 MLOAD PUSH32 0x8C379A000000000000000000000000000000000000000000000000000000000 DUP2 MSTORE PUSH1 0x4 ADD PUSH2 0x6F8 SWAP1 PUSH2 0x28DD JUMP JUMPDEST PUSH1 0x40 MLOAD DUP1 SWAP2 SUB SWAP1 REVERT JUMPDEST PUSH1 0x3 PUSH1 0x0 DUP4 DUP2 MSTORE PUSH1 0x20 ADD SWAP1 DUP2 MSTORE PUSH1 0x20 ADD PUSH1 0x0 KECCAK256 PUSH1 0x0 CALLER PUSH20 0xFFFFFFFFFFFFFFFFFFFFFFFFFFFFFFFFFFFFFFFF AND PUSH20 0xFFFFFFFFFFFFFFFFFFFFFFFFFFFFFFFFFFFFFFFF AND DUP2 MSTORE PUSH1 0x20 ADD SWAP1 DUP2 MSTORE PUSH1 0x20 ADD PUSH1 0x0 KECCAK256 PUSH1 0x0 SWAP1 SLOAD SWAP1 PUSH2 0x100 EXP SWAP1 DIV PUSH1 0xFF AND ISZERO PUSH2 0x79F JUMPI PUSH1 0x40 MLOAD PUSH32 0x8C379A000000000000000000000000000000000000000000000000000000000 DUP2 MSTORE PUSH1 0x4 ADD PUSH2 0x796 SWAP1 PUSH2 0x2949 JUMP JUMPDEST PUSH1 0x40 MLOAD DUP1 SWAP2 SUB SWAP1 REVERT JUMPDEST DUP1 PUSH1 0x6 ADD PUSH1 0x0 SWAP1 SLOAD SWAP1 PUSH2 0x100 EXP SWAP1 DIV PUSH1 0xFF AND ISZERO DUP1 ISZERO PUSH2 0x7CD JUMPI POP DUP1 PUSH1 0x6 ADD PUSH1 0x1 SWAP1 SLOAD SWAP1 PUSH2 0x100 EXP SWAP1 DIV PUSH1 0xFF AND ISZERO JUMPDEST DUP1 ISZERO PUSH2 0x7FB JUMPI POP DUP1 PUSH1 0x4 ADD PUSH1 0x0 SWAP1 SLOAD SWAP1 PUSH2 0x100 EXP SWAP1 DIV PUSH8 0xFFFFFFFFFFFFFFFF AND PUSH8 0xFFFFFFFFFFFFFFFF AND TIMESTAMP LT ISZERO JUMPDEST ISZERO PUSH2 0x80C JUMPI PUSH2 0x80B DUP3 PUSH1 0x0 PUSH2 0x1D43 JUMP JUMPDEST JUMPDEST PUSH1 0x1 PUSH1 0x3 PUSH1 0x0 DUP5 DUP2 MSTORE PUSH1 0x20 ADD SWAP1 DUP2 MSTORE PUSH1 0x20 ADD PUSH1 0x0 KECCAK256 PUSH1 0x0 CALLER PUSH20 0xFFFFFFFFFFFFFFFFFFFFFFFFFFFFFFFFFFFFFFFF AND PUSH20 0xFFFFFFFFFFFFFFFFFFFFFFFFFFFFFFFFFFFFFFFF AND DUP2 MSTORE PUSH1 0x20 ADD SWAP1 DUP2 MSTORE PUSH1 0x20 ADD PUSH1 0x0 KECCAK256 PUSH1 0x0 PUSH2 0x100 EXP DUP2 SLOAD DUP2 PUSH1 0xFF MUL NOT AND SWAP1 DUP4 ISZERO ISZERO MUL OR SWAP1 SSTORE POP PUSH1 0x0 PUSH1 0x2 PUSH1 0x0 DUP5 DUP2 MSTORE PUSH1 0x20 ADD SWAP1 DUP2 MSTORE PUSH1 0x20 ADD PUSH1 0x0 KECCAK256 PUSH1 0x0 CALLER PUSH20 0xFFFFFFFFFFFFFFFFFFFFFFFFFFFFFFFFFFFFFFFF AND PUSH20 0xFFFFFFFFFFFFFFFFFFFFFFFFFFFFFFFFFFFFFFFF AND DUP2 MSTORE PUSH1 0x20 ADD SWAP1 DUP2 MSTORE PUSH1 0x20 ADD PUSH1 0x0 KECCAK256 SWAP1 POP PUSH1 0x0 DUP3 PUSH1 0x6 ADD PUSH1 0x1 SWAP1 SLOAD SWAP1 PUSH2 0x100 EXP SWAP1 DIV PUSH1 0xFF AND ISZERO PUSH2 0x935 JUMPI PUSH1 0x0 JUMPDEST DUP3 DUP1 SLOAD SWAP1 POP DUP2 LT ISZERO PUSH2 0x92F JUMPI DUP3 DUP2 DUP2 SLOAD DUP2 LT PUSH2 0x904 JUMPI PUSH2 0x903 PUSH2 0x2969 JUMP JUMPDEST JUMPDEST SWAP1 PUSH1 0x0 MSTORE PUSH1 0x20 PUSH1 0x0 KECCAK256 ADD SLOAD DUP3 PUSH2 0x91A SWAP2 SWAP1 PUSH2 0x29C7 JUMP JUMPDEST SWAP2 POP DUP1 DUP1 PUSH2 0x927 SWAP1 PUSH2 0x29FB JUMP JUMPDEST SWAP2 POP POP PUSH2 0x8E5 JUMP JUMPDEST POP PUSH2 0xA71 JUMP JUMPDEST PUSH1 0x0 DUP4 PUSH1 0x6 ADD PUSH1 0x2 SWAP1 SLOAD SWAP1 PUSH2 0x100 EXP SWAP1 DIV PUSH1 0xFF AND SWAP1 POP PUSH1 0x0 DUP4 DUP3 PUSH1 0xFF AND DUP2 SLOAD DUP2 LT PUSH2 0x963 JUMPI PUSH2 0x962 PUSH2 0x2969 JUMP JUMPDEST JUMPDEST SWAP1 PUSH1 0x0 MSTORE PUSH1 0x20 PUSH1 0x0 KECCAK256 ADD SLOAD SWAP1 POP PUSH1 0x0 DUP1 JUMPDEST DUP7 PUSH1 0x9 ADD DUP1 SLOAD SWAP1 POP DUP2 LT ISZERO PUSH2 0x9C4 JUMPI DUP7 PUSH1 0x9 ADD DUP2 DUP2 SLOAD DUP2 LT PUSH2 0x999 JUMPI PUSH2 0x998 PUSH2 0x2969 JUMP JUMPDEST JUMPDEST SWAP1 PUSH1 0x0 MSTORE PUSH1 0x20 PUSH1 0x0 KECCAK256 ADD SLOAD DUP3 PUSH2 0x9AF SWAP2 SWAP1 PUSH2 0x29C7 JUMP JUMPDEST SWAP2 POP DUP1 DUP1 PUSH2 0x9BC SWAP1 PUSH2 0x29FB JUMP JUMPDEST SWAP2 POP POP PUSH2 0x974 JUMP JUMPDEST POP PUSH1 0x0 DUP7 PUSH1 0x9 ADD DUP5 PUSH1 0xFF AND DUP2 SLOAD DUP2 LT PUSH2 0x9E0 JUMPI PUSH2 0x9DF PUSH2 0x2969 JUMP JUMPDEST JUMPDEST SWAP1 PUSH1 0x0 MSTORE PUSH1 0x20 PUSH1 0x0 KECCAK256 ADD SLOAD SWAP1 POP PUSH1 0x0 DUP2 SUB PUSH2 0xA48 JUMPI PUSH1 0x0 JUMPDEST DUP7 DUP1 SLOAD SWAP1 POP DUP2 LT ISZERO PUSH2 0xA42 JUMPI DUP7 DUP2 DUP2 SLOAD DUP2 LT PUSH2 0xA17 JUMPI PUSH2 0xA16 PUSH2 0x2969 JUMP JUMPDEST JUMPDEST SWAP1 PUSH1 0x0 MSTORE PUSH1 0x20 PUSH1 0x0 KECCAK256 ADD SLOAD DUP7 PUSH2 0xA2D SWAP2 SWAP1 PUSH2 0x29C7 JUMP JUMPDEST SWAP6 POP DUP1 DUP1 PUSH2 0xA3A SWAP1 PUSH2 0x29FB JUMP JUMPDEST SWAP2 POP POP PUSH2 0x9F8 JUMP JUMPDEST POP PUSH2 0xA6C JUMP JUMPDEST PUSH1 0x0 DUP4 GT ISZERO PUSH2 0xA6B JUMPI DUP1 DUP3 DUP5 PUSH2 0xA5E SWAP2 SWAP1 PUSH2 0x2A43 JUMP JUMPDEST PUSH2 0xA68 SWAP2 SWAP1 PUSH2 0x2AB4 JUMP JUMPDEST SWAP5 POP JUMPDEST JUMPDEST POP POP POP POP JUMPDEST PUSH1 0x0 JUMPDEST DUP3 DUP1 SLOAD SWAP1 POP DUP2 LT ISZERO PUSH2 0xAB6 JUMPI PUSH1 0x0 DUP4 DUP3 DUP2 SLOAD DUP2 LT PUSH2 0xA95 JUMPI PUSH2 0xA94 PUSH2 0x2969 JUMP JUMPDEST JUMPDEST SWAP1 PUSH1 0x0 MSTORE PUSH1 0x20 PUSH1 0x0 KECCAK256 ADD DUP2 SWAP1 SSTORE POP DUP1 DUP1 PUSH2 0xAAE SWAP1 PUSH2 0x29FB JUMP JUMPDEST SWAP2 POP POP PUSH2 0xA74 JUMP JUMPDEST POP PUSH1 0x0 DUP2 GT ISZERO PUSH2 0xB38 JUMPI PUSH1 0x0 CALLER PUSH20 0xFFFFFFFFFFFFFFFFFFFFFFFFFFFFFFFFFFFFFFFF AND DUP3 PUSH1 0x40 MLOAD PUSH2 0xAE6 SWAP1 PUSH2 0x2B16 JUMP JUMPDEST PUSH1 0x0 PUSH1 0x40 MLOAD DUP1 DUP4 SUB DUP2 DUP6 DUP8 GAS CALL SWAP3 POP POP POP RETURNDATASIZE DUP1 PUSH1 0x0 DUP2 EQ PUSH2 0xB23 JUMPI PUSH1 0x40 MLOAD SWAP2 POP PUSH1 0x1F NOT PUSH1 0x3F RETURNDATASIZE ADD AND DUP3 ADD PUSH1 0x40 MSTORE RETURNDATASIZE DUP3 MSTORE RETURNDATASIZE PUSH1 0x0 PUSH1 0x20 DUP5 ADD RETURNDATACOPY PUSH2 0xB28 JUMP JUMPDEST PUSH1 0x60 SWAP2 POP JUMPDEST POP POP SWAP1 POP DUP1 PUSH2 0xB36 JUMPI PUSH1 0x0 DUP1 REVERT JUMPDEST POP JUMPDEST CALLER PUSH20 0xFFFFFFFFFFFFFFFFFFFFFFFFFFFFFFFFFFFFFFFF AND DUP5 PUSH32 0x37E8063B72A944A76DE602F32B82FD8C2A1C6F99564C727FFAF913C7762CD420 DUP4 PUSH1 0x40 MLOAD PUSH2 0xB7F SWAP2 SWAP1 PUSH2 0x2273 JUMP JUMPDEST PUSH1 0x40 MLOAD DUP1 SWAP2 SUB SWAP1 LOG3 POP POP POP POP JUMP JUMPDEST PUSH1 0x0 SLOAD DUP2 JUMP JUMPDEST PUSH1 0x6 PUSH1 0x20 MSTORE DUP2 PUSH1 0x0 MSTORE PUSH1 0x40 PUSH1 0x0 KECCAK256 PUSH1 0x20 MSTORE DUP1 PUSH1 0x0 MSTORE PUSH1 0x40 PUSH1 0x0 KECCAK256 PUSH1 0x0 SWAP2 POP SWAP2 POP SWAP1 SLOAD SWAP1 PUSH2 0x100 EXP SWAP1 DIV PUSH1 0xFF AND DUP2 JUMP JUMPDEST PUSH1 0x0 PUSH1 0x1 PUSH1 0x0 DUP5 DUP2 MSTORE PUSH1 0x20 ADD SWAP1 DUP2 MSTORE PUSH1 0x20 ADD PUSH1 0x0 KECCAK256 SWAP1 POP DUP1 PUSH1 0x6 ADD PUSH1 0x0 SWAP1 SLOAD SWAP1 PUSH2 0x100 EXP SWAP1 DIV PUSH1 0xFF AND ISZERO DUP1 ISZERO PUSH2 0xC07 JUMPI POP DUP1 PUSH1 0x6 ADD PUSH1 0x1 SWAP1 SLOAD SWAP1 PUSH2 0x100 EXP SWAP1 DIV PUSH1 0xFF AND ISZERO JUMPDEST PUSH2 0xC46 JUMPI PUSH1 0x40 MLOAD PUSH32 0x8C379A000000000000000000000000000000000000000000000000000000000 DUP2 MSTORE PUSH1 0x4 ADD PUSH2 0xC3D SWAP1 PUSH2 0x2B77 JUMP JUMPDEST PUSH1 0x40 MLOAD DUP1 SWAP2 SUB SWAP1 REVERT JUMPDEST DUP1 PUSH1 0x4 ADD PUSH1 0x0 SWAP1 SLOAD SWAP1 PUSH2 0x100 EXP SWAP1 DIV PUSH8 0xFFFFFFFFFFFFFFFF AND PUSH8 0xFFFFFFFFFFFFFFFF AND TIMESTAMP LT PUSH2 0xCAA JUMPI PUSH1 0x40 MLOAD PUSH32 0x8C379A000000000000000000000000000000000000000000000000000000000 DUP2 MSTORE PUSH1 0x4 ADD PUSH2 0xCA1 SWAP1 PUSH2 0x2BE3 JUMP JUMPDEST PUSH1 0x40 MLOAD DUP1 SWAP2 SUB SWAP1 REVERT JUMPDEST PUSH1 0x5 PUSH1 0x0 DUP5 DUP2 MSTORE PUSH1 0x20 ADD SWAP1 DUP2 MSTORE PUSH1 0x20 ADD PUSH1 0x0 KECCAK256 PUSH1 0x0 CALLER PUSH20 0xFFFFFFFFFFFFFFFFFFFFFFFFFFFFFFFFFFFFFFFF AND PUSH20 0xFFFFFFFFFFFFFFFFFFFFFFFFFFFFFFFFFFFFFFFF AND DUP2 MSTORE PUSH1 0x20 ADD SWAP1 DUP2 MSTORE PUSH1 0x20 ADD PUSH1 0x0 KECCAK256 PUSH1 0x0 SWAP1 SLOAD SWAP1 PUSH2 0x100 EXP SWAP1 DIV PUSH1 0xFF AND ISZERO PUSH2 0xD48 JUMPI PUSH1 0x40 MLOAD PUSH32 0x8C379A000000000000000000000000000000000000000000000000000000000 DUP2 MSTORE PUSH1 0x4 ADD PUSH2 0xD3F SWAP1 PUSH2 0x2C4F JUMP JUMPDEST PUSH1 0x40 MLOAD DUP1 SWAP2 SUB SWAP1 REVERT JUMPDEST DUP1 PUSH1 0x9 ADD DUP1 SLOAD SWAP1 POP DUP3 LT PUSH2 0xD91 JUMPI PUSH1 0x40 MLOAD PUSH32 0x8C379A000000000000000000000000000000000000000000000000000000000 DUP2 MSTORE PUSH1 0x4 ADD PUSH2 0xD88 SWAP1 PUSH2 0x2CBB JUMP JUMPDEST PUSH1 0x40 MLOAD DUP1 SWAP2 SUB SWAP1 REVERT JUMPDEST PUSH1 0x0 CALLVALUE GT DUP1 ISZERO PUSH2 0xDB0 JUMPI POP PUSH1 0x0 DUP2 PUSH1 0x5 ADD SLOAD CALLVALUE PUSH2 0xDAE SWAP2 SWAP1 PUSH2 0x2CDB JUMP JUMPDEST EQ JUMPDEST PUSH2 0xDEF JUMPI PUSH1 0x40 MLOAD PUSH32 0x8C379A000000000000000000000000000000000000000000000000000000000 DUP2 MSTORE PUSH1 0x4 ADD PUSH2 0xDE6 SWAP1 PUSH2 0x2D58 JUMP JUMPDEST PUSH1 0x40 MLOAD DUP1 SWAP2 SUB SWAP1 REVERT JUMPDEST PUSH1 0x4 PUSH1 0x0 DUP5 DUP2 MSTORE PUSH1 0x20 ADD SWAP1 DUP2 MSTORE PUSH1 0x20 ADD PUSH1 0x0 KECCAK256 PUSH1 0x0 CALLER PUSH20 0xFFFFFFFFFFFFFFFFFFFFFFFFFFFFFFFFFFFFFFFF AND PUSH20 0xFFFFFFFFFFFFFFFFFFFFFFFFFFFFFFFFFFFFFFFF AND DUP2 MSTORE PUSH1 0x20 ADD SWAP1 DUP2 MSTORE PUSH1 0x20 ADD PUSH1 0x0 KECCAK256 PUSH1 0x0 SWAP1 SLOAD SWAP1 PUSH2 0x100 EXP SWAP1 DIV PUSH1 0xFF AND PUSH2 0xF8A JUMPI PUSH1 0x1 PUSH1 0x4 PUSH1 0x0 DUP6 DUP2 MSTORE PUSH1 0x20 ADD SWAP1 DUP2 MSTORE PUSH1 0x20 ADD PUSH1 0x0 KECCAK256 PUSH1 0x0 CALLER PUSH20 0xFFFFFFFFFFFFFFFFFFFFFFFFFFFFFFFFFFFFFFFF AND PUSH20 0xFFFFFFFFFFFFFFFFFFFFFFFFFFFFFFFFFFFFFFFF AND DUP2 MSTORE PUSH1 0x20 ADD SWAP1 DUP2 MSTORE PUSH1 0x20 ADD PUSH1 0x0 KECCAK256 PUSH1 0x0 PUSH2 0x100 EXP DUP2 SLOAD DUP2 PUSH1 0xFF MUL NOT AND SWAP1 DUP4 ISZERO ISZERO MUL OR SWAP1 SSTORE POP DUP1 PUSH1 0x7 ADD CALLER SWAP1 DUP1 PUSH1 0x1 DUP2 SLOAD ADD DUP1 DUP3 SSTORE DUP1 SWAP2 POP POP PUSH1 0x1 SWAP1 SUB SWAP1 PUSH1 0x0 MSTORE PUSH1 0x20 PUSH1 0x0 KECCAK256 ADD PUSH1 0x0 SWAP1 SWAP2 SWAP1 SWAP2 SWAP1 SWAP2 PUSH2 0x100 EXP DUP2 SLOAD DUP2 PUSH20 0xFFFFFFFFFFFFFFFFFFFFFFFFFFFFFFFFFFFFFFFF MUL NOT AND SWAP1 DUP4 PUSH20 0xFFFFFFFFFFFFFFFFFFFFFFFFFFFFFFFFFFFFFFFF AND MUL OR SWAP1 SSTORE POP PUSH1 0xFF PUSH1 0x6 PUSH1 0x0 DUP6 DUP2 MSTORE PUSH1 0x20 ADD SWAP1 DUP2 MSTORE PUSH1 0x20 ADD PUSH1 0x0 KECCAK256 PUSH1 0x0 CALLER PUSH20 0xFFFFFFFFFFFFFFFFFFFFFFFFFFFFFFFFFFFFFFFF AND PUSH20 0xFFFFFFFFFFFFFFFFFFFFFFFFFFFFFFFFFFFFFFFF AND DUP2 MSTORE PUSH1 0x20 ADD SWAP1 DUP2 MSTORE PUSH1 0x20 ADD PUSH1 0x0 KECCAK256 PUSH1 0x0 PUSH2 0x100 EXP DUP2 SLOAD DUP2 PUSH1 0xFF MUL NOT AND SWAP1 DUP4 PUSH1 0xFF AND MUL OR SWAP1 SSTORE POP JUMPDEST PUSH1 0x0 PUSH1 0x2 PUSH1 0x0 DUP6 DUP2 MSTORE PUSH1 0x20 ADD SWAP1 DUP2 MSTORE PUSH1 0x20 ADD PUSH1 0x0 KECCAK256 PUSH1 0x0 CALLER PUSH20 0xFFFFFFFFFFFFFFFFFFFFFFFFFFFFFFFFFFFFFFFF AND PUSH20 0xFFFFFFFFFFFFFFFFFFFFFFFFFFFFFFFFFFFFFFFF AND DUP2 MSTORE PUSH1 0x20 ADD SWAP1 DUP2 MSTORE PUSH1 0x20 ADD PUSH1 0x0 KECCAK256 DUP1 SLOAD SWAP1 POP SUB PUSH2 0x109A JUMPI DUP1 PUSH1 0x9 ADD DUP1 SLOAD SWAP1 POP PUSH8 0xFFFFFFFFFFFFFFFF DUP2 GT ISZERO PUSH2 0x1006 JUMPI PUSH2 0x1005 PUSH2 0x2384 JUMP JUMPDEST JUMPDEST PUSH1 0x40 MLOAD SWAP1 DUP1 DUP3 MSTORE DUP1 PUSH1 0x20 MUL PUSH1 0x20 ADD DUP3 ADD PUSH1 0x40 MSTORE DUP1 ISZERO PUSH2 0x1034 JUMPI DUP2 PUSH1 0x20 ADD PUSH1 0x20 DUP3 MUL DUP1 CALLDATASIZE DUP4 CALLDATACOPY DUP1 DUP3 ADD SWAP2 POP POP SWAP1 POP JUMPDEST POP PUSH1 0x2 PUSH1 0x0 DUP6 DUP2 MSTORE PUSH1 0x20 ADD SWAP1 DUP2 MSTORE PUSH1 0x20 ADD PUSH1 0x0 KECCAK256 PUSH1 0x0 CALLER PUSH20 0xFFFFFFFFFFFFFFFFFFFFFFFFFFFFFFFFFFFFFFFF AND PUSH20 0xFFFFFFFFFFFFFFFFFFFFFFFFFFFFFFFFFFFFFFFF AND DUP2 MSTORE PUSH1 0x20 ADD SWAP1 DUP2 MSTORE PUSH1 0x20 ADD PUSH1 0x0 KECCAK256 SWAP1 DUP1 MLOAD SWAP1 PUSH1 0x20 ADD SWAP1 PUSH2 0x1098 SWAP3 SWAP2 SWAP1 PUSH2 0x1FAC JUMP JUMPDEST POP JUMPDEST CALLVALUE DUP2 PUSH1 0x9 ADD DUP4 DUP2 SLOAD DUP2 LT PUSH2 0x10B1 JUMPI PUSH2 0x10B0 PUSH2 0x2969 JUMP JUMPDEST JUMPDEST SWAP1 PUSH1 0x0 MSTORE PUSH1 0x20 PUSH1 0x0 KECCAK256 ADD PUSH1 0x0 DUP3 DUP3 SLOAD PUSH2 0x10CA SWAP2 SWAP1 PUSH2 0x29C7 JUMP JUMPDEST SWAP3 POP POP DUP2 SWAP1 SSTORE POP CALLVALUE PUSH1 0x2 PUSH1 0x0 DUP6 DUP2 MSTORE PUSH1 0x20 ADD SWAP1 DUP2 MSTORE PUSH1 0x20 ADD PUSH1 0x0 KECCAK256 PUSH1 0x0 CALLER PUSH20 0xFFFFFFFFFFFFFFFFFFFFFFFFFFFFFFFFFFFFFFFF AND PUSH20 0xFFFFFFFFFFFFFFFFFFFFFFFFFFFFFFFFFFFFFFFF AND DUP2 MSTORE PUSH1 0x20 ADD SWAP1 DUP2 MSTORE PUSH1 0x20 ADD PUSH1 0x0 KECCAK256 DUP4 DUP2 SLOAD DUP2 LT PUSH2 0x1134 JUMPI PUSH2 0x1133 PUSH2 0x2969 JUMP JUMPDEST JUMPDEST SWAP1 PUSH1 0x0 MSTORE PUSH1 0x20 PUSH1 0x0 KECCAK256 ADD PUSH1 0x0 DUP3 DUP3 SLOAD PUSH2 0x114D SWAP2 SWAP1 PUSH2 0x29C7 JUMP JUMPDEST SWAP3 POP POP DUP2 SWAP1 SSTORE POP CALLER PUSH20 0xFFFFFFFFFFFFFFFFFFFFFFFFFFFFFFFFFFFFFFFF AND DUP4 PUSH32 0x1B8A9031CB9351278D70A994F81536E9E08C91162E64F92B2FE4766FB7A891B4 DUP5 CALLVALUE PUSH1 0x40 MLOAD PUSH2 0x119D SWAP3 SWAP2 SWAP1 PUSH2 0x2D78 JUMP JUMPDEST PUSH1 0x40 MLOAD DUP1 SWAP2 SUB SWAP1 LOG3 POP POP POP JUMP JUMPDEST PUSH1 0x0 TIMESTAMP DUP7 PUSH8 0xFFFFFFFFFFFFFFFF AND GT PUSH2 0x11F8 JUMPI PUSH1 0x40 MLOAD PUSH32 0x8C379A000000000000000000000000000000000000000000000000000000000 DUP2 MSTORE PUSH1 0x4 ADD PUSH2 0x11EF SWAP1 PUSH2 0x2DED JUMP JUMPDEST PUSH1 0x40 MLOAD DUP1 SWAP2 SUB SWAP1 REVERT JUMPDEST PUSH1 0x0 DUP1 SHL DUP8 SUB PUSH2 0x123D JUMPI PUSH1 0x40 MLOAD PUSH32 0x8C379A000000000000000000000000000000000000000000000000000000000 DUP2 MSTORE PUSH1 0x4 ADD PUSH2 0x1234 SWAP1 PUSH2 0x2E59 JUMP JUMPDEST PUSH1 0x40 MLOAD DUP1 SWAP2 SUB SWAP1 REVERT JUMPDEST PUSH1 0x0 DUP5 GT PUSH2 0x1280 JUMPI PUSH1 0x40 MLOAD PUSH32 0x8C379A000000000000000000000000000000000000000000000000000000000 DUP2 MSTORE PUSH1 0x4 ADD PUSH2 0x1277 SWAP1 PUSH2 0x2EC5 JUMP JUMPDEST PUSH1 0x40 MLOAD DUP1 SWAP2 SUB SWAP1 REVERT JUMPDEST PUSH1 0x0 DUP3 GT PUSH2 0x12C3 JUMPI PUSH1 0x40 MLOAD PUSH32 0x8C379A000000000000000000000000000000000000000000000000000000000 DUP2 MSTORE PUSH1 0x4 ADD PUSH2 0x12BA SWAP1 PUSH2 0x2F31 JUMP JUMPDEST PUSH1 0x40 MLOAD DUP1 SWAP2 SUB SWAP1 REVERT JUMPDEST PUSH1 0x0 DUP1 DUP2 SLOAD DUP1 SWAP3 SWAP2 SWAP1 PUSH2 0x12D5 SWAP1 PUSH2 0x29FB JUMP JUMPDEST SWAP2 SWAP1 POP SSTORE SWAP1 POP PUSH1 0x0 PUSH1 0x1 PUSH1 0x0 DUP4 DUP2 MSTORE PUSH1 0x20 ADD SWAP1 DUP2 MSTORE PUSH1 0x20 ADD PUSH1 0x0 KECCAK256 SWAP1 POP DUP2 DUP2 PUSH1 0x0 ADD DUP2 SWAP1 SSTORE POP CALLER DUP2 PUSH1 0x1 ADD PUSH1 0x0 PUSH2 0x100 EXP DUP2 SLOAD DUP2 PUSH20 0xFFFFFFFFFFFFFFFFFFFFFFFFFFFFFFFFFFFFFFFF MUL NOT AND SWAP1 DUP4 PUSH20 0xFFFFFFFFFFFFFFFFFFFFFFFFFFFFFFFFFFFFFFFF AND MUL OR SWAP1 SSTORE POP DUP6 DUP2 PUSH1 0x2 ADD PUSH1 0x0 PUSH2 0x100 EXP DUP2 SLOAD DUP2 PUSH20 0xFFFFFFFFFFFFFFFFFFFFFFFFFFFFFFFFFFFFFFFF MUL NOT AND SWAP1 DUP4 PUSH20 0xFFFFFFFFFFFFFFFFFFFFFFFFFFFFFFFFFFFFFFFF AND MUL OR SWAP1 SSTORE POP DUP8 DUP2 PUSH1 0x3 ADD DUP2 SWAP1 SSTORE POP DUP7 DUP2 PUSH1 0x4 ADD PUSH1 0x0 PUSH2 0x100 EXP DUP2 SLOAD DUP2 PUSH8 0xFFFFFFFFFFFFFFFF MUL NOT AND SWAP1 DUP4 PUSH8 0xFFFFFFFFFFFFFFFF AND MUL OR SWAP1 SSTORE POP DUP5 DUP2 PUSH1 0x5 ADD DUP2 SWAP1 SSTORE POP PUSH1 0xFF DUP2 PUSH1 0x6 ADD PUSH1 0x2 PUSH2 0x100 EXP DUP2 SLOAD DUP2 PUSH1 0xFF MUL NOT AND SWAP1 DUP4 PUSH1 0xFF AND MUL OR SWAP1 SSTORE POP PUSH1 0x0 DUP4 PUSH8 0xFFFFFFFFFFFFFFFF DUP2 GT ISZERO PUSH2 0x13F8 JUMPI PUSH2 0x13F7 PUSH2 0x2384 JUMP JUMPDEST JUMPDEST PUSH1 0x40 MLOAD SWAP1 DUP1 DUP3 MSTORE DUP1 PUSH1 0x20 MUL PUSH1 0x20 ADD DUP3 ADD PUSH1 0x40 MSTORE DUP1 ISZERO PUSH2 0x1426 JUMPI DUP2 PUSH1 0x20 ADD PUSH1 0x20 DUP3 MUL DUP1 CALLDATASIZE DUP4 CALLDATACOPY DUP1 DUP3 ADD SWAP2 POP POP SWAP1 POP JUMPDEST POP SWAP1 POP DUP1 DUP3 PUSH1 0x9 ADD SWAP1 DUP1 MLOAD SWAP1 PUSH1 0x20 ADD SWAP1 PUSH2 0x1441 SWAP3 SWAP2 SWAP1 PUSH2 0x1FAC JUMP JUMPDEST POP DUP5 DUP3 PUSH1 0x8 ADD SWAP1 DUP1 MLOAD SWAP1 PUSH1 0x20 ADD SWAP1 PUSH2 0x145A SWAP3 SWAP2 SWAP1 PUSH2 0x1FF9 JUMP JUMPDEST POP PUSH1 0x0 JUMPDEST DUP6 MLOAD DUP2 LT ISZERO PUSH2 0x14FD JUMPI PUSH1 0x1 PUSH1 0x5 PUSH1 0x0 DUP7 DUP2 MSTORE PUSH1 0x20 ADD SWAP1 DUP2 MSTORE PUSH1 0x20 ADD PUSH1 0x0 KECCAK256 PUSH1 0x0 DUP9 DUP5 DUP2 MLOAD DUP2 LT PUSH2 0x1491 JUMPI PUSH2 0x1490 PUSH2 0x2969 JUMP JUMPDEST JUMPDEST PUSH1 0x20 MUL PUSH1 0x20 ADD ADD MLOAD PUSH20 0xFFFFFFFFFFFFFFFFFFFFFFFFFFFFFFFFFFFFFFFF AND PUSH20 0xFFFFFFFFFFFFFFFFFFFFFFFFFFFFFFFFFFFFFFFF AND DUP2 MSTORE PUSH1 0x20 ADD SWAP1 DUP2 MSTORE PUSH1 0x20 ADD PUSH1 0x0 KECCAK256 PUSH1 0x0 PUSH2 0x100 EXP DUP2 SLOAD DUP2 PUSH1 0xFF MUL NOT AND SWAP1 DUP4 ISZERO ISZERO MUL OR SWAP1 SSTORE POP DUP1 DUP1 PUSH2 0x14F5 SWAP1 PUSH2 0x29FB JUMP JUMPDEST SWAP2 POP POP PUSH2 0x145E JUMP JUMPDEST POP DUP3 PUSH32 0xE0CCE0C049093081A7AE14ED0E94F3C83FE1DBE13A98491BB10DC6E774A7680 DUP11 PUSH1 0x40 MLOAD PUSH2 0x152E SWAP2 SWAP1 PUSH2 0x2F51 JUMP JUMPDEST PUSH1 0x40 MLOAD DUP1 SWAP2 SUB SWAP1 LOG2 POP POP SWAP7 SWAP6 POP POP POP POP POP POP JUMP JUMPDEST PUSH1 0x0 PUSH1 0x1 PUSH1 0x0 DUP5 DUP2 MSTORE PUSH1 0x20 ADD SWAP1 DUP2 MSTORE PUSH1 0x20 ADD PUSH1 0x0 KECCAK256 SWAP1 POP PUSH1 0x4 PUSH1 0x0 DUP5 DUP2 MSTORE PUSH1 0x20 ADD SWAP1 DUP2 MSTORE PUSH1 0x20 ADD PUSH1 0x0 KECCAK256 PUSH1 0x0 CALLER PUSH20 0xFFFFFFFFFFFFFFFFFFFFFFFFFFFFFFFFFFFFFFFF AND PUSH20 0xFFFFFFFFFFFFFFFFFFFFFFFFFFFFFFFFFFFFFFFF AND DUP2 MSTORE PUSH1 0x20 ADD SWAP1 DUP2 MSTORE PUSH1 0x20 ADD PUSH1 0x0 KECCAK256 PUSH1 0x0 SWAP1 SLOAD SWAP1 PUSH2 0x100 EXP SWAP1 DIV PUSH1 0xFF AND PUSH2 0x15F6 JUMPI PUSH1 0x40 MLOAD PUSH32 0x8C379A000000000000000000000000000000000000000000000000000000000 DUP2 MSTORE PUSH1 0x4 ADD PUSH2 0x15ED SWAP1 PUSH2 0x2799 JUMP JUMPDEST PUSH1 0x40 MLOAD DUP1 SWAP2 SUB SWAP1 REVERT JUMPDEST DUP1 PUSH1 0x6 ADD PUSH1 0x0 SWAP1 SLOAD SWAP1 PUSH2 0x100 EXP SWAP1 DIV PUSH1 0xFF AND ISZERO DUP1 ISZERO PUSH2 0x1624 JUMPI POP DUP1 PUSH1 0x6 ADD PUSH1 0x1 SWAP1 SLOAD SWAP1 PUSH2 0x100 EXP SWAP1 DIV PUSH1 0xFF AND ISZERO JUMPDEST PUSH2 0x1663 JUMPI PUSH1 0x40 MLOAD PUSH32 0x8C379A000000000000000000000000000000000000000000000000000000000 DUP2 MSTORE PUSH1 0x4 ADD PUSH2 0x165A SWAP1 PUSH2 0x2805 JUMP JUMPDEST PUSH1 0x40 MLOAD DUP1 SWAP2 SUB SWAP1 REVERT JUMPDEST DUP2 PUSH1 0x7 PUSH1 0x0 DUP6 DUP2 MSTORE PUSH1 0x20 ADD SWAP1 DUP2 MSTORE PUSH1 0x20 ADD PUSH1 0x0 KECCAK256 PUSH1 0x0 CALLER PUSH20 0xFFFFFFFFFFFFFFFFFFFFFFFFFFFFFFFFFFFFFFFF AND PUSH20 0xFFFFFFFFFFFFFFFFFFFFFFFFFFFFFFFFFFFFFFFF AND DUP2 MSTORE PUSH1 0x20 ADD SWAP1 DUP2 MSTORE PUSH1 0x20 ADD PUSH1 0x0 KECCAK256 PUSH1 0x0 PUSH2 0x100 EXP DUP2 SLOAD DUP2 PUSH1 0xFF MUL NOT AND SWAP1 DUP4 ISZERO ISZERO MUL OR SWAP1 SSTORE POP CALLER PUSH20 0xFFFFFFFFFFFFFFFFFFFFFFFFFFFFFFFFFFFFFFFF AND DUP4 PUSH32 0x1310E9D377982D16F80D093F614BB79981CED34D220C72D1848FC4379E926730 DUP5 PUSH1 0x40 MLOAD PUSH2 0x1712 SWAP2 SWAP1 PUSH2 0x21A3 JUMP JUMPDEST PUSH1 0x40 MLOAD DUP1 SWAP2 SUB SWAP1 LOG3 PUSH2 0x1723 DUP4 PUSH2 0x1DB4 JUMP JUMPDEST POP POP POP JUMP JUMPDEST PUSH1 0x7 PUSH1 0x20 MSTORE DUP2 PUSH1 0x0 MSTORE PUSH1 0x40 PUSH1 0x0 KECCAK256 PUSH1 0x20 MSTORE DUP1 PUSH1 0x0 MSTORE PUSH1 0x40 PUSH1 0x0 KECCAK256 PUSH1 0x0 SWAP2 POP SWAP2 POP SWAP1 SLOAD SWAP1 PUSH2 0x100 EXP SWAP1 DIV PUSH1 0xFF AND DUP2 JUMP JUMPDEST PUSH1 0x4 PUSH1 0x20 MSTORE DUP2 PUSH1 0x0 MSTORE PUSH1 0x40 PUSH1 0x0 KECCAK256 PUSH1 0x20 MSTORE DUP1 PUSH1 0x0 MSTORE PUSH1 0x40 PUSH1 0x0 KECCAK256 PUSH1 0x0 SWAP2 POP SWAP2 POP SWAP1 SLOAD SWAP1 PUSH2 0x100 EXP SWAP1 DIV PUSH1 0xFF AND DUP2 JUMP JUMPDEST PUSH1 0x3 PUSH1 0x20 MSTORE DUP2 PUSH1 0x0 MSTORE PUSH1 0x40 PUSH1 0x0 KECCAK256 PUSH1 0x20 MSTORE DUP1 PUSH1 0x0 MSTORE PUSH1 0x40 PUSH1 0x0 KECCAK256 PUSH1 0x0 SWAP2 POP SWAP2 POP SWAP1 SLOAD SWAP1 PUSH2 0x100 EXP SWAP1 DIV PUSH1 0xFF AND DUP2 JUMP JUMPDEST PUSH1 0x1 PUSH1 0x20 MSTORE DUP1 PUSH1 0x0 MSTORE PUSH1 0x40 PUSH1 0x0 KECCAK256 PUSH1 0x0 SWAP2 POP SWAP1 POP DUP1 PUSH1 0x0 ADD SLOAD SWAP1 DUP1 PUSH1 0x1 ADD PUSH1 0x0 SWAP1 SLOAD SWAP1 PUSH2 0x100 EXP SWAP1 DIV PUSH20 0xFFFFFFFFFFFFFFFFFFFFFFFFFFFFFFFFFFFFFFFF AND SWAP1 DUP1 PUSH1 0x2 ADD PUSH1 0x0 SWAP1 SLOAD SWAP1 PUSH2 0x100 EXP SWAP1 DIV PUSH20 0xFFFFFFFFFFFFFFFFFFFFFFFFFFFFFFFFFFFFFFFF AND SWAP1 DUP1 PUSH1 0x3 ADD SLOAD SWAP1 DUP1 PUSH1 0x4 ADD PUSH1 0x0 SWAP1 SLOAD SWAP1 PUSH2 0x100 EXP SWAP1 DIV PUSH8 0xFFFFFFFFFFFFFFFF AND SWAP1 DUP1 PUSH1 0x5 ADD SLOAD SWAP1 DUP1 PUSH1 0x6 ADD PUSH1 0x0 SWAP1 SLOAD SWAP1 PUSH2 0x100 EXP SWAP1 DIV PUSH1 0xFF AND SWAP1 DUP1 PUSH1 0x6 ADD PUSH1 0x1 SWAP1 SLOAD SWAP1 PUSH2 0x100 EXP SWAP1 DIV PUSH1 0xFF AND SWAP1 DUP1 PUSH1 0x6 ADD PUSH1 0x2 SWAP1 SLOAD SWAP1 PUSH2 0x100 EXP SWAP1 DIV PUSH1 0xFF AND SWAP1 POP DUP10 JUMP JUMPDEST PUSH1 0x2 PUSH1 0x20 MSTORE DUP3 PUSH1 0x0 MSTORE PUSH1 0x40 PUSH1 0x0 KECCAK256 PUSH1 0x20 MSTORE DUP2 PUSH1 0x0 MSTORE PUSH1 0x40 PUSH1 0x0 KECCAK256 DUP2 DUP2 SLOAD DUP2 LT PUSH2 0x18A6 JUMPI PUSH1 0x0 DUP1 REVERT JUMPDEST SWAP1 PUSH1 0x0 MSTORE PUSH1 0x20 PUSH1 0x0 KECCAK256 ADD PUSH1 0x0 SWAP3 POP SWAP3 POP POP POP SLOAD DUP2 JUMP JUMPDEST PUSH1 0x0 PUSH1 0x1 PUSH1 0x0 DUP6 DUP2 MSTORE PUSH1 0x20 ADD SWAP1 DUP2 MSTORE PUSH1 0x20 ADD PUSH1 0x0 KECCAK256 SWAP1 POP DUP1 PUSH1 0x2 ADD PUSH1 0x0 SWAP1 SLOAD SWAP1 PUSH2 0x100 EXP SWAP1 DIV PUSH20 0xFFFFFFFFFFFFFFFFFFFFFFFFFFFFFFFFFFFFFFFF AND PUSH20 0xFFFFFFFFFFFFFFFFFFFFFFFFFFFFFFFFFFFFFFFF AND CALLER PUSH20 0xFFFFFFFFFFFFFFFFFFFFFFFFFFFFFFFFFFFFFFFF AND EQ PUSH2 0x1965 JUMPI PUSH1 0x40 MLOAD PUSH32 0x8C379A000000000000000000000000000000000000000000000000000000000 DUP2 MSTORE PUSH1 0x4 ADD PUSH2 0x195C SWAP1 PUSH2 0x2FB8 JUMP JUMPDEST PUSH1 0x40 MLOAD DUP1 SWAP2 SUB SWAP1 REVERT JUMPDEST DUP1 PUSH1 0x6 ADD PUSH1 0x0 SWAP1 SLOAD SWAP1 PUSH2 0x100 EXP SWAP1 DIV PUSH1 0xFF AND ISZERO DUP1 ISZERO PUSH2 0x1993 JUMPI POP DUP1 PUSH1 0x6 ADD PUSH1 0x1 SWAP1 SLOAD SWAP1 PUSH2 0x100 EXP SWAP1 DIV PUSH1 0xFF AND ISZERO JUMPDEST PUSH2 0x19D2 JUMPI PUSH1 0x40 MLOAD PUSH32 0x8C379A000000000000000000000000000000000000000000000000000000000 DUP2 MSTORE PUSH1 0x4 ADD PUSH2 0x19C9 SWAP1 PUSH2 0x2949 JUMP JUMPDEST PUSH1 0x40 MLOAD DUP1 SWAP2 SUB SWAP1 REVERT JUMPDEST DUP1 PUSH1 0x9 ADD DUP1 SLOAD SWAP1 POP DUP4 PUSH1 0xFF AND LT PUSH2 0x1A1E JUMPI PUSH1 0x40 MLOAD PUSH32 0x8C379A000000000000000000000000000000000000000000000000000000000 DUP2 MSTORE PUSH1 0x4 ADD PUSH2 0x1A15 SWAP1 PUSH2 0x2CBB JUMP JUMPDEST PUSH1 0x40 MLOAD DUP1 SWAP2 SUB SWAP1 REVERT JUMPDEST DUP1 PUSH1 0x3 ADD SLOAD DUP3 EQ PUSH2 0x1A64 JUMPI PUSH1 0x40 MLOAD PUSH32 0x8C379A000000000000000000000000000000000000000000000000000000000 DUP2 MSTORE PUSH1 0x4 ADD PUSH2 0x1A5B SWAP1 PUSH2 0x3024 JUMP JUMPDEST PUSH1 0x40 MLOAD DUP1 SWAP2 SUB SWAP1 REVERT JUMPDEST PUSH2 0x1A70 DUP5 DUP5 PUSH1 0x1 PUSH2 0x1F1B JUMP JUMPDEST POP POP POP POP JUMP JUMPDEST PUSH1 0x0 PUSH1 0x1 PUSH1 0x0 DUP4 DUP2 MSTORE PUSH1 0x20 ADD SWAP1 DUP2 MSTORE PUSH1 0x20 ADD PUSH1 0x0 KECCAK256 SWAP1 POP DUP1 PUSH1 0x2 ADD PUSH1 0x0 SWAP1 SLOAD SWAP1 PUSH2 0x100 EXP SWAP1 DIV PUSH20 0xFFFFFFFFFFFFFFFFFFFFFFFFFFFFFFFFFFFFFFFF AND PUSH20 0xFFFFFFFFFFFFFFFFFFFFFFFFFFFFFFFFFFFFFFFF AND CALLER PUSH20 0xFFFFFFFFFFFFFFFFFFFFFFFFFFFFFFFFFFFFFFFF AND EQ PUSH2 0x1B1F JUMPI PUSH1 0x40 MLOAD PUSH32 0x8C379A000000000000000000000000000000000000000000000000000000000 DUP2 MSTORE PUSH1 0x4 ADD PUSH2 0x1B16 SWAP1 PUSH2 0x2FB8 JUMP JUMPDEST PUSH1 0x40 MLOAD DUP1 SWAP2 SUB SWAP1 REVERT JUMPDEST DUP1 PUSH1 0x6 ADD PUSH1 0x0 SWAP1 SLOAD SWAP1 PUSH2 0x100 EXP SWAP1 DIV PUSH1 0xFF AND ISZERO DUP1 ISZERO PUSH2 0x1B4D JUMPI POP DUP1 PUSH1 0x6 ADD PUSH1 0x1 SWAP1 SLOAD SWAP1 PUSH2 0x100 EXP SWAP1 DIV PUSH1 0xFF AND ISZERO JUMPDEST PUSH2 0x1B8C JUMPI PUSH1 0x40 MLOAD PUSH32 0x8C379A000000000000000000000000000000000000000000000000000000000 DUP2 MSTORE PUSH1 0x4 ADD PUSH2 0x1B83 SWAP1 PUSH2 0x2949 JUMP JUMPDEST PUSH1 0x40 MLOAD DUP1 SWAP2 SUB SWAP1 REVERT JUMPDEST PUSH2 0x1B97 DUP3 PUSH1 0x1 PUSH2 0x1D43 JUMP JUMPDEST POP POP JUMP JUMPDEST PUSH1 0x0 PUSH1 0x1 PUSH1 0x0 DUP4 DUP2 MSTORE PUSH1 0x20 ADD SWAP1 DUP2 MSTORE PUSH1 0x20 ADD PUSH1 0x0 KECCAK256 SWAP1 POP PUSH1 0x0 PUSH1 0xFF SWAP1 POP PUSH1 0x0 JUMPDEST DUP3 PUSH1 0x7 ADD DUP1 SLOAD SWAP1 POP DUP2 LT ISZERO PUSH2 0x1D30 JUMPI PUSH1 0x0 DUP4 PUSH1 0x7 ADD DUP3 DUP2 SLOAD DUP2 LT PUSH2 0x1BE2 JUMPI PUSH2 0x1BE1 PUSH2 0x2969 JUMP JUMPDEST JUMPDEST SWAP1 PUSH1 0x0 MSTORE PUSH1 0x20 PUSH1 0x0 KECCAK256 ADD PUSH1 0x0 SWAP1 SLOAD SWAP1 PUSH2 0x100 EXP SWAP1 DIV PUSH20 0xFFFFFFFFFFFFFFFFFFFFFFFFFFFFFFFFFFFFFFFF AND SWAP1 POP PUSH1 0x5 PUSH1 0x0 DUP7 DUP2 MSTORE PUSH1 0x20 ADD SWAP1 DUP2 MSTORE PUSH1 0x20 ADD PUSH1 0x0 KECCAK256 PUSH1 0x0 DUP3 PUSH20 0xFFFFFFFFFFFFFFFFFFFFFFFFFFFFFFFFFFFFFFFF AND PUSH20 0xFFFFFFFFFFFFFFFFFFFFFFFFFFFFFFFFFFFFFFFF AND DUP2 MSTORE PUSH1 0x20 ADD SWAP1 DUP2 MSTORE PUSH1 0x20 ADD PUSH1 0x0 KECCAK256 PUSH1 0x0 SWAP1 SLOAD SWAP1 PUSH2 0x100 EXP SWAP1 DIV PUSH1 0xFF AND ISZERO PUSH2 0x1C78 JUMPI POP PUSH2 0x1D1D JUMP JUMPDEST PUSH1 0x0 PUSH1 0x6 PUSH1 0x0 DUP8 DUP2 MSTORE PUSH1 0x20 ADD SWAP1 DUP2 MSTORE PUSH1 0x20 ADD PUSH1 0x0 KECCAK256 PUSH1 0x0 DUP4 PUSH20 0xFFFFFFFFFFFFFFFFFFFFFFFFFFFFFFFFFFFFFFFF AND PUSH20 0xFFFFFFFFFFFFFFFFFFFFFFFFFFFFFFFFFFFFFFFF AND DUP2 MSTORE PUSH1 0x20 ADD SWAP1 DUP2 MSTORE PUSH1 0x20 ADD PUSH1 0x0 KECCAK256 PUSH1 0x0 SWAP1 SLOAD SWAP1 PUSH2 0x100 EXP SWAP1 DIV PUSH1 0xFF AND SWAP1 POP PUSH1 0xFF DUP2 PUSH1 0xFF AND SUB PUSH2 0x1CEF JUMPI POP POP POP POP POP PUSH2 0x1D40 JUMP JUMPDEST PUSH1 0xFF DUP5 PUSH1 0xFF AND SUB PUSH2 0x1D02 JUMPI DUP1 SWAP4 POP PUSH2 0x1D1A JUMP JUMPDEST DUP4 PUSH1 0xFF AND DUP2 PUSH1 0xFF AND EQ PUSH2 0x1D19 JUMPI POP POP POP POP POP PUSH2 0x1D40 JUMP JUMPDEST JUMPDEST POP POP JUMPDEST DUP1 DUP1 PUSH2 0x1D28 SWAP1 PUSH2 0x29FB JUMP JUMPDEST SWAP2 POP POP PUSH2 0x1BBB JUMP JUMPDEST POP PUSH2 0x1D3D DUP4 DUP3 PUSH1 0x0 PUSH2 0x1F1B JUMP JUMPDEST POP POP JUMPDEST POP JUMP JUMPDEST PUSH1 0x0 PUSH1 0x1 PUSH1 0x0 DUP5 DUP2 MSTORE PUSH1 0x20 ADD SWAP1 DUP2 MSTORE PUSH1 0x20 ADD PUSH1 0x0 KECCAK256 SWAP1 POP PUSH1 0x1 DUP2 PUSH1 0x6 ADD PUSH1 0x1 PUSH2 0x100 EXP DUP2 SLOAD DUP2 PUSH1 0xFF MUL NOT AND SWAP1 DUP4 ISZERO ISZERO MUL OR SWAP1 SSTORE POP DUP3 PUSH32 0x60427D9B24EE23BB5E643B4F71D1CCC669F65CB093E59C8E5D6EEE31C086207C DUP4 PUSH1 0x40 MLOAD PUSH2 0x1DA7 SWAP2 SWAP1 PUSH2 0x21A3 JUMP JUMPDEST PUSH1 0x40 MLOAD DUP1 SWAP2 SUB SWAP1 LOG2 POP POP POP JUMP JUMPDEST PUSH1 0x0 PUSH1 0x1 PUSH1 0x0 DUP4 DUP2 MSTORE PUSH1 0x20 ADD SWAP1 DUP2 MSTORE PUSH1 0x20 ADD PUSH1 0x0 KECCAK256 SWAP1 POP PUSH1 0x0 JUMPDEST DUP2 PUSH1 0x7 ADD DUP1 SLOAD SWAP1 POP DUP2 LT ISZERO PUSH2 0x1F0A JUMPI PUSH1 0x0 DUP3 PUSH1 0x7 ADD DUP3 DUP2 SLOAD DUP2 LT PUSH2 0x1DF5 JUMPI PUSH2 0x1DF4 PUSH2 0x2969 JUMP JUMPDEST JUMPDEST SWAP1 PUSH1 0x0 MSTORE PUSH1 0x20 PUSH1 0x0 KECCAK256 ADD PUSH1 0x0 SWAP1 SLOAD SWAP1 PUSH2 0x100 EXP SWAP1 DIV PUSH20 0xFFFFFFFFFFFFFFFFFFFFFFFFFFFFFFFFFFFFFFFF AND SWAP1 POP PUSH1 0x5 PUSH1 0x0 DUP6 DUP2 MSTORE PUSH1 0x20 ADD SWAP1 DUP2 MSTORE PUSH1 0x20 ADD PUSH1 0x0 KECCAK256 PUSH1 0x0 DUP3 PUSH20 0xFFFFFFFFFFFFFFFFFFFFFFFFFFFFFFFFFFFFFFFF AND PUSH20 0xFFFFFFFFFFFFFFFFFFFFFFFFFFFFFFFFFFFFFFFF AND DUP2 MSTORE PUSH1 0x20 ADD SWAP1 DUP2 MSTORE PUSH1 0x20 ADD PUSH1 0x0 KECCAK256 PUSH1 0x0 SWAP1 SLOAD SWAP1 PUSH2 0x100 EXP SWAP1 DIV PUSH1 0xFF AND ISZERO PUSH2 0x1E8B JUMPI POP PUSH2 0x1EF7 JUMP JUMPDEST PUSH1 0x7 PUSH1 0x0 DUP6 DUP2 MSTORE PUSH1 0x20 ADD SWAP1 DUP2 MSTORE PUSH1 0x20 ADD PUSH1 0x0 KECCAK256 PUSH1 0x0 DUP3 PUSH20 0xFFFFFFFFFFFFFFFFFFFFFFFFFFFFFFFFFFFFFFFF AND PUSH20 0xFFFFFFFFFFFFFFFFFFFFFFFFFFFFFFFFFFFFFFFF AND DUP2 MSTORE PUSH1 0x20 ADD SWAP1 DUP2 MSTORE PUSH1 0x20 ADD PUSH1 0x0 KECCAK256 PUSH1 0x0 SWAP1 SLOAD SWAP1 PUSH2 0x100 EXP SWAP1 DIV PUSH1 0xFF AND PUSH2 0x1EF5 JUMPI POP POP POP PUSH2 0x1F18 JUMP JUMPDEST POP JUMPDEST DUP1 DUP1 PUSH2 0x1F02 SWAP1 PUSH2 0x29FB JUMP JUMPDEST SWAP2 POP POP PUSH2 0x1DCE JUMP JUMPDEST POP PUSH2 0x1F16 DUP3 PUSH1 0x0 PUSH2 0x1D43 JUMP JUMPDEST POP JUMPDEST POP JUMP JUMPDEST PUSH1 0x0 PUSH1 0x1 PUSH1 0x0 DUP6 DUP2 MSTORE PUSH1 0x20 ADD SWAP1 DUP2 MSTORE PUSH1 0x20 ADD PUSH1 0x0 KECCAK256 SWAP1 POP PUSH1 0x1 DUP2 PUSH1 0x6 ADD PUSH1 0x0 PUSH2 0x100 EXP DUP2 SLOAD DUP2 PUSH1 0xFF MUL NOT AND SWAP1 DUP4 ISZERO ISZERO MUL OR SWAP1 SSTORE POP DUP3 DUP2 PUSH1 0x6 ADD PUSH1 0x2 PUSH2 0x100 EXP DUP2 SLOAD DUP2 PUSH1 0xFF MUL NOT AND SWAP1 DUP4 PUSH1 0xFF AND MUL OR SWAP1 SSTORE POP DUP4 PUSH32 0xEB81C972317ADB92322AF1A2FAF2BEF5309AFE1B1537C0D196B2DFCB36B91988 DUP5 DUP5 PUSH1 0x40 MLOAD PUSH2 0x1F9E SWAP3 SWAP2 SWAP1 PUSH2 0x3044 JUMP JUMPDEST PUSH1 0x40 MLOAD DUP1 SWAP2 SUB SWAP1 LOG2 POP POP POP POP JUMP JUMPDEST DUP3 DUP1 SLOAD DUP3 DUP3 SSTORE SWAP1 PUSH1 0x0 MSTORE PUSH1 0x20 PUSH1 0x0 KECCAK256 SWAP1 DUP2 ADD SWAP3 DUP3 ISZERO PUSH2 0x1FE8 JUMPI SWAP2 PUSH1 0x20 MUL DUP3 ADD JUMPDEST DUP3 DUP2 GT ISZERO PUSH2 0x1FE7 JUMPI DUP3 MLOAD DUP3 SSTORE SWAP2 PUSH1 0x20 ADD SWAP2 SWAP1 PUSH1 0x1 ADD SWAP1 PUSH2 0x1FCC JUMP JUMPDEST JUMPDEST POP SWAP1 POP PUSH2 0x1FF5 SWAP2 SWAP1 PUSH2 0x2083 JUMP JUMPDEST POP SWAP1 JUMP JUMPDEST DUP3 DUP1 SLOAD DUP3 DUP3 SSTORE SWAP1 PUSH1 0x0 MSTORE PUSH1 0x20 PUSH1 0x0 KECCAK256 SWAP1 DUP2 ADD SWAP3 DUP3 ISZERO PUSH2 0x2072 JUMPI SWAP2 PUSH1 0x20 MUL DUP3 ADD JUMPDEST DUP3 DUP2 GT ISZERO PUSH2 0x2071 JUMPI DUP3 MLOAD DUP3 PUSH1 0x0 PUSH2 0x100 EXP DUP2 SLOAD DUP2 PUSH20 0xFFFFFFFFFFFFFFFFFFFFFFFFFFFFFFFFFFFFFFFF MUL NOT AND SWAP1 DUP4 PUSH20 0xFFFFFFFFFFFFFFFFFFFFFFFFFFFFFFFFFFFFFFFF AND MUL OR SWAP1 SSTORE POP SWAP2 PUSH1 0x20 ADD SWAP2 SWAP1 PUSH1 0x1 ADD SWAP1 PUSH2 0x2019 JUMP JUMPDEST JUMPDEST POP SWAP1 POP PUSH2 0x207F SWAP2 SWAP1 PUSH2 0x2083 JUMP JUMPDEST POP SWAP1 JUMP JUMPDEST JUMPDEST DUP1 DUP3 GT ISZERO PUSH2 0x209C JUMPI PUSH1 0x0 DUP2 PUSH1 0x0 SWAP1 SSTORE POP PUSH1 0x1 ADD PUSH2 0x2084 JUMP JUMPDEST POP SWAP1 JUMP JUMPDEST PUSH1 0x0 PUSH1 0x40 MLOAD SWAP1 POP SWAP1 JUMP JUMPDEST PUSH1 0x0 DUP1 REVERT JUMPDEST PUSH1 0x0 DUP1 REVERT JUMPDEST PUSH1 0x0 DUP2 SWAP1 POP SWAP2 SWAP1 POP JUMP JUMPDEST PUSH2 0x20C7 DUP2 PUSH2 0x20B4 JUMP JUMPDEST DUP2 EQ PUSH2 0x20D2 JUMPI PUSH1 0x0 DUP1 REVERT JUMPDEST POP JUMP JUMPDEST PUSH1 0x0 DUP2 CALLDATALOAD SWAP1 POP PUSH2 0x20E4 DUP2 PUSH2 0x20BE JUMP JUMPDEST SWAP3 SWAP2 POP POP JUMP JUMPDEST PUSH1 0x0 PUSH20 0xFFFFFFFFFFFFFFFFFFFFFFFFFFFFFFFFFFFFFFFF DUP3 AND SWAP1 POP SWAP2 SWAP1 POP JUMP JUMPDEST PUSH1 0x0 PUSH2 0x2115 DUP3 PUSH2 0x20EA JUMP JUMPDEST SWAP1 POP SWAP2 SWAP1 POP JUMP JUMPDEST PUSH2 0x2125 DUP2 PUSH2 0x210A JUMP JUMPDEST DUP2 EQ PUSH2 0x2130 JUMPI PUSH1 0x0 DUP1 REVERT JUMPDEST POP JUMP JUMPDEST PUSH1 0x0 DUP2 CALLDATALOAD SWAP1 POP PUSH2 0x2142 DUP2 PUSH2 0x211C JUMP JUMPDEST SWAP3 SWAP2 POP POP JUMP JUMPDEST PUSH1 0x0 DUP1 PUSH1 0x40 DUP4 DUP6 SUB SLT ISZERO PUSH2 0x215F JUMPI PUSH2 0x215E PUSH2 0x20AA JUMP JUMPDEST JUMPDEST PUSH1 0x0 PUSH2 0x216D DUP6 DUP3 DUP7 ADD PUSH2 0x20D5 JUMP JUMPDEST SWAP3 POP POP PUSH1 0x20 PUSH2 0x217E DUP6 DUP3 DUP7 ADD PUSH2 0x2133 JUMP JUMPDEST SWAP2 POP POP SWAP3 POP SWAP3 SWAP1 POP JUMP JUMPDEST PUSH1 0x0 DUP2 ISZERO ISZERO SWAP1 POP SWAP2 SWAP1 POP JUMP JUMPDEST PUSH2 0x219D DUP2 PUSH2 0x2188 JUMP JUMPDEST DUP3 MSTORE POP POP JUMP JUMPDEST PUSH1 0x0 PUSH1 0x20 DUP3 ADD SWAP1 POP PUSH2 0x21B8 PUSH1 0x0 DUP4 ADD DUP5 PUSH2 0x2194 JUMP JUMPDEST SWAP3 SWAP2 POP POP JUMP JUMPDEST PUSH1 0x0 PUSH1 0xFF DUP3 AND SWAP1 POP SWAP2 SWAP1 POP JUMP JUMPDEST PUSH2 0x21D4 DUP2 PUSH2 0x21BE JUMP JUMPDEST DUP2 EQ PUSH2 0x21DF JUMPI PUSH1 0x0 DUP1 REVERT JUMPDEST POP JUMP JUMPDEST PUSH1 0x0 DUP2 CALLDATALOAD SWAP1 POP PUSH2 0x21F1 DUP2 PUSH2 0x21CB JUMP JUMPDEST SWAP3 SWAP2 POP POP JUMP JUMPDEST PUSH1 0x0 DUP1 PUSH1 0x40 DUP4 DUP6 SUB SLT ISZERO PUSH2 0x220E JUMPI PUSH2 0x220D PUSH2 0x20AA JUMP JUMPDEST JUMPDEST PUSH1 0x0 PUSH2 0x221C DUP6 DUP3 DUP7 ADD PUSH2 0x20D5 JUMP JUMPDEST SWAP3 POP POP PUSH1 0x20 PUSH2 0x222D DUP6 DUP3 DUP7 ADD PUSH2 0x21E2 JUMP JUMPDEST SWAP2 POP POP SWAP3 POP SWAP3 SWAP1 POP JUMP JUMPDEST PUSH1 0x0 PUSH1 0x20 DUP3 DUP5 SUB SLT ISZERO PUSH2 0x224D JUMPI PUSH2 0x224C PUSH2 0x20AA JUMP JUMPDEST JUMPDEST PUSH1 0x0 PUSH2 0x225B DUP5 DUP3 DUP6 ADD PUSH2 0x20D5 JUMP JUMPDEST SWAP2 POP POP SWAP3 SWAP2 POP POP JUMP JUMPDEST PUSH2 0x226D DUP2 PUSH2 0x20B4 JUMP JUMPDEST DUP3 MSTORE POP POP JUMP JUMPDEST PUSH1 0x0 PUSH1 0x20 DUP3 ADD SWAP1 POP PUSH2 0x2288 PUSH1 0x0 DUP4 ADD DUP5 PUSH2 0x2264 JUMP JUMPDEST SWAP3 SWAP2 POP POP JUMP JUMPDEST PUSH2 0x2297 DUP2 PUSH2 0x21BE JUMP JUMPDEST DUP3 MSTORE POP POP JUMP JUMPDEST PUSH1 0x0 PUSH1 0x20 DUP3 ADD SWAP1 POP PUSH2 0x22B2 PUSH1 0x0 DUP4 ADD DUP5 PUSH2 0x228E JUMP JUMPDEST SWAP3 SWAP2 POP POP JUMP JUMPDEST PUSH1 0x0 DUP1 PUSH1 0x40 DUP4 DUP6 SUB SLT ISZERO PUSH2 0x22CF JUMPI PUSH2 0x22CE PUSH2 0x20AA JUMP JUMPDEST JUMPDEST PUSH1 0x0 PUSH2 0x22DD DUP6 DUP3 DUP7 ADD PUSH2 0x20D5 JUMP JUMPDEST SWAP3 POP POP PUSH1 0x20 PUSH2 0x22EE DUP6 DUP3 DUP7 ADD PUSH2 0x20D5 JUMP JUMPDEST SWAP2 POP POP SWAP3 POP SWAP3 SWAP1 POP JUMP JUMPDEST PUSH1 0x0 DUP2 SWAP1 POP SWAP2 SWAP1 POP JUMP JUMPDEST PUSH2 0x230B DUP2 PUSH2 0x22F8 JUMP JUMPDEST DUP2 EQ PUSH2 0x2316 JUMPI PUSH1 0x0 DUP1 REVERT JUMPDEST POP JUMP JUMPDEST PUSH1 0x0 DUP2 CALLDATALOAD SWAP1 POP PUSH2 0x2328 DUP2 PUSH2 0x2302 JUMP JUMPDEST SWAP3 SWAP2 POP POP JUMP JUMPDEST PUSH1 0x0 PUSH8 0xFFFFFFFFFFFFFFFF DUP3 AND SWAP1 POP SWAP2 SWAP1 POP JUMP JUMPDEST PUSH2 0x234B DUP2 PUSH2 0x232E JUMP JUMPDEST DUP2 EQ PUSH2 0x2356 JUMPI PUSH1 0x0 DUP1 REVERT JUMPDEST POP JUMP JUMPDEST PUSH1 0x0 DUP2 CALLDATALOAD SWAP1 POP PUSH2 0x2368 DUP2 PUSH2 0x2342 JUMP JUMPDEST SWAP3 SWAP2 POP POP JUMP JUMPDEST PUSH1 0x0 DUP1 REVERT JUMPDEST PUSH1 0x0 PUSH1 0x1F NOT PUSH1 0x1F DUP4 ADD AND SWAP1 POP SWAP2 SWAP1 POP JUMP JUMPDEST PUSH32 0x4E487B7100000000000000000000000000000000000000000000000000000000 PUSH1 0x0 MSTORE PUSH1 0x41 PUSH1 0x4 MSTORE PUSH1 0x24 PUSH1 0x0 REVERT JUMPDEST PUSH2 0x23BC DUP3 PUSH2 0x2373 JUMP JUMPDEST DUP2 ADD DUP2 DUP2 LT PUSH8 0xFFFFFFFFFFFFFFFF DUP3 GT OR ISZERO PUSH2 0x23DB JUMPI PUSH2 0x23DA PUSH2 0x2384 JUMP JUMPDEST JUMPDEST DUP1 PUSH1 0x40 MSTORE POP POP POP JUMP JUMPDEST PUSH1 0x0 PUSH2 0x23EE PUSH2 0x20A0 JUMP JUMPDEST SWAP1 POP PUSH2 0x23FA DUP3 DUP3 PUSH2 0x23B3 JUMP JUMPDEST SWAP2 SWAP1 POP JUMP JUMPDEST PUSH1 0x0 PUSH8 0xFFFFFFFFFFFFFFFF DUP3 GT ISZERO PUSH2 0x241A JUMPI PUSH2 0x2419 PUSH2 0x2384 JUMP JUMPDEST JUMPDEST PUSH1 0x20 DUP3 MUL SWAP1 POP PUSH1 0x20 DUP2 ADD SWAP1 POP SWAP2 SWAP1 POP JUMP JUMPDEST PUSH1 0x0 DUP1 REVERT JUMPDEST PUSH1 0x0 PUSH2 0x2443 PUSH2 0x243E DUP5 PUSH2 0x23FF JUMP JUMPDEST PUSH2 0x23E4 JUMP JUMPDEST SWAP1 POP DUP1 DUP4 DUP3 MSTORE PUSH1 0x20 DUP3 ADD SWAP1 POP PUSH1 0x20 DUP5 MUL DUP4 ADD DUP6 DUP2 GT ISZERO PUSH2 0x2466 JUMPI PUSH2 0x2465 PUSH2 0x242B JUMP JUMPDEST JUMPDEST DUP4 JUMPDEST DUP2 DUP2 LT ISZERO PUSH2 0x248F JUMPI DUP1 PUSH2 0x247B DUP9 DUP3 PUSH2 0x2133 JUMP JUMPDEST DUP5 MSTORE PUSH1 0x20 DUP5 ADD SWAP4 POP POP PUSH1 0x20 DUP2 ADD SWAP1 POP PUSH2 0x2468 JUMP JUMPDEST POP POP POP SWAP4 SWAP3 POP POP POP JUMP JUMPDEST PUSH1 0x0 DUP3 PUSH1 0x1F DUP4 ADD SLT PUSH2 0x24AE JUMPI PUSH2 0x24AD PUSH2 0x236E JUMP JUMPDEST JUMPDEST DUP2 CALLDATALOAD PUSH2 0x24BE DUP5 DUP3 PUSH1 0x20 DUP7 ADD PUSH2 0x2430 JUMP JUMPDEST SWAP2 POP POP SWAP3 SWAP2 POP POP JUMP JUMPDEST PUSH1 0x0 DUP1 PUSH1 0x0 DUP1 PUSH1 0x0 DUP1 PUSH1 0xC0 DUP8 DUP10 SUB SLT ISZERO PUSH2 0x24E4 JUMPI PUSH2 0x24E3 PUSH2 0x20AA JUMP JUMPDEST JUMPDEST PUSH1 0x0 PUSH2 0x24F2 DUP10 DUP3 DUP11 ADD PUSH2 0x2319 JUMP JUMPDEST SWAP7 POP POP PUSH1 0x20 PUSH2 0x2503 DUP10 DUP3 DUP11 ADD PUSH2 0x2359 JUMP JUMPDEST SWAP6 POP POP PUSH1 0x40 PUSH2 0x2514 DUP10 DUP3 DUP11 ADD PUSH2 0x2133 JUMP JUMPDEST SWAP5 POP POP PUSH1 0x60 PUSH2 0x2525 DUP10 DUP3 DUP11 ADD PUSH2 0x20D5 JUMP JUMPDEST SWAP4 POP POP PUSH1 0x80 DUP8 ADD CALLDATALOAD PUSH8 0xFFFFFFFFFFFFFFFF DUP2 GT ISZERO PUSH2 0x2546 JUMPI PUSH2 0x2545 PUSH2 0x20AF JUMP JUMPDEST JUMPDEST PUSH2 0x2552 DUP10 DUP3 DUP11 ADD PUSH2 0x2499 JUMP JUMPDEST SWAP3 POP POP PUSH1 0xA0 PUSH2 0x2563 DUP10 DUP3 DUP11 ADD PUSH2 0x20D5 JUMP JUMPDEST SWAP2 POP POP SWAP3 SWAP6 POP SWAP3 SWAP6 POP SWAP3 SWAP6 JUMP JUMPDEST PUSH2 0x2579 DUP2 PUSH2 0x2188 JUMP JUMPDEST DUP2 EQ PUSH2 0x2584 JUMPI PUSH1 0x0 DUP1 REVERT JUMPDEST POP JUMP JUMPDEST PUSH1 0x0 DUP2 CALLDATALOAD SWAP1 POP PUSH2 0x2596 DUP2 PUSH2 0x2570 JUMP JUMPDEST SWAP3 SWAP2 POP POP JUMP JUMPDEST PUSH1 0x0 DUP1 PUSH1 0x40 DUP4 DUP6 SUB SLT ISZERO PUSH2 0x25B3 JUMPI PUSH2 0x25B2 PUSH2 0x20AA JUMP JUMPDEST JUMPDEST PUSH1 0x0 PUSH2 0x25C1 DUP6 DUP3 DUP7 ADD PUSH2 0x20D5 JUMP JUMPDEST SWAP3 POP POP PUSH1 0x20 PUSH2 0x25D2 DUP6 DUP3 DUP7 ADD PUSH2 0x2587 JUMP JUMPDEST SWAP2 POP POP SWAP3 POP SWAP3 SWAP1 POP JUMP JUMPDEST PUSH2 0x25E5 DUP2 PUSH2 0x210A JUMP JUMPDEST DUP3 MSTORE POP POP JUMP JUMPDEST PUSH2 0x25F4 DUP2 PUSH2 0x22F8 JUMP JUMPDEST DUP3 MSTORE POP POP JUMP JUMPDEST PUSH2 0x2603 DUP2 PUSH2 0x232E JUMP JUMPDEST DUP3 MSTORE POP POP JUMP JUMPDEST PUSH1 0x0 PUSH2 0x120 DUP3 ADD SWAP1 POP PUSH2 0x261F PUSH1 0x0 DUP4 ADD DUP13 PUSH2 0x2264 JUMP JUMPDEST PUSH2 0x262C PUSH1 0x20 DUP4 ADD DUP12 PUSH2 0x25DC JUMP JUMPDEST PUSH2 0x2639 PUSH1 0x40 DUP4 ADD DUP11 PUSH2 0x25DC JUMP JUMPDEST PUSH2 0x2646 PUSH1 0x60 DUP4 ADD DUP10 PUSH2 0x25EB JUMP JUMPDEST PUSH2 0x2653 PUSH1 0x80 DUP4 ADD DUP9 PUSH2 0x25FA JUMP JUMPDEST PUSH2 0x2660 PUSH1 0xA0 DUP4 ADD DUP8 PUSH2 0x2264 JUMP JUMPDEST PUSH2 0x266D PUSH1 0xC0 DUP4 ADD DUP7 PUSH2 0x2194 JUMP JUMPDEST PUSH2 0x267A PUSH1 0xE0 DUP4 ADD DUP6 PUSH2 0x2194 JUMP JUMPDEST PUSH2 0x2688 PUSH2 0x100 DUP4 ADD DUP5 PUSH2 0x228E JUMP JUMPDEST SWAP11 SWAP10 POP POP POP POP POP POP POP POP POP POP JUMP JUMPDEST PUSH1 0x0 DUP1 PUSH1 0x0 PUSH1 0x60 DUP5 DUP7 SUB SLT ISZERO PUSH2 0x26AF JUMPI PUSH2 0x26AE PUSH2 0x20AA JUMP JUMPDEST JUMPDEST PUSH1 0x0 PUSH2 0x26BD DUP7 DUP3 DUP8 ADD PUSH2 0x20D5 JUMP JUMPDEST SWAP4 POP POP PUSH1 0x20 PUSH2 0x26CE DUP7 DUP3 DUP8 ADD PUSH2 0x2133 JUMP JUMPDEST SWAP3 POP POP PUSH1 0x40 PUSH2 0x26DF DUP7 DUP3 DUP8 ADD PUSH2 0x20D5 JUMP JUMPDEST SWAP2 POP POP SWAP3 POP SWAP3 POP SWAP3 JUMP JUMPDEST PUSH1 0x0 DUP1 PUSH1 0x0 PUSH1 0x60 DUP5 DUP7 SUB SLT ISZERO PUSH2 0x2702 JUMPI PUSH2 0x2701 PUSH2 0x20AA JUMP JUMPDEST JUMPDEST PUSH1 0x0 PUSH2 0x2710 DUP7 DUP3 DUP8 ADD PUSH2 0x20D5 JUMP JUMPDEST SWAP4 POP POP PUSH1 0x20 PUSH2 0x2721 DUP7 DUP3 DUP8 ADD PUSH2 0x21E2 JUMP JUMPDEST SWAP3 POP POP PUSH1 0x40 PUSH2 0x2732 DUP7 DUP3 DUP8 ADD PUSH2 0x2319 JUMP JUMPDEST SWAP2 POP POP SWAP3 POP SWAP3 POP SWAP3 JUMP JUMPDEST PUSH1 0x0 DUP3 DUP3 MSTORE PUSH1 0x20 DUP3 ADD SWAP1 POP SWAP3 SWAP2 POP POP JUMP JUMPDEST PUSH32 0x6E6F742070617274000000000000000000000000000000000000000000000000 PUSH1 0x0 DUP3 ADD MSTORE POP JUMP JUMPDEST PUSH1 0x0 PUSH2 0x2783 PUSH1 0x8 DUP4 PUSH2 0x273C JUMP JUMPDEST SWAP2 POP PUSH2 0x278E DUP3 PUSH2 0x274D JUMP JUMPDEST PUSH1 0x20 DUP3 ADD SWAP1 POP SWAP2 SWAP1 POP JUMP JUMPDEST PUSH1 0x0 PUSH1 0x20 DUP3 ADD SWAP1 POP DUP2 DUP2 SUB PUSH1 0x0 DUP4 ADD MSTORE PUSH2 0x27B2 DUP2 PUSH2 0x2776 JUMP JUMPDEST SWAP1 POP SWAP2 SWAP1 POP JUMP JUMPDEST PUSH32 0x66696E616C000000000000000000000000000000000000000000000000000000 PUSH1 0x0 DUP3 ADD MSTORE POP JUMP JUMPDEST PUSH1 0x0 PUSH2 0x27EF PUSH1 0x5 DUP4 PUSH2 0x273C JUMP JUMPDEST SWAP2 POP PUSH2 0x27FA DUP3 PUSH2 0x27B9 JUMP JUMPDEST PUSH1 0x20 DUP3 ADD SWAP1 POP SWAP2 SWAP1 POP JUMP JUMPDEST PUSH1 0x0 PUSH1 0x20 DUP3 ADD SWAP1 POP DUP2 DUP2 SUB PUSH1 0x0 DUP4 ADD MSTORE PUSH2 0x281E DUP2 PUSH2 0x27E2 JUMP JUMPDEST SWAP1 POP SWAP2 SWAP1 POP JUMP JUMPDEST PUSH32 0x6261640000000000000000000000000000000000000000000000000000000000 PUSH1 0x0 DUP3 ADD MSTORE POP JUMP JUMPDEST PUSH1 0x0 PUSH2 0x285B PUSH1 0x3 DUP4 PUSH2 0x273C JUMP JUMPDEST SWAP2 POP PUSH2 0x2866 DUP3 PUSH2 0x2825 JUMP JUMPDEST PUSH1 0x20 DUP3 ADD SWAP1 POP SWAP2 SWAP1 POP JUMP JUMPDEST PUSH1 0x0 PUSH1 0x20 DUP3 ADD SWAP1 POP DUP2 DUP2 SUB PUSH1 0x0 DUP4 ADD MSTORE PUSH2 0x288A DUP2 PUSH2 0x284E JUMP JUMPDEST SWAP1 POP SWAP2 SWAP1 POP JUMP JUMPDEST PUSH32 0x6E6F742066696E616C0000000000000000000000000000000000000000000000 PUSH1 0x0 DUP3 ADD MSTORE POP JUMP JUMPDEST PUSH1 0x0 PUSH2 0x28C7 PUSH1 0x9 DUP4 PUSH2 0x273C JUMP JUMPDEST SWAP2 POP PUSH2 0x28D2 DUP3 PUSH2 0x2891 JUMP JUMPDEST PUSH1 0x20 DUP3 ADD SWAP1 POP SWAP2 SWAP1 POP JUMP JUMPDEST PUSH1 0x0 PUSH1 0x20 DUP3 ADD SWAP1 POP DUP2 DUP2 SUB PUSH1 0x0 DUP4 ADD MSTORE PUSH2 0x28F6 DUP2 PUSH2 0x28BA JUMP JUMPDEST SWAP1 POP SWAP2 SWAP1 POP JUMP JUMPDEST PUSH32 0x646F6E6500000000000000000000000000000000000000000000000000000000 PUSH1 0x0 DUP3 ADD MSTORE POP JUMP JUMPDEST PUSH1 0x0 PUSH2 0x2933 PUSH1 0x4 DUP4 PUSH2 0x273C JUMP JUMPDEST SWAP2 POP PUSH2 0x293E DUP3 PUSH2 0x28FD JUMP JUMPDEST PUSH1 0x20 DUP3 ADD SWAP1 POP SWAP2 SWAP1 POP JUMP JUMPDEST PUSH1 0x0 PUSH1 0x20 DUP3 ADD SWAP1 POP DUP2 DUP2 SUB PUSH1 0x0 DUP4 ADD MSTORE PUSH2 0x2962 DUP2 PUSH2 0x2926 JUMP JUMPDEST SWAP1 POP SWAP2 SWAP1 POP JUMP JUMPDEST PUSH32 0x4E487B7100000000000000000000000000000000000000000000000000000000 PUSH1 0x0 MSTORE PUSH1 0x32 PUSH1 0x4 MSTORE PUSH1 0x24 PUSH1 0x0 REVERT JUMPDEST PUSH32 0x4E487B7100000000000000000000000000000000000000000000000000000000 PUSH1 0x0 MSTORE PUSH1 0x11 PUSH1 0x4 MSTORE PUSH1 0x24 PUSH1 0x0 REVERT JUMPDEST PUSH1 0x0 PUSH2 0x29D2 DUP3 PUSH2 0x20B4 JUMP JUMPDEST SWAP2 POP PUSH2 0x29DD DUP4 PUSH2 0x20B4 JUMP JUMPDEST SWAP3 POP DUP3 DUP3 ADD SWAP1 POP DUP1 DUP3 GT ISZERO PUSH2 0x29F5 JUMPI PUSH2 0x29F4 PUSH2 0x2998 JUMP JUMPDEST JUMPDEST SWAP3 SWAP2 POP POP JUMP JUMPDEST PUSH1 0x0 PUSH2 0x2A06 DUP3 PUSH2 0x20B4 JUMP JUMPDEST SWAP2 POP PUSH32 0xFFFFFFFFFFFFFFFFFFFFFFFFFFFFFFFFFFFFFFFFFFFFFFFFFFFFFFFFFFFFFFFF DUP3 SUB PUSH2 0x2A38 JUMPI PUSH2 0x2A37 PUSH2 0x2998 JUMP JUMPDEST JUMPDEST PUSH1 0x1 DUP3 ADD SWAP1 POP SWAP2 SWAP1 POP JUMP JUMPDEST PUSH1 0x0 PUSH2 0x2A4E DUP3 PUSH2 0x20B4 JUMP JUMPDEST SWAP2 POP PUSH2 0x2A59 DUP4 PUSH2 0x20B4 JUMP JUMPDEST SWAP3 POP DUP3 DUP3 MUL PUSH2 0x2A67 DUP2 PUSH2 0x20B4 JUMP JUMPDEST SWAP2 POP DUP3 DUP3 DIV DUP5 EQ DUP4 ISZERO OR PUSH2 0x2A7E JUMPI PUSH2 0x2A7D PUSH2 0x2998 JUMP JUMPDEST JUMPDEST POP SWAP3 SWAP2 POP POP JUMP JUMPDEST PUSH32 0x4E487B7100000000000000000000000000000000000000000000000000000000 PUSH1 0x0 MSTORE PUSH1 0x12 PUSH1 0x4 MSTORE PUSH1 0x24 PUSH1 0x0 REVERT JUMPDEST PUSH1 0x0 PUSH2 0x2ABF DUP3 PUSH2 0x20B4 JUMP JUMPDEST SWAP2 POP PUSH2 0x2ACA DUP4 PUSH2 0x20B4 JUMP JUMPDEST SWAP3 POP DUP3 PUSH2 0x2ADA JUMPI PUSH2 0x2AD9 PUSH2 0x2A85 JUMP JUMPDEST JUMPDEST DUP3 DUP3 DIV SWAP1 POP SWAP3 SWAP2 POP POP JUMP JUMPDEST PUSH1 0x0 DUP2 SWAP1 POP SWAP3 SWAP2 POP POP JUMP JUMPDEST POP JUMP JUMPDEST PUSH1 0x0 PUSH2 0x2B00 PUSH1 0x0 DUP4 PUSH2 0x2AE5 JUMP JUMPDEST SWAP2 POP PUSH2 0x2B0B DUP3 PUSH2 0x2AF0 JUMP JUMPDEST PUSH1 0x0 DUP3 ADD SWAP1 POP SWAP2 SWAP1 POP JUMP JUMPDEST PUSH1 0x0 PUSH2 0x2B21 DUP3 PUSH2 0x2AF3 JUMP JUMPDEST SWAP2 POP DUP2 SWAP1 POP SWAP2 SWAP1 POP JUMP JUMPDEST PUSH32 0x636C6F7365640000000000000000000000000000000000000000000000000000 PUSH1 0x0 DUP3 ADD MSTORE POP JUMP JUMPDEST PUSH1 0x0 PUSH2 0x2B61 PUSH1 0x6 DUP4 PUSH2 0x273C JUMP JUMPDEST SWAP2 POP PUSH2 0x2B6C DUP3 PUSH2 0x2B2B JUMP JUMPDEST PUSH1 0x20 DUP3 ADD SWAP1 POP SWAP2 SWAP1 POP JUMP JUMPDEST PUSH1 0x0 PUSH1 0x20 DUP3 ADD SWAP1 POP DUP2 DUP2 SUB PUSH1 0x0 DUP4 ADD MSTORE PUSH2 0x2B90 DUP2 PUSH2 0x2B54 JUMP JUMPDEST SWAP1 POP SWAP2 SWAP1 POP JUMP JUMPDEST PUSH32 0x646561646C696E65000000000000000000000000000000000000000000000000 PUSH1 0x0 DUP3 ADD MSTORE POP JUMP JUMPDEST PUSH1 0x0 PUSH2 0x2BCD PUSH1 0x8 DUP4 PUSH2 0x273C JUMP JUMPDEST SWAP2 POP PUSH2 0x2BD8 DUP3 PUSH2 0x2B97 JUMP JUMPDEST PUSH1 0x20 DUP3 ADD SWAP1 POP SWAP2 SWAP1 POP JUMP JUMPDEST PUSH1 0x0 PUSH1 0x20 DUP3 ADD SWAP1 POP DUP2 DUP2 SUB PUSH1 0x0 DUP4 ADD MSTORE PUSH2 0x2BFC DUP2 PUSH2 0x2BC0 JUMP JUMPDEST SWAP1 POP SWAP2 SWAP1 POP JUMP JUMPDEST PUSH32 0x7461726765740000000000000000000000000000000000000000000000000000 PUSH1 0x0 DUP3 ADD MSTORE POP JUMP JUMPDEST PUSH1 0x0 PUSH2 0x2C39 PUSH1 0x6 DUP4 PUSH2 0x273C JUMP JUMPDEST SWAP2 POP PUSH2 0x2C44 DUP3 PUSH2 0x2C03 JUMP JUMPDEST PUSH1 0x20 DUP3 ADD SWAP1 POP SWAP2 SWAP1 POP JUMP JUMPDEST PUSH1 0x0 PUSH1 0x20 DUP3 ADD SWAP1 POP DUP2 DUP2 SUB PUSH1 0x0 DUP4 ADD MSTORE PUSH2 0x2C68 DUP2 PUSH2 0x2C2C JUMP JUMPDEST SWAP1 POP SWAP2 SWAP1 POP JUMP JUMPDEST PUSH32 0x6261642069647800000000000000000000000000000000000000000000000000 PUSH1 0x0 DUP3 ADD MSTORE POP JUMP JUMPDEST PUSH1 0x0 PUSH2 0x2CA5 PUSH1 0x7 DUP4 PUSH2 0x273C JUMP JUMPDEST SWAP2 POP PUSH2 0x2CB0 DUP3 PUSH2 0x2C6F JUMP JUMPDEST PUSH1 0x20 DUP3 ADD SWAP1 POP SWAP2 SWAP1 POP JUMP JUMPDEST PUSH1 0x0 PUSH1 0x20 DUP3 ADD SWAP1 POP DUP2 DUP2 SUB PUSH1 0x0 DUP4 ADD MSTORE PUSH2 0x2CD4 DUP2 PUSH2 0x2C98 JUMP JUMPDEST SWAP1 POP SWAP2 SWAP1 POP JUMP JUMPDEST PUSH1 0x0 PUSH2 0x2CE6 DUP3 PUSH2 0x20B4 JUMP JUMPDEST SWAP2 POP PUSH2 0x2CF1 DUP4 PUSH2 0x20B4 JUMP JUMPDEST SWAP3 POP DUP3 PUSH2 0x2D01 JUMPI PUSH2 0x2D00 PUSH2 0x2A85 JUMP JUMPDEST JUMPDEST DUP3 DUP3 MOD SWAP1 POP SWAP3 SWAP2 POP POP JUMP JUMPDEST PUSH32 0x62616420616D7400000000000000000000000000000000000000000000000000 PUSH1 0x0 DUP3 ADD MSTORE POP JUMP JUMPDEST PUSH1 0x0 PUSH2 0x2D42 PUSH1 0x7 DUP4 PUSH2 0x273C JUMP JUMPDEST SWAP2 POP PUSH2 0x2D4D DUP3 PUSH2 0x2D0C JUMP JUMPDEST PUSH1 0x20 DUP3 ADD SWAP1 POP SWAP2 SWAP1 POP JUMP JUMPDEST PUSH1 0x0 PUSH1 0x20 DUP3 ADD SWAP1 POP DUP2 DUP2 SUB PUSH1 0x0 DUP4 ADD MSTORE PUSH2 0x2D71 DUP2 PUSH2 0x2D35 JUMP JUMPDEST SWAP1 POP SWAP2 SWAP1 POP JUMP JUMPDEST PUSH1 0x0 PUSH1 0x40 DUP3 ADD SWAP1 POP PUSH2 0x2D8D PUSH1 0x0 DUP4 ADD DUP6 PUSH2 0x2264 JUMP JUMPDEST PUSH2 0x2D9A PUSH1 0x20 DUP4 ADD DUP5 PUSH2 0x2264 JUMP JUMPDEST SWAP4 SWAP3 POP POP POP JUMP JUMPDEST PUSH32 0x62616420646561646C696E650000000000000000000000000000000000000000 PUSH1 0x0 DUP3 ADD MSTORE POP JUMP JUMPDEST PUSH1 0x0 PUSH2 0x2DD7 PUSH1 0xC DUP4 PUSH2 0x273C JUMP JUMPDEST SWAP2 POP PUSH2 0x2DE2 DUP3 PUSH2 0x2DA1 JUMP JUMPDEST PUSH1 0x20 DUP3 ADD SWAP1 POP SWAP2 SWAP1 POP JUMP JUMPDEST PUSH1 0x0 PUSH1 0x20 DUP3 ADD SWAP1 POP DUP2 DUP2 SUB PUSH1 0x0 DUP4 ADD MSTORE PUSH2 0x2E06 DUP2 PUSH2 0x2DCA JUMP JUMPDEST SWAP1 POP SWAP2 SWAP1 POP JUMP JUMPDEST PUSH32 0x6E6F206861736800000000000000000000000000000000000000000000000000 PUSH1 0x0 DUP3 ADD MSTORE POP JUMP JUMPDEST PUSH1 0x0 PUSH2 0x2E43 PUSH1 0x7 DUP4 PUSH2 0x273C JUMP JUMPDEST SWAP2 POP PUSH2 0x2E4E DUP3 PUSH2 0x2E0D JUMP JUMPDEST PUSH1 0x20 DUP3 ADD SWAP1 POP SWAP2 SWAP1 POP JUMP JUMPDEST PUSH1 0x0 PUSH1 0x20 DUP3 ADD SWAP1 POP DUP2 DUP2 SUB PUSH1 0x0 DUP4 ADD MSTORE PUSH2 0x2E72 DUP2 PUSH2 0x2E36 JUMP JUMPDEST SWAP1 POP SWAP2 SWAP1 POP JUMP JUMPDEST PUSH32 0x6261642073686172650000000000000000000000000000000000000000000000 PUSH1 0x0 DUP3 ADD MSTORE POP JUMP JUMPDEST PUSH1 0x0 PUSH2 0x2EAF PUSH1 0x9 DUP4 PUSH2 0x273C JUMP JUMPDEST SWAP2 POP PUSH2 0x2EBA DUP3 PUSH2 0x2E79 JUMP JUMPDEST PUSH1 0x20 DUP3 ADD SWAP1 POP SWAP2 SWAP1 POP JUMP JUMPDEST PUSH1 0x0 PUSH1 0x20 DUP3 ADD SWAP1 POP DUP2 DUP2 SUB PUSH1 0x0 DUP4 ADD MSTORE PUSH2 0x2EDE DUP2 PUSH2 0x2EA2 JUMP JUMPDEST SWAP1 POP SWAP2 SWAP1 POP JUMP JUMPDEST PUSH32 0x6E6F206F7574636F6D6573000000000000000000000000000000000000000000 PUSH1 0x0 DUP3 ADD MSTORE POP JUMP JUMPDEST PUSH1 0x0 PUSH2 0x2F1B PUSH1 0xB DUP4 PUSH2 0x273C JUMP JUMPDEST SWAP2 POP PUSH2 0x2F26 DUP3 PUSH2 0x2EE5 JUMP JUMPDEST PUSH1 0x20 DUP3 ADD SWAP1 POP SWAP2 SWAP1 POP JUMP JUMPDEST PUSH1 0x0 PUSH1 0x20 DUP3 ADD SWAP1 POP DUP2 DUP2 SUB PUSH1 0x0 DUP4 ADD MSTORE PUSH2 0x2F4A DUP2 PUSH2 0x2F0E JUMP JUMPDEST SWAP1 POP SWAP2 SWAP1 POP JUMP JUMPDEST PUSH1 0x0 PUSH1 0x20 DUP3 ADD SWAP1 POP PUSH2 0x2F66 PUSH1 0x0 DUP4 ADD DUP5 PUSH2 0x25EB JUMP JUMPDEST SWAP3 SWAP2 POP POP JUMP JUMPDEST PUSH32 0x6E6F742073797300000000000000000000000000000000000000000000000000 PUSH1 0x0 DUP3 ADD MSTORE POP JUMP JUMPDEST PUSH1 0x0 PUSH2 0x2FA2 PUSH1 0x7 DUP4 PUSH2 0x273C JUMP JUMPDEST SWAP2 POP PUSH2 0x2FAD DUP3 PUSH2 0x2F6C JUMP JUMPDEST PUSH1 0x20 DUP3 ADD SWAP1 POP SWAP2 SWAP1 POP JUMP JUMPDEST PUSH1 0x0 PUSH1 0x20 DUP3 ADD SWAP1 POP DUP2 DUP2 SUB PUSH1 0x0 DUP4 ADD MSTORE PUSH2 0x2FD1 DUP2 PUSH2 0x2F95 JUMP JUMPDEST SWAP1 POP SWAP2 SWAP1 POP JUMP JUMPDEST PUSH32 0x6261642068617368000000000000000000000000000000000000000000000000 PUSH1 0x0 DUP3 ADD MSTORE POP JUMP JUMPDEST PUSH1 0x0 PUSH2 0x300E PUSH1 0x8 DUP4 PUSH2 0x273C JUMP JUMPDEST SWAP2 POP PUSH2 0x3019 DUP3 PUSH2 0x2FD8 JUMP JUMPDEST PUSH1 0x20 DUP3 ADD SWAP1 POP SWAP2 SWAP1 POP JUMP JUMPDEST PUSH1 0x0 PUSH1 0x20 DUP3 ADD SWAP1 POP DUP2 DUP2 SUB PUSH1 0x0 DUP4 ADD MSTORE PUSH2 0x303D DUP2 PUSH2 0x3001 JUMP JUMPDEST SWAP1 POP SWAP2 SWAP1 POP JUMP JUMPDEST PUSH1 0x0 PUSH1 0x40 DUP3 ADD SWAP1 POP PUSH2 0x3059 PUSH1 0x0 DUP4 ADD DUP6 PUSH2 0x228E JUMP JUMPDEST PUSH2 0x3066 PUSH1 0x20 DUP4 ADD DUP5 PUSH2 0x2194 JUMP JUMPDEST SWAP4 SWAP3 POP POP POP JUMP INVALID LOG2 PUSH5 0x6970667358 0x22 SLT KECCAK256 DUP13 0xE6 PUSH1 0xD0 SMOD 0xDE 0xBC PUSH11 0x63116D2B415CC096220D8E 0xE9 PUSH15 0xC94E3E34EA3672E4D08F0764736F6C PUSH4 0x43000814 STOP CALLER "},"methodIdentifiers":{"createMarket(bytes32,uint64,address,uint256,address[],uint256)":"53d36324","hasWithdrawn(uint256,address)":"94cec7a7","isParticipant(uint256,address)":"758d9b89","isTarget(uint256,address)":"0faff2d8","markets(uint256)":"b1283e77","nextMarketId()":"406ef2ef","placeBet(uint256,uint256)":"4afe62b5","stakes(uint256,address,uint256)":"b1427ac1","systemCancel(uint256)":"f65eb997","systemResolve(uint256,uint8,bytes32)":"f36130ab","voteCancel(uint256,address)":"55c1bd10","voteOutcome(uint256,address)":"48f06b75","voteResolve(uint256,uint8)":"1915c938","voteToCancel(uint256,bool)":"55a2bf91","withdraw(uint256)":"2e1a7d4d"}}}}}