{
    "contractName": "EntropyBeasts",
    "abi": [
        {
            "inputs": [
                {
                    "internalType": "address",
                    "name": "_entropy",
                    "type": "address"
                }
            ],
            "stateMutability": "nonpayable",
            "type": "constructor"
        },
        {
            "anonymous": false,
            "inputs": [
                {
                    "indexed": true,
                    "internalType": "uint256",
                    "name": "tokenId",
                    "type": "uint256"
                },
                {
                    "indexed": false,
                    "internalType": "uint256",
                    "name": "strength",
                    "type": "uint256"
                },
                {
                    "indexed": false,
                    "internalType": "uint256",
                    "name": "intelligence",
                    "type": "uint256"
                },
                {
                    "indexed": false,
                    "internalType": "uint32",
                    "name": "gasUsed",
                    "type": "uint32"
                }
            ],
            "name": "BeastMinted",
            "type": "event"
        },
        {
            "inputs": [
                {
                    "internalType": "uint64",
                    "name": "sequence",
                    "type": "uint64"
                },
                {
                    "internalType": "address",
                    "name": "provider",
                    "type": "address"
                },
                {
                    "internalType": "bytes32",
                    "name": "randomNumber",
                    "type": "bytes32"
                }
            ],
            "name": "_entropyCallback",
            "outputs": [],
            "stateMutability": "nonpayable",
            "type": "function"
        },
        {
            "inputs": [
                {
                    "internalType": "uint256",
                    "name": "",
                    "type": "uint256"
                }
            ],
            "name": "beasts",
            "outputs": [
                {
                    "internalType": "uint256",
                    "name": "tokenId",
                    "type": "uint256"
                },
                {
                    "internalType": "uint256",
                    "name": "strength",
                    "type": "uint256"
                },
                {
                    "internalType": "uint256",
                    "name": "intelligence",
                    "type": "uint256"
                }
            ],
            "stateMutability": "view",
            "type": "function"
        },
        {
            "inputs": [
                {
                    "internalType": "uint256",
                    "name": "tokenId",
                    "type": "uint256"
                }
            ],
            "name": "getBeast",
            "outputs": [
                {
                    "components": [
                        {
                            "internalType": "uint256",
                            "name": "tokenId",
                            "type": "uint256"
                        },
                        {
                            "internalType": "uint256",
                            "name": "strength",
                            "type": "uint256"
                        },
                        {
                            "internalType": "uint256",
                            "name": "intelligence",
                            "type": "uint256"
                        }
                    ],
                    "internalType": "struct EntropyBeasts.Beast",
                    "name": "",
                    "type": "tuple"
                }
            ],
            "stateMutability": "view",
            "type": "function"
        },
        {
            "inputs": [
                {
                    "internalType": "uint32",
                    "name": "gasLimit",
                    "type": "uint32"
                }
            ],
            "name": "getFee",
            "outputs": [
                {
                    "internalType": "uint256",
                    "name": "",
                    "type": "uint256"
                }
            ],
            "stateMutability": "view",
            "type": "function"
        },
        {
            "inputs": [
                {
                    "internalType": "uint32",
                    "name": "gasLimit",
                    "type": "uint32"
                },
                {
                    "internalType": "bool",
                    "name": "isBig",
                    "type": "bool"
                }
            ],
            "name": "mintBeast",
            "outputs": [
                {
                    "internalType": "uint256",
                    "name": "",
                    "type": "uint256"
                }
            ],
            "stateMutability": "payable",
            "type": "function"
        },
        {
            "inputs": [
                {
                    "internalType": "uint32",
                    "name": "gasLimit",
                    "type": "uint32"
                }
            ],
            "name": "mintSmallBeast",
            "outputs": [
                {
                    "internalType": "uint256",
                    "name": "",
                    "type": "uint256"
                }
            ],
            "stateMutability": "payable",
            "type": "function"
        },
        {
            "inputs": [
                {
                    "internalType": "uint64",
                    "name": "",
                    "type": "uint64"
                }
            ],
            "name": "pendingIsBig",
            "outputs": [
                {
                    "internalType": "bool",
                    "name": "",
                    "type": "bool"
                }
            ],
            "stateMutability": "view",
            "type": "function"
        },
        {
            "inputs": [
                {
                    "internalType": "uint64",
                    "name": "",
                    "type": "uint64"
                }
            ],
            "name": "pendingMints",
            "outputs": [
                {
                    "internalType": "uint256",
                    "name": "",
                    "type": "uint256"
                }
            ],
            "stateMutability": "view",
            "type": "function"
        },
        {
            "inputs": [],
            "name": "provider",
            "outputs": [
                {
                    "internalType": "address",
                    "name": "",
                    "type": "address"
                }
            ],
            "stateMutability": "view",
            "type": "function"
        },
        {
            "inputs": [],
            "name": "totalSupply",
            "outputs": [
                {
                    "internalType": "uint256",
                    "name": "",
                    "type": "uint256"
                }
            ],
            "stateMutability": "view",
            "type": "function"
        }
    ],
    "bytecode": "608080604052346100da576020600491610038610a7291823803809361002582846100de565b82396001600160a01b0392810190610115565b5f80546001600160a01b0319169290911691821790556040516320bba64360e21b815292839182905afa9081156100cf575f916100a0575b50600380546001600160a01b0319166001600160a01b039290921691909117905560405161093d90816101358239f35b6100c2915060203d6020116100c8575b6100ba81836100de565b810190610115565b5f610070565b503d6100b0565b6040513d5f823e3d90fd5b5f80fd5b601f909101601f19168101906001600160401b0382119082101761010157604052565b634e487b7160e01b5f52604160045260245ffd5b908160209103126100da57516001600160a01b03811681036100da579056fe6080806040526004361015610012575f80fd5b5f3560e01c908163085d4883146107dc5750806318160ddd146107bf57806324f95e2a1461078157806352a5f1f8146104ad5780636e5bcf2b146103a657806397b6d71214610365578063bcda2a76146102db578063c0b603dc1461021a578063cb7e64dd146101e15763fcc8bfa21461008a575f80fd5b60403660031901126101dd5761009e610816565b602435908115158092036101dd5760018060a01b035f54169163ffffffff6040519263ca1642e160e01b84521691826004820152602081602481875afa9081156101a5576020916001600160801b03915f916101b0575b5016936101048534101561089a565b60246101116004546108d9565b94856004556040519687938492630bed189f60e01b845260048401525af19283156101a55760209367ffffffffffffffff915f91610178575b5016805f52600284528260405f20555f526005835260405f209060ff80198354169116179055604051908152f35b6101989150853d871161019e575b6101908183610859565b8101906108e7565b5f61014a565b503d610186565b6040513d5f823e3d90fd5b6101d09150833d85116101d6575b6101c88183610859565b81019061087b565b5f6100f5565b503d6101be565b5f80fd5b346101dd5760203660031901126101dd5767ffffffffffffffff6102036107ff565b165f526002602052602060405f2054604051908152f35b346101dd5760203660031901126101dd576004355f6040805161023c81610829565b8281528260208201520152805f52600160205260405f2054156102a4575f526001602052606060405f2060405161027281610829565b815491828252604060026001830154926020850193845201549201918252604051928352516020830152516040820152f35b60405162461bcd60e51b815260206004820152600f60248201526e1099585cdd081b9bdd08199bdd5b99608a1b6044820152606490fd5b346101dd5760203660031901126101dd576102f4610816565b5f5460405163ca1642e160e01b815263ffffffff929092166004830152602090829060249082906001600160a01b03165afa80156101a5576020915f91610348575b506001600160801b0360405191168152f35b61035f9150823d84116101d6576101c88183610859565b82610336565b346101dd5760203660031901126101dd576004355f526001602052606060405f20805490600260018201549101549060405192835260208301526040820152f35b60203660031901126101dd576103ba610816565b5f5460405163ca1642e160e01b815263ffffffff909216600483018190526001600160a01b039190911691602081602481865afa9081156101a5576020916001600160801b03915f91610490575b5016926104178434101561089a565b60246104246004546108d9565b93846004556040519586938492630bed189f60e01b845260048401525af19182156101a55760209267ffffffffffffffff915f91610473575b50165f52600282528060405f2055604051908152f35b61048a9150843d861161019e576101908183610859565b8461045d565b6104a79150833d85116101d6576101c88183610859565b85610408565b346101dd5760603660031901126101dd576104c66107ff565b6024356001600160a01b038116036101dd575f5460443591906001600160a01b0316801561073c5733036106eb5767ffffffffffffffff16805f52600260205260405f20549182156106a65760648106916001830180931161069257606460405160208101908482526001604082015260408152610545606082610859565b5190200691600183018093116106925760405161056181610829565b8581526002602082018681526040830190868252885f52600160205260405f209351845551600184015551910155815f52600560205260ff60405f205416610607575b5091606091837fb0609894a6327cfa6588749b58e3c94822eb8dabe54fef3d1eaf6c3ff5b77c11945f5260026020525f60408120555f52600560205260405f2060ff19815416905563ffffffff5a169060405192835260208301526040820152a2005b60405190617d206106188184610859565b6103e88352601f19013660208401375f5b6103e881106106395750506105a4565b620f424060405160208101908382528460408201526040815261065d606082610859565b5190200690835181101561067e5760019160208260051b8601015201610629565b634e487b7160e01b5f52603260045260245ffd5b634e487b7160e01b5f52601160045260245ffd5b60405162461bcd60e51b815260206004820152601760248201527f496e76616c69642073657175656e6365206e756d6265720000000000000000006044820152606490fd5b60405162461bcd60e51b815260206004820152602360248201527f4f6e6c7920456e74726f70792063616e2063616c6c20746869732066756e637460448201526234b7b760e91b6064820152608490fd5b60405162461bcd60e51b815260206004820152601760248201527f456e74726f70792061646472657373206e6f74207365740000000000000000006044820152606490fd5b346101dd5760203660031901126101dd5767ffffffffffffffff6107a36107ff565b165f526005602052602060ff60405f2054166040519015158152f35b346101dd575f3660031901126101dd576020600454604051908152f35b346101dd575f3660031901126101dd576003546001600160a01b03168152602090f35b6004359067ffffffffffffffff821682036101dd57565b6004359063ffffffff821682036101dd57565b6060810190811067ffffffffffffffff82111761084557604052565b634e487b7160e01b5f52604160045260245ffd5b90601f8019910116810190811067ffffffffffffffff82111761084557604052565b908160209103126101dd57516001600160801b03811681036101dd5790565b156108a157565b60405162461bcd60e51b815260206004820152601060248201526f496e73756666696369656e742066656560801b6044820152606490fd5b5f1981146106925760010190565b908160209103126101dd575167ffffffffffffffff811681036101dd579056fea2646970667358221220f440747161343b1dacbf5d44603dbf6cf49df3f2c30eca4347a88bc21b8c890464736f6c634300081e0033",
    "sourcePath": "/Users/adi-pyth/pyth/pyth-examples/entropy/mint-nft/contracts/src/EntropyBeasts.sol",
    "compiler": {
        "name": "solc",
        "version": "0.8.30+commit.73712a01"
    },
    "functionHashes": {
        "_entropyCallback(uint64,address,bytes32)": "52a5f1f8",
        "beasts(uint256)": "97b6d712",
        "getBeast(uint256)": "c0b603dc",
        "getFee(uint32)": "bcda2a76",
        "mintBeast(uint32,bool)": "fcc8bfa2",
        "mintSmallBeast(uint32)": "6e5bcf2b",
        "pendingIsBig(uint64)": "24f95e2a",
        "pendingMints(uint64)": "cb7e64dd",
        "provider()": "085d4883",
        "totalSupply()": "18160ddd"
    },
    "gasEstimates": {
        "creation": {
            "codeDepositCost": "473000",
            "executionCost": "infinite",
            "totalCost": "infinite"
        },
        "external": {
            "_entropyCallback(uint64,address,bytes32)": "infinite",
            "beasts(uint256)": "6688",
            "getBeast(uint256)": "infinite",
            "getFee(uint32)": "infinite",
            "mintBeast(uint32,bool)": "infinite",
            "mintSmallBeast(uint32)": "infinite",
            "pendingIsBig(uint64)": "2438",
            "pendingMints(uint64)": "2558",
            "provider()": "2266",
            "totalSupply()": "2278"
        },
        "internal": {
            "entropyCallback(uint64,address,bytes32)": "infinite",
            "getEntropy()": "infinite"
        }
    }
}