{
  "abi": [
    {
      "type": "constructor",
      "inputs": [
        {
          "name": "_poolManager",
          "type": "address",
          "internalType": "contract IPoolManager"
        },
        {
          "name": "_entropyAddress",
          "type": "address",
          "internalType": "address"
        },
        {
          "name": "_pythAddress",
          "type": "address",
          "internalType": "address"
        },
        {
          "name": "_pythPriceFeedId",
          "type": "bytes32",
          "internalType": "bytes32"
        }
      ],
      "stateMutability": "nonpayable"
    },
    {
      "type": "function",
      "name": "LIQUIDITY_DELTA",
      "inputs": [],
      "outputs": [
        {
          "name": "",
          "type": "int128",
          "internalType": "int128"
        }
      ],
      "stateMutability": "view"
    },
    {
      "type": "function",
      "name": "MAX_OFFSET",
      "inputs": [],
      "outputs": [
        {
          "name": "",
          "type": "int256",
          "internalType": "int256"
        }
      ],
      "stateMutability": "view"
    },
    {
      "type": "function",
      "name": "MIN_OFFSET",
      "inputs": [],
      "outputs": [
        {
          "name": "",
          "type": "int256",
          "internalType": "int256"
        }
      ],
      "stateMutability": "view"
    },
    {
      "type": "function",
      "name": "_entropyCallback",
      "inputs": [
        {
          "name": "sequence",
          "type": "uint64",
          "internalType": "uint64"
        },
        {
          "name": "provider",
          "type": "address",
          "internalType": "address"
        },
        {
          "name": "randomNumber",
          "type": "bytes32",
          "internalType": "bytes32"
        }
      ],
      "outputs": [],
      "stateMutability": "nonpayable"
    },
    {
      "type": "function",
      "name": "_setPendingRequestForTest",
      "inputs": [
        {
          "name": "sequence",
          "type": "uint64",
          "internalType": "uint64"
        },
        {
          "name": "key",
          "type": "tuple",
          "internalType": "struct PoolKey",
          "components": [
            {
              "name": "currency0",
              "type": "address",
              "internalType": "Currency"
            },
            {
              "name": "currency1",
              "type": "address",
              "internalType": "Currency"
            },
            {
              "name": "fee",
              "type": "uint24",
              "internalType": "uint24"
            },
            {
              "name": "tickSpacing",
              "type": "int24",
              "internalType": "int24"
            },
            {
              "name": "hooks",
              "type": "address",
              "internalType": "contract IHooks"
            }
          ]
        }
      ],
      "outputs": [],
      "stateMutability": "nonpayable"
    },
    {
      "type": "function",
      "name": "afterAddLiquidity",
      "inputs": [
        {
          "name": "sender",
          "type": "address",
          "internalType": "address"
        },
        {
          "name": "key",
          "type": "tuple",
          "internalType": "struct PoolKey",
          "components": [
            {
              "name": "currency0",
              "type": "address",
              "internalType": "Currency"
            },
            {
              "name": "currency1",
              "type": "address",
              "internalType": "Currency"
            },
            {
              "name": "fee",
              "type": "uint24",
              "internalType": "uint24"
            },
            {
              "name": "tickSpacing",
              "type": "int24",
              "internalType": "int24"
            },
            {
              "name": "hooks",
              "type": "address",
              "internalType": "contract IHooks"
            }
          ]
        },
        {
          "name": "params",
          "type": "tuple",
          "internalType": "struct ModifyLiquidityParams",
          "components": [
            {
              "name": "tickLower",
              "type": "int24",
              "internalType": "int24"
            },
            {
              "name": "tickUpper",
              "type": "int24",
              "internalType": "int24"
            },
            {
              "name": "liquidityDelta",
              "type": "int256",
              "internalType": "int256"
            },
            {
              "name": "salt",
              "type": "bytes32",
              "internalType": "bytes32"
            }
          ]
        },
        {
          "name": "delta",
          "type": "int256",
          "internalType": "BalanceDelta"
        },
        {
          "name": "feesAccrued",
          "type": "int256",
          "internalType": "BalanceDelta"
        },
        {
          "name": "hookData",
          "type": "bytes",
          "internalType": "bytes"
        }
      ],
      "outputs": [
        {
          "name": "",
          "type": "bytes4",
          "internalType": "bytes4"
        },
        {
          "name": "",
          "type": "int256",
          "internalType": "BalanceDelta"
        }
      ],
      "stateMutability": "nonpayable"
    },
    {
      "type": "function",
      "name": "afterDonate",
      "inputs": [
        {
          "name": "sender",
          "type": "address",
          "internalType": "address"
        },
        {
          "name": "key",
          "type": "tuple",
          "internalType": "struct PoolKey",
          "components": [
            {
              "name": "currency0",
              "type": "address",
              "internalType": "Currency"
            },
            {
              "name": "currency1",
              "type": "address",
              "internalType": "Currency"
            },
            {
              "name": "fee",
              "type": "uint24",
              "internalType": "uint24"
            },
            {
              "name": "tickSpacing",
              "type": "int24",
              "internalType": "int24"
            },
            {
              "name": "hooks",
              "type": "address",
              "internalType": "contract IHooks"
            }
          ]
        },
        {
          "name": "amount0",
          "type": "uint256",
          "internalType": "uint256"
        },
        {
          "name": "amount1",
          "type": "uint256",
          "internalType": "uint256"
        },
        {
          "name": "hookData",
          "type": "bytes",
          "internalType": "bytes"
        }
      ],
      "outputs": [
        {
          "name": "",
          "type": "bytes4",
          "internalType": "bytes4"
        }
      ],
      "stateMutability": "nonpayable"
    },
    {
      "type": "function",
      "name": "afterInitialize",
      "inputs": [
        {
          "name": "sender",
          "type": "address",
          "internalType": "address"
        },
        {
          "name": "key",
          "type": "tuple",
          "internalType": "struct PoolKey",
          "components": [
            {
              "name": "currency0",
              "type": "address",
              "internalType": "Currency"
            },
            {
              "name": "currency1",
              "type": "address",
              "internalType": "Currency"
            },
            {
              "name": "fee",
              "type": "uint24",
              "internalType": "uint24"
            },
            {
              "name": "tickSpacing",
              "type": "int24",
              "internalType": "int24"
            },
            {
              "name": "hooks",
              "type": "address",
              "internalType": "contract IHooks"
            }
          ]
        },
        {
          "name": "sqrtPriceX96",
          "type": "uint160",
          "internalType": "uint160"
        },
        {
          "name": "tick",
          "type": "int24",
          "internalType": "int24"
        }
      ],
      "outputs": [
        {
          "name": "",
          "type": "bytes4",
          "internalType": "bytes4"
        }
      ],
      "stateMutability": "nonpayable"
    },
    {
      "type": "function",
      "name": "afterRemoveLiquidity",
      "inputs": [
        {
          "name": "sender",
          "type": "address",
          "internalType": "address"
        },
        {
          "name": "key",
          "type": "tuple",
          "internalType": "struct PoolKey",
          "components": [
            {
              "name": "currency0",
              "type": "address",
              "internalType": "Currency"
            },
            {
              "name": "currency1",
              "type": "address",
              "internalType": "Currency"
            },
            {
              "name": "fee",
              "type": "uint24",
              "internalType": "uint24"
            },
            {
              "name": "tickSpacing",
              "type": "int24",
              "internalType": "int24"
            },
            {
              "name": "hooks",
              "type": "address",
              "internalType": "contract IHooks"
            }
          ]
        },
        {
          "name": "params",
          "type": "tuple",
          "internalType": "struct ModifyLiquidityParams",
          "components": [
            {
              "name": "tickLower",
              "type": "int24",
              "internalType": "int24"
            },
            {
              "name": "tickUpper",
              "type": "int24",
              "internalType": "int24"
            },
            {
              "name": "liquidityDelta",
              "type": "int256",
              "internalType": "int256"
            },
            {
              "name": "salt",
              "type": "bytes32",
              "internalType": "bytes32"
            }
          ]
        },
        {
          "name": "delta",
          "type": "int256",
          "internalType": "BalanceDelta"
        },
        {
          "name": "feesAccrued",
          "type": "int256",
          "internalType": "BalanceDelta"
        },
        {
          "name": "hookData",
          "type": "bytes",
          "internalType": "bytes"
        }
      ],
      "outputs": [
        {
          "name": "",
          "type": "bytes4",
          "internalType": "bytes4"
        },
        {
          "name": "",
          "type": "int256",
          "internalType": "BalanceDelta"
        }
      ],
      "stateMutability": "nonpayable"
    },
    {
      "type": "function",
      "name": "afterSwap",
      "inputs": [
        {
          "name": "sender",
          "type": "address",
          "internalType": "address"
        },
        {
          "name": "key",
          "type": "tuple",
          "internalType": "struct PoolKey",
          "components": [
            {
              "name": "currency0",
              "type": "address",
              "internalType": "Currency"
            },
            {
              "name": "currency1",
              "type": "address",
              "internalType": "Currency"
            },
            {
              "name": "fee",
              "type": "uint24",
              "internalType": "uint24"
            },
            {
              "name": "tickSpacing",
              "type": "int24",
              "internalType": "int24"
            },
            {
              "name": "hooks",
              "type": "address",
              "internalType": "contract IHooks"
            }
          ]
        },
        {
          "name": "params",
          "type": "tuple",
          "internalType": "struct SwapParams",
          "components": [
            {
              "name": "zeroForOne",
              "type": "bool",
              "internalType": "bool"
            },
            {
              "name": "amountSpecified",
              "type": "int256",
              "internalType": "int256"
            },
            {
              "name": "sqrtPriceLimitX96",
              "type": "uint160",
              "internalType": "uint160"
            }
          ]
        },
        {
          "name": "delta",
          "type": "int256",
          "internalType": "BalanceDelta"
        },
        {
          "name": "hookData",
          "type": "bytes",
          "internalType": "bytes"
        }
      ],
      "outputs": [
        {
          "name": "",
          "type": "bytes4",
          "internalType": "bytes4"
        },
        {
          "name": "",
          "type": "int128",
          "internalType": "int128"
        }
      ],
      "stateMutability": "nonpayable"
    },
    {
      "type": "function",
      "name": "beforeAddLiquidity",
      "inputs": [
        {
          "name": "sender",
          "type": "address",
          "internalType": "address"
        },
        {
          "name": "key",
          "type": "tuple",
          "internalType": "struct PoolKey",
          "components": [
            {
              "name": "currency0",
              "type": "address",
              "internalType": "Currency"
            },
            {
              "name": "currency1",
              "type": "address",
              "internalType": "Currency"
            },
            {
              "name": "fee",
              "type": "uint24",
              "internalType": "uint24"
            },
            {
              "name": "tickSpacing",
              "type": "int24",
              "internalType": "int24"
            },
            {
              "name": "hooks",
              "type": "address",
              "internalType": "contract IHooks"
            }
          ]
        },
        {
          "name": "params",
          "type": "tuple",
          "internalType": "struct ModifyLiquidityParams",
          "components": [
            {
              "name": "tickLower",
              "type": "int24",
              "internalType": "int24"
            },
            {
              "name": "tickUpper",
              "type": "int24",
              "internalType": "int24"
            },
            {
              "name": "liquidityDelta",
              "type": "int256",
              "internalType": "int256"
            },
            {
              "name": "salt",
              "type": "bytes32",
              "internalType": "bytes32"
            }
          ]
        },
        {
          "name": "hookData",
          "type": "bytes",
          "internalType": "bytes"
        }
      ],
      "outputs": [
        {
          "name": "",
          "type": "bytes4",
          "internalType": "bytes4"
        }
      ],
      "stateMutability": "nonpayable"
    },
    {
      "type": "function",
      "name": "beforeDonate",
      "inputs": [
        {
          "name": "sender",
          "type": "address",
          "internalType": "address"
        },
        {
          "name": "key",
          "type": "tuple",
          "internalType": "struct PoolKey",
          "components": [
            {
              "name": "currency0",
              "type": "address",
              "internalType": "Currency"
            },
            {
              "name": "currency1",
              "type": "address",
              "internalType": "Currency"
            },
            {
              "name": "fee",
              "type": "uint24",
              "internalType": "uint24"
            },
            {
              "name": "tickSpacing",
              "type": "int24",
              "internalType": "int24"
            },
            {
              "name": "hooks",
              "type": "address",
              "internalType": "contract IHooks"
            }
          ]
        },
        {
          "name": "amount0",
          "type": "uint256",
          "internalType": "uint256"
        },
        {
          "name": "amount1",
          "type": "uint256",
          "internalType": "uint256"
        },
        {
          "name": "hookData",
          "type": "bytes",
          "internalType": "bytes"
        }
      ],
      "outputs": [
        {
          "name": "",
          "type": "bytes4",
          "internalType": "bytes4"
        }
      ],
      "stateMutability": "nonpayable"
    },
    {
      "type": "function",
      "name": "beforeInitialize",
      "inputs": [
        {
          "name": "sender",
          "type": "address",
          "internalType": "address"
        },
        {
          "name": "key",
          "type": "tuple",
          "internalType": "struct PoolKey",
          "components": [
            {
              "name": "currency0",
              "type": "address",
              "internalType": "Currency"
            },
            {
              "name": "currency1",
              "type": "address",
              "internalType": "Currency"
            },
            {
              "name": "fee",
              "type": "uint24",
              "internalType": "uint24"
            },
            {
              "name": "tickSpacing",
              "type": "int24",
              "internalType": "int24"
            },
            {
              "name": "hooks",
              "type": "address",
              "internalType": "contract IHooks"
            }
          ]
        },
        {
          "name": "sqrtPriceX96",
          "type": "uint160",
          "internalType": "uint160"
        }
      ],
      "outputs": [
        {
          "name": "",
          "type": "bytes4",
          "internalType": "bytes4"
        }
      ],
      "stateMutability": "nonpayable"
    },
    {
      "type": "function",
      "name": "beforeRemoveLiquidity",
      "inputs": [
        {
          "name": "sender",
          "type": "address",
          "internalType": "address"
        },
        {
          "name": "key",
          "type": "tuple",
          "internalType": "struct PoolKey",
          "components": [
            {
              "name": "currency0",
              "type": "address",
              "internalType": "Currency"
            },
            {
              "name": "currency1",
              "type": "address",
              "internalType": "Currency"
            },
            {
              "name": "fee",
              "type": "uint24",
              "internalType": "uint24"
            },
            {
              "name": "tickSpacing",
              "type": "int24",
              "internalType": "int24"
            },
            {
              "name": "hooks",
              "type": "address",
              "internalType": "contract IHooks"
            }
          ]
        },
        {
          "name": "params",
          "type": "tuple",
          "internalType": "struct ModifyLiquidityParams",
          "components": [
            {
              "name": "tickLower",
              "type": "int24",
              "internalType": "int24"
            },
            {
              "name": "tickUpper",
              "type": "int24",
              "internalType": "int24"
            },
            {
              "name": "liquidityDelta",
              "type": "int256",
              "internalType": "int256"
            },
            {
              "name": "salt",
              "type": "bytes32",
              "internalType": "bytes32"
            }
          ]
        },
        {
          "name": "hookData",
          "type": "bytes",
          "internalType": "bytes"
        }
      ],
      "outputs": [
        {
          "name": "",
          "type": "bytes4",
          "internalType": "bytes4"
        }
      ],
      "stateMutability": "nonpayable"
    },
    {
      "type": "function",
      "name": "beforeSwap",
      "inputs": [
        {
          "name": "sender",
          "type": "address",
          "internalType": "address"
        },
        {
          "name": "key",
          "type": "tuple",
          "internalType": "struct PoolKey",
          "components": [
            {
              "name": "currency0",
              "type": "address",
              "internalType": "Currency"
            },
            {
              "name": "currency1",
              "type": "address",
              "internalType": "Currency"
            },
            {
              "name": "fee",
              "type": "uint24",
              "internalType": "uint24"
            },
            {
              "name": "tickSpacing",
              "type": "int24",
              "internalType": "int24"
            },
            {
              "name": "hooks",
              "type": "address",
              "internalType": "contract IHooks"
            }
          ]
        },
        {
          "name": "params",
          "type": "tuple",
          "internalType": "struct SwapParams",
          "components": [
            {
              "name": "zeroForOne",
              "type": "bool",
              "internalType": "bool"
            },
            {
              "name": "amountSpecified",
              "type": "int256",
              "internalType": "int256"
            },
            {
              "name": "sqrtPriceLimitX96",
              "type": "uint160",
              "internalType": "uint160"
            }
          ]
        },
        {
          "name": "hookData",
          "type": "bytes",
          "internalType": "bytes"
        }
      ],
      "outputs": [
        {
          "name": "",
          "type": "bytes4",
          "internalType": "bytes4"
        },
        {
          "name": "",
          "type": "int256",
          "internalType": "BeforeSwapDelta"
        },
        {
          "name": "",
          "type": "uint24",
          "internalType": "uint24"
        }
      ],
      "stateMutability": "nonpayable"
    },
    {
      "type": "function",
      "name": "entropy",
      "inputs": [],
      "outputs": [
        {
          "name": "",
          "type": "address",
          "internalType": "contract IEntropyV2"
        }
      ],
      "stateMutability": "view"
    },
    {
      "type": "function",
      "name": "getHookPermissions",
      "inputs": [],
      "outputs": [
        {
          "name": "",
          "type": "tuple",
          "internalType": "struct Hooks.Permissions",
          "components": [
            {
              "name": "beforeInitialize",
              "type": "bool",
              "internalType": "bool"
            },
            {
              "name": "afterInitialize",
              "type": "bool",
              "internalType": "bool"
            },
            {
              "name": "beforeAddLiquidity",
              "type": "bool",
              "internalType": "bool"
            },
            {
              "name": "afterAddLiquidity",
              "type": "bool",
              "internalType": "bool"
            },
            {
              "name": "beforeRemoveLiquidity",
              "type": "bool",
              "internalType": "bool"
            },
            {
              "name": "afterRemoveLiquidity",
              "type": "bool",
              "internalType": "bool"
            },
            {
              "name": "beforeSwap",
              "type": "bool",
              "internalType": "bool"
            },
            {
              "name": "afterSwap",
              "type": "bool",
              "internalType": "bool"
            },
            {
              "name": "beforeDonate",
              "type": "bool",
              "internalType": "bool"
            },
            {
              "name": "afterDonate",
              "type": "bool",
              "internalType": "bool"
            },
            {
              "name": "beforeSwapReturnDelta",
              "type": "bool",
              "internalType": "bool"
            },
            {
              "name": "afterSwapReturnDelta",
              "type": "bool",
              "internalType": "bool"
            },
            {
              "name": "afterAddLiquidityReturnDelta",
              "type": "bool",
              "internalType": "bool"
            },
            {
              "name": "afterRemoveLiquidityReturnDelta",
              "type": "bool",
              "internalType": "bool"
            }
          ]
        }
      ],
      "stateMutability": "pure"
    },
    {
      "type": "function",
      "name": "getLatestTick",
      "inputs": [],
      "outputs": [
        {
          "name": "",
          "type": "int24",
          "internalType": "int24"
        }
      ],
      "stateMutability": "view"
    },
    {
      "type": "function",
      "name": "getPendingTickSpacing",
      "inputs": [
        {
          "name": "seq",
          "type": "uint64",
          "internalType": "uint64"
        }
      ],
      "outputs": [
        {
          "name": "",
          "type": "int24",
          "internalType": "int24"
        }
      ],
      "stateMutability": "view"
    },
    {
      "type": "function",
      "name": "pendingRequests",
      "inputs": [
        {
          "name": "",
          "type": "uint64",
          "internalType": "uint64"
        }
      ],
      "outputs": [
        {
          "name": "currency0",
          "type": "address",
          "internalType": "Currency"
        },
        {
          "name": "currency1",
          "type": "address",
          "internalType": "Currency"
        },
        {
          "name": "fee",
          "type": "uint24",
          "internalType": "uint24"
        },
        {
          "name": "tickSpacing",
          "type": "int24",
          "internalType": "int24"
        },
        {
          "name": "hooks",
          "type": "address",
          "internalType": "contract IHooks"
        }
      ],
      "stateMutability": "view"
    },
    {
      "type": "function",
      "name": "poolManager",
      "inputs": [],
      "outputs": [
        {
          "name": "",
          "type": "address",
          "internalType": "contract IPoolManager"
        }
      ],
      "stateMutability": "view"
    },
    {
      "type": "function",
      "name": "priceFeedId",
      "inputs": [],
      "outputs": [
        {
          "name": "",
          "type": "bytes32",
          "internalType": "bytes32"
        }
      ],
      "stateMutability": "view"
    },
    {
      "type": "function",
      "name": "pyth",
      "inputs": [],
      "outputs": [
        {
          "name": "",
          "type": "address",
          "internalType": "contract IPyth"
        }
      ],
      "stateMutability": "view"
    },
    {
      "type": "function",
      "name": "requestChaosWithPyth",
      "inputs": [
        {
          "name": "key",
          "type": "tuple",
          "internalType": "struct PoolKey",
          "components": [
            {
              "name": "currency0",
              "type": "address",
              "internalType": "Currency"
            },
            {
              "name": "currency1",
              "type": "address",
              "internalType": "Currency"
            },
            {
              "name": "fee",
              "type": "uint24",
              "internalType": "uint24"
            },
            {
              "name": "tickSpacing",
              "type": "int24",
              "internalType": "int24"
            },
            {
              "name": "hooks",
              "type": "address",
              "internalType": "contract IHooks"
            }
          ]
        },
        {
          "name": "updateData",
          "type": "bytes[]",
          "internalType": "bytes[]"
        },
        {
          "name": "maxAgeSec",
          "type": "uint64",
          "internalType": "uint64"
        }
      ],
      "outputs": [
        {
          "name": "sequence",
          "type": "uint64",
          "internalType": "uint64"
        }
      ],
      "stateMutability": "payable"
    },
    {
      "type": "function",
      "name": "requestRandom",
      "inputs": [
        {
          "name": "key",
          "type": "tuple",
          "internalType": "struct PoolKey",
          "components": [
            {
              "name": "currency0",
              "type": "address",
              "internalType": "Currency"
            },
            {
              "name": "currency1",
              "type": "address",
              "internalType": "Currency"
            },
            {
              "name": "fee",
              "type": "uint24",
              "internalType": "uint24"
            },
            {
              "name": "tickSpacing",
              "type": "int24",
              "internalType": "int24"
            },
            {
              "name": "hooks",
              "type": "address",
              "internalType": "contract IHooks"
            }
          ]
        }
      ],
      "outputs": [
        {
          "name": "sequence",
          "type": "uint64",
          "internalType": "uint64"
        }
      ],
      "stateMutability": "payable"
    },
    {
      "type": "function",
      "name": "testEntropyCallback",
      "inputs": [
        {
          "name": "seq",
          "type": "uint64",
          "internalType": "uint64"
        },
        {
          "name": "provider",
          "type": "address",
          "internalType": "address"
        },
        {
          "name": "rand",
          "type": "bytes32",
          "internalType": "bytes32"
        }
      ],
      "outputs": [],
      "stateMutability": "nonpayable"
    },
    {
      "type": "event",
      "name": "ChaosPositionPlanned",
      "inputs": [
        {
          "name": "sequence",
          "type": "uint64",
          "indexed": true,
          "internalType": "uint64"
        },
        {
          "name": "poolId",
          "type": "bytes32",
          "indexed": true,
          "internalType": "PoolId"
        },
        {
          "name": "centerTick",
          "type": "int24",
          "indexed": false,
          "internalType": "int24"
        },
        {
          "name": "tickLower",
          "type": "int24",
          "indexed": false,
          "internalType": "int24"
        },
        {
          "name": "tickUpper",
          "type": "int24",
          "indexed": false,
          "internalType": "int24"
        },
        {
          "name": "randomNumber",
          "type": "bytes32",
          "indexed": false,
          "internalType": "bytes32"
        }
      ],
      "anonymous": false
    },
    {
      "type": "event",
      "name": "ChaosPriceAndEntropyRequested",
      "inputs": [
        {
          "name": "sequence",
          "type": "uint64",
          "indexed": true,
          "internalType": "uint64"
        },
        {
          "name": "poolId",
          "type": "bytes32",
          "indexed": true,
          "internalType": "PoolId"
        },
        {
          "name": "maxAgeSec",
          "type": "uint64",
          "indexed": false,
          "internalType": "uint64"
        }
      ],
      "anonymous": false
    },
    {
      "type": "event",
      "name": "ChaosRequestQueued",
      "inputs": [
        {
          "name": "sequence",
          "type": "uint64",
          "indexed": true,
          "internalType": "uint64"
        },
        {
          "name": "poolId",
          "type": "bytes32",
          "indexed": true,
          "internalType": "PoolId"
        }
      ],
      "anonymous": false
    },
    {
      "type": "error",
      "name": "HookNotImplemented",
      "inputs": []
    },
    {
      "type": "error",
      "name": "NotPoolManager",
      "inputs": []
    }
  ],
  "bytecode": {
    "object": "0x6101006040523461030c57604051601f61288138819003918201601f19168301916001600160401b038311848410176103105780849260809460405283398101031261030c578051906001600160a01b038216820361030c5761006460208201610344565b606061007260408401610344565b920151926080525f6101a0610085610324565b8281528260208201528260408201528260608201528260808201528260a08201528260c08201528260e0820152826101008201528261012082015282610140820152826101608201528261018082015201525f6101a06100e3610324565b828152826020820152600160408201528260608201528260808201528260a08201528260c08201528260e0820152826101008201528261012082015282610140820152826101608201528261018082015201526120003016158015906102ff575b80156102ee575b80156102e1575b80156102d4575b80156102c7575b80156102bb575b80156102af575b80156102a3575b8015610297575b801561028b575b801561027f575b8015610273575b8015610267575b610254576001600160a01b0390811660a0521660c05260e0526040516125289081610359823960805181818161019a0152818161021a0152818161026a015281816104d60152818161084a01528181610905015281816115390152818161170a0152611770015260a0518181816102d001528181610a2101528181610f750152818161133101526116c8015260c051818181610151015281816109c40152611cc5015260e051818181610ad4015281816117c60152611c990152f35b630732d7b560e51b5f523060045260245ffd5b50600130161515610198565b50600230161515610191565b5060043016151561018a565b50600830161515610183565b5060103016151561017c565b50602030161515610175565b5060403016151561016e565b50608030161515610167565b5061010030161515610160565b5061020030161515610159565b5061040030161515610152565b50610800301615156001141561014b565b5061100030161515610144565b5f80fd5b634e487b7160e01b5f52604160045260245ffd5b604051906101c082016001600160401b0381118382101761031057604052565b51906001600160a01b038216820361030c5756fe6080806040526004361015610012575f80fd5b5f905f3560e01c9081631999bb9e146117b15750806321d0ee701461175d578063259982e5146116f757806347ce07cc146116b357806352a5f1f81461131e578063575e24b4146112c85780635e152a04146112ab57806365b07d581461122d5780636c2bbe7e146108ee5780636fe7e6eb146111f157806371f6919c14610f595780637da44e3c14610e4f5780638e1cf4eb14610e3257806392fcfed7146109455780639f063efc146108ee578063a08d0b3a146108c8578063b2d46b0b14610888578063b47b2fb1146107f0578063b6a8b0fa14610183578063c4e833ce14610688578063c60876e9146102bc578063d1cfa2fb14610299578063dc4c90d314610254578063dc98354e146101e5578063e1b4af69146101835763f98d06f01461013c575f80fd5b346101805780600319360112610180576040517f00000000000000000000000000000000000000000000000000000000000000006001600160a01b03168152602090f35b80fd5b5034610180576004906101953661196e565b5050507f00000000000000000000000000000000000000000000000000000000000000006001600160a01b0316330392506101d991505057630a85dc2960e01b8152fd5b63570c108560e11b8152fd5b50346101805760e0366003190112610180576101ff6117e9565b5060a036602319011261018057600490610217611948565b507f00000000000000000000000000000000000000000000000000000000000000006001600160a01b031633036101d957630a85dc2960e01b8152fd5b50346101805780600319360112610180576040517f00000000000000000000000000000000000000000000000000000000000000006001600160a01b03168152602090f35b50346101805780600319360112610180576020604051670de0b6b3a76400008152f35b5034610180576102cb366118a5565b9190507f00000000000000000000000000000000000000000000000000000000000000006001600160a01b03163303610655576001600160401b031680835282602052604083209160405161031f816119c5565b60018060a01b038454168152600184015491602082019460018060a01b0384168652604083019362ffffff8160a01c16855260b81c60020b926060810191848352600260018060a01b0391015416936080820194855215610618578588528760205287600260408220828155826001820155015560a08120966103a0611c8a565b6103ad6107d186066123e7565b9060018616156105f0575b845160020b918b8313156105ab5760020b966103d48883611c3b565b9160020b97880191627fffff198312627fffff8413176105975790610407846104018f9796809695612410565b93612410565b928360020b8360020b1215610584575b5060405191610425836119f4565b600290810b80845293810b60208401818152670de0b6b3a7640000604080870191825260608701998a528051632d35e7ed60e11b81529a516001600160a01b0390811660048d01529851891660248c01529d5162ffffff1660448b01529951830b60648a01529251861660848901529251810b60a48801529051900b60c4860152945160e4850152915161010484015261014061012484015261014483018a90529295909282906101649082908c907f0000000000000000000000000000000000000000000000000000000000000000165af1801561057957610544575b50907f0612c296ec519bacdde10c8e228ac2d0c0b5dc400a3bdfcc972b782c062af0cc9360809392604051938452602084015260408301526060820152a380f35b60409081949392943d8311610572575b61055e8183611a2b565b8101031261056e5790915f610503565b8680fd5b503d610554565b6040513d8a823e3d90fd5b61059091925083611c3b565b905f610417565b634e487b7160e01b8d52601160045260248dfd5b60405162461bcd60e51b815260206004820152601e60248201527f4368616f73486f6f6b3a20696e76616c6964207469636b53706163696e6700006044820152606490fd5b90600160ff1b8114610604578a03906103b8565b634e487b7160e01b8b52601160045260248bfd5b60405162461bcd60e51b815260206004820152601560248201527410da185bdcd21bdbdace881b9bc81c995c5d595cdd605a1b6044820152606490fd5b60405162461bcd60e51b815260206004820152600b60248201526a6e6f7420656e74726f707960a81b6044820152606490fd5b5034610180578060031936011261018057806101c0916101a06040516106ad81611a0f565b8281528260208201528260408201528260608201528260808201528260a08201528260c08201528260e0820152826101008201528261012082015282610140820152826101608201528261018082015201526040519061070c82611a0f565b80825260208201918183526040810160018152606082018381526080830184815260a0840185815260c0850186815260e08601908782526101008701928884526101208801948986526101408901968a88526101608a01988b8a526101a06101808c019b8d8d52019b808d5260206040519e8f92835251151591015251151560408d015251151560608c015251151560808b015251151560a08a015251151560c089015251151560e08801525115156101008701525115156101208601525115156101408501525115156101608401525115156101808301525115156101a0820152f35b5034610180576101603660031901126101805761080b6117e9565b5060a03660231901126101805760603660c319011261018057610144356001600160401b0381116108845790610846600492369084016117ff565b50507f00000000000000000000000000000000000000000000000000000000000000006001600160a01b031633036101d957630a85dc2960e01b8152fd5b5080fd5b503461018057602036600319011261018057600160406020926001600160401b036108b161188f565b16815280845220015460b81c60020b604051908152f35b503461018057806003193601126101805760206108e3611c8a565b6040519060020b8152f35b503461018057600490610900366118df565b5050507f00000000000000000000000000000000000000000000000000000000000000006001600160a01b0316330393506101d99250505057630a85dc2960e01b8152fd5b50366003190160e081126108845760a0136101805760a435906001600160401b0382116101805736602383011215610180578160040135916001600160401b038311610884576024810190602436918560051b0101116108845760c435926001600160401b038416809403610cb45760405163d47eed4560e01b8152907f00000000000000000000000000000000000000000000000000000000000000006001600160a01b0316602083806109fe858860048401611b32565b0381845afa928315610d38578593610dfa575b506040516341025b3d60e11b81527f00000000000000000000000000000000000000000000000000000000000000006001600160a01b03169290602081600481875afa908115610def57906001600160801b03918891610dc0575b501693610a798582611bd5565b95863410610d6a57833b15610d6657918791610aab93604051809581948293631df3cbc560e31b845260048401611b32565b0391865af18015610d5b57610d43575b5060806044916040519283809263052571af60e51b82527f000000000000000000000000000000000000000000000000000000000000000060048301528a60248301525afa8015610d38579060209291610d0b575b50600460405180948193637b43155d60e01b83525af18015610d00578390610cc0575b6001600160401b0316808452602084905260408420909391506001600160a01b03610b5c611a7f565b82546001600160a01b0319169116178155600181016001600160a01b03610b81611a95565b82546001600160a01b031916911617815560443562ffffff81168103610cbc5781546064358060020b8103610cb85760b81b62ffffff60b81b169162ffffff60a01b9060a01b169065ffffffffffff60a01b1916171790556084359060018060a01b0382168203610cb45760020180546001600160a01b0319166001600160a01b0390921691909117905560a0610c1736611aab565b209182847fd6e84cd512c7f286c26ed8abdcc237e8b92fb1574fb75bc5140cd1f116fafa498480a3803411610c7e575b5050817f20140cf1a4e0073398ef162303c56161bbac5ab1960b5620115e2005b70fb16160208095604051908152a3604051908152f35b81808080938190803414610caa575b3403903390f115610c9e5780610c47565b604051903d90823e3d90fd5b6108fc9150610c8d565b8280fd5b8580fd5b8380fd5b506020813d602011610cf8575b81610cda60209383611a2b565b81010312610cb457610cf36001600160401b0391611a6b565b610b33565b3d9150610ccd565b6040513d85823e3d90fd5b610d2c9060803d608011610d31575b610d248183611a2b565b810190611be2565b610b10565b503d610d1a565b6040513d87823e3d90fd5b85610d5360449397608093611a2b565b959150610abb565b6040513d88823e3d90fd5b8780fd5b60405162461bcd60e51b815260206004820152602860248201527f4368616f73486f6f6b3a20696e73756666696369656e7420507974682b456e74604482015267726f70792066656560c01b6064820152608490fd5b610de2915060203d602011610de8575b610dda8183611a2b565b810190611a4c565b5f610a6c565b503d610dd0565b6040513d89823e3d90fd5b9092506020813d602011610e2a575b81610e1660209383611a2b565b81010312610e265751915f610a11565b8480fd5b3d9150610e09565b503461018057806003193601126101805760206040516109c48152f35b50346101805760c036600319011261018057610e6961188f565b60a0366023190112610884576001600160401b031681526020819052604081206001600160a01b03610e99611a95565b82546001600160a01b0319169116178155600181016044356001600160a01b0381168103610cbc5781546001600160a01b0319166001600160a01b039190911617815560643562ffffff81168103610cbc5781546084358060020b8103610cb85760b81b62ffffff60b81b169162ffffff60a01b9060a01b169065ffffffffffff60a01b19161717905560a4359060018060a01b0382168203610cb45760020180546001600160a01b0319166001600160a01b0390921691909117905580f35b5060a0366003190112610180576040516341025b3d60e11b81527f00000000000000000000000000000000000000000000000000000000000000006001600160a01b031690602081600481855afa8015610d00576001600160801b039184916111d2575b5016908134106111815760208291600460405180948193637b43155d60e01b83525af18015610d00578390611141575b6001600160401b0316808452602084905260408420909291506001600160a01b03611016611a7f565b82546001600160a01b0319169116178155600181016001600160a01b0361103b611a95565b82546001600160a01b031916911617815560443562ffffff81168103610cb85781546064358060020b8103610d665760b81b62ffffff60b81b169162ffffff60a01b9060a01b169065ffffffffffff60a01b1916171790556084359060018060a01b0382168203610e265760020180546001600160a01b0319166001600160a01b0390921691909117905560a06110d136611aab565b20827fd6e84cd512c7f286c26ed8abdcc237e8b92fb1574fb75bc5140cd1f116fafa498580a380341161110a575b602082604051908152f35b82808080938190803414611137575b3403903390f11561112a57816110ff565b50604051903d90823e3d90fd5b6108fc9150611119565b506020813d602011611179575b8161115b60209383611a2b565b81010312610cb4576111746001600160401b0391611a6b565b610fed565b3d915061114e565b60405162461bcd60e51b815260206004820152602360248201527f4368616f73486f6f6b3a20696e73756666696369656e7420656e74726f70792060448201526266656560e81b6064820152608490fd5b6111eb915060203d602011610de857610dda8183611a2b565b5f610fbd565b5034610180576101003660031901126101805761120c6117e9565b5060a036602319011261018057600490611224611948565b5061021761195e565b503461018057602036600319011261018057604060a0916001600160401b0361125461188f565b1681528060205220600180831b03815416906001810154906002600180861b039101541690604051928352600180851b038116602084015262ffffff81851c16604084015260b81c60020b60608301526080820152f35b503461018057806003193601126101805760206040516101f48152f35b503461018057610140366003190112610180576112e36117e9565b5060a03660231901126101805760603660c319011261018057610124356001600160401b0381116108845790610846600492369084016117ff565b346115d05761132c366118a5565b9190507f00000000000000000000000000000000000000000000000000000000000000006001600160a01b0316801561166e57330361161d576001600160401b0316805f525f60205260405f2060405192611386846119c5565b60018060a01b038254168452600182015490602085019460018060a01b0383168652604081019262ffffff8160a01c16845260b81c60020b906060810194828652600260018060a01b039101541691608082019283521561061857855f525f6020525f600260408220828155826001820155015560a0812096611407611c8a565b946114156107d186066123e7565b600186161561160b575b875160020b905f8213156105ab5760020b9661143b8882611c3b565b9060020b97880190627fffff198212627fffff8313176115f757826114638161146993612410565b92612410565b918260020b8260020b12156115e6575b5060405190611487826119f4565b600290810b80835292810b60208301818152670de0b6b3a764000060408086019182525f606087018181528251632d35e7ed60e11b81529b516001600160a01b0390811660048e01529a518b1660248d0152985162ffffff1660448c01529d51850b60648b01529951881660848a01529351830b60a48901525190910b60c4870152905160e48601529151610104850152610140610124850152610144840188905290969093918391610164918391907f0000000000000000000000000000000000000000000000000000000000000000165af180156115db576115a6575b50907f0612c296ec519bacdde10c8e228ac2d0c0b5dc400a3bdfcc972b782c062af0cc9360809392604051938452602084015260408301526060820152a3005b60409081949392943d83116115d4575b6115c08183611a2b565b810103126115d057909186611566565b5f80fd5b503d6115b6565b6040513d5f823e3d90fd5b6115f1915082611c3b565b8b611479565b634e487b7160e01b5f52601160045260245ffd5b600160ff1b81146115f7575f0361141f565b60405162461bcd60e51b815260206004820152602360248201527f4f6e6c7920456e74726f70792063616e2063616c6c20746869732066756e637460448201526234b7b760e91b6064820152608490fd5b60405162461bcd60e51b815260206004820152601760248201527f456e74726f70792061646472657373206e6f74207365740000000000000000006044820152606490fd5b346115d0575f3660031901126115d0576040517f00000000000000000000000000000000000000000000000000000000000000006001600160a01b03168152602090f35b346115d0576117053661182c565b5050507f00000000000000000000000000000000000000000000000000000000000000006001600160a01b03163303915061174e90505760405163259982e560e01b8152602090f35b63570c108560e11b5f5260045ffd5b346115d05761176b3661182c565b5050507f00000000000000000000000000000000000000000000000000000000000000006001600160a01b03163303915061174e905057630a85dc2960e01b5f5260045ffd5b346115d0575f3660031901126115d0576020907f00000000000000000000000000000000000000000000000000000000000000008152f35b600435906001600160a01b03821682036115d057565b9181601f840112156115d0578235916001600160401b0383116115d057602083818601950101116115d057565b906101606003198301126115d0576004356001600160a01b03811681036115d0579160a06023198201126115d057602491608060c3198301126115d05760c49161014435906001600160401b0382116115d05761188b916004016117ff565b9091565b600435906001600160401b03821682036115d057565b60609060031901126115d0576004356001600160401b03811681036115d057906024356001600160a01b03811681036115d0579060443590565b906101a06003198301126115d0576004356001600160a01b03811681036115d0579160a06023198201126115d057602491608060c3198301126115d05760c4916101443591610164359161018435906001600160401b0382116115d05761188b916004016117ff565b60c435906001600160a01b03821682036115d057565b60e435908160020b82036115d057565b6101206003198201126115d0576004356001600160a01b03811681036115d0579160a06023198301126115d05760249160c4359160e4359161010435906001600160401b0382116115d05761188b916004016117ff565b60a081019081106001600160401b038211176119e057604052565b634e487b7160e01b5f52604160045260245ffd5b608081019081106001600160401b038211176119e057604052565b6101c081019081106001600160401b038211176119e057604052565b90601f801991011681019081106001600160401b038211176119e057604052565b908160209103126115d057516001600160801b03811681036115d05790565b51906001600160401b03821682036115d057565b6004356001600160a01b03811681036115d05790565b6024356001600160a01b03811681036115d05790565b60a09060031901126115d05760405190611ac4826119c5565b816004356001600160a01b03811681036115d05781526024356001600160a01b03811681036115d057602082015260443562ffffff811681036115d05760408201526064358060020b81036115d0576060820152608435906001600160a01b03821682036115d05760800152565b9180602084016020855252604083019060408160051b85010193835f91601e1982360301905b848410611b69575050505050505090565b90919293949596603f198282030187528735838112156115d057840190602082359201916001600160401b0381116115d05780360383136115d0576020828280600196849695859652848401375f828201840152601f01601f1916010199019701959401929190611b58565b919082018092116115f757565b908160809103126115d05760405190611bfa826119f4565b80518060070b81036115d0578252611c1460208201611a6b565b60208301526040810151908160030b82036115d05760609160408401520151606082015290565b600291820b910b0390627fffff198212627fffff8313176115f757565b63ffffffff16604d81116115f757600a0a90565b8115611c76570490565b634e487b7160e01b5f52601260045260245ffd5b6040516396834ad360e01b81527f000000000000000000000000000000000000000000000000000000000000000060048201526080816024817f00000000000000000000000000000000000000000000000000000000000000006001600160a01b03165afa9081156115db575f916123c8575b506040815160070b910151908160030b905f8113156123835780925f83125f14612343575050637fffffff1981146115f757611d5291611d47611d4d925f0363ffffffff16611c58565b90611c6c565b6124ac565b6001600160a01b03603082901b8116919073fffd8963efd1fc6a506488495d951d51639616826401000276a2198401909116116123305760501b640100000000600160c01b03168080156115d05760ff826001600160801b031060071b83811c6001600160401b031060061b1783811c63ffffffff1060051b1783811c61ffff1060041b1783811c821060031b177f07060605060205000602030205040001060502050303040105050304000000006f8421084210842108cc6318c6db6d54be85831c1c601f161a17169160808310155f146123245750607e1982011c5b800280607f1c8160ff1c1c800280607f1c8160ff1c1c800280607f1c8160ff1c1c800280607f1c8160ff1c1c800280607f1c8160ff1c1c800280607f1c8160ff1c1c80029081607f1c8260ff1c1c80029283607f1c8460ff1c1c80029485607f1c8660ff1c1c80029687607f1c8860ff1c1c80029889607f1c8a60ff1c1c80029a8b607f1c8c60ff1c1c80029c8d80607f1c9060ff1c1c800260cd1c6604000000000000169d60cc1c6608000000000000169c60cb1c6610000000000000169b60ca1c6620000000000000169a60c91c6640000000000000169960c81c6680000000000000169860c71c670100000000000000169760c61c670200000000000000169660c51c670400000000000000169560c41c670800000000000000169460c31c671000000000000000169360c21c672000000000000000169260c11c674000000000000000169160c01c6780000000000000001690607f190160401b1717171717171717171717171717693627a301d71055774c85026f028f6481ab7f045a5af012a19d003aa919810160801d60020b906fdb2df09e81959a81455e260799a0632f0160801d60020b918282145f14611feb5750905090565b8260ff1d83810118620d89e8811161231157600160801b7001fffcb933bd6fad37aa2d162d1a59400160018316021890600281166122f5575b600481166122d9575b600881166122bd575b601081166122a1575b60208116612285575b60408116612269575b6080811661224d575b6101008116612231575b6102008116612215575b61040081166121f9575b61080081166121dd575b61100081166121c1575b61200081166121a5575b6140008116612189575b618000811661216d575b620100008116612151575b620200008116612136575b62040000811661211b575b6208000016612105575b5f84136120fd575b63ffffffff0160201c6001600160a01b0316116120f8575090565b905090565b5f19046120dd565b6b048a170391f7dc42444e8fa20260801c6120d5565b6d2216e584f5fa1ea926041bedfe9890910260801c906120cb565b906e5d6af8dedb81196699c329225ee6040260801c906120c0565b906f09aa508b5b7a84e1c677de54f3e99bc90260801c906120b5565b906f31be135f97d08fd981231505542fcfa60260801c906120aa565b906f70d869a156d2a1b890bb3df62baf32f70260801c906120a0565b906fa9f746462d870fdf8a65dc1f90e061e50260801c90612096565b906fd097f3bdfd2022b8845ad8f792aa58250260801c9061208c565b906fe7159475a2c29b7443b29c7fa6e889d90260801c90612082565b906ff3392b0822b70005940c7a398e4b70f30260801c90612078565b906ff987a7253ac413176f2b074cf7815e540260801c9061206e565b906ffcbe86c7900a88aedcffc83b479aa3a40260801c90612064565b906ffe5dee046a99a2a811c461f1969c30530260801c9061205a565b906fff2ea16466c96a3843ec78b326b528610260801c90612051565b906fff973b41fa98c081472e6896dfb254c00260801c90612048565b906fffcb9843d60f6159c9db58835c9266440260801c9061203f565b906fffe5caca7e10e4e61c3624eaa0941cd00260801c90612036565b906ffff2e50f5f656932ef12357cf3c7fdcc0260801c9061202d565b906ffff97272373d413259a46990580e213a0260801c90612024565b836345c3193d60e11b5f5260045260245ffd5b905081607f031b611e30565b506318521d4960e21b5f5260045260245ffd5b9092915f12612358575b50611d5291506124ac565b612368915063ffffffff16611c58565b908181029181830414901517156115f757611d52905f61234d565b60405162461bcd60e51b815260206004820152601f60248201527f4368616f73486f6f6b3a20696e76616c6964206f7261636c65207072696365006044820152606490fd5b6123e1915060803d608011610d3157610d248183611a2b565b5f611cfd565b90816101f4019182126001166115f757565b9060020b9060020b02908160020b9182036115f757565b908060020b8015611c765761243a61242e8383620d89e719056123f9565b9282620d89e8056123f9565b918060020b808560020b126124a3575b8360020b92838660020b1361249a575b8560020b078060020b612489575b508460020b12612481575b508260020b136120f8575090565b92505f612473565b6124939195611c3b565b935f612468565b9450839461245a565b9350809361244a565b9081156124ed57600182018083116115f75760011c825b8382106124ce575050565b9092506124e4836124df8184611c6c565b611bd5565b60011c906124c3565b5f915056fea2646970667358221220abb2996479aaa5a12b555d913d36a2cbc1125dfcc4113c3dc7a9a02362962ca864736f6c634300081a0033",
    "linkReferences": {}
  },
  "methodIdentifiers": {
    "LIQUIDITY_DELTA()": "d1cfa2fb",
    "MAX_OFFSET()": "8e1cf4eb",
    "MIN_OFFSET()": "5e152a04",
    "_entropyCallback(uint64,address,bytes32)": "52a5f1f8",
    "_setPendingRequestForTest(uint64,(address,address,uint24,int24,address))": "7da44e3c",
    "afterAddLiquidity(address,(address,address,uint24,int24,address),(int24,int24,int256,bytes32),int256,int256,bytes)": "9f063efc",
    "afterDonate(address,(address,address,uint24,int24,address),uint256,uint256,bytes)": "e1b4af69",
    "afterInitialize(address,(address,address,uint24,int24,address),uint160,int24)": "6fe7e6eb",
    "afterRemoveLiquidity(address,(address,address,uint24,int24,address),(int24,int24,int256,bytes32),int256,int256,bytes)": "6c2bbe7e",
    "afterSwap(address,(address,address,uint24,int24,address),(bool,int256,uint160),int256,bytes)": "b47b2fb1",
    "beforeAddLiquidity(address,(address,address,uint24,int24,address),(int24,int24,int256,bytes32),bytes)": "259982e5",
    "beforeDonate(address,(address,address,uint24,int24,address),uint256,uint256,bytes)": "b6a8b0fa",
    "beforeInitialize(address,(address,address,uint24,int24,address),uint160)": "dc98354e",
    "beforeRemoveLiquidity(address,(address,address,uint24,int24,address),(int24,int24,int256,bytes32),bytes)": "21d0ee70",
    "beforeSwap(address,(address,address,uint24,int24,address),(bool,int256,uint160),bytes)": "575e24b4",
    "entropy()": "47ce07cc",
    "getHookPermissions()": "c4e833ce",
    "getLatestTick()": "a08d0b3a",
    "getPendingTickSpacing(uint64)": "b2d46b0b",
    "pendingRequests(uint64)": "65b07d58",
    "poolManager()": "dc4c90d3",
    "priceFeedId()": "1999bb9e",
    "pyth()": "f98d06f0",
    "requestChaosWithPyth((address,address,uint24,int24,address),bytes[],uint64)": "92fcfed7",
    "requestRandom((address,address,uint24,int24,address))": "71f6919c",
    "testEntropyCallback(uint64,address,bytes32)": "c60876e9"
  },
  "id": 0
}