{
  "abi": [
    {
      "type": "function",
      "name": "consumer",
      "inputs": [],
      "outputs": [
        {
          "name": "",
          "type": "address",
          "internalType": "address"
        }
      ],
      "stateMutability": "view"
    },
    {
      "type": "function",
      "name": "getFeeV2",
      "inputs": [],
      "outputs": [
        {
          "name": "",
          "type": "uint128",
          "internalType": "uint128"
        }
      ],
      "stateMutability": "pure"
    },
    {
      "type": "function",
      "name": "requestV2",
      "inputs": [],
      "outputs": [
        {
          "name": "",
          "type": "uint64",
          "internalType": "uint64"
        }
      ],
      "stateMutability": "payable"
    },
    {
      "type": "function",
      "name": "setConsumer",
      "inputs": [
        {
          "name": "_consumer",
          "type": "address",
          "internalType": "address"
        }
      ],
      "outputs": [],
      "stateMutability": "nonpayable"
    }
  ],
  "bytecode": {
    "object": "0x6080806040523460155761015f908161001a8239f35b5f80fdfe6080806040526004361015610012575f80fd5b5f3560e01c90816363a579d5146100e95781637b43155d14610094575080638204b67a146100735763b4fd729614610048575f80fd5b3461006f575f36600319011261006f575f546040516001600160a01b039091168152602090f35b5f80fd5b3461006f575f36600319011261006f57602060405166038d7ea4c680008152f35b5f36600319011261006f5766038d7ea4c6800034106100c157602060405167ffffffffffffffff43168152f35b62461bcd60e51b815260206004820152600360248201526266656560e81b6044820152606490fd5b3461006f57602036600319011261006f576004356001600160a01b0381169081900361006f576bffffffffffffffffffffffff60a01b5f5416175f555f80f3fea26469706673582212206fcff8267cdb5af3cd3b6e2754c8ef961bc21a7db8ab575926659b53c8c02daa64736f6c634300081a0033",
    "linkReferences": {}
  },
  "methodIdentifiers": {
    "consumer()": "b4fd7296",
    "getFeeV2()": "8204b67a",
    "requestV2()": "7b43155d",
    "setConsumer(address)": "63a579d5"
  },
  "id": 77
}