{
  "abi": [
    {
      "type": "function",
      "name": "getPrice",
      "inputs": [
        {
          "name": "id",
          "type": "bytes32",
          "internalType": "bytes32"
        }
      ],
      "outputs": [
        {
          "name": "",
          "type": "tuple",
          "internalType": "struct PythStructs.Price",
          "components": [
            {
              "name": "price",
              "type": "int64",
              "internalType": "int64"
            },
            {
              "name": "conf",
              "type": "uint64",
              "internalType": "uint64"
            },
            {
              "name": "expo",
              "type": "int32",
              "internalType": "int32"
            },
            {
              "name": "publishTime",
              "type": "uint256",
              "internalType": "uint256"
            }
          ]
        }
      ],
      "stateMutability": "view"
    },
    {
      "type": "function",
      "name": "getPriceUnsafe",
      "inputs": [
        {
          "name": "id",
          "type": "bytes32",
          "internalType": "bytes32"
        }
      ],
      "outputs": [
        {
          "name": "",
          "type": "tuple",
          "internalType": "struct PythStructs.Price",
          "components": [
            {
              "name": "price",
              "type": "int64",
              "internalType": "int64"
            },
            {
              "name": "conf",
              "type": "uint64",
              "internalType": "uint64"
            },
            {
              "name": "expo",
              "type": "int32",
              "internalType": "int32"
            },
            {
              "name": "publishTime",
              "type": "uint256",
              "internalType": "uint256"
            }
          ]
        }
      ],
      "stateMutability": "view"
    },
    {
      "type": "function",
      "name": "setPrice",
      "inputs": [
        {
          "name": "id",
          "type": "bytes32",
          "internalType": "bytes32"
        },
        {
          "name": "price",
          "type": "int64",
          "internalType": "int64"
        },
        {
          "name": "expo",
          "type": "int32",
          "internalType": "int32"
        }
      ],
      "outputs": [],
      "stateMutability": "nonpayable"
    }
  ],
  "bytecode": {
    "object": "0x6080806040523460155761025d908161001a8239f35b5f80fdfe60806040526004361015610011575f80fd5b5f3560e01c806330c41c9d1461003f57806331d98b3f1461003a576396834ad31461003a575f80fd5b6100ff565b346100fb5760603660031901126100fb576024358060070b8091036100fb576044358060030b8091036100fb576001906100776101f3565b928352602083015f815260408401918252606084019167ffffffffffffffff421683526004355f525f60205260405f2094519167ffffffffffffffff6fffffffffffffffff00000000000000008754925160401b16925160801b63ffffffff60801b169316906bffffffffffffffffffffffff60a01b161717178355519101555f80f35b5f80fd5b346100fb5760203660031901126100fb575f606061011b6101f3565b82815282602082015282604082015201526004355f525f60205260405f206101416101f3565b9080548060070b83526001602084019267ffffffffffffffff8360401c168452604085019260801c60030b83520154916060840192808452156101ae5760408051945160070b8552905167ffffffffffffffff166020850152905160030b90830152516060820152608090f35b60405162461bcd60e51b815260206004820152601760248201527f4d6f636b507974683a207072696365206e6f74207365740000000000000000006044820152606490fd5b604051906080820182811067ffffffffffffffff82111761021357604052565b634e487b7160e01b5f52604160045260245ffdfea2646970667358221220c18d2a3764d98e4a6f1b2ee492d5ce1b5d23d23600d8db53f31a44029397ae3464736f6c634300081a0033",
    "linkReferences": {}
  },
  "methodIdentifiers": {
    "getPrice(bytes32)": "31d98b3f",
    "getPriceUnsafe(bytes32)": "96834ad3",
    "setPrice(bytes32,int64,int32)": "30c41c9d"
  },
  "id": 78
}