{
  "_format": "hh3-artifact-1",
  "contractName": "RogueChain",
  "sourceName": "contracts/RogueChain.sol",
  "abi": [
    {
      "inputs": [
        {
          "internalType": "address",
          "name": "_pyth",
          "type": "address"
        },
        {
          "internalType": "address",
          "name": "_pythEntropy",
          "type": "address"
        },
        {
          "internalType": "bytes32",
          "name": "_ethPriceId",
          "type": "bytes32"
        },
        {
          "internalType": "bytes32",
          "name": "_btcPriceId",
          "type": "bytes32"
        }
      ],
      "stateMutability": "nonpayable",
      "type": "constructor"
    },
    {
      "inputs": [],
      "name": "ERC721EnumerableForbiddenBatchMint",
      "type": "error"
    },
    {
      "inputs": [
        {
          "internalType": "address",
          "name": "sender",
          "type": "address"
        },
        {
          "internalType": "uint256",
          "name": "tokenId",
          "type": "uint256"
        },
        {
          "internalType": "address",
          "name": "owner",
          "type": "address"
        }
      ],
      "name": "ERC721IncorrectOwner",
      "type": "error"
    },
    {
      "inputs": [
        {
          "internalType": "address",
          "name": "operator",
          "type": "address"
        },
        {
          "internalType": "uint256",
          "name": "tokenId",
          "type": "uint256"
        }
      ],
      "name": "ERC721InsufficientApproval",
      "type": "error"
    },
    {
      "inputs": [
        {
          "internalType": "address",
          "name": "approver",
          "type": "address"
        }
      ],
      "name": "ERC721InvalidApprover",
      "type": "error"
    },
    {
      "inputs": [
        {
          "internalType": "address",
          "name": "operator",
          "type": "address"
        }
      ],
      "name": "ERC721InvalidOperator",
      "type": "error"
    },
    {
      "inputs": [
        {
          "internalType": "address",
          "name": "owner",
          "type": "address"
        }
      ],
      "name": "ERC721InvalidOwner",
      "type": "error"
    },
    {
      "inputs": [
        {
          "internalType": "address",
          "name": "receiver",
          "type": "address"
        }
      ],
      "name": "ERC721InvalidReceiver",
      "type": "error"
    },
    {
      "inputs": [
        {
          "internalType": "address",
          "name": "sender",
          "type": "address"
        }
      ],
      "name": "ERC721InvalidSender",
      "type": "error"
    },
    {
      "inputs": [
        {
          "internalType": "uint256",
          "name": "tokenId",
          "type": "uint256"
        }
      ],
      "name": "ERC721NonexistentToken",
      "type": "error"
    },
    {
      "inputs": [
        {
          "internalType": "address",
          "name": "owner",
          "type": "address"
        },
        {
          "internalType": "uint256",
          "name": "index",
          "type": "uint256"
        }
      ],
      "name": "ERC721OutOfBoundsIndex",
      "type": "error"
    },
    {
      "inputs": [
        {
          "internalType": "address",
          "name": "owner",
          "type": "address"
        }
      ],
      "name": "OwnableInvalidOwner",
      "type": "error"
    },
    {
      "inputs": [
        {
          "internalType": "address",
          "name": "account",
          "type": "address"
        }
      ],
      "name": "OwnableUnauthorizedAccount",
      "type": "error"
    },
    {
      "inputs": [],
      "name": "ReentrancyGuardReentrantCall",
      "type": "error"
    },
    {
      "anonymous": false,
      "inputs": [
        {
          "indexed": true,
          "internalType": "address",
          "name": "owner",
          "type": "address"
        },
        {
          "indexed": true,
          "internalType": "address",
          "name": "approved",
          "type": "address"
        },
        {
          "indexed": true,
          "internalType": "uint256",
          "name": "tokenId",
          "type": "uint256"
        }
      ],
      "name": "Approval",
      "type": "event"
    },
    {
      "anonymous": false,
      "inputs": [
        {
          "indexed": true,
          "internalType": "address",
          "name": "owner",
          "type": "address"
        },
        {
          "indexed": true,
          "internalType": "address",
          "name": "operator",
          "type": "address"
        },
        {
          "indexed": false,
          "internalType": "bool",
          "name": "approved",
          "type": "bool"
        }
      ],
      "name": "ApprovalForAll",
      "type": "event"
    },
    {
      "anonymous": false,
      "inputs": [
        {
          "indexed": true,
          "internalType": "uint256",
          "name": "heroId",
          "type": "uint256"
        },
        {
          "indexed": false,
          "internalType": "uint256",
          "name": "victoryChance",
          "type": "uint256"
        },
        {
          "indexed": false,
          "internalType": "uint8",
          "name": "marketState",
          "type": "uint8"
        }
      ],
      "name": "DungeonDefeat",
      "type": "event"
    },
    {
      "anonymous": false,
      "inputs": [
        {
          "indexed": true,
          "internalType": "uint256",
          "name": "heroId",
          "type": "uint256"
        },
        {
          "indexed": false,
          "internalType": "uint256",
          "name": "victoryChance",
          "type": "uint256"
        },
        {
          "indexed": false,
          "internalType": "uint8",
          "name": "marketState",
          "type": "uint8"
        }
      ],
      "name": "DungeonVictory",
      "type": "event"
    },
    {
      "anonymous": false,
      "inputs": [
        {
          "indexed": true,
          "internalType": "uint256",
          "name": "heroId",
          "type": "uint256"
        },
        {
          "indexed": false,
          "internalType": "uint256",
          "name": "newLevel",
          "type": "uint256"
        }
      ],
      "name": "HeroLeveledUp",
      "type": "event"
    },
    {
      "anonymous": false,
      "inputs": [
        {
          "indexed": true,
          "internalType": "uint256",
          "name": "heroId",
          "type": "uint256"
        },
        {
          "indexed": true,
          "internalType": "address",
          "name": "owner",
          "type": "address"
        },
        {
          "indexed": false,
          "internalType": "uint256",
          "name": "level",
          "type": "uint256"
        }
      ],
      "name": "HeroMinted",
      "type": "event"
    },
    {
      "anonymous": false,
      "inputs": [
        {
          "indexed": false,
          "internalType": "string",
          "name": "eventName",
          "type": "string"
        },
        {
          "indexed": false,
          "internalType": "string",
          "name": "description",
          "type": "string"
        }
      ],
      "name": "MarketEventTriggered",
      "type": "event"
    },
    {
      "anonymous": false,
      "inputs": [
        {
          "indexed": true,
          "internalType": "address",
          "name": "previousOwner",
          "type": "address"
        },
        {
          "indexed": true,
          "internalType": "address",
          "name": "newOwner",
          "type": "address"
        }
      ],
      "name": "OwnershipTransferred",
      "type": "event"
    },
    {
      "anonymous": false,
      "inputs": [
        {
          "indexed": true,
          "internalType": "bytes32",
          "name": "requestId",
          "type": "bytes32"
        },
        {
          "indexed": false,
          "internalType": "uint64",
          "name": "randomNumber",
          "type": "uint64"
        }
      ],
      "name": "RandomnessFulfilled",
      "type": "event"
    },
    {
      "anonymous": false,
      "inputs": [
        {
          "indexed": true,
          "internalType": "bytes32",
          "name": "requestId",
          "type": "bytes32"
        },
        {
          "indexed": true,
          "internalType": "address",
          "name": "requester",
          "type": "address"
        }
      ],
      "name": "RandomnessRequested",
      "type": "event"
    },
    {
      "anonymous": false,
      "inputs": [
        {
          "indexed": true,
          "internalType": "uint256",
          "name": "heroId",
          "type": "uint256"
        },
        {
          "indexed": false,
          "internalType": "uint256",
          "name": "amount",
          "type": "uint256"
        },
        {
          "indexed": false,
          "internalType": "string",
          "name": "marketName",
          "type": "string"
        }
      ],
      "name": "RewardEarned",
      "type": "event"
    },
    {
      "anonymous": false,
      "inputs": [
        {
          "indexed": true,
          "internalType": "address",
          "name": "from",
          "type": "address"
        },
        {
          "indexed": true,
          "internalType": "address",
          "name": "to",
          "type": "address"
        },
        {
          "indexed": true,
          "internalType": "uint256",
          "name": "tokenId",
          "type": "uint256"
        }
      ],
      "name": "Transfer",
      "type": "event"
    },
    {
      "inputs": [],
      "name": "BASE_EXPERIENCE",
      "outputs": [
        {
          "internalType": "uint256",
          "name": "",
          "type": "uint256"
        }
      ],
      "stateMutability": "view",
      "type": "function"
    },
    {
      "inputs": [],
      "name": "MAX_LEVEL",
      "outputs": [
        {
          "internalType": "uint256",
          "name": "",
          "type": "uint256"
        }
      ],
      "stateMutability": "view",
      "type": "function"
    },
    {
      "inputs": [
        {
          "internalType": "address",
          "name": "to",
          "type": "address"
        },
        {
          "internalType": "uint256",
          "name": "tokenId",
          "type": "uint256"
        }
      ],
      "name": "approve",
      "outputs": [],
      "stateMutability": "nonpayable",
      "type": "function"
    },
    {
      "inputs": [
        {
          "internalType": "address",
          "name": "owner",
          "type": "address"
        }
      ],
      "name": "balanceOf",
      "outputs": [
        {
          "internalType": "uint256",
          "name": "",
          "type": "uint256"
        }
      ],
      "stateMutability": "view",
      "type": "function"
    },
    {
      "inputs": [],
      "name": "btcPriceId",
      "outputs": [
        {
          "internalType": "bytes32",
          "name": "",
          "type": "bytes32"
        }
      ],
      "stateMutability": "view",
      "type": "function"
    },
    {
      "inputs": [
        {
          "internalType": "uint256",
          "name": "heroId",
          "type": "uint256"
        },
        {
          "internalType": "uint64",
          "name": "randomNumber",
          "type": "uint64"
        }
      ],
      "name": "calculateVictoryChance",
      "outputs": [
        {
          "internalType": "uint256",
          "name": "",
          "type": "uint256"
        }
      ],
      "stateMutability": "view",
      "type": "function"
    },
    {
      "inputs": [
        {
          "internalType": "uint256",
          "name": "heroId",
          "type": "uint256"
        }
      ],
      "name": "endGameSession",
      "outputs": [],
      "stateMutability": "nonpayable",
      "type": "function"
    },
    {
      "inputs": [
        {
          "internalType": "uint256",
          "name": "heroId",
          "type": "uint256"
        },
        {
          "internalType": "bytes[]",
          "name": "priceUpdateData",
          "type": "bytes[]"
        }
      ],
      "name": "enterDungeon",
      "outputs": [],
      "stateMutability": "payable",
      "type": "function"
    },
    {
      "inputs": [],
      "name": "ethPriceId",
      "outputs": [
        {
          "internalType": "bytes32",
          "name": "",
          "type": "bytes32"
        }
      ],
      "stateMutability": "view",
      "type": "function"
    },
    {
      "inputs": [
        {
          "internalType": "bytes32",
          "name": "requestId",
          "type": "bytes32"
        },
        {
          "internalType": "uint64",
          "name": "randomNumber",
          "type": "uint64"
        }
      ],
      "name": "fulfillRandomness",
      "outputs": [],
      "stateMutability": "nonpayable",
      "type": "function"
    },
    {
      "inputs": [
        {
          "internalType": "uint256",
          "name": "",
          "type": "uint256"
        }
      ],
      "name": "gameSessions",
      "outputs": [
        {
          "internalType": "uint256",
          "name": "heroId",
          "type": "uint256"
        },
        {
          "internalType": "uint256",
          "name": "startTime",
          "type": "uint256"
        },
        {
          "internalType": "bool",
          "name": "isActive",
          "type": "bool"
        },
        {
          "internalType": "uint256",
          "name": "currentFloor",
          "type": "uint256"
        },
        {
          "internalType": "uint256",
          "name": "monstersDefeated",
          "type": "uint256"
        }
      ],
      "stateMutability": "view",
      "type": "function"
    },
    {
      "inputs": [
        {
          "internalType": "uint256",
          "name": "tokenId",
          "type": "uint256"
        }
      ],
      "name": "getApproved",
      "outputs": [
        {
          "internalType": "address",
          "name": "",
          "type": "address"
        }
      ],
      "stateMutability": "view",
      "type": "function"
    },
    {
      "inputs": [
        {
          "internalType": "uint256",
          "name": "heroId",
          "type": "uint256"
        }
      ],
      "name": "getGameSession",
      "outputs": [
        {
          "components": [
            {
              "internalType": "uint256",
              "name": "heroId",
              "type": "uint256"
            },
            {
              "internalType": "uint256",
              "name": "startTime",
              "type": "uint256"
            },
            {
              "internalType": "bool",
              "name": "isActive",
              "type": "bool"
            },
            {
              "internalType": "uint256",
              "name": "currentFloor",
              "type": "uint256"
            },
            {
              "internalType": "uint256",
              "name": "monstersDefeated",
              "type": "uint256"
            }
          ],
          "internalType": "struct RogueChain.GameSession",
          "name": "",
          "type": "tuple"
        }
      ],
      "stateMutability": "view",
      "type": "function"
    },
    {
      "inputs": [
        {
          "internalType": "uint256",
          "name": "heroId",
          "type": "uint256"
        }
      ],
      "name": "getHero",
      "outputs": [
        {
          "components": [
            {
              "internalType": "uint256",
              "name": "id",
              "type": "uint256"
            },
            {
              "internalType": "address",
              "name": "owner",
              "type": "address"
            },
            {
              "internalType": "uint256",
              "name": "level",
              "type": "uint256"
            },
            {
              "internalType": "uint256",
              "name": "experience",
              "type": "uint256"
            },
            {
              "internalType": "uint256",
              "name": "strength",
              "type": "uint256"
            },
            {
              "internalType": "uint256",
              "name": "agility",
              "type": "uint256"
            },
            {
              "internalType": "uint256",
              "name": "intelligence",
              "type": "uint256"
            },
            {
              "internalType": "uint256",
              "name": "vitality",
              "type": "uint256"
            },
            {
              "internalType": "uint256",
              "name": "luck",
              "type": "uint256"
            }
          ],
          "internalType": "struct RogueChain.Hero",
          "name": "",
          "type": "tuple"
        }
      ],
      "stateMutability": "view",
      "type": "function"
    },
    {
      "inputs": [
        {
          "internalType": "uint256",
          "name": "heroId",
          "type": "uint256"
        }
      ],
      "name": "getHeroStats",
      "outputs": [
        {
          "internalType": "uint256",
          "name": "level",
          "type": "uint256"
        },
        {
          "internalType": "uint256",
          "name": "experience",
          "type": "uint256"
        },
        {
          "internalType": "uint256",
          "name": "strength",
          "type": "uint256"
        },
        {
          "internalType": "uint256",
          "name": "agility",
          "type": "uint256"
        },
        {
          "internalType": "uint256",
          "name": "intelligence",
          "type": "uint256"
        },
        {
          "internalType": "uint256",
          "name": "vitality",
          "type": "uint256"
        },
        {
          "internalType": "uint256",
          "name": "luck",
          "type": "uint256"
        }
      ],
      "stateMutability": "view",
      "type": "function"
    },
    {
      "inputs": [],
      "name": "getMarketState",
      "outputs": [
        {
          "internalType": "enum RogueChain.MarketState",
          "name": "",
          "type": "uint8"
        }
      ],
      "stateMutability": "view",
      "type": "function"
    },
    {
      "inputs": [
        {
          "internalType": "address",
          "name": "user",
          "type": "address"
        }
      ],
      "name": "getUserHeroes",
      "outputs": [
        {
          "internalType": "uint256[]",
          "name": "",
          "type": "uint256[]"
        }
      ],
      "stateMutability": "view",
      "type": "function"
    },
    {
      "inputs": [
        {
          "internalType": "uint256",
          "name": "",
          "type": "uint256"
        }
      ],
      "name": "heroes",
      "outputs": [
        {
          "internalType": "uint256",
          "name": "id",
          "type": "uint256"
        },
        {
          "internalType": "address",
          "name": "owner",
          "type": "address"
        },
        {
          "internalType": "uint256",
          "name": "level",
          "type": "uint256"
        },
        {
          "internalType": "uint256",
          "name": "experience",
          "type": "uint256"
        },
        {
          "internalType": "uint256",
          "name": "strength",
          "type": "uint256"
        },
        {
          "internalType": "uint256",
          "name": "agility",
          "type": "uint256"
        },
        {
          "internalType": "uint256",
          "name": "intelligence",
          "type": "uint256"
        },
        {
          "internalType": "uint256",
          "name": "vitality",
          "type": "uint256"
        },
        {
          "internalType": "uint256",
          "name": "luck",
          "type": "uint256"
        }
      ],
      "stateMutability": "view",
      "type": "function"
    },
    {
      "inputs": [
        {
          "internalType": "address",
          "name": "owner",
          "type": "address"
        },
        {
          "internalType": "address",
          "name": "operator",
          "type": "address"
        }
      ],
      "name": "isApprovedForAll",
      "outputs": [
        {
          "internalType": "bool",
          "name": "",
          "type": "bool"
        }
      ],
      "stateMutability": "view",
      "type": "function"
    },
    {
      "inputs": [],
      "name": "mintHero",
      "outputs": [],
      "stateMutability": "nonpayable",
      "type": "function"
    },
    {
      "inputs": [],
      "name": "name",
      "outputs": [
        {
          "internalType": "string",
          "name": "",
          "type": "string"
        }
      ],
      "stateMutability": "view",
      "type": "function"
    },
    {
      "inputs": [],
      "name": "owner",
      "outputs": [
        {
          "internalType": "address",
          "name": "",
          "type": "address"
        }
      ],
      "stateMutability": "view",
      "type": "function"
    },
    {
      "inputs": [
        {
          "internalType": "uint256",
          "name": "tokenId",
          "type": "uint256"
        }
      ],
      "name": "ownerOf",
      "outputs": [
        {
          "internalType": "address",
          "name": "",
          "type": "address"
        }
      ],
      "stateMutability": "view",
      "type": "function"
    },
    {
      "inputs": [
        {
          "internalType": "bytes32",
          "name": "",
          "type": "bytes32"
        }
      ],
      "name": "pendingRequests",
      "outputs": [
        {
          "internalType": "uint256",
          "name": "heroId",
          "type": "uint256"
        },
        {
          "internalType": "uint256",
          "name": "timestamp",
          "type": "uint256"
        }
      ],
      "stateMutability": "view",
      "type": "function"
    },
    {
      "inputs": [],
      "name": "pyth",
      "outputs": [
        {
          "internalType": "contract IPyth",
          "name": "",
          "type": "address"
        }
      ],
      "stateMutability": "view",
      "type": "function"
    },
    {
      "inputs": [],
      "name": "pythEntropy",
      "outputs": [
        {
          "internalType": "address",
          "name": "",
          "type": "address"
        }
      ],
      "stateMutability": "view",
      "type": "function"
    },
    {
      "inputs": [
        {
          "internalType": "bytes32",
          "name": "",
          "type": "bytes32"
        }
      ],
      "name": "randomnessRequests",
      "outputs": [
        {
          "internalType": "address",
          "name": "",
          "type": "address"
        }
      ],
      "stateMutability": "view",
      "type": "function"
    },
    {
      "inputs": [],
      "name": "renounceOwnership",
      "outputs": [],
      "stateMutability": "nonpayable",
      "type": "function"
    },
    {
      "inputs": [],
      "name": "requestRandomness",
      "outputs": [],
      "stateMutability": "payable",
      "type": "function"
    },
    {
      "inputs": [
        {
          "internalType": "address",
          "name": "from",
          "type": "address"
        },
        {
          "internalType": "address",
          "name": "to",
          "type": "address"
        },
        {
          "internalType": "uint256",
          "name": "tokenId",
          "type": "uint256"
        }
      ],
      "name": "safeTransferFrom",
      "outputs": [],
      "stateMutability": "nonpayable",
      "type": "function"
    },
    {
      "inputs": [
        {
          "internalType": "address",
          "name": "from",
          "type": "address"
        },
        {
          "internalType": "address",
          "name": "to",
          "type": "address"
        },
        {
          "internalType": "uint256",
          "name": "tokenId",
          "type": "uint256"
        },
        {
          "internalType": "bytes",
          "name": "data",
          "type": "bytes"
        }
      ],
      "name": "safeTransferFrom",
      "outputs": [],
      "stateMutability": "nonpayable",
      "type": "function"
    },
    {
      "inputs": [
        {
          "internalType": "address",
          "name": "operator",
          "type": "address"
        },
        {
          "internalType": "bool",
          "name": "approved",
          "type": "bool"
        }
      ],
      "name": "setApprovalForAll",
      "outputs": [],
      "stateMutability": "nonpayable",
      "type": "function"
    },
    {
      "inputs": [
        {
          "internalType": "address",
          "name": "_pyth",
          "type": "address"
        }
      ],
      "name": "setPyth",
      "outputs": [],
      "stateMutability": "nonpayable",
      "type": "function"
    },
    {
      "inputs": [
        {
          "internalType": "uint256",
          "name": "heroId",
          "type": "uint256"
        }
      ],
      "name": "startGameSession",
      "outputs": [],
      "stateMutability": "nonpayable",
      "type": "function"
    },
    {
      "inputs": [
        {
          "internalType": "bytes4",
          "name": "interfaceId",
          "type": "bytes4"
        }
      ],
      "name": "supportsInterface",
      "outputs": [
        {
          "internalType": "bool",
          "name": "",
          "type": "bool"
        }
      ],
      "stateMutability": "view",
      "type": "function"
    },
    {
      "inputs": [],
      "name": "symbol",
      "outputs": [
        {
          "internalType": "string",
          "name": "",
          "type": "string"
        }
      ],
      "stateMutability": "view",
      "type": "function"
    },
    {
      "inputs": [
        {
          "internalType": "uint256",
          "name": "index",
          "type": "uint256"
        }
      ],
      "name": "tokenByIndex",
      "outputs": [
        {
          "internalType": "uint256",
          "name": "",
          "type": "uint256"
        }
      ],
      "stateMutability": "view",
      "type": "function"
    },
    {
      "inputs": [
        {
          "internalType": "address",
          "name": "owner",
          "type": "address"
        },
        {
          "internalType": "uint256",
          "name": "index",
          "type": "uint256"
        }
      ],
      "name": "tokenOfOwnerByIndex",
      "outputs": [
        {
          "internalType": "uint256",
          "name": "",
          "type": "uint256"
        }
      ],
      "stateMutability": "view",
      "type": "function"
    },
    {
      "inputs": [
        {
          "internalType": "uint256",
          "name": "tokenId",
          "type": "uint256"
        }
      ],
      "name": "tokenURI",
      "outputs": [
        {
          "internalType": "string",
          "name": "",
          "type": "string"
        }
      ],
      "stateMutability": "view",
      "type": "function"
    },
    {
      "inputs": [],
      "name": "totalSupply",
      "outputs": [
        {
          "internalType": "uint256",
          "name": "",
          "type": "uint256"
        }
      ],
      "stateMutability": "view",
      "type": "function"
    },
    {
      "inputs": [
        {
          "internalType": "address",
          "name": "from",
          "type": "address"
        },
        {
          "internalType": "address",
          "name": "to",
          "type": "address"
        },
        {
          "internalType": "uint256",
          "name": "tokenId",
          "type": "uint256"
        }
      ],
      "name": "transferFrom",
      "outputs": [],
      "stateMutability": "nonpayable",
      "type": "function"
    },
    {
      "inputs": [
        {
          "internalType": "address",
          "name": "newOwner",
          "type": "address"
        }
      ],
      "name": "transferOwnership",
      "outputs": [],
      "stateMutability": "nonpayable",
      "type": "function"
    },
    {
      "inputs": [
        {
          "internalType": "bytes[]",
          "name": "priceUpdateData",
          "type": "bytes[]"
        }
      ],
      "name": "updatePriceFeedsAndGetMarketState",
      "outputs": [
        {
          "internalType": "enum RogueChain.MarketState",
          "name": "",
          "type": "uint8"
        }
      ],
      "stateMutability": "payable",
      "type": "function"
    },
    {
      "inputs": [
        {
          "internalType": "address",
          "name": "",
          "type": "address"
        },
        {
          "internalType": "uint256",
          "name": "",
          "type": "uint256"
        }
      ],
      "name": "userHeroes",
      "outputs": [
        {
          "internalType": "uint256",
          "name": "",
          "type": "uint256"
        }
      ],
      "stateMutability": "view",
      "type": "function"
    },
    {
      "inputs": [],
      "name": "withdraw",
      "outputs": [],
      "stateMutability": "nonpayable",
      "type": "function"
    }
  ],
  "bytecode": "0x608060405234801561000f575f5ffd5b5060405161387c38038061387c83398101604081905261002e91610179565b3360405180604001604052806011815260200170526f677565436861696e204865726f657360781b815250604051806040016040528060038152602001620a486960eb1b815250815f90816100839190610251565b5060016100908282610251565b5050506001600160a01b0381166100c057604051631e4fbdf760e01b81525f600482015260240160405180910390fd5b6100c98161010d565b506001600b55601080546001600160a01b039586166001600160a01b031991821617909155601180549490951693169290921790925560129190915560135561030b565b600a80546001600160a01b038381166001600160a01b0319831681179093556040519116919082907f8be0079c531659141344cd1fd0a4f28419497f9722a3daafe3b4186f6b6457e0905f90a35050565b80516001600160a01b0381168114610174575f5ffd5b919050565b5f5f5f5f6080858703121561018c575f5ffd5b6101958561015e565b93506101a36020860161015e565b6040860151606090960151949790965092505050565b634e487b7160e01b5f52604160045260245ffd5b600181811c908216806101e157607f821691505b6020821081036101ff57634e487b7160e01b5f52602260045260245ffd5b50919050565b601f82111561024c57805f5260205f20601f840160051c8101602085101561022a5750805b601f840160051c820191505b81811015610249575f8155600101610236565b50505b505050565b81516001600160401b0381111561026a5761026a6101b9565b61027e8161027884546101cd565b84610205565b6020601f8211600181146102b0575f83156102995750848201515b5f19600385901b1c1916600184901b178455610249565b5f84815260208120601f198516915b828110156102df57878501518255602094850194600190920191016102bf565b50848210156102fc57868401515f19600387901b60f8161c191681555b50505050600190811b01905550565b613564806103185f395ff3fe60806040526004361061026a575f3560e01c8063835a43981161014a578063cfe68a4e116100be578063ee22fd6f11610078578063ee22fd6f14610913578063f2fde38b14610932578063f351325514610951578063f8413b0714610964578063f98d06f01461096c578063fbb0ab001461098b575f5ffd5b8063cfe68a4e14610890578063d2e65a7c146108a5578063d7129b4314610758578063d8165743146108c4578063e9200337146108e0578063e985e9c5146108f4575f5ffd5b8063a22cb4651161010f578063a22cb46514610739578063a49062d414610758578063a8d4a03b1461076c578063b88d4fde14610826578063c87b56dd14610845578063cdf7d85614610864575f5ffd5b8063835a43981461063357806389cea22a146106875780638ab06fea146106a65780638da5cb5b1461070857806395d89b4114610725575f5ffd5b806334a8014b116101e15780634f6ccce7116101a65780634f6ccce71461056f5780635e619b781461058e5780636107ac13146105c25780636352211e146105e157806370a0823114610600578063715018a61461061f575f5ffd5b806334a8014b1461048f57806335b367711461050a5780633ccfd60b146105295780634105f8d71461053d57806342842e0e14610550575f5ffd5b80631c00d3bf116102325780631c00d3bf1461033957806321d801111461035857806323b872dd146103eb5780632795ad201461040a5780632d55f737146104515780632f745c5914610470575f5ffd5b806301ffc9a71461026e57806306fdde03146102a2578063081812fc146102c3578063095ea7b3146102fa57806318160ddd1461031b575b5f5ffd5b348015610279575f5ffd5b5061028d610288366004612d53565b6109a0565b60405190151581526020015b60405180910390f35b3480156102ad575f5ffd5b506102b66109b0565b6040516102999190612d9c565b3480156102ce575f5ffd5b506102e26102dd366004612dae565b610a3f565b6040516001600160a01b039091168152602001610299565b348015610305575f5ffd5b50610319610314366004612ddb565b610a66565b005b348015610326575f5ffd5b506008545b604051908152602001610299565b348015610344575f5ffd5b50610319610353366004612dae565b610a75565b348015610363575f5ffd5b50610377610372366004612dae565b610bae565b60405161029991905f610120820190508251825260018060a01b03602084015116602083015260408301516040830152606083015160608301526080830151608083015260a083015160a083015260c083015160c083015260e083015160e083015261010083015161010083015292915050565b3480156103f6575f5ffd5b50610319610405366004612e03565b610cb4565b348015610415575f5ffd5b5061043c610424366004612dae565b60156020525f90815260409020805460019091015482565b60408051928352602083019190915201610299565b34801561045c575f5ffd5b5061032b61046b366004612ddb565b610d3d565b34801561047b575f5ffd5b5061032b61048a366004612ddb565b610d68565b34801561049a575f5ffd5b506104db6104a9366004612dae565b600f6020525f9081526040902080546001820154600283015460038401546004909401549293919260ff909116919085565b604051610299959493929190948552602085019390935290151560408401526060830152608082015260a00190565b348015610515575f5ffd5b5061032b610524366004612e53565b610dcb565b348015610534575f5ffd5b50610319610f4c565b61031961054b366004612fce565b610f8d565b34801561055b575f5ffd5b5061031961056a366004612e03565b61125d565b34801561057a575f5ffd5b5061032b610589366004612dae565b611277565b348015610599575f5ffd5b506102e26105a8366004612dae565b600e6020525f90815260409020546001600160a01b031681565b3480156105cd575f5ffd5b506103196105dc366004612e53565b6112cc565b3480156105ec575f5ffd5b506102e26105fb366004612dae565b6113f6565b34801561060b575f5ffd5b5061032b61061a366004613011565b611400565b34801561062a575f5ffd5b50610319611445565b34801561063e575f5ffd5b5061065261064d366004612dae565b611458565b604080519788526020880196909652948601939093526060850191909152608084015260a083015260c082015260e001610299565b348015610692575f5ffd5b506011546102e2906001600160a01b031681565b3480156106b1575f5ffd5b506106c56106c0366004612dae565b61152e565b60405161029991905f60a0820190508251825260208301516020830152604083015115156040830152606083015160608301526080830151608083015292915050565b348015610713575f5ffd5b50600a546001600160a01b03166102e2565b348015610730575f5ffd5b506102b66115e2565b348015610744575f5ffd5b5061031961075336600461302a565b6115f1565b348015610763575f5ffd5b5061032b606481565b348015610777575f5ffd5b506107da610786366004612dae565b600c6020525f908152604090208054600182015460028301546003840154600485015460058601546006870154600788015460089098015496976001600160a01b0390961696949593949293919290919089565b60408051998a526001600160a01b0390981660208a0152968801959095526060870193909352608086019190915260a085015260c084015260e083015261010082015261012001610299565b348015610831575f5ffd5b50610319610840366004613063565b6115fc565b348015610850575f5ffd5b506102b661085f366004612dae565b611614565b34801561086f575f5ffd5b5061088361087e366004613011565b611685565b60405161029991906130c6565b34801561089b575f5ffd5b5061032b60125481565b3480156108b0575f5ffd5b506103196108bf366004612dae565b6116ee565b3480156108cf575f5ffd5b5060015b604051610299919061311c565b3480156108eb575f5ffd5b50610319611810565b3480156108ff575f5ffd5b5061028d61090e366004613142565b611988565b34801561091e575f5ffd5b5061031961092d366004613011565b6119b5565b34801561093d575f5ffd5b5061031961094c366004613011565b6119df565b6108d361095f36600461316a565b611a19565b610319611b86565b348015610977575f5ffd5b506010546102e2906001600160a01b031681565b348015610996575f5ffd5b5061032b60135481565b5f6109aa82611c64565b92915050565b60605f80546109be9061319b565b80601f01602080910402602001604051908101604052809291908181526020018280546109ea9061319b565b8015610a355780601f10610a0c57610100808354040283529160200191610a35565b820191905f5260205f20905b815481529060010190602001808311610a1857829003601f168201915b5050505050905090565b5f610a4982611c88565b505f828152600460205260409020546001600160a01b03166109aa565b610a71828233611cbf565b5050565b8033610a80826113f6565b6001600160a01b031614610aaf5760405162461bcd60e51b8152600401610aa6906131cd565b60405180910390fd5b815f610aba82611ccc565b6001600160a01b031603610ae05760405162461bcd60e51b8152600401610aa690613204565b5f838152600f602052604090206002015460ff1615610b415760405162461bcd60e51b815260206004820152601b60248201527f47616d652073657373696f6e20616c72656164792061637469766500000000006044820152606401610aa6565b50506040805160a0810182528281524260208083019182526001838501818152606085018281525f60808701818152988152600f90945295909220935184559151918301919091555160028201805460ff1916911515919091179055905160038201559051600490910155565b610bfd6040518061012001604052805f81526020015f6001600160a01b031681526020015f81526020015f81526020015f81526020015f81526020015f81526020015f81526020015f81525090565b815f610c0882611ccc565b6001600160a01b031603610c2e5760405162461bcd60e51b8152600401610aa690613204565b5f838152600c60209081526040918290208251610120810184528154815260018201546001600160a01b0316928101929092526002810154928201929092526003820154606082015260048201546080820152600582015460a0820152600682015460c0820152600782015460e082015260089091015461010082015291505b50919050565b6001600160a01b038216610cdd57604051633250574960e11b81525f6004820152602401610aa6565b5f610ce9838333611ce6565b9050836001600160a01b0316816001600160a01b031614610d37576040516364283d7b60e01b81526001600160a01b0380861660048301526024820184905282166044820152606401610aa6565b50505050565b600d602052815f5260405f208181548110610d56575f80fd5b905f5260205f20015f91509150505481565b5f610d7283611400565b8210610da35760405163295f44f760e21b81526001600160a01b038416600482015260248101839052604401610aa6565b506001600160a01b03919091165f908152600660209081526040808320938352929052205490565b5f828152600c60209081526040808320815161012081018352815481526001828101546001600160a01b0316948201949094526002820154928101929092526003810154606083015260048101546080830152600581015460a0830152600681015460c0830152600781015460e083015260080154610100820152602883610e5284611e0d565b90505f83604001516003610e669190613245565b9050601e811115610e755750601e5b5f60058561010001518660e001518760c001518860a001518960800151610e9c919061325c565b610ea6919061325c565b610eb0919061325c565b610eba919061325c565b610ec49190613283565b90506014811115610ed3575060145b5f600f610ee1601f8b613296565b6001600160401b0316610ef491906132c3565b90505f818385610f04888a6132e9565b610f0e91906132e9565b610f1891906132e9565b610f2291906132e9565b90506005811215610f31575060055b605f811315610f3e5750605f5b9a9950505050505050505050565b610f54611e7d565b600a546040516001600160a01b03909116904780156108fc02915f818181858888f19350505050158015610f8a573d5f5f3e3d5ffd5b50565b8133610f98826113f6565b6001600160a01b031614610fbe5760405162461bcd60e51b8152600401610aa6906131cd565b610fc6611eaa565b5f838152600c6020526040902060020154610ff35760405162461bcd60e51b8152600401610aa690613204565b66038d7ea4c6800034101561103d5760405162461bcd60e51b815260206004820152601060248201526f496e73756666696369656e742066656560801b6044820152606401610aa6565b601054604051631df3cbc560e31b81526001600160a01b039091169063ef9e5e2890349061106f908690600401613310565b5f604051808303818588803b158015611086575f5ffd5b505af1158015611098573d5f5f3e3d5ffd5b5050604080514260208201524491810191909152606080820188905233901b6001600160601b03191660808201525f935060940191506110d59050565b60408051601f1981840301815282825280516020918201208383018352878452428483019081525f828152601590935283832094518555516001909401939093559051919250339183917f24824956716588cf18c3cb557ee25fa952255246eb51235316882371d343c35591a35f61114f60016064611ed4565b90505f61115d600283613373565b1590508015611200575f868152600c6020526040812060020180546001929061118790849061325c565b90915550505f868152600c602052604081206003018054606492906111ad90849061325c565b90915550505f868152600c60205260409081902060020154905187917f893dc3a1c121cdc44e6a41bff8d799deb7e50f9ad20e93c637f082cfaacd153c916111f791815260200190565b60405180910390a25b66038d7ea4c6800034111561124b57336108fc61122466038d7ea4c6800034613386565b6040518115909202915f818181858888f19350505050158015611249573d5f5f3e3d5ffd5b505b5050506112586001600b55565b505050565b61125883838360405180602001604052805f8152506115fc565b5f61128160085490565b82106112a95760405163295f44f760e21b81525f600482015260248101839052604401610aa6565b600882815481106112bc576112bc613399565b905f5260205f2001549050919050565b6011546001600160a01b031633146113265760405162461bcd60e51b815260206004820152601960248201527f4f6e6c792050797468456e74726f70792063616e2063616c6c000000000000006044820152606401610aa6565b5f82815260156020908152604091829020825180840190935280548084526001909101549183019190915261138f5760405162461bcd60e51b815260206004820152600f60248201526e125b9d985b1a59081c995c5d595cdd608a1b6044820152606401610aa6565b805161139b9083611f54565b5f8381526015602090815260408083208381556001019290925590516001600160401b038416815284917f3aee0db1a8da737d79e238c3eb48db0b31bf4748dd5c42f52c3625f00ad06ce791015b60405180910390a2505050565b5f6109aa82611c88565b5f6001600160a01b03821661142a576040516322718ad960e21b81525f6004820152602401610aa6565b506001600160a01b03165f9081526003602052604090205490565b61144d611e7d565b6114565f612038565b565b5f808080808080878161146a82611ccc565b6001600160a01b0316036114905760405162461bcd60e51b8152600401610aa690613204565b5050505f9586525050600c60209081526040948590208551610120810187528154815260018201546001600160a01b0316928101929092526002810154958201869052600381015460608301819052600482015460808401819052600583015460a08501819052600684015460c08601819052600785015460e087018190526008909501546101009096018690529899929891975095509350909190565b61155d6040518060a001604052805f81526020015f81526020015f151581526020015f81526020015f81525090565b815f61156882611ccc565b6001600160a01b03160361158e5760405162461bcd60e51b8152600401610aa690613204565b50505f908152600f6020908152604091829020825160a08101845281548152600182015492810192909252600281015460ff1615159282019290925260038201546060820152600490910154608082015290565b6060600180546109be9061319b565b610a71338383612089565b611607848484610cb4565b610d373385858585612127565b606061161f82611c88565b505f61163560408051602081019091525f815290565b90505f8151116116535760405180602001604052805f81525061167e565b8061165d8461224e565b60405160200161166e9291906133c4565b6040516020818303038152906040525b9392505050565b6001600160a01b0381165f908152600d60209081526040918290208054835181840281018401909452808452606093928301828280156116e257602002820191905f5260205f20905b8154815260200190600101908083116116ce575b50505050509050919050565b80336116f9826113f6565b6001600160a01b03161461171f5760405162461bcd60e51b8152600401610aa6906131cd565b815f61172a82611ccc565b6001600160a01b0316036117505760405162461bcd60e51b8152600401610aa690613204565b5f838152600f602052604090206002015460ff166117a95760405162461bcd60e51b815260206004820152601660248201527527379030b1ba34bb329033b0b6b29039b2b9b9b4b7b760511b6044820152606401610aa6565b5f838152600f6020526040812060028101805460ff1916905560048101549091906117d590600a613245565b905080600c5f8781526020019081526020015f206003015f8282546117fa919061325c565b909155506118099050856122de565b5050505050565b601480545f9182611820836133d8565b919050559050611830338261241d565b604051806101200160405280828152602001336001600160a01b03168152602001600181526020015f815260200161186a600a6014611ed4565b815260200161187b600a6014611ed4565b815260200161188c600a6014611ed4565b815260200161189d600a6014611ed4565b81526020016118ae6005600f611ed4565b90525f828152600c602090815260408083208451815584830151600180830180546001600160a01b0319166001600160a01b0390931692909217909155858301516002830155606086015160038301556080860151600483015560a0860151600583015560c0860151600683015560e086015160078301556101009095015160089091015533808452600d8352818420805480870182559085529383902090930185905551928352909183917f1ff83751d356c48789f84e073266f617fdfe6d8a24b572efe194288e748acce0910160405180910390a350565b6001600160a01b039182165f90815260056020908152604080832093909416825291909152205460ff1690565b6119bd611e7d565b601080546001600160a01b0319166001600160a01b0392909216919091179055565b6119e7611e7d565b6001600160a01b038116611a1057604051631e4fbdf760e01b81525f6004820152602401610aa6565b610f8a81612038565b5f5f825111611a6a5760405162461bcd60e51b815260206004820152601d60248201527f4e6f2070726963652075706461746520646174612070726f76696465640000006044820152606401610aa6565b601054604051631df3cbc560e31b81526001600160a01b039091169063ef9e5e28903490611a9c908690600401613310565b5f604051808303818588803b158015611ab3575f5ffd5b505af193505050508015611ac5575060015b611b7f57611ad16133f0565b806308c379a003611b275750611ae5613409565b80611af05750611b29565b80604051602001611b019190613483565b60408051601f198184030181529082905262461bcd60e51b8252610aa691600401612d9c565b505b60405162461bcd60e51b815260206004820152602560248201527f5079746820757064617465206661696c6564207769746820756e6b6e6f776e2060448201526432b93937b960d91b6064820152608401610aa6565b60016109aa565b66038d7ea4c68000341015611be95760405162461bcd60e51b815260206004820152602360248201527f496e73756666696369656e74207061796d656e7420666f722072616e646f6d6e60448201526265737360e81b6064820152608401610aa6565b5f424433604051602001611c1d93929190928352602083019190915260601b6001600160601b031916604082015260540190565b60408051601f198184030181529082905280516020909101209150339082907f24824956716588cf18c3cb557ee25fa952255246eb51235316882371d343c355905f90a350565b5f6001600160e01b0319821663780e9d6360e01b14806109aa57506109aa82612436565b5f5f611c9383611ccc565b90506001600160a01b0381166109aa57604051637e27328960e01b815260048101849052602401610aa6565b6112588383836001612485565b5f908152600260205260409020546001600160a01b031690565b5f5f611cf184611ccc565b90506001600160a01b03811615611dbf576001600160a01b0381165f908152600d60205260408120905b8154811015611dbc5785828281548110611d3757611d37613399565b905f5260205f20015403611db45781548290611d5590600190613386565b81548110611d6557611d65613399565b905f5260205f200154828281548110611d8057611d80613399565b905f5260205f20018190555081805480611d9c57611d9c6134ab565b600190038181905f5260205f20015f90559055611dbc565b600101611d1b565b50505b6001600160a01b03851615611df9576001600160a01b0385165f908152600d60209081526040822080546001810182559083529120018490555b611e04858585612589565b95945050505050565b5f80826003811115611e2157611e21613108565b03611e2f5750601819919050565b6001826003811115611e4357611e43613108565b03611e4f57505f919050565b6002826003811115611e6357611e63613108565b03611e7057506019919050565b506028919050565b919050565b600a546001600160a01b031633146114565760405163118cdaa760e01b8152336004820152602401610aa6565b6002600b5403611ecd57604051633ee5aeb560e01b815260040160405180910390fd5b6002600b55565b5f5f424433604051602001611f0993929190928352602083019190915260601b6001600160601b031916604082015260540190565b60408051601f1981840301815291905280516020909101209050611f2d8484613386565b611f3890600161325c565b611f429082613373565b611f4c908561325c565b949350505050565b5f611f5f8383610dcb565b905060015f82611f70606486613296565b6001600160401b03161090508015611fe257611f8e85600184612654565b847f3b43f363a2b7a22058b5ccc4932884dd959e821525241e3c50b6f580945bcfb784846003811115611fc357611fc3613108565b6040805192835260ff90911660208301520160405180910390a2611809565b847fff378e65c32bfe98e4d53c9edcf30cbfca7da718a1c415f869f9193e55ea41488484600381111561201757612017613108565b6040805192835260ff90911660208301520160405180910390a25050505050565b600a80546001600160a01b038381166001600160a01b0319831681179093556040519116919082907f8be0079c531659141344cd1fd0a4f28419497f9722a3daafe3b4186f6b6457e0905f90a35050565b6001600160a01b0382166120bb57604051630b61174360e31b81526001600160a01b0383166004820152602401610aa6565b6001600160a01b038381165f81815260056020908152604080832094871680845294825291829020805460ff191686151590811790915591519182527f17307eab39ab6107e8899845ad3d59bd9653f200f220920489ca2b5937696c31910160405180910390a3505050565b6001600160a01b0383163b1561180957604051630a85bd0160e11b81526001600160a01b0384169063150b7a02906121699088908890879087906004016134bf565b6020604051808303815f875af19250505080156121a3575060408051601f3d908101601f191682019092526121a0918101906134fb565b60015b61220a573d8080156121d0576040519150601f19603f3d011682016040523d82523d5f602084013e6121d5565b606091505b5080515f0361220257604051633250574960e11b81526001600160a01b0385166004820152602401610aa6565b805160208201fd5b6001600160e01b03198116630a85bd0160e11b1461224657604051633250574960e11b81526001600160a01b0385166004820152602401610aa6565b505050505050565b60605f61225a8361275b565b60010190505f816001600160401b0381111561227857612278612e7d565b6040519080825280601f01601f1916602001820160405280156122a2576020820181803683370190505b5090508181016020015b5f19016f181899199a1a9b1b9c1cb0b131b232b360811b600a86061a8153600a85049450846122ac575b509392505050565b5f818152600c6020526040812060028101549091906122ff90606490613245565b905080826003015410158015612319575060648260020154105b1561125857600282018054905f61232f836133d8565b919050555061234060016003611ed4565b826004015f828254612352919061325c565b90915550612364905060016003611ed4565b826005015f828254612376919061325c565b90915550612388905060016003611ed4565b826006015f82825461239a919061325c565b909155506123ac905060016003611ed4565b826007015f8282546123be919061325c565b909155506123cf90505f6002611ed4565b826008015f8282546123e1919061325c565b9091555050600282015460405190815283907f893dc3a1c121cdc44e6a41bff8d799deb7e50f9ad20e93c637f082cfaacd153c906020016113e9565b610a71828260405180602001604052805f815250612832565b5f6001600160e01b031982166380ac58cd60e01b148061246657506001600160e01b03198216635b5e139f60e01b145b806109aa57506301ffc9a760e01b6001600160e01b03198316146109aa565b808061249957506001600160a01b03821615155b1561255a575f6124a884611c88565b90506001600160a01b038316158015906124d45750826001600160a01b0316816001600160a01b031614155b80156124e757506124e58184611988565b155b156125105760405163a9fbf51f60e01b81526001600160a01b0384166004820152602401610aa6565b81156125585783856001600160a01b0316826001600160a01b03167f8c5be1e5ebec7d5bd14f71427d1e84f3dd0314c0f7b2291e5b200ac8c7c3b92560405160405180910390a45b505b50505f90815260046020526040902080546001600160a01b0319166001600160a01b0392909216919091179055565b5f5f612596858585612849565b90506001600160a01b0381166125f2576125ed84600880545f838152600960205260408120829055600182018355919091527ff3f7a9fe364faab93b216da50a3214154f22a0a2b415b23a84c8169e8b636ee30155565b612615565b846001600160a01b0316816001600160a01b031614612615576126158185612936565b6001600160a01b0385166126315761262c846129b3565b611f4c565b846001600160a01b0316816001600160a01b031614611f4c57611f4c8585612a5a565b81156112585760645f61266683612aa8565b90505f60646126758385613245565b61267f9190613283565b905080600c5f8881526020019081526020015f206003015f8282546126a4919061325c565b90915550505f868152600c60205260409020600301546126c390612b14565b5f878152600c6020526040908190206002018290555187917f893dc3a1c121cdc44e6a41bff8d799deb7e50f9ad20e93c637f082cfaacd153c9161270991815260200190565b60405180910390a2857f99e98b5ebdbbb637f7b71effb4d8524e9d51047520f1780f0eb644625cd028978261273d87612b2b565b60405161274b929190613516565b60405180910390a2505050505050565b5f8072184f03e93ff9f4daa797ed6e38ed64bf6a1f0160401b83106127995772184f03e93ff9f4daa797ed6e38ed64bf6a1f0160401b830492506040015b6d04ee2d6d415b85acef810000000083106127c5576d04ee2d6d415b85acef8100000000830492506020015b662386f26fc1000083106127e357662386f26fc10000830492506010015b6305f5e10083106127fb576305f5e100830492506008015b612710831061280f57612710830492506004015b60648310612821576064830492506002015b600a83106109aa5760010192915050565b61283c8383612c18565b611258335f858585612127565b5f5f61285484611ccc565b90506001600160a01b0383161561287057612870818486612c79565b6001600160a01b038116156128aa5761288b5f855f5f612485565b6001600160a01b0381165f90815260036020526040902080545f190190555b6001600160a01b038516156128d8576001600160a01b0385165f908152600360205260409020805460010190555b5f8481526002602052604080822080546001600160a01b0319166001600160a01b0389811691821790925591518793918516917fddf252ad1be2c89b69c2b068fc378daa952ba7f163c4a11628f55a4df523b3ef91a4949350505050565b5f61294083611400565b5f838152600760209081526040808320546001600160a01b0388168452600690925290912091925090818314612995575f83815260208281526040808320548584528184208190558352600790915290208290555b5f938452600760209081526040808620869055938552525081205550565b6008545f906129c490600190613386565b5f83815260096020526040812054600880549394509092849081106129eb576129eb613399565b905f5260205f20015490508060088381548110612a0a57612a0a613399565b5f918252602080832090910192909255828152600990915260408082208490558582528120556008805480612a4157612a416134ab565b600190038181905f5260205f20015f9055905550505050565b5f6001612a6684611400565b612a709190613386565b6001600160a01b039093165f908152600660209081526040808320868452825280832085905593825260079052919091209190915550565b5f80826003811115612abc57612abc613108565b03612ac957506032919050565b6001826003811115612add57612add613108565b03612aea57506064919050565b6002826003811115612afe57612afe613108565b03612b0b575060c8919050565b5061012c919050565b5f612b20606483613283565b6109aa90600161325c565b60605f826003811115612b4057612b40613108565b03612b6c57505060408051808201909152600b81526a1099585c8813585c9ad95d60aa1b602082015290565b6001826003811115612b8057612b80613108565b03612bae57505060408051808201909152600d81526c139bdc9b585b0813585c9ad95d609a1b602082015290565b6002826003811115612bc257612bc2613108565b03612bee57505060408051808201909152600b81526a109d5b1b0813585c9ad95d60aa1b602082015290565b505060408051808201909152600e81526d115e1d1c995b594813585c9ad95d60921b602082015290565b6001600160a01b038216612c4157604051633250574960e11b81525f6004820152602401610aa6565b5f612c4d83835f611ce6565b90506001600160a01b03811615611258576040516339e3563760e11b81525f6004820152602401610aa6565b612c84838383612cdd565b611258576001600160a01b038316612cb257604051637e27328960e01b815260048101829052602401610aa6565b60405163177e802f60e01b81526001600160a01b038316600482015260248101829052604401610aa6565b5f6001600160a01b03831615801590611f4c5750826001600160a01b0316846001600160a01b03161480612d165750612d168484611988565b80611f4c5750505f908152600460205260409020546001600160a01b03908116911614919050565b6001600160e01b031981168114610f8a575f5ffd5b5f60208284031215612d63575f5ffd5b813561167e81612d3e565b5f81518084528060208401602086015e5f602082860101526020601f19601f83011685010191505092915050565b602081525f61167e6020830184612d6e565b5f60208284031215612dbe575f5ffd5b5035919050565b80356001600160a01b0381168114611e78575f5ffd5b5f5f60408385031215612dec575f5ffd5b612df583612dc5565b946020939093013593505050565b5f5f5f60608486031215612e15575f5ffd5b612e1e84612dc5565b9250612e2c60208501612dc5565b929592945050506040919091013590565b80356001600160401b0381168114611e78575f5ffd5b5f5f60408385031215612e64575f5ffd5b82359150612e7460208401612e3d565b90509250929050565b634e487b7160e01b5f52604160045260245ffd5b601f8201601f191681016001600160401b0381118282101715612eb657612eb6612e7d565b6040525050565b5f82601f830112612ecc575f5ffd5b81356001600160401b03811115612ee557612ee5612e7d565b604051612efc601f8301601f191660200182612e91565b818152846020838601011115612f10575f5ffd5b816020850160208301375f918101602001919091529392505050565b5f82601f830112612f3b575f5ffd5b81356001600160401b03811115612f5457612f54612e7d565b8060051b604051612f686020830182612e91565b918252602081850181019290810186841115612f82575f5ffd5b6020860192505b83831015612fc45782356001600160401b03811115612fa6575f5ffd5b612fb5886020838a0101612ebd565b82525060209283019201612f89565b5095945050505050565b5f5f60408385031215612fdf575f5ffd5b8235915060208301356001600160401b03811115612ffb575f5ffd5b61300785828601612f2c565b9150509250929050565b5f60208284031215613021575f5ffd5b61167e82612dc5565b5f5f6040838503121561303b575f5ffd5b61304483612dc5565b915060208301358015158114613058575f5ffd5b809150509250929050565b5f5f5f5f60808587031215613076575f5ffd5b61307f85612dc5565b935061308d60208601612dc5565b92506040850135915060608501356001600160401b038111156130ae575f5ffd5b6130ba87828801612ebd565b91505092959194509250565b602080825282518282018190525f918401906040840190835b818110156130fd5783518352602093840193909201916001016130df565b509095945050505050565b634e487b7160e01b5f52602160045260245ffd5b602081016004831061313c57634e487b7160e01b5f52602160045260245ffd5b91905290565b5f5f60408385031215613153575f5ffd5b61315c83612dc5565b9150612e7460208401612dc5565b5f6020828403121561317a575f5ffd5b81356001600160401b0381111561318f575f5ffd5b611f4c84828501612f2c565b600181811c908216806131af57607f821691505b602082108103610cae57634e487b7160e01b5f52602260045260245ffd5b6020808252601a908201527f4e6f7420746865206f776e6572206f662074686973206865726f000000000000604082015260600190565b60208082526013908201527212195c9bc8191bd95cc81b9bdd08195e1a5cdd606a1b604082015260600190565b634e487b7160e01b5f52601160045260245ffd5b80820281158282048414176109aa576109aa613231565b808201808211156109aa576109aa613231565b634e487b7160e01b5f52601260045260245ffd5b5f826132915761329161326f565b500490565b5f6001600160401b038316806132ae576132ae61326f565b806001600160401b0384160691505092915050565b8181035f8312801583831316838312821617156132e2576132e2613231565b5092915050565b8082018281125f83128015821682158216171561330857613308613231565b505092915050565b5f602082016020835280845180835260408501915060408160051b8601019250602086015f5b8281101561336757603f19878603018452613352858351612d6e565b94506020938401939190910190600101613336565b50929695505050505050565b5f826133815761338161326f565b500690565b818103818111156109aa576109aa613231565b634e487b7160e01b5f52603260045260245ffd5b5f81518060208401855e5f93019283525090919050565b5f611f4c6133d283866133ad565b846133ad565b5f600182016133e9576133e9613231565b5060010190565b5f60033d11156134065760045f5f3e505f5160e01c5b90565b5f60443d10156134165790565b6040513d600319016004823e80513d60248201116001600160401b038211171561343f57505090565b80820180516001600160401b0381111561345a575050505090565b3d8401600319018282016020011115613474575050505090565b6122d660208285010185612e91565b730283cba34103ab83230ba32903330b4b632b21d160651b81525f61167e60148301846133ad565b634e487b7160e01b5f52603160045260245ffd5b6001600160a01b03858116825284166020820152604081018390526080606082018190525f906134f190830184612d6e565b9695505050505050565b5f6020828403121561350b575f5ffd5b815161167e81612d3e565b828152604060208201525f611f4c6040830184612d6e56fea2646970667358221220994a6982dabe9f3022b9f60e4248b7fcf29068d0eb06fbfb0c822ae85f7063a564736f6c634300081c0033",
  "linkReferences": {},
  "deployedLinkReferences": {},
  "immutableReferences": {},
  "inputSourceName": "project/contracts/RogueChain.sol",
  "buildInfoId": "solc-0_8_28-da63f70d09d003bd7e6bbbe1632b0f00ebcfbd29"
}