{
  "contracts/NFTGrowth.sol": {
    "NFTGrowth": {
      "abi": [
        {
          "inputs": [
            {
              "internalType": "address",
              "name": "_entropy",
              "type": "address"
            },
            {
              "internalType": "address",
              "name": "_provider",
              "type": "address"
            }
          ],
          "stateMutability": "nonpayable",
          "type": "constructor"
        },
        {
          "inputs": [],
          "name": "ApprovalCallerNotOwnerNorApproved",
          "type": "error"
        },
        {
          "inputs": [],
          "name": "ApprovalQueryForNonexistentToken",
          "type": "error"
        },
        {
          "inputs": [],
          "name": "BalanceQueryForZeroAddress",
          "type": "error"
        },
        {
          "inputs": [],
          "name": "MintERC2309QuantityExceedsLimit",
          "type": "error"
        },
        {
          "inputs": [],
          "name": "MintToZeroAddress",
          "type": "error"
        },
        {
          "inputs": [],
          "name": "MintZeroQuantity",
          "type": "error"
        },
        {
          "inputs": [],
          "name": "NotCompatibleWithSpotMints",
          "type": "error"
        },
        {
          "inputs": [
            {
              "internalType": "address",
              "name": "owner",
              "type": "address"
            }
          ],
          "name": "OwnableInvalidOwner",
          "type": "error"
        },
        {
          "inputs": [
            {
              "internalType": "address",
              "name": "account",
              "type": "address"
            }
          ],
          "name": "OwnableUnauthorizedAccount",
          "type": "error"
        },
        {
          "inputs": [],
          "name": "OwnerQueryForNonexistentToken",
          "type": "error"
        },
        {
          "inputs": [],
          "name": "OwnershipNotInitializedForExtraData",
          "type": "error"
        },
        {
          "inputs": [],
          "name": "ReentrancyGuardReentrantCall",
          "type": "error"
        },
        {
          "inputs": [],
          "name": "SequentialMintExceedsLimit",
          "type": "error"
        },
        {
          "inputs": [],
          "name": "SequentialUpToTooSmall",
          "type": "error"
        },
        {
          "inputs": [],
          "name": "SpotMintTokenIdTooSmall",
          "type": "error"
        },
        {
          "inputs": [],
          "name": "TokenAlreadyExists",
          "type": "error"
        },
        {
          "inputs": [],
          "name": "TransferCallerNotOwnerNorApproved",
          "type": "error"
        },
        {
          "inputs": [],
          "name": "TransferFromIncorrectOwner",
          "type": "error"
        },
        {
          "inputs": [],
          "name": "TransferToNonERC721ReceiverImplementer",
          "type": "error"
        },
        {
          "inputs": [],
          "name": "TransferToZeroAddress",
          "type": "error"
        },
        {
          "inputs": [],
          "name": "URIQueryForNonexistentToken",
          "type": "error"
        },
        {
          "anonymous": false,
          "inputs": [
            {
              "indexed": true,
              "internalType": "address",
              "name": "owner",
              "type": "address"
            },
            {
              "indexed": true,
              "internalType": "address",
              "name": "approved",
              "type": "address"
            },
            {
              "indexed": true,
              "internalType": "uint256",
              "name": "tokenId",
              "type": "uint256"
            }
          ],
          "name": "Approval",
          "type": "event"
        },
        {
          "anonymous": false,
          "inputs": [
            {
              "indexed": true,
              "internalType": "address",
              "name": "owner",
              "type": "address"
            },
            {
              "indexed": true,
              "internalType": "address",
              "name": "operator",
              "type": "address"
            },
            {
              "indexed": false,
              "internalType": "bool",
              "name": "approved",
              "type": "bool"
            }
          ],
          "name": "ApprovalForAll",
          "type": "event"
        },
        {
          "anonymous": false,
          "inputs": [
            {
              "indexed": true,
              "internalType": "uint256",
              "name": "fromTokenId",
              "type": "uint256"
            },
            {
              "indexed": false,
              "internalType": "uint256",
              "name": "toTokenId",
              "type": "uint256"
            },
            {
              "indexed": true,
              "internalType": "address",
              "name": "from",
              "type": "address"
            },
            {
              "indexed": true,
              "internalType": "address",
              "name": "to",
              "type": "address"
            }
          ],
          "name": "ConsecutiveTransfer",
          "type": "event"
        },
        {
          "anonymous": false,
          "inputs": [
            {
              "indexed": true,
              "internalType": "address",
              "name": "sender",
              "type": "address"
            },
            {
              "indexed": true,
              "internalType": "uint256",
              "name": "tokenId",
              "type": "uint256"
            },
            {
              "indexed": false,
              "internalType": "uint64",
              "name": "sequenceNumber",
              "type": "uint64"
            },
            {
              "components": [
                {
                  "internalType": "uint256",
                  "name": "level",
                  "type": "uint256"
                },
                {
                  "internalType": "enum NFTStatus",
                  "name": "status",
                  "type": "uint8"
                }
              ],
              "indexed": false,
              "internalType": "struct NFTInfo",
              "name": "nftInfo",
              "type": "tuple"
            },
            {
              "indexed": false,
              "internalType": "enum Result",
              "name": "result",
              "type": "uint8"
            }
          ],
          "name": "NFTResult",
          "type": "event"
        },
        {
          "anonymous": false,
          "inputs": [
            {
              "indexed": true,
              "internalType": "address",
              "name": "sender",
              "type": "address"
            },
            {
              "indexed": true,
              "internalType": "uint256",
              "name": "tokenId",
              "type": "uint256"
            },
            {
              "indexed": false,
              "internalType": "uint64",
              "name": "sequenceNumber",
              "type": "uint64"
            }
          ],
          "name": "NftGrowthRequested",
          "type": "event"
        },
        {
          "anonymous": false,
          "inputs": [
            {
              "indexed": true,
              "internalType": "address",
              "name": "previousOwner",
              "type": "address"
            },
            {
              "indexed": true,
              "internalType": "address",
              "name": "newOwner",
              "type": "address"
            }
          ],
          "name": "OwnershipTransferred",
          "type": "event"
        },
        {
          "anonymous": false,
          "inputs": [
            {
              "indexed": true,
              "internalType": "address",
              "name": "from",
              "type": "address"
            },
            {
              "indexed": true,
              "internalType": "address",
              "name": "to",
              "type": "address"
            },
            {
              "indexed": true,
              "internalType": "uint256",
              "name": "tokenId",
              "type": "uint256"
            }
          ],
          "name": "Transfer",
          "type": "event"
        },
        {
          "inputs": [
            {
              "internalType": "uint64",
              "name": "sequence",
              "type": "uint64"
            },
            {
              "internalType": "address",
              "name": "provider",
              "type": "address"
            },
            {
              "internalType": "bytes32",
              "name": "randomNumber",
              "type": "bytes32"
            }
          ],
          "name": "_entropyCallback",
          "outputs": [],
          "stateMutability": "nonpayable",
          "type": "function"
        },
        {
          "inputs": [
            {
              "internalType": "address",
              "name": "to",
              "type": "address"
            },
            {
              "internalType": "uint256",
              "name": "tokenId",
              "type": "uint256"
            }
          ],
          "name": "approve",
          "outputs": [],
          "stateMutability": "payable",
          "type": "function"
        },
        {
          "inputs": [
            {
              "internalType": "address",
              "name": "owner",
              "type": "address"
            }
          ],
          "name": "balanceOf",
          "outputs": [
            {
              "internalType": "uint256",
              "name": "",
              "type": "uint256"
            }
          ],
          "stateMutability": "view",
          "type": "function"
        },
        {
          "inputs": [
            {
              "internalType": "uint256",
              "name": "tokenId",
              "type": "uint256"
            }
          ],
          "name": "getApproved",
          "outputs": [
            {
              "internalType": "address",
              "name": "",
              "type": "address"
            }
          ],
          "stateMutability": "view",
          "type": "function"
        },
        {
          "inputs": [],
          "name": "getGrowFee",
          "outputs": [
            {
              "internalType": "uint256",
              "name": "fee",
              "type": "uint256"
            }
          ],
          "stateMutability": "view",
          "type": "function"
        },
        {
          "inputs": [
            {
              "internalType": "uint256",
              "name": "tokenId",
              "type": "uint256"
            },
            {
              "internalType": "bytes32",
              "name": "userRandomNumber",
              "type": "bytes32"
            }
          ],
          "name": "grow",
          "outputs": [],
          "stateMutability": "payable",
          "type": "function"
        },
        {
          "inputs": [
            {
              "internalType": "address",
              "name": "owner",
              "type": "address"
            },
            {
              "internalType": "address",
              "name": "operator",
              "type": "address"
            }
          ],
          "name": "isApprovedForAll",
          "outputs": [
            {
              "internalType": "bool",
              "name": "",
              "type": "bool"
            }
          ],
          "stateMutability": "view",
          "type": "function"
        },
        {
          "inputs": [],
          "name": "mint",
          "outputs": [],
          "stateMutability": "nonpayable",
          "type": "function"
        },
        {
          "inputs": [],
          "name": "name",
          "outputs": [
            {
              "internalType": "string",
              "name": "",
              "type": "string"
            }
          ],
          "stateMutability": "view",
          "type": "function"
        },
        {
          "inputs": [
            {
              "internalType": "uint256",
              "name": "",
              "type": "uint256"
            }
          ],
          "name": "nftInfo",
          "outputs": [
            {
              "internalType": "uint256",
              "name": "level",
              "type": "uint256"
            },
            {
              "internalType": "enum NFTStatus",
              "name": "status",
              "type": "uint8"
            }
          ],
          "stateMutability": "view",
          "type": "function"
        },
        {
          "inputs": [
            {
              "internalType": "uint256",
              "name": "",
              "type": "uint256"
            }
          ],
          "name": "nftLock",
          "outputs": [
            {
              "internalType": "uint256",
              "name": "timestamp",
              "type": "uint256"
            },
            {
              "internalType": "enum LockStatus",
              "name": "status",
              "type": "uint8"
            }
          ],
          "stateMutability": "view",
          "type": "function"
        },
        {
          "inputs": [],
          "name": "owner",
          "outputs": [
            {
              "internalType": "address",
              "name": "",
              "type": "address"
            }
          ],
          "stateMutability": "view",
          "type": "function"
        },
        {
          "inputs": [
            {
              "internalType": "uint256",
              "name": "tokenId",
              "type": "uint256"
            }
          ],
          "name": "ownerOf",
          "outputs": [
            {
              "internalType": "address",
              "name": "",
              "type": "address"
            }
          ],
          "stateMutability": "view",
          "type": "function"
        },
        {
          "inputs": [
            {
              "internalType": "uint256",
              "name": "tokenId",
              "type": "uint256"
            }
          ],
          "name": "ownerUnlockFlower",
          "outputs": [],
          "stateMutability": "nonpayable",
          "type": "function"
        },
        {
          "inputs": [
            {
              "internalType": "uint64",
              "name": "",
              "type": "uint64"
            }
          ],
          "name": "pendingRandomRequests",
          "outputs": [
            {
              "internalType": "address",
              "name": "sender",
              "type": "address"
            },
            {
              "internalType": "uint256",
              "name": "tokenId",
              "type": "uint256"
            },
            {
              "internalType": "uint256",
              "name": "timestamp",
              "type": "uint256"
            }
          ],
          "stateMutability": "view",
          "type": "function"
        },
        {
          "inputs": [],
          "name": "renounceOwnership",
          "outputs": [],
          "stateMutability": "nonpayable",
          "type": "function"
        },
        {
          "inputs": [
            {
              "internalType": "address",
              "name": "from",
              "type": "address"
            },
            {
              "internalType": "address",
              "name": "to",
              "type": "address"
            },
            {
              "internalType": "uint256",
              "name": "tokenId",
              "type": "uint256"
            }
          ],
          "name": "safeTransferFrom",
          "outputs": [],
          "stateMutability": "payable",
          "type": "function"
        },
        {
          "inputs": [
            {
              "internalType": "address",
              "name": "from",
              "type": "address"
            },
            {
              "internalType": "address",
              "name": "to",
              "type": "address"
            },
            {
              "internalType": "uint256",
              "name": "tokenId",
              "type": "uint256"
            },
            {
              "internalType": "bytes",
              "name": "_data",
              "type": "bytes"
            }
          ],
          "name": "safeTransferFrom",
          "outputs": [],
          "stateMutability": "payable",
          "type": "function"
        },
        {
          "inputs": [
            {
              "internalType": "address",
              "name": "operator",
              "type": "address"
            },
            {
              "internalType": "bool",
              "name": "approved",
              "type": "bool"
            }
          ],
          "name": "setApprovalForAll",
          "outputs": [],
          "stateMutability": "nonpayable",
          "type": "function"
        },
        {
          "inputs": [
            {
              "internalType": "bytes4",
              "name": "interfaceId",
              "type": "bytes4"
            }
          ],
          "name": "supportsInterface",
          "outputs": [
            {
              "internalType": "bool",
              "name": "",
              "type": "bool"
            }
          ],
          "stateMutability": "view",
          "type": "function"
        },
        {
          "inputs": [],
          "name": "symbol",
          "outputs": [
            {
              "internalType": "string",
              "name": "",
              "type": "string"
            }
          ],
          "stateMutability": "view",
          "type": "function"
        },
        {
          "inputs": [
            {
              "internalType": "uint256",
              "name": "tokenId",
              "type": "uint256"
            }
          ],
          "name": "tokenURI",
          "outputs": [
            {
              "internalType": "string",
              "name": "",
              "type": "string"
            }
          ],
          "stateMutability": "view",
          "type": "function"
        },
        {
          "inputs": [
            {
              "internalType": "address",
              "name": "owner",
              "type": "address"
            }
          ],
          "name": "tokensOfOwner",
          "outputs": [
            {
              "internalType": "uint256[]",
              "name": "",
              "type": "uint256[]"
            }
          ],
          "stateMutability": "view",
          "type": "function"
        },
        {
          "inputs": [],
          "name": "totalSupply",
          "outputs": [
            {
              "internalType": "uint256",
              "name": "result",
              "type": "uint256"
            }
          ],
          "stateMutability": "view",
          "type": "function"
        },
        {
          "inputs": [
            {
              "internalType": "address",
              "name": "from",
              "type": "address"
            },
            {
              "internalType": "address",
              "name": "to",
              "type": "address"
            },
            {
              "internalType": "uint256",
              "name": "tokenId",
              "type": "uint256"
            }
          ],
          "name": "transferFrom",
          "outputs": [],
          "stateMutability": "payable",
          "type": "function"
        },
        {
          "inputs": [
            {
              "internalType": "address",
              "name": "newOwner",
              "type": "address"
            }
          ],
          "name": "transferOwnership",
          "outputs": [],
          "stateMutability": "nonpayable",
          "type": "function"
        },
        {
          "inputs": [
            {
              "internalType": "uint256",
              "name": "tokenId",
              "type": "uint256"
            }
          ],
          "name": "unlockFlower",
          "outputs": [],
          "stateMutability": "nonpayable",
          "type": "function"
        },
        {
          "inputs": [
            {
              "internalType": "address",
              "name": "to",
              "type": "address"
            }
          ],
          "name": "withdraw",
          "outputs": [],
          "stateMutability": "nonpayable",
          "type": "function"
        }
      ],
      "evm": {
        "bytecode": {
          "linkReferences": {},
          "object": "6080604052346200024e576200261060408138039182620000208162000269565b9384928339810103126200024e5762000039816200028f565b6200004860208093016200028f565b62000052620002a4565b926213999d60ea1b8185015262000068620002a4565b6213919560ea1b82820152845190916001600160401b03821162000248576200009e8262000098600254620002c8565b62000305565b80601f8311600114620001b357509080620000d892620000e1959697600092620001a7575b50508160011b916000199060031b1c19161790565b600255620003bb565b6000805533156200018e576200015c6200017e926200010033620004a9565b6200010b6001600a55565b620001166005600d55565b62000122610fa0600e55565b6200012e610fa0600f55565b6200013a6107d0601055565b600b80546001600160a01b0319166001600160a01b0392909216919091179055565b600c80546001600160a01b0319166001600160a01b0392909216919091179055565b60405161211d9081620004f38239f35b604051631e4fbdf760e01b815260006004820152602490fd5b015190503880620000c3565b6002600052601f198316969091907f405787fa12a823e0f2b7631cc41b3ba8828b3321ca811111fa75cd3aa3bb5ace926000905b8982106200022f57505090839291600194620000e19798991062000215575b505050811b01600255620003bb565b015160001960f88460031b161c1916905538808062000206565b80600185968294968601518155019501930190620001e7565b62000253565b600080fd5b634e487b7160e01b600052604160045260246000fd5b6040519190601f01601f191682016001600160401b038111838210176200024857604052565b51906001600160a01b03821682036200024e57565b60408051919082016001600160401b03811183821017620002485760405260038252565b90600182811c92168015620002fa575b6020831014620002e457565b634e487b7160e01b600052602260045260246000fd5b91607f1691620002d8565b601f811162000312575050565b60009060026000526020600020906020601f850160051c8301941062000355575b601f0160051c01915b8281106200034957505050565b8181556001016200033c565b909250829062000333565b601f81116200036d575050565b60009060036000526020600020906020601f850160051c83019410620003b0575b601f0160051c01915b828110620003a457505050565b81815560010162000397565b90925082906200038e565b80519091906001600160401b0381116200024857620003e781620003e1600354620002c8565b62000360565b602080601f831160011462000421575081906200041c9394600092620001a75750508160011b916000199060031b1c19161790565b600355565b6003600052601f198316949091907fc2575a0e9e593c00f959f8c92f12db2869c3395a3b0502d05e2516446f71f85b926000905b8782106200049057505083600195961062000476575b505050811b01600355565b015160001960f88460031b161c191690553880806200046b565b8060018596829496860151815501950193019062000455565b600980546001600160a01b039283166001600160a01b0319821681179092559091167f8be0079c531659141344cd1fd0a4f28419497f9722a3daafe3b4186f6b6457e0600080a356fe6080604052600436101561001257600080fd5b60003560e01c806301ffc9a7146101d757806306fdde03146101d2578063081812fc146101cd578063095ea7b3146101c85780631249c58b146101c357806318160ddd146101be5780631f8bc790146101b957806323b872dd146101b457806342842e0e146101af578063495d8151146101aa5780634d33930c146101a557806351cff8d9146101a057806352a5f1f81461019b5780635e244893146101965780636352211e1461019157806370a082311461018c578063715018a614610187578063845274f1146101825780638462151c1461017d5780638da5cb5b1461017857806395d89b4114610173578063a1ce12f71461016e578063a22cb46514610169578063b88d4fde14610164578063c1a74c261461015f578063c87b56dd1461015a578063e985e9c5146101555763f2fde38b1461015057600080fd5b6113b7565b611355565b6112d4565b6112b7565b611233565b6110e7565b61105c565b610f96565b610f6f565b610e90565b610e14565b610dab565b610d80565b610d51565b610a90565b610997565b6108c4565b610865565b610819565b6107f6565b6107e2565b61076c565b610724565b6105c6565b6104d9565b610440565b610331565b61020b565b7fffffffff0000000000000000000000000000000000000000000000000000000081160361020657565b600080fd5b346102065760203660031901126102065760207fffffffff0000000000000000000000000000000000000000000000000000000060043561024b816101dc565b167f01ffc9a70000000000000000000000000000000000000000000000000000000081149081156102b3575b8115610289575b506040519015158152f35b7f5b5e139f000000000000000000000000000000000000000000000000000000009150143861027e565b7f80ac58cd0000000000000000000000000000000000000000000000000000000081149150610277565b919082519283825260005b848110610309575050826000602080949584010152601f8019910116010190565b6020818301810151848301820152016102e8565b90602061032e9281815201906102dd565b90565b346102065760008060031936011261043d576040519080600254906001918060011c9260018216928315610433575b60209260208610851461041f5785885260208801949081156103fe57506001146103a5575b6103a187610395818903826111b5565b6040519182918261031d565b0390f35b600260005294509192917f405787fa12a823e0f2b7631cc41b3ba8828b3321ca811111fa75cd3aa3bb5ace5b8386106103ed5750505091019050610395826103a13880610385565b8054858701529482019481016103d1565b60ff191685525050505090151560051b019050610395826103a13880610385565b602482634e487b7160e01b81526022600452fd5b93607f1693610360565b80fd5b346102065760203660031901126102065760043561045d816119c0565b1561048357600052600660205260206001600160a01b0360406000205416604051908152f35b7fcf4700e40000000000000000000000000000000000000000000000000000000060005260046000fd5b600435906001600160a01b038216820361020657565b602435906001600160a01b038216820361020657565b6040366003190112610206576104ed6104ad565b6024356001600160a01b038061050283611ac1565b169081330361056a575b6000838152600660205260408120805473ffffffffffffffffffffffffffffffffffffffff19166001600160a01b0387161790559316907f8c5be1e5ebec7d5bd14f71427d1e84f3dd0314c0f7b2291e5b200ac8c7c3b9258480a480f35b81600052600760205260ff610596336040600020906001600160a01b0316600052602052604060002090565b541661050c577fcfb3b9420000000000000000000000000000000000000000000000000000000060005260046000fd5b346102065760008060031936011261043d5780546040516105e681611194565b8281524260a01b3317600160e11b17610609836000526004602052604060002090565b553360008181526005602052604090208054680100000000000000010190551561071f5760019081830190838380805b6106d3575b505050818555333b61067d575b505061067561067a9261065c6111d7565b9283528460208401526000526011602052604060002090565b611463565b80f35b8383805b61069b575b50505083540361069757388061064b565b8280fd5b156106c6575b856106b76106b3848785019433612004565b1590565b6106c15784610681565b611980565b8281106106a15780610686565b1561070a575b5085848233897fddf252ad1be2c89b69c2b068fc378daa952ba7f163c4a11628f55a4df523b3ef8180a49081610639565b0182811461071857836106d9565b838161063e565b611a08565b346102065760003660031901126102065760206000546001549003604051908152f35b634e487b7160e01b600052602160045260246000fd5b6002111561076757565b610747565b3461020657602036600319011261020657600435600052601160205260408060002060ff600182549201541682519182526107a68161075d565b6020820152f35b6060906003190112610206576001600160a01b0390600435828116810361020657916024359081168103610206579060443590565b6107f46107ee366107ad565b91611490565b005b6107f4610802366107ad565b906040519261081084611194565b6000845261194e565b3461020657602036600319011261020657600435600052601360205260408060002060ff600182549201541682519182526107a68161075d565b67ffffffffffffffff81160361020657565b346102065760203660031901126102065767ffffffffffffffff60043561088b81610853565b166000526012602052606060406000206001600160a01b0381541690600260018201549101549060405192835260208301526040820152f35b34610206576020366003190112610206576108dd6104ad565b6108e5611b3e565b6002600a541461096d576002600a556001600160a01b031680156109295761091f6000808080809547905af1610919611644565b50611674565b61067a6001600a55565b606460405162461bcd60e51b815260206004820152600f60248201527f494e56414c49445f4144445245535300000000000000000000000000000000006044820152fd5b60046040517f3ee5aeb5000000000000000000000000000000000000000000000000000000008152fd5b34610206576060366003190112610206576004356109b481610853565b6109bc6104c3565b506001600160a01b03600b54168015610a4c5733036109e2576107f49060443590611c6c565b608460405162461bcd60e51b815260206004820152602360248201527f4f6e6c7920456e74726f70792063616e2063616c6c20746869732066756e637460448201527f696f6e00000000000000000000000000000000000000000000000000000000006064820152fd5b606460405162461bcd60e51b815260206004820152601760248201527f456e74726f70792061646472657373206e6f74207365740000000000000000006044820152fd5b604036600319011261020657600435610aa881611e09565b610adb610acc6001610ac4846000526013602052604060002090565b015460ff1690565b610ad58161075d565b156116bf565b610b06610af76001610ac4846000526011602052604060002090565b610b008161075d565b1561170a565b610b27610b1d826000526011602052604060002090565b54600d5411611755565b610b86610b4b610b3f600b546001600160a01b031690565b6001600160a01b031690565b600c546001600160a01b03166040518092631711922960e31b825281806020968795600483019190916001600160a01b036020820193169052565b03915afa8015610d1f576fffffffffffffffffffffffffffffffff91600091610d24575b501690610bb9823410156117d4565b610be06001610bd2856000526013602052604060002090565b01805460ff19166001179055565b42610bf5846000526013602052604060002090565b5580610c5f610c0f610b3f600b546001600160a01b031690565b600c546040517f19cb825f0000000000000000000000000000000000000000000000000000000081526001600160a01b039091166004820152602480359082015294859283919082906044820190565b03925af1918215610d1f57600092610cec575b50610cb09083610c806111f7565b33815291820152426040820152610cab8367ffffffffffffffff166000526012602052604060002090565b611834565b60405167ffffffffffffffff91909116815233907fcb7f7191d9ed9e04775181f5ee0e172ec652a6602944b9b7530f278af5b31b6490602090a3005b819250610d1190610cb0923d8511610d18575b610d0981836111b5565b81019061181f565b9190610c72565b503d610cff565b6117c8565b610d449150833d8511610d4a575b610d3c81836111b5565b8101906117a0565b38610baa565b503d610d32565b346102065760203660031901126102065760206001600160a01b03610d77600435611ac1565b16604051908152f35b34610206576020366003190112610206576020610da3610d9e6104ad565b611882565b604051908152f35b346102065760008060031936011261043d57610dc5611b3e565b806001600160a01b0360095473ffffffffffffffffffffffffffffffffffffffff198116600955167f8be0079c531659141344cd1fd0a4f28419497f9722a3daafe3b4186f6b6457e08280a380f35b3461020657602036600319011261020657600435610e30611b3e565b610e3981611e67565b6000908152601360205260409020600101805460ff19169055005b602090602060408183019282815285518094520193019160005b828110610e7c575050505090565b835185529381019392810192600101610e6e565b3461020657602036600319011261020657610ea96104ad565b600080610eb583611882565b91610ebf836118d6565b93604091610ed060405196876111b5565b848652601f19610edf866118d6565b01366020880137610eee6118ee565b506001600160a01b0391821692845b868603610f1257604051806103a18a82610e54565b610f1b81611f3c565b80830151610f6657516001600160a01b0316848116610f5d575b506001908585851614610f49575b01610efd565b80610f57838901988b611924565b52610f43565b92506001610f35565b50600190610f43565b346102065760003660031901126102065760206001600160a01b0360095416604051908152f35b346102065760008060031936011261043d576040519080600354906001918060011c9260018216928315611052575b60209260208610851461041f5785885260208801949081156103fe5750600114610ff9576103a187610395818903826111b5565b600360005294509192917fc2575a0e9e593c00f959f8c92f12db2869c3395a3b0502d05e2516446f71f85b5b8386106110415750505091019050610395826103a13880610385565b805485870152948201948101611025565b93607f1693610fc5565b34610206576000366003190112610206576001600160a01b03602081600b541691600c5416602460405180948193631711922960e31b835260048301525afa8015610d1f576fffffffffffffffffffffffffffffffff916000916110c8575b5060405191168152602090f35b6110e1915060203d602011610d4a57610d3c81836111b5565b386110bb565b34610206576040366003190112610206576111006104ad565b60243590811515809203610206576001600160a01b0390336000526007602052611141816040600020906001600160a01b0316600052602052604060002090565b60ff1981541660ff851617905560405192835216907f17307eab39ab6107e8899845ad3d59bd9653f200f220920489ca2b5937696c3160203392a3005b634e487b7160e01b600052604160045260246000fd5b6020810190811067ffffffffffffffff8211176111b057604052565b61117e565b90601f8019910116810190811067ffffffffffffffff8211176111b057604052565b604051906040820182811067ffffffffffffffff8211176111b057604052565b604051906060820182811067ffffffffffffffff8211176111b057604052565b67ffffffffffffffff81116111b057601f01601f191660200190565b6080366003190112610206576112476104ad565b61124f6104c3565b6064359167ffffffffffffffff831161020657366023840112156102065782600401359161127c83611217565b9261128a60405194856111b5565b80845236602482870101116102065760208160009260246107f4980183880137850101526044359161194e565b3461020657602036600319011261020657600435610e3081611e09565b34610206576020366003190112610206576112f06004356119c0565b1561132b57600060405161130381611194565b526103a160405161131381611194565b600081526040519182916020835260208301906102dd565b7fa14c4b500000000000000000000000000000000000000000000000000000000060005260046000fd5b3461020657604036600319011261020657602060ff6113ab6113756104ad565b6001600160a01b036113856104c3565b9116600052600784526040600020906001600160a01b0316600052602052604060002090565b54166040519015158152f35b34610206576020366003190112610206576113d06104ad565b6113d8611b3e565b6001600160a01b03809116908115611432576009548273ffffffffffffffffffffffffffffffffffffffff19821617600955167f8be0079c531659141344cd1fd0a4f28419497f9722a3daafe3b4186f6b6457e0600080a3005b60246040517f1e4fbdf700000000000000000000000000000000000000000000000000000000815260006004820152fd5b600160209183518155019101516114798161075d565b6114828161075d565b60ff80198354169116179055565b91909161149c82611ac1565b926001600160a01b0380921693848382160361163f57600084815260066020526040902080546114db6001600160a01b03881633908114908314171590565b6115ef575b6115e5575b50611503856001600160a01b03166000526005602052604060002090565b8054600019019055611528826001600160a01b03166000526005602052604060002090565b805460010190556001600160a01b0382164260a01b17600160e11b17611558856000526004602052604060002090565b55600160e11b81161561159b575b501680927fddf252ad1be2c89b69c2b068fc378daa952ba7f163c4a11628f55a4df523b3ef600080a41561159657565b611a86565b600184016115b3816000526004602052604060002090565b54156115c0575b50611566565b60005481146115ba576115dd906000526004602052604060002090565b5538806115ba565b60009055386114e5565b6116356106b361162e336116168b6001600160a01b03166000526007602052604060002090565b906001600160a01b0316600052602052604060002090565b5460ff1690565b156114e057611a5c565b611a32565b3d1561166f573d9061165582611217565b9161166360405193846111b5565b82523d6000602084013e565b606090565b1561167b57565b606460405162461bcd60e51b815260206004820152601160248201527f5749544844524157414c5f4641494c45440000000000000000000000000000006044820152fd5b156116c657565b606460405162461bcd60e51b815260206004820152600d60248201527f4e4654206973206c6f636b6564000000000000000000000000000000000000006044820152fd5b1561171157565b606460405162461bcd60e51b815260206004820152600b60248201527f4e465420697320646561640000000000000000000000000000000000000000006044820152fd5b1561175c57565b606460405162461bcd60e51b815260206004820152601160248201527f416c7265616479206d6178206c6576656c0000000000000000000000000000006044820152fd5b9081602091031261020657516fffffffffffffffffffffffffffffffff811681036102065790565b6040513d6000823e3d90fd5b156117db57565b606460405162461bcd60e51b815260206004820152600f60248201527f4e6f7420656e6f756768206665657300000000000000000000000000000000006044820152fd5b90816020910312610206575161032e81610853565b9060406002916118716001600160a01b0382511685906001600160a01b031673ffffffffffffffffffffffffffffffffffffffff19825416179055565b602081015160018501550151910155565b6001600160a01b031680156118ac57600052600560205267ffffffffffffffff6040600020541690565b7f8f4eb6040000000000000000000000000000000000000000000000000000000060005260046000fd5b67ffffffffffffffff81116111b05760051b60200190565b604051906080820182811067ffffffffffffffff8211176111b05760405260006060838281528260208201528260408201520152565b80518210156119385760209160051b010190565b634e487b7160e01b600052603260045260246000fd5b92919061195c828286611490565b803b611969575b50505050565b611972936120b6565b156119805738808080611963565b7fd1a57ed60000000000000000000000000000000000000000000000000000000060005260046000fd5b634e487b7160e01b600052601160045260246000fd5b906000916000805482106119d2575050565b92505b80835260046020526040832054806119fc575080156119f757600019016119d5565b6119aa565b600160e01b1615925050565b7f2e0763000000000000000000000000000000000000000000000000000000000060005260046000fd5b7fa11481000000000000000000000000000000000000000000000000000000000060005260046000fd5b7f59c896be0000000000000000000000000000000000000000000000000000000060005260046000fd5b7fea553b340000000000000000000000000000000000000000000000000000000060005260046000fd5b636f96cda160e11b60005260046000fd5b611ad5816000526004602052604060002090565b54908115611aec5750600160e01b8116611ab05790565b9050600090600054811015611ab0575b60001901600081815260046020526040902054908115611b375750600160e01b811615611b3257600482636f96cda160e11b8152fd5b905090565b9050611afc565b6001600160a01b03600954163303611b5257565b60246040517f118cdaa7000000000000000000000000000000000000000000000000000000008152336004820152fd5b906040516060810181811067ffffffffffffffff8211176111b0576040526040600282946001600160a01b038154168452600181015460208501520154910152565b15611bcb57565b606460405162461bcd60e51b815260206004820152601160248201527f52657175657374206e6f7420666f756e640000000000000000000000000000006044820152fd5b919082018092116119f757565b60001981146119f75760010190565b90939291600160ff9167ffffffffffffffff608085019716845280546020850152015416611c588161075d565b604082015260038210156107675760600152565b7f995e99bb03fca1f2ca0283c36eee5c37717071261f5aeb6efe7050167c2758fc611cb3611cae8367ffffffffffffffff166000526012602052604060002090565b611b82565b6001600160a01b0390611cd982611cd183516001600160a01b031690565b161515611bc4565b611db76020820191612710611cf984516000526011602052604060002090565b970690600e5491600f5490611d1a611d118386611c0f565b60105490611c0f565b91600094808310600014611dbc57505050509050611d388754611c1c565b8755611da66000915b611d666001611d5b87516000526013602052604060002090565b01805460ff19169055565b611d99611d878967ffffffffffffffff166000526012602052604060002090565b60026000918281558260018201550155565b516001600160a01b031690565b925196604051948594169684611c2b565b0390a3565b90611dc691611c0f565b811015611ddc5750509050611da6600191611d41565b10611deb575b611da690611d41565b9050611e0160018801600160ff19825416179055565b600290611de2565b611e1a6001600160a01b0391611ac1565b163303611e2357565b606460405162461bcd60e51b815260206004820152601160248201527f5065726d697373696f6e2064656e6965640000000000000000000000000000006044820152fd5b806000526013602052600160ff816040600020015416611e868161075d565b03611ef857611e9f906000526013602052604060002090565b5461025881018091116119f7574210611eb457565b606460405162461bcd60e51b815260206004820152601760248201527f4c6f636b20706572696f64206e6f7420657870697265640000000000000000006044820152fd5b606460405162461bcd60e51b815260206004820152600a60248201527f4e6f74206c6f636b6564000000000000000000000000000000000000000000006044820152fd5b611f446118ee565b506000526004602052604060002054611f5b6118ee565b906001600160a01b038116825267ffffffffffffffff8160a01c166020830152600160e01b81161515604083015260e81c606082015290565b90816020910312610206575161032e816101dc565b61032e93926001600160a01b0360809316825260006020830152604082015281606082015201906102dd565b909261032e94936080936001600160a01b038092168452166020830152604082015281606082015201906102dd565b6120356020916001600160a01b0393946000604051958680958194630a85bd0160e11b9a8b84523360048501611fa9565b0393165af160009181612085575b5061205f57612050611644565b80511561198057805190602001fd5b7fffffffff00000000000000000000000000000000000000000000000000000000161490565b6120a891925060203d6020116120af575b6120a081836111b5565b810190611f94565b9038612043565b503d612096565b926020916120359360006001600160a01b03604051809781968295630a85bd0160e11b9b8c85523360048601611fd556fea2646970667358221220ad047be2a092ddfb111c0c621a66645694cbfe5dadd72157f499a13690797b0564736f6c63430008180033",
          "opcodes": "PUSH1 0x80 PUSH1 0x40 MSTORE CALLVALUE PUSH3 0x24E JUMPI PUSH3 0x2610 PUSH1 0x40 DUP2 CODESIZE SUB SWAP2 DUP3 PUSH3 0x20 DUP2 PUSH3 0x269 JUMP JUMPDEST SWAP4 DUP5 SWAP3 DUP4 CODECOPY DUP2 ADD SUB SLT PUSH3 0x24E JUMPI PUSH3 0x39 DUP2 PUSH3 0x28F JUMP JUMPDEST PUSH3 0x48 PUSH1 0x20 DUP1 SWAP4 ADD PUSH3 0x28F JUMP JUMPDEST PUSH3 0x52 PUSH3 0x2A4 JUMP JUMPDEST SWAP3 PUSH3 0x13999D PUSH1 0xEA SHL DUP2 DUP6 ADD MSTORE PUSH3 0x68 PUSH3 0x2A4 JUMP JUMPDEST PUSH3 0x139195 PUSH1 0xEA SHL DUP3 DUP3 ADD MSTORE DUP5 MLOAD SWAP1 SWAP2 PUSH1 0x1 PUSH1 0x1 PUSH1 0x40 SHL SUB DUP3 GT PUSH3 0x248 JUMPI PUSH3 0x9E DUP3 PUSH3 0x98 PUSH1 0x2 SLOAD PUSH3 0x2C8 JUMP JUMPDEST PUSH3 0x305 JUMP JUMPDEST DUP1 PUSH1 0x1F DUP4 GT PUSH1 0x1 EQ PUSH3 0x1B3 JUMPI POP SWAP1 DUP1 PUSH3 0xD8 SWAP3 PUSH3 0xE1 SWAP6 SWAP7 SWAP8 PUSH1 0x0 SWAP3 PUSH3 0x1A7 JUMPI JUMPDEST POP POP DUP2 PUSH1 0x1 SHL SWAP2 PUSH1 0x0 NOT SWAP1 PUSH1 0x3 SHL SHR NOT AND OR SWAP1 JUMP JUMPDEST PUSH1 0x2 SSTORE PUSH3 0x3BB JUMP JUMPDEST PUSH1 0x0 DUP1 SSTORE CALLER ISZERO PUSH3 0x18E JUMPI PUSH3 0x15C PUSH3 0x17E SWAP3 PUSH3 0x100 CALLER PUSH3 0x4A9 JUMP JUMPDEST PUSH3 0x10B PUSH1 0x1 PUSH1 0xA SSTORE JUMP JUMPDEST PUSH3 0x116 PUSH1 0x5 PUSH1 0xD SSTORE JUMP JUMPDEST PUSH3 0x122 PUSH2 0xFA0 PUSH1 0xE SSTORE JUMP JUMPDEST PUSH3 0x12E PUSH2 0xFA0 PUSH1 0xF SSTORE JUMP JUMPDEST PUSH3 0x13A PUSH2 0x7D0 PUSH1 0x10 SSTORE JUMP JUMPDEST PUSH1 0xB DUP1 SLOAD PUSH1 0x1 PUSH1 0x1 PUSH1 0xA0 SHL SUB NOT AND PUSH1 0x1 PUSH1 0x1 PUSH1 0xA0 SHL SUB SWAP3 SWAP1 SWAP3 AND SWAP2 SWAP1 SWAP2 OR SWAP1 SSTORE JUMP JUMPDEST PUSH1 0xC DUP1 SLOAD PUSH1 0x1 PUSH1 0x1 PUSH1 0xA0 SHL SUB NOT AND PUSH1 0x1 PUSH1 0x1 PUSH1 0xA0 SHL SUB SWAP3 SWAP1 SWAP3 AND SWAP2 SWAP1 SWAP2 OR SWAP1 SSTORE JUMP JUMPDEST PUSH1 0x40 MLOAD PUSH2 0x211D SWAP1 DUP2 PUSH3 0x4F3 DUP3 CODECOPY RETURN JUMPDEST PUSH1 0x40 MLOAD PUSH4 0x1E4FBDF7 PUSH1 0xE0 SHL DUP2 MSTORE PUSH1 0x0 PUSH1 0x4 DUP3 ADD MSTORE PUSH1 0x24 SWAP1 REVERT JUMPDEST ADD MLOAD SWAP1 POP CODESIZE DUP1 PUSH3 0xC3 JUMP JUMPDEST PUSH1 0x2 PUSH1 0x0 MSTORE PUSH1 0x1F NOT DUP4 AND SWAP7 SWAP1 SWAP2 SWAP1 PUSH32 0x405787FA12A823E0F2B7631CC41B3BA8828B3321CA811111FA75CD3AA3BB5ACE SWAP3 PUSH1 0x0 SWAP1 JUMPDEST DUP10 DUP3 LT PUSH3 0x22F JUMPI POP POP SWAP1 DUP4 SWAP3 SWAP2 PUSH1 0x1 SWAP5 PUSH3 0xE1 SWAP8 SWAP9 SWAP10 LT PUSH3 0x215 JUMPI JUMPDEST POP POP POP DUP2 SHL ADD PUSH1 0x2 SSTORE PUSH3 0x3BB JUMP JUMPDEST ADD MLOAD PUSH1 0x0 NOT PUSH1 0xF8 DUP5 PUSH1 0x3 SHL AND SHR NOT AND SWAP1 SSTORE CODESIZE DUP1 DUP1 PUSH3 0x206 JUMP JUMPDEST DUP1 PUSH1 0x1 DUP6 SWAP7 DUP3 SWAP5 SWAP7 DUP7 ADD MLOAD DUP2 SSTORE ADD SWAP6 ADD SWAP4 ADD SWAP1 PUSH3 0x1E7 JUMP JUMPDEST PUSH3 0x253 JUMP JUMPDEST PUSH1 0x0 DUP1 REVERT JUMPDEST PUSH4 0x4E487B71 PUSH1 0xE0 SHL PUSH1 0x0 MSTORE PUSH1 0x41 PUSH1 0x4 MSTORE PUSH1 0x24 PUSH1 0x0 REVERT JUMPDEST PUSH1 0x40 MLOAD SWAP2 SWAP1 PUSH1 0x1F ADD PUSH1 0x1F NOT AND DUP3 ADD PUSH1 0x1 PUSH1 0x1 PUSH1 0x40 SHL SUB DUP2 GT DUP4 DUP3 LT OR PUSH3 0x248 JUMPI PUSH1 0x40 MSTORE JUMP JUMPDEST MLOAD SWAP1 PUSH1 0x1 PUSH1 0x1 PUSH1 0xA0 SHL SUB DUP3 AND DUP3 SUB PUSH3 0x24E JUMPI JUMP JUMPDEST PUSH1 0x40 DUP1 MLOAD SWAP2 SWAP1 DUP3 ADD PUSH1 0x1 PUSH1 0x1 PUSH1 0x40 SHL SUB DUP2 GT DUP4 DUP3 LT OR PUSH3 0x248 JUMPI PUSH1 0x40 MSTORE PUSH1 0x3 DUP3 MSTORE JUMP JUMPDEST SWAP1 PUSH1 0x1 DUP3 DUP2 SHR SWAP3 AND DUP1 ISZERO PUSH3 0x2FA JUMPI JUMPDEST PUSH1 0x20 DUP4 LT EQ PUSH3 0x2E4 JUMPI JUMP JUMPDEST PUSH4 0x4E487B71 PUSH1 0xE0 SHL PUSH1 0x0 MSTORE PUSH1 0x22 PUSH1 0x4 MSTORE PUSH1 0x24 PUSH1 0x0 REVERT JUMPDEST SWAP2 PUSH1 0x7F AND SWAP2 PUSH3 0x2D8 JUMP JUMPDEST PUSH1 0x1F DUP2 GT PUSH3 0x312 JUMPI POP POP JUMP JUMPDEST PUSH1 0x0 SWAP1 PUSH1 0x2 PUSH1 0x0 MSTORE PUSH1 0x20 PUSH1 0x0 KECCAK256 SWAP1 PUSH1 0x20 PUSH1 0x1F DUP6 ADD PUSH1 0x5 SHR DUP4 ADD SWAP5 LT PUSH3 0x355 JUMPI JUMPDEST PUSH1 0x1F ADD PUSH1 0x5 SHR ADD SWAP2 JUMPDEST DUP3 DUP2 LT PUSH3 0x349 JUMPI POP POP POP JUMP JUMPDEST DUP2 DUP2 SSTORE PUSH1 0x1 ADD PUSH3 0x33C JUMP JUMPDEST SWAP1 SWAP3 POP DUP3 SWAP1 PUSH3 0x333 JUMP JUMPDEST PUSH1 0x1F DUP2 GT PUSH3 0x36D JUMPI POP POP JUMP JUMPDEST PUSH1 0x0 SWAP1 PUSH1 0x3 PUSH1 0x0 MSTORE PUSH1 0x20 PUSH1 0x0 KECCAK256 SWAP1 PUSH1 0x20 PUSH1 0x1F DUP6 ADD PUSH1 0x5 SHR DUP4 ADD SWAP5 LT PUSH3 0x3B0 JUMPI JUMPDEST PUSH1 0x1F ADD PUSH1 0x5 SHR ADD SWAP2 JUMPDEST DUP3 DUP2 LT PUSH3 0x3A4 JUMPI POP POP POP JUMP JUMPDEST DUP2 DUP2 SSTORE PUSH1 0x1 ADD PUSH3 0x397 JUMP JUMPDEST SWAP1 SWAP3 POP DUP3 SWAP1 PUSH3 0x38E JUMP JUMPDEST DUP1 MLOAD SWAP1 SWAP2 SWAP1 PUSH1 0x1 PUSH1 0x1 PUSH1 0x40 SHL SUB DUP2 GT PUSH3 0x248 JUMPI PUSH3 0x3E7 DUP2 PUSH3 0x3E1 PUSH1 0x3 SLOAD PUSH3 0x2C8 JUMP JUMPDEST PUSH3 0x360 JUMP JUMPDEST PUSH1 0x20 DUP1 PUSH1 0x1F DUP4 GT PUSH1 0x1 EQ PUSH3 0x421 JUMPI POP DUP2 SWAP1 PUSH3 0x41C SWAP4 SWAP5 PUSH1 0x0 SWAP3 PUSH3 0x1A7 JUMPI POP POP DUP2 PUSH1 0x1 SHL SWAP2 PUSH1 0x0 NOT SWAP1 PUSH1 0x3 SHL SHR NOT AND OR SWAP1 JUMP JUMPDEST PUSH1 0x3 SSTORE JUMP JUMPDEST PUSH1 0x3 PUSH1 0x0 MSTORE PUSH1 0x1F NOT DUP4 AND SWAP5 SWAP1 SWAP2 SWAP1 PUSH32 0xC2575A0E9E593C00F959F8C92F12DB2869C3395A3B0502D05E2516446F71F85B SWAP3 PUSH1 0x0 SWAP1 JUMPDEST DUP8 DUP3 LT PUSH3 0x490 JUMPI POP POP DUP4 PUSH1 0x1 SWAP6 SWAP7 LT PUSH3 0x476 JUMPI JUMPDEST POP POP POP DUP2 SHL ADD PUSH1 0x3 SSTORE JUMP JUMPDEST ADD MLOAD PUSH1 0x0 NOT PUSH1 0xF8 DUP5 PUSH1 0x3 SHL AND SHR NOT AND SWAP1 SSTORE CODESIZE DUP1 DUP1 PUSH3 0x46B JUMP JUMPDEST DUP1 PUSH1 0x1 DUP6 SWAP7 DUP3 SWAP5 SWAP7 DUP7 ADD MLOAD DUP2 SSTORE ADD SWAP6 ADD SWAP4 ADD SWAP1 PUSH3 0x455 JUMP JUMPDEST PUSH1 0x9 DUP1 SLOAD PUSH1 0x1 PUSH1 0x1 PUSH1 0xA0 SHL SUB SWAP3 DUP4 AND PUSH1 0x1 PUSH1 0x1 PUSH1 0xA0 SHL SUB NOT DUP3 AND DUP2 OR SWAP1 SWAP3 SSTORE SWAP1 SWAP2 AND PUSH32 0x8BE0079C531659141344CD1FD0A4F28419497F9722A3DAAFE3B4186F6B6457E0 PUSH1 0x0 DUP1 LOG3 JUMP INVALID PUSH1 0x80 PUSH1 0x40 MSTORE PUSH1 0x4 CALLDATASIZE LT ISZERO PUSH2 0x12 JUMPI PUSH1 0x0 DUP1 REVERT JUMPDEST PUSH1 0x0 CALLDATALOAD PUSH1 0xE0 SHR DUP1 PUSH4 0x1FFC9A7 EQ PUSH2 0x1D7 JUMPI DUP1 PUSH4 0x6FDDE03 EQ PUSH2 0x1D2 JUMPI DUP1 PUSH4 0x81812FC EQ PUSH2 0x1CD JUMPI DUP1 PUSH4 0x95EA7B3 EQ PUSH2 0x1C8 JUMPI DUP1 PUSH4 0x1249C58B EQ PUSH2 0x1C3 JUMPI DUP1 PUSH4 0x18160DDD EQ PUSH2 0x1BE JUMPI DUP1 PUSH4 0x1F8BC790 EQ PUSH2 0x1B9 JUMPI DUP1 PUSH4 0x23B872DD EQ PUSH2 0x1B4 JUMPI DUP1 PUSH4 0x42842E0E EQ PUSH2 0x1AF JUMPI DUP1 PUSH4 0x495D8151 EQ PUSH2 0x1AA JUMPI DUP1 PUSH4 0x4D33930C EQ PUSH2 0x1A5 JUMPI DUP1 PUSH4 0x51CFF8D9 EQ PUSH2 0x1A0 JUMPI DUP1 PUSH4 0x52A5F1F8 EQ PUSH2 0x19B JUMPI DUP1 PUSH4 0x5E244893 EQ PUSH2 0x196 JUMPI DUP1 PUSH4 0x6352211E EQ PUSH2 0x191 JUMPI DUP1 PUSH4 0x70A08231 EQ PUSH2 0x18C JUMPI DUP1 PUSH4 0x715018A6 EQ PUSH2 0x187 JUMPI DUP1 PUSH4 0x845274F1 EQ PUSH2 0x182 JUMPI DUP1 PUSH4 0x8462151C EQ PUSH2 0x17D JUMPI DUP1 PUSH4 0x8DA5CB5B EQ PUSH2 0x178 JUMPI DUP1 PUSH4 0x95D89B41 EQ PUSH2 0x173 JUMPI DUP1 PUSH4 0xA1CE12F7 EQ PUSH2 0x16E JUMPI DUP1 PUSH4 0xA22CB465 EQ PUSH2 0x169 JUMPI DUP1 PUSH4 0xB88D4FDE EQ PUSH2 0x164 JUMPI DUP1 PUSH4 0xC1A74C26 EQ PUSH2 0x15F JUMPI DUP1 PUSH4 0xC87B56DD EQ PUSH2 0x15A JUMPI DUP1 PUSH4 0xE985E9C5 EQ PUSH2 0x155 JUMPI PUSH4 0xF2FDE38B EQ PUSH2 0x150 JUMPI PUSH1 0x0 DUP1 REVERT JUMPDEST PUSH2 0x13B7 JUMP JUMPDEST PUSH2 0x1355 JUMP JUMPDEST PUSH2 0x12D4 JUMP JUMPDEST PUSH2 0x12B7 JUMP JUMPDEST PUSH2 0x1233 JUMP JUMPDEST PUSH2 0x10E7 JUMP JUMPDEST PUSH2 0x105C JUMP JUMPDEST PUSH2 0xF96 JUMP JUMPDEST PUSH2 0xF6F JUMP JUMPDEST PUSH2 0xE90 JUMP JUMPDEST PUSH2 0xE14 JUMP JUMPDEST PUSH2 0xDAB JUMP JUMPDEST PUSH2 0xD80 JUMP JUMPDEST PUSH2 0xD51 JUMP JUMPDEST PUSH2 0xA90 JUMP JUMPDEST PUSH2 0x997 JUMP JUMPDEST PUSH2 0x8C4 JUMP JUMPDEST PUSH2 0x865 JUMP JUMPDEST PUSH2 0x819 JUMP JUMPDEST PUSH2 0x7F6 JUMP JUMPDEST PUSH2 0x7E2 JUMP JUMPDEST PUSH2 0x76C JUMP JUMPDEST PUSH2 0x724 JUMP JUMPDEST PUSH2 0x5C6 JUMP JUMPDEST PUSH2 0x4D9 JUMP JUMPDEST PUSH2 0x440 JUMP JUMPDEST PUSH2 0x331 JUMP JUMPDEST PUSH2 0x20B JUMP JUMPDEST PUSH32 0xFFFFFFFF00000000000000000000000000000000000000000000000000000000 DUP2 AND SUB PUSH2 0x206 JUMPI JUMP JUMPDEST PUSH1 0x0 DUP1 REVERT JUMPDEST CALLVALUE PUSH2 0x206 JUMPI PUSH1 0x20 CALLDATASIZE PUSH1 0x3 NOT ADD SLT PUSH2 0x206 JUMPI PUSH1 0x20 PUSH32 0xFFFFFFFF00000000000000000000000000000000000000000000000000000000 PUSH1 0x4 CALLDATALOAD PUSH2 0x24B DUP2 PUSH2 0x1DC JUMP JUMPDEST AND PUSH32 0x1FFC9A700000000000000000000000000000000000000000000000000000000 DUP2 EQ SWAP1 DUP2 ISZERO PUSH2 0x2B3 JUMPI JUMPDEST DUP2 ISZERO PUSH2 0x289 JUMPI JUMPDEST POP PUSH1 0x40 MLOAD SWAP1 ISZERO ISZERO DUP2 MSTORE RETURN JUMPDEST PUSH32 0x5B5E139F00000000000000000000000000000000000000000000000000000000 SWAP2 POP EQ CODESIZE PUSH2 0x27E JUMP JUMPDEST PUSH32 0x80AC58CD00000000000000000000000000000000000000000000000000000000 DUP2 EQ SWAP2 POP PUSH2 0x277 JUMP JUMPDEST SWAP2 SWAP1 DUP3 MLOAD SWAP3 DUP4 DUP3 MSTORE PUSH1 0x0 JUMPDEST DUP5 DUP2 LT PUSH2 0x309 JUMPI POP POP DUP3 PUSH1 0x0 PUSH1 0x20 DUP1 SWAP5 SWAP6 DUP5 ADD ADD MSTORE PUSH1 0x1F DUP1 NOT SWAP2 ADD AND ADD ADD SWAP1 JUMP JUMPDEST PUSH1 0x20 DUP2 DUP4 ADD DUP2 ADD MLOAD DUP5 DUP4 ADD DUP3 ADD MSTORE ADD PUSH2 0x2E8 JUMP JUMPDEST SWAP1 PUSH1 0x20 PUSH2 0x32E SWAP3 DUP2 DUP2 MSTORE ADD SWAP1 PUSH2 0x2DD JUMP JUMPDEST SWAP1 JUMP JUMPDEST CALLVALUE PUSH2 0x206 JUMPI PUSH1 0x0 DUP1 PUSH1 0x3 NOT CALLDATASIZE ADD SLT PUSH2 0x43D JUMPI PUSH1 0x40 MLOAD SWAP1 DUP1 PUSH1 0x2 SLOAD SWAP1 PUSH1 0x1 SWAP2 DUP1 PUSH1 0x1 SHR SWAP3 PUSH1 0x1 DUP3 AND SWAP3 DUP4 ISZERO PUSH2 0x433 JUMPI JUMPDEST PUSH1 0x20 SWAP3 PUSH1 0x20 DUP7 LT DUP6 EQ PUSH2 0x41F JUMPI DUP6 DUP9 MSTORE PUSH1 0x20 DUP9 ADD SWAP5 SWAP1 DUP2 ISZERO PUSH2 0x3FE JUMPI POP PUSH1 0x1 EQ PUSH2 0x3A5 JUMPI JUMPDEST PUSH2 0x3A1 DUP8 PUSH2 0x395 DUP2 DUP10 SUB DUP3 PUSH2 0x11B5 JUMP JUMPDEST PUSH1 0x40 MLOAD SWAP2 DUP3 SWAP2 DUP3 PUSH2 0x31D JUMP JUMPDEST SUB SWAP1 RETURN JUMPDEST PUSH1 0x2 PUSH1 0x0 MSTORE SWAP5 POP SWAP2 SWAP3 SWAP2 PUSH32 0x405787FA12A823E0F2B7631CC41B3BA8828B3321CA811111FA75CD3AA3BB5ACE JUMPDEST DUP4 DUP7 LT PUSH2 0x3ED JUMPI POP POP POP SWAP2 ADD SWAP1 POP PUSH2 0x395 DUP3 PUSH2 0x3A1 CODESIZE DUP1 PUSH2 0x385 JUMP JUMPDEST DUP1 SLOAD DUP6 DUP8 ADD MSTORE SWAP5 DUP3 ADD SWAP5 DUP2 ADD PUSH2 0x3D1 JUMP JUMPDEST PUSH1 0xFF NOT AND DUP6 MSTORE POP POP POP POP SWAP1 ISZERO ISZERO PUSH1 0x5 SHL ADD SWAP1 POP PUSH2 0x395 DUP3 PUSH2 0x3A1 CODESIZE DUP1 PUSH2 0x385 JUMP JUMPDEST PUSH1 0x24 DUP3 PUSH4 0x4E487B71 PUSH1 0xE0 SHL DUP2 MSTORE PUSH1 0x22 PUSH1 0x4 MSTORE REVERT JUMPDEST SWAP4 PUSH1 0x7F AND SWAP4 PUSH2 0x360 JUMP JUMPDEST DUP1 REVERT JUMPDEST CALLVALUE PUSH2 0x206 JUMPI PUSH1 0x20 CALLDATASIZE PUSH1 0x3 NOT ADD SLT PUSH2 0x206 JUMPI PUSH1 0x4 CALLDATALOAD PUSH2 0x45D DUP2 PUSH2 0x19C0 JUMP JUMPDEST ISZERO PUSH2 0x483 JUMPI PUSH1 0x0 MSTORE PUSH1 0x6 PUSH1 0x20 MSTORE PUSH1 0x20 PUSH1 0x1 PUSH1 0x1 PUSH1 0xA0 SHL SUB PUSH1 0x40 PUSH1 0x0 KECCAK256 SLOAD AND PUSH1 0x40 MLOAD SWAP1 DUP2 MSTORE RETURN JUMPDEST PUSH32 0xCF4700E400000000000000000000000000000000000000000000000000000000 PUSH1 0x0 MSTORE PUSH1 0x4 PUSH1 0x0 REVERT JUMPDEST PUSH1 0x4 CALLDATALOAD SWAP1 PUSH1 0x1 PUSH1 0x1 PUSH1 0xA0 SHL SUB DUP3 AND DUP3 SUB PUSH2 0x206 JUMPI JUMP JUMPDEST PUSH1 0x24 CALLDATALOAD SWAP1 PUSH1 0x1 PUSH1 0x1 PUSH1 0xA0 SHL SUB DUP3 AND DUP3 SUB PUSH2 0x206 JUMPI JUMP JUMPDEST PUSH1 0x40 CALLDATASIZE PUSH1 0x3 NOT ADD SLT PUSH2 0x206 JUMPI PUSH2 0x4ED PUSH2 0x4AD JUMP JUMPDEST PUSH1 0x24 CALLDATALOAD PUSH1 0x1 PUSH1 0x1 PUSH1 0xA0 SHL SUB DUP1 PUSH2 0x502 DUP4 PUSH2 0x1AC1 JUMP JUMPDEST AND SWAP1 DUP2 CALLER SUB PUSH2 0x56A JUMPI JUMPDEST PUSH1 0x0 DUP4 DUP2 MSTORE PUSH1 0x6 PUSH1 0x20 MSTORE PUSH1 0x40 DUP2 KECCAK256 DUP1 SLOAD PUSH20 0xFFFFFFFFFFFFFFFFFFFFFFFFFFFFFFFFFFFFFFFF NOT AND PUSH1 0x1 PUSH1 0x1 PUSH1 0xA0 SHL SUB DUP8 AND OR SWAP1 SSTORE SWAP4 AND SWAP1 PUSH32 0x8C5BE1E5EBEC7D5BD14F71427D1E84F3DD0314C0F7B2291E5B200AC8C7C3B925 DUP5 DUP1 LOG4 DUP1 RETURN JUMPDEST DUP2 PUSH1 0x0 MSTORE PUSH1 0x7 PUSH1 0x20 MSTORE PUSH1 0xFF PUSH2 0x596 CALLER PUSH1 0x40 PUSH1 0x0 KECCAK256 SWAP1 PUSH1 0x1 PUSH1 0x1 PUSH1 0xA0 SHL SUB AND PUSH1 0x0 MSTORE PUSH1 0x20 MSTORE PUSH1 0x40 PUSH1 0x0 KECCAK256 SWAP1 JUMP JUMPDEST SLOAD AND PUSH2 0x50C JUMPI PUSH32 0xCFB3B94200000000000000000000000000000000000000000000000000000000 PUSH1 0x0 MSTORE PUSH1 0x4 PUSH1 0x0 REVERT JUMPDEST CALLVALUE PUSH2 0x206 JUMPI PUSH1 0x0 DUP1 PUSH1 0x3 NOT CALLDATASIZE ADD SLT PUSH2 0x43D JUMPI DUP1 SLOAD PUSH1 0x40 MLOAD PUSH2 0x5E6 DUP2 PUSH2 0x1194 JUMP JUMPDEST DUP3 DUP2 MSTORE TIMESTAMP PUSH1 0xA0 SHL CALLER OR PUSH1 0x1 PUSH1 0xE1 SHL OR PUSH2 0x609 DUP4 PUSH1 0x0 MSTORE PUSH1 0x4 PUSH1 0x20 MSTORE PUSH1 0x40 PUSH1 0x0 KECCAK256 SWAP1 JUMP JUMPDEST SSTORE CALLER PUSH1 0x0 DUP2 DUP2 MSTORE PUSH1 0x5 PUSH1 0x20 MSTORE PUSH1 0x40 SWAP1 KECCAK256 DUP1 SLOAD PUSH9 0x10000000000000001 ADD SWAP1 SSTORE ISZERO PUSH2 0x71F JUMPI PUSH1 0x1 SWAP1 DUP2 DUP4 ADD SWAP1 DUP4 DUP4 DUP1 DUP1 JUMPDEST PUSH2 0x6D3 JUMPI JUMPDEST POP POP POP DUP2 DUP6 SSTORE CALLER EXTCODESIZE PUSH2 0x67D JUMPI JUMPDEST POP POP PUSH2 0x675 PUSH2 0x67A SWAP3 PUSH2 0x65C PUSH2 0x11D7 JUMP JUMPDEST SWAP3 DUP4 MSTORE DUP5 PUSH1 0x20 DUP5 ADD MSTORE PUSH1 0x0 MSTORE PUSH1 0x11 PUSH1 0x20 MSTORE PUSH1 0x40 PUSH1 0x0 KECCAK256 SWAP1 JUMP JUMPDEST PUSH2 0x1463 JUMP JUMPDEST DUP1 RETURN JUMPDEST DUP4 DUP4 DUP1 JUMPDEST PUSH2 0x69B JUMPI JUMPDEST POP POP POP DUP4 SLOAD SUB PUSH2 0x697 JUMPI CODESIZE DUP1 PUSH2 0x64B JUMP JUMPDEST DUP3 DUP1 REVERT JUMPDEST ISZERO PUSH2 0x6C6 JUMPI JUMPDEST DUP6 PUSH2 0x6B7 PUSH2 0x6B3 DUP5 DUP8 DUP6 ADD SWAP5 CALLER PUSH2 0x2004 JUMP JUMPDEST ISZERO SWAP1 JUMP JUMPDEST PUSH2 0x6C1 JUMPI DUP5 PUSH2 0x681 JUMP JUMPDEST PUSH2 0x1980 JUMP JUMPDEST DUP3 DUP2 LT PUSH2 0x6A1 JUMPI DUP1 PUSH2 0x686 JUMP JUMPDEST ISZERO PUSH2 0x70A JUMPI JUMPDEST POP DUP6 DUP5 DUP3 CALLER DUP10 PUSH32 0xDDF252AD1BE2C89B69C2B068FC378DAA952BA7F163C4A11628F55A4DF523B3EF DUP2 DUP1 LOG4 SWAP1 DUP2 PUSH2 0x639 JUMP JUMPDEST ADD DUP3 DUP2 EQ PUSH2 0x718 JUMPI DUP4 PUSH2 0x6D9 JUMP JUMPDEST DUP4 DUP2 PUSH2 0x63E JUMP JUMPDEST PUSH2 0x1A08 JUMP JUMPDEST CALLVALUE PUSH2 0x206 JUMPI PUSH1 0x0 CALLDATASIZE PUSH1 0x3 NOT ADD SLT PUSH2 0x206 JUMPI PUSH1 0x20 PUSH1 0x0 SLOAD PUSH1 0x1 SLOAD SWAP1 SUB PUSH1 0x40 MLOAD SWAP1 DUP2 MSTORE RETURN JUMPDEST PUSH4 0x4E487B71 PUSH1 0xE0 SHL PUSH1 0x0 MSTORE PUSH1 0x21 PUSH1 0x4 MSTORE PUSH1 0x24 PUSH1 0x0 REVERT JUMPDEST PUSH1 0x2 GT ISZERO PUSH2 0x767 JUMPI JUMP JUMPDEST PUSH2 0x747 JUMP JUMPDEST CALLVALUE PUSH2 0x206 JUMPI PUSH1 0x20 CALLDATASIZE PUSH1 0x3 NOT ADD SLT PUSH2 0x206 JUMPI PUSH1 0x4 CALLDATALOAD PUSH1 0x0 MSTORE PUSH1 0x11 PUSH1 0x20 MSTORE PUSH1 0x40 DUP1 PUSH1 0x0 KECCAK256 PUSH1 0xFF PUSH1 0x1 DUP3 SLOAD SWAP3 ADD SLOAD AND DUP3 MLOAD SWAP2 DUP3 MSTORE PUSH2 0x7A6 DUP2 PUSH2 0x75D JUMP JUMPDEST PUSH1 0x20 DUP3 ADD MSTORE RETURN JUMPDEST PUSH1 0x60 SWAP1 PUSH1 0x3 NOT ADD SLT PUSH2 0x206 JUMPI PUSH1 0x1 PUSH1 0x1 PUSH1 0xA0 SHL SUB SWAP1 PUSH1 0x4 CALLDATALOAD DUP3 DUP2 AND DUP2 SUB PUSH2 0x206 JUMPI SWAP2 PUSH1 0x24 CALLDATALOAD SWAP1 DUP2 AND DUP2 SUB PUSH2 0x206 JUMPI SWAP1 PUSH1 0x44 CALLDATALOAD SWAP1 JUMP JUMPDEST PUSH2 0x7F4 PUSH2 0x7EE CALLDATASIZE PUSH2 0x7AD JUMP JUMPDEST SWAP2 PUSH2 0x1490 JUMP JUMPDEST STOP JUMPDEST PUSH2 0x7F4 PUSH2 0x802 CALLDATASIZE PUSH2 0x7AD JUMP JUMPDEST SWAP1 PUSH1 0x40 MLOAD SWAP3 PUSH2 0x810 DUP5 PUSH2 0x1194 JUMP JUMPDEST PUSH1 0x0 DUP5 MSTORE PUSH2 0x194E JUMP JUMPDEST CALLVALUE PUSH2 0x206 JUMPI PUSH1 0x20 CALLDATASIZE PUSH1 0x3 NOT ADD SLT PUSH2 0x206 JUMPI PUSH1 0x4 CALLDATALOAD PUSH1 0x0 MSTORE PUSH1 0x13 PUSH1 0x20 MSTORE PUSH1 0x40 DUP1 PUSH1 0x0 KECCAK256 PUSH1 0xFF PUSH1 0x1 DUP3 SLOAD SWAP3 ADD SLOAD AND DUP3 MLOAD SWAP2 DUP3 MSTORE PUSH2 0x7A6 DUP2 PUSH2 0x75D JUMP JUMPDEST PUSH8 0xFFFFFFFFFFFFFFFF DUP2 AND SUB PUSH2 0x206 JUMPI JUMP JUMPDEST CALLVALUE PUSH2 0x206 JUMPI PUSH1 0x20 CALLDATASIZE PUSH1 0x3 NOT ADD SLT PUSH2 0x206 JUMPI PUSH8 0xFFFFFFFFFFFFFFFF PUSH1 0x4 CALLDATALOAD PUSH2 0x88B DUP2 PUSH2 0x853 JUMP JUMPDEST AND PUSH1 0x0 MSTORE PUSH1 0x12 PUSH1 0x20 MSTORE PUSH1 0x60 PUSH1 0x40 PUSH1 0x0 KECCAK256 PUSH1 0x1 PUSH1 0x1 PUSH1 0xA0 SHL SUB DUP2 SLOAD AND SWAP1 PUSH1 0x2 PUSH1 0x1 DUP3 ADD SLOAD SWAP2 ADD SLOAD SWAP1 PUSH1 0x40 MLOAD SWAP3 DUP4 MSTORE PUSH1 0x20 DUP4 ADD MSTORE PUSH1 0x40 DUP3 ADD MSTORE RETURN JUMPDEST CALLVALUE PUSH2 0x206 JUMPI PUSH1 0x20 CALLDATASIZE PUSH1 0x3 NOT ADD SLT PUSH2 0x206 JUMPI PUSH2 0x8DD PUSH2 0x4AD JUMP JUMPDEST PUSH2 0x8E5 PUSH2 0x1B3E JUMP JUMPDEST PUSH1 0x2 PUSH1 0xA SLOAD EQ PUSH2 0x96D JUMPI PUSH1 0x2 PUSH1 0xA SSTORE PUSH1 0x1 PUSH1 0x1 PUSH1 0xA0 SHL SUB AND DUP1 ISZERO PUSH2 0x929 JUMPI PUSH2 0x91F PUSH1 0x0 DUP1 DUP1 DUP1 DUP1 SWAP6 SELFBALANCE SWAP1 GAS CALL PUSH2 0x919 PUSH2 0x1644 JUMP JUMPDEST POP PUSH2 0x1674 JUMP JUMPDEST PUSH2 0x67A PUSH1 0x1 PUSH1 0xA SSTORE JUMP JUMPDEST PUSH1 0x64 PUSH1 0x40 MLOAD PUSH3 0x461BCD PUSH1 0xE5 SHL DUP2 MSTORE PUSH1 0x20 PUSH1 0x4 DUP3 ADD MSTORE PUSH1 0xF PUSH1 0x24 DUP3 ADD MSTORE PUSH32 0x494E56414C49445F414444524553530000000000000000000000000000000000 PUSH1 0x44 DUP3 ADD MSTORE REVERT JUMPDEST PUSH1 0x4 PUSH1 0x40 MLOAD PUSH32 0x3EE5AEB500000000000000000000000000000000000000000000000000000000 DUP2 MSTORE REVERT JUMPDEST CALLVALUE PUSH2 0x206 JUMPI PUSH1 0x60 CALLDATASIZE PUSH1 0x3 NOT ADD SLT PUSH2 0x206 JUMPI PUSH1 0x4 CALLDATALOAD PUSH2 0x9B4 DUP2 PUSH2 0x853 JUMP JUMPDEST PUSH2 0x9BC PUSH2 0x4C3 JUMP JUMPDEST POP PUSH1 0x1 PUSH1 0x1 PUSH1 0xA0 SHL SUB PUSH1 0xB SLOAD AND DUP1 ISZERO PUSH2 0xA4C JUMPI CALLER SUB PUSH2 0x9E2 JUMPI PUSH2 0x7F4 SWAP1 PUSH1 0x44 CALLDATALOAD SWAP1 PUSH2 0x1C6C JUMP JUMPDEST PUSH1 0x84 PUSH1 0x40 MLOAD PUSH3 0x461BCD PUSH1 0xE5 SHL DUP2 MSTORE PUSH1 0x20 PUSH1 0x4 DUP3 ADD MSTORE PUSH1 0x23 PUSH1 0x24 DUP3 ADD MSTORE PUSH32 0x4F6E6C7920456E74726F70792063616E2063616C6C20746869732066756E6374 PUSH1 0x44 DUP3 ADD MSTORE PUSH32 0x696F6E0000000000000000000000000000000000000000000000000000000000 PUSH1 0x64 DUP3 ADD MSTORE REVERT JUMPDEST PUSH1 0x64 PUSH1 0x40 MLOAD PUSH3 0x461BCD PUSH1 0xE5 SHL DUP2 MSTORE PUSH1 0x20 PUSH1 0x4 DUP3 ADD MSTORE PUSH1 0x17 PUSH1 0x24 DUP3 ADD MSTORE PUSH32 0x456E74726F70792061646472657373206E6F7420736574000000000000000000 PUSH1 0x44 DUP3 ADD MSTORE REVERT JUMPDEST PUSH1 0x40 CALLDATASIZE PUSH1 0x3 NOT ADD SLT PUSH2 0x206 JUMPI PUSH1 0x4 CALLDATALOAD PUSH2 0xAA8 DUP2 PUSH2 0x1E09 JUMP JUMPDEST PUSH2 0xADB PUSH2 0xACC PUSH1 0x1 PUSH2 0xAC4 DUP5 PUSH1 0x0 MSTORE PUSH1 0x13 PUSH1 0x20 MSTORE PUSH1 0x40 PUSH1 0x0 KECCAK256 SWAP1 JUMP JUMPDEST ADD SLOAD PUSH1 0xFF AND SWAP1 JUMP JUMPDEST PUSH2 0xAD5 DUP2 PUSH2 0x75D JUMP JUMPDEST ISZERO PUSH2 0x16BF JUMP JUMPDEST PUSH2 0xB06 PUSH2 0xAF7 PUSH1 0x1 PUSH2 0xAC4 DUP5 PUSH1 0x0 MSTORE PUSH1 0x11 PUSH1 0x20 MSTORE PUSH1 0x40 PUSH1 0x0 KECCAK256 SWAP1 JUMP JUMPDEST PUSH2 0xB00 DUP2 PUSH2 0x75D JUMP JUMPDEST ISZERO PUSH2 0x170A JUMP JUMPDEST PUSH2 0xB27 PUSH2 0xB1D DUP3 PUSH1 0x0 MSTORE PUSH1 0x11 PUSH1 0x20 MSTORE PUSH1 0x40 PUSH1 0x0 KECCAK256 SWAP1 JUMP JUMPDEST SLOAD PUSH1 0xD SLOAD GT PUSH2 0x1755 JUMP JUMPDEST PUSH2 0xB86 PUSH2 0xB4B PUSH2 0xB3F PUSH1 0xB SLOAD PUSH1 0x1 PUSH1 0x1 PUSH1 0xA0 SHL SUB AND SWAP1 JUMP JUMPDEST PUSH1 0x1 PUSH1 0x1 PUSH1 0xA0 SHL SUB AND SWAP1 JUMP JUMPDEST PUSH1 0xC SLOAD PUSH1 0x1 PUSH1 0x1 PUSH1 0xA0 SHL SUB AND PUSH1 0x40 MLOAD DUP1 SWAP3 PUSH4 0x17119229 PUSH1 0xE3 SHL DUP3 MSTORE DUP2 DUP1 PUSH1 0x20 SWAP7 DUP8 SWAP6 PUSH1 0x4 DUP4 ADD SWAP2 SWAP1 SWAP2 PUSH1 0x1 PUSH1 0x1 PUSH1 0xA0 SHL SUB PUSH1 0x20 DUP3 ADD SWAP4 AND SWAP1 MSTORE JUMP JUMPDEST SUB SWAP2 GAS STATICCALL DUP1 ISZERO PUSH2 0xD1F JUMPI PUSH16 0xFFFFFFFFFFFFFFFFFFFFFFFFFFFFFFFF SWAP2 PUSH1 0x0 SWAP2 PUSH2 0xD24 JUMPI JUMPDEST POP AND SWAP1 PUSH2 0xBB9 DUP3 CALLVALUE LT ISZERO PUSH2 0x17D4 JUMP JUMPDEST PUSH2 0xBE0 PUSH1 0x1 PUSH2 0xBD2 DUP6 PUSH1 0x0 MSTORE PUSH1 0x13 PUSH1 0x20 MSTORE PUSH1 0x40 PUSH1 0x0 KECCAK256 SWAP1 JUMP JUMPDEST ADD DUP1 SLOAD PUSH1 0xFF NOT AND PUSH1 0x1 OR SWAP1 SSTORE JUMP JUMPDEST TIMESTAMP PUSH2 0xBF5 DUP5 PUSH1 0x0 MSTORE PUSH1 0x13 PUSH1 0x20 MSTORE PUSH1 0x40 PUSH1 0x0 KECCAK256 SWAP1 JUMP JUMPDEST SSTORE DUP1 PUSH2 0xC5F PUSH2 0xC0F PUSH2 0xB3F PUSH1 0xB SLOAD PUSH1 0x1 PUSH1 0x1 PUSH1 0xA0 SHL SUB AND SWAP1 JUMP JUMPDEST PUSH1 0xC SLOAD PUSH1 0x40 MLOAD PUSH32 0x19CB825F00000000000000000000000000000000000000000000000000000000 DUP2 MSTORE PUSH1 0x1 PUSH1 0x1 PUSH1 0xA0 SHL SUB SWAP1 SWAP2 AND PUSH1 0x4 DUP3 ADD MSTORE PUSH1 0x24 DUP1 CALLDATALOAD SWAP1 DUP3 ADD MSTORE SWAP5 DUP6 SWAP3 DUP4 SWAP2 SWAP1 DUP3 SWAP1 PUSH1 0x44 DUP3 ADD SWAP1 JUMP JUMPDEST SUB SWAP3 GAS CALL SWAP2 DUP3 ISZERO PUSH2 0xD1F JUMPI PUSH1 0x0 SWAP3 PUSH2 0xCEC JUMPI JUMPDEST POP PUSH2 0xCB0 SWAP1 DUP4 PUSH2 0xC80 PUSH2 0x11F7 JUMP JUMPDEST CALLER DUP2 MSTORE SWAP2 DUP3 ADD MSTORE TIMESTAMP PUSH1 0x40 DUP3 ADD MSTORE PUSH2 0xCAB DUP4 PUSH8 0xFFFFFFFFFFFFFFFF AND PUSH1 0x0 MSTORE PUSH1 0x12 PUSH1 0x20 MSTORE PUSH1 0x40 PUSH1 0x0 KECCAK256 SWAP1 JUMP JUMPDEST PUSH2 0x1834 JUMP JUMPDEST PUSH1 0x40 MLOAD PUSH8 0xFFFFFFFFFFFFFFFF SWAP2 SWAP1 SWAP2 AND DUP2 MSTORE CALLER SWAP1 PUSH32 0xCB7F7191D9ED9E04775181F5EE0E172EC652A6602944B9B7530F278AF5B31B64 SWAP1 PUSH1 0x20 SWAP1 LOG3 STOP JUMPDEST DUP2 SWAP3 POP PUSH2 0xD11 SWAP1 PUSH2 0xCB0 SWAP3 RETURNDATASIZE DUP6 GT PUSH2 0xD18 JUMPI JUMPDEST PUSH2 0xD09 DUP2 DUP4 PUSH2 0x11B5 JUMP JUMPDEST DUP2 ADD SWAP1 PUSH2 0x181F JUMP JUMPDEST SWAP2 SWAP1 PUSH2 0xC72 JUMP JUMPDEST POP RETURNDATASIZE PUSH2 0xCFF JUMP JUMPDEST PUSH2 0x17C8 JUMP JUMPDEST PUSH2 0xD44 SWAP2 POP DUP4 RETURNDATASIZE DUP6 GT PUSH2 0xD4A JUMPI JUMPDEST PUSH2 0xD3C DUP2 DUP4 PUSH2 0x11B5 JUMP JUMPDEST DUP2 ADD SWAP1 PUSH2 0x17A0 JUMP JUMPDEST CODESIZE PUSH2 0xBAA JUMP JUMPDEST POP RETURNDATASIZE PUSH2 0xD32 JUMP JUMPDEST CALLVALUE PUSH2 0x206 JUMPI PUSH1 0x20 CALLDATASIZE PUSH1 0x3 NOT ADD SLT PUSH2 0x206 JUMPI PUSH1 0x20 PUSH1 0x1 PUSH1 0x1 PUSH1 0xA0 SHL SUB PUSH2 0xD77 PUSH1 0x4 CALLDATALOAD PUSH2 0x1AC1 JUMP JUMPDEST AND PUSH1 0x40 MLOAD SWAP1 DUP2 MSTORE RETURN JUMPDEST CALLVALUE PUSH2 0x206 JUMPI PUSH1 0x20 CALLDATASIZE PUSH1 0x3 NOT ADD SLT PUSH2 0x206 JUMPI PUSH1 0x20 PUSH2 0xDA3 PUSH2 0xD9E PUSH2 0x4AD JUMP JUMPDEST PUSH2 0x1882 JUMP JUMPDEST PUSH1 0x40 MLOAD SWAP1 DUP2 MSTORE RETURN JUMPDEST CALLVALUE PUSH2 0x206 JUMPI PUSH1 0x0 DUP1 PUSH1 0x3 NOT CALLDATASIZE ADD SLT PUSH2 0x43D JUMPI PUSH2 0xDC5 PUSH2 0x1B3E JUMP JUMPDEST DUP1 PUSH1 0x1 PUSH1 0x1 PUSH1 0xA0 SHL SUB PUSH1 0x9 SLOAD PUSH20 0xFFFFFFFFFFFFFFFFFFFFFFFFFFFFFFFFFFFFFFFF NOT DUP2 AND PUSH1 0x9 SSTORE AND PUSH32 0x8BE0079C531659141344CD1FD0A4F28419497F9722A3DAAFE3B4186F6B6457E0 DUP3 DUP1 LOG3 DUP1 RETURN JUMPDEST CALLVALUE PUSH2 0x206 JUMPI PUSH1 0x20 CALLDATASIZE PUSH1 0x3 NOT ADD SLT PUSH2 0x206 JUMPI PUSH1 0x4 CALLDATALOAD PUSH2 0xE30 PUSH2 0x1B3E JUMP JUMPDEST PUSH2 0xE39 DUP2 PUSH2 0x1E67 JUMP JUMPDEST PUSH1 0x0 SWAP1 DUP2 MSTORE PUSH1 0x13 PUSH1 0x20 MSTORE PUSH1 0x40 SWAP1 KECCAK256 PUSH1 0x1 ADD DUP1 SLOAD PUSH1 0xFF NOT AND SWAP1 SSTORE STOP JUMPDEST PUSH1 0x20 SWAP1 PUSH1 0x20 PUSH1 0x40 DUP2 DUP4 ADD SWAP3 DUP3 DUP2 MSTORE DUP6 MLOAD DUP1 SWAP5 MSTORE ADD SWAP4 ADD SWAP2 PUSH1 0x0 JUMPDEST DUP3 DUP2 LT PUSH2 0xE7C JUMPI POP POP POP POP SWAP1 JUMP JUMPDEST DUP4 MLOAD DUP6 MSTORE SWAP4 DUP2 ADD SWAP4 SWAP3 DUP2 ADD SWAP3 PUSH1 0x1 ADD PUSH2 0xE6E JUMP JUMPDEST CALLVALUE PUSH2 0x206 JUMPI PUSH1 0x20 CALLDATASIZE PUSH1 0x3 NOT ADD SLT PUSH2 0x206 JUMPI PUSH2 0xEA9 PUSH2 0x4AD JUMP JUMPDEST PUSH1 0x0 DUP1 PUSH2 0xEB5 DUP4 PUSH2 0x1882 JUMP JUMPDEST SWAP2 PUSH2 0xEBF DUP4 PUSH2 0x18D6 JUMP JUMPDEST SWAP4 PUSH1 0x40 SWAP2 PUSH2 0xED0 PUSH1 0x40 MLOAD SWAP7 DUP8 PUSH2 0x11B5 JUMP JUMPDEST DUP5 DUP7 MSTORE PUSH1 0x1F NOT PUSH2 0xEDF DUP7 PUSH2 0x18D6 JUMP JUMPDEST ADD CALLDATASIZE PUSH1 0x20 DUP9 ADD CALLDATACOPY PUSH2 0xEEE PUSH2 0x18EE JUMP JUMPDEST POP PUSH1 0x1 PUSH1 0x1 PUSH1 0xA0 SHL SUB SWAP2 DUP3 AND SWAP3 DUP5 JUMPDEST DUP7 DUP7 SUB PUSH2 0xF12 JUMPI PUSH1 0x40 MLOAD DUP1 PUSH2 0x3A1 DUP11 DUP3 PUSH2 0xE54 JUMP JUMPDEST PUSH2 0xF1B DUP2 PUSH2 0x1F3C JUMP JUMPDEST DUP1 DUP4 ADD MLOAD PUSH2 0xF66 JUMPI MLOAD PUSH1 0x1 PUSH1 0x1 PUSH1 0xA0 SHL SUB AND DUP5 DUP2 AND PUSH2 0xF5D JUMPI JUMPDEST POP PUSH1 0x1 SWAP1 DUP6 DUP6 DUP6 AND EQ PUSH2 0xF49 JUMPI JUMPDEST ADD PUSH2 0xEFD JUMP JUMPDEST DUP1 PUSH2 0xF57 DUP4 DUP10 ADD SWAP9 DUP12 PUSH2 0x1924 JUMP JUMPDEST MSTORE PUSH2 0xF43 JUMP JUMPDEST SWAP3 POP PUSH1 0x1 PUSH2 0xF35 JUMP JUMPDEST POP PUSH1 0x1 SWAP1 PUSH2 0xF43 JUMP JUMPDEST CALLVALUE PUSH2 0x206 JUMPI PUSH1 0x0 CALLDATASIZE PUSH1 0x3 NOT ADD SLT PUSH2 0x206 JUMPI PUSH1 0x20 PUSH1 0x1 PUSH1 0x1 PUSH1 0xA0 SHL SUB PUSH1 0x9 SLOAD AND PUSH1 0x40 MLOAD SWAP1 DUP2 MSTORE RETURN JUMPDEST CALLVALUE PUSH2 0x206 JUMPI PUSH1 0x0 DUP1 PUSH1 0x3 NOT CALLDATASIZE ADD SLT PUSH2 0x43D JUMPI PUSH1 0x40 MLOAD SWAP1 DUP1 PUSH1 0x3 SLOAD SWAP1 PUSH1 0x1 SWAP2 DUP1 PUSH1 0x1 SHR SWAP3 PUSH1 0x1 DUP3 AND SWAP3 DUP4 ISZERO PUSH2 0x1052 JUMPI JUMPDEST PUSH1 0x20 SWAP3 PUSH1 0x20 DUP7 LT DUP6 EQ PUSH2 0x41F JUMPI DUP6 DUP9 MSTORE PUSH1 0x20 DUP9 ADD SWAP5 SWAP1 DUP2 ISZERO PUSH2 0x3FE JUMPI POP PUSH1 0x1 EQ PUSH2 0xFF9 JUMPI PUSH2 0x3A1 DUP8 PUSH2 0x395 DUP2 DUP10 SUB DUP3 PUSH2 0x11B5 JUMP JUMPDEST PUSH1 0x3 PUSH1 0x0 MSTORE SWAP5 POP SWAP2 SWAP3 SWAP2 PUSH32 0xC2575A0E9E593C00F959F8C92F12DB2869C3395A3B0502D05E2516446F71F85B JUMPDEST DUP4 DUP7 LT PUSH2 0x1041 JUMPI POP POP POP SWAP2 ADD SWAP1 POP PUSH2 0x395 DUP3 PUSH2 0x3A1 CODESIZE DUP1 PUSH2 0x385 JUMP JUMPDEST DUP1 SLOAD DUP6 DUP8 ADD MSTORE SWAP5 DUP3 ADD SWAP5 DUP2 ADD PUSH2 0x1025 JUMP JUMPDEST SWAP4 PUSH1 0x7F AND SWAP4 PUSH2 0xFC5 JUMP JUMPDEST CALLVALUE PUSH2 0x206 JUMPI PUSH1 0x0 CALLDATASIZE PUSH1 0x3 NOT ADD SLT PUSH2 0x206 JUMPI PUSH1 0x1 PUSH1 0x1 PUSH1 0xA0 SHL SUB PUSH1 0x20 DUP2 PUSH1 0xB SLOAD AND SWAP2 PUSH1 0xC SLOAD AND PUSH1 0x24 PUSH1 0x40 MLOAD DUP1 SWAP5 DUP2 SWAP4 PUSH4 0x17119229 PUSH1 0xE3 SHL DUP4 MSTORE PUSH1 0x4 DUP4 ADD MSTORE GAS STATICCALL DUP1 ISZERO PUSH2 0xD1F JUMPI PUSH16 0xFFFFFFFFFFFFFFFFFFFFFFFFFFFFFFFF SWAP2 PUSH1 0x0 SWAP2 PUSH2 0x10C8 JUMPI JUMPDEST POP PUSH1 0x40 MLOAD SWAP2 AND DUP2 MSTORE PUSH1 0x20 SWAP1 RETURN JUMPDEST PUSH2 0x10E1 SWAP2 POP PUSH1 0x20 RETURNDATASIZE PUSH1 0x20 GT PUSH2 0xD4A JUMPI PUSH2 0xD3C DUP2 DUP4 PUSH2 0x11B5 JUMP JUMPDEST CODESIZE PUSH2 0x10BB JUMP JUMPDEST CALLVALUE PUSH2 0x206 JUMPI PUSH1 0x40 CALLDATASIZE PUSH1 0x3 NOT ADD SLT PUSH2 0x206 JUMPI PUSH2 0x1100 PUSH2 0x4AD JUMP JUMPDEST PUSH1 0x24 CALLDATALOAD SWAP1 DUP2 ISZERO ISZERO DUP1 SWAP3 SUB PUSH2 0x206 JUMPI PUSH1 0x1 PUSH1 0x1 PUSH1 0xA0 SHL SUB SWAP1 CALLER PUSH1 0x0 MSTORE PUSH1 0x7 PUSH1 0x20 MSTORE PUSH2 0x1141 DUP2 PUSH1 0x40 PUSH1 0x0 KECCAK256 SWAP1 PUSH1 0x1 PUSH1 0x1 PUSH1 0xA0 SHL SUB AND PUSH1 0x0 MSTORE PUSH1 0x20 MSTORE PUSH1 0x40 PUSH1 0x0 KECCAK256 SWAP1 JUMP JUMPDEST PUSH1 0xFF NOT DUP2 SLOAD AND PUSH1 0xFF DUP6 AND OR SWAP1 SSTORE PUSH1 0x40 MLOAD SWAP3 DUP4 MSTORE AND SWAP1 PUSH32 0x17307EAB39AB6107E8899845AD3D59BD9653F200F220920489CA2B5937696C31 PUSH1 0x20 CALLER SWAP3 LOG3 STOP JUMPDEST PUSH4 0x4E487B71 PUSH1 0xE0 SHL PUSH1 0x0 MSTORE PUSH1 0x41 PUSH1 0x4 MSTORE PUSH1 0x24 PUSH1 0x0 REVERT JUMPDEST PUSH1 0x20 DUP2 ADD SWAP1 DUP2 LT PUSH8 0xFFFFFFFFFFFFFFFF DUP3 GT OR PUSH2 0x11B0 JUMPI PUSH1 0x40 MSTORE JUMP JUMPDEST PUSH2 0x117E JUMP JUMPDEST SWAP1 PUSH1 0x1F DUP1 NOT SWAP2 ADD AND DUP2 ADD SWAP1 DUP2 LT PUSH8 0xFFFFFFFFFFFFFFFF DUP3 GT OR PUSH2 0x11B0 JUMPI PUSH1 0x40 MSTORE JUMP JUMPDEST PUSH1 0x40 MLOAD SWAP1 PUSH1 0x40 DUP3 ADD DUP3 DUP2 LT PUSH8 0xFFFFFFFFFFFFFFFF DUP3 GT OR PUSH2 0x11B0 JUMPI PUSH1 0x40 MSTORE JUMP JUMPDEST PUSH1 0x40 MLOAD SWAP1 PUSH1 0x60 DUP3 ADD DUP3 DUP2 LT PUSH8 0xFFFFFFFFFFFFFFFF DUP3 GT OR PUSH2 0x11B0 JUMPI PUSH1 0x40 MSTORE JUMP JUMPDEST PUSH8 0xFFFFFFFFFFFFFFFF DUP2 GT PUSH2 0x11B0 JUMPI PUSH1 0x1F ADD PUSH1 0x1F NOT AND PUSH1 0x20 ADD SWAP1 JUMP JUMPDEST PUSH1 0x80 CALLDATASIZE PUSH1 0x3 NOT ADD SLT PUSH2 0x206 JUMPI PUSH2 0x1247 PUSH2 0x4AD JUMP JUMPDEST PUSH2 0x124F PUSH2 0x4C3 JUMP JUMPDEST PUSH1 0x64 CALLDATALOAD SWAP2 PUSH8 0xFFFFFFFFFFFFFFFF DUP4 GT PUSH2 0x206 JUMPI CALLDATASIZE PUSH1 0x23 DUP5 ADD SLT ISZERO PUSH2 0x206 JUMPI DUP3 PUSH1 0x4 ADD CALLDATALOAD SWAP2 PUSH2 0x127C DUP4 PUSH2 0x1217 JUMP JUMPDEST SWAP3 PUSH2 0x128A PUSH1 0x40 MLOAD SWAP5 DUP6 PUSH2 0x11B5 JUMP JUMPDEST DUP1 DUP5 MSTORE CALLDATASIZE PUSH1 0x24 DUP3 DUP8 ADD ADD GT PUSH2 0x206 JUMPI PUSH1 0x20 DUP2 PUSH1 0x0 SWAP3 PUSH1 0x24 PUSH2 0x7F4 SWAP9 ADD DUP4 DUP9 ADD CALLDATACOPY DUP6 ADD ADD MSTORE PUSH1 0x44 CALLDATALOAD SWAP2 PUSH2 0x194E JUMP JUMPDEST CALLVALUE PUSH2 0x206 JUMPI PUSH1 0x20 CALLDATASIZE PUSH1 0x3 NOT ADD SLT PUSH2 0x206 JUMPI PUSH1 0x4 CALLDATALOAD PUSH2 0xE30 DUP2 PUSH2 0x1E09 JUMP JUMPDEST CALLVALUE PUSH2 0x206 JUMPI PUSH1 0x20 CALLDATASIZE PUSH1 0x3 NOT ADD SLT PUSH2 0x206 JUMPI PUSH2 0x12F0 PUSH1 0x4 CALLDATALOAD PUSH2 0x19C0 JUMP JUMPDEST ISZERO PUSH2 0x132B JUMPI PUSH1 0x0 PUSH1 0x40 MLOAD PUSH2 0x1303 DUP2 PUSH2 0x1194 JUMP JUMPDEST MSTORE PUSH2 0x3A1 PUSH1 0x40 MLOAD PUSH2 0x1313 DUP2 PUSH2 0x1194 JUMP JUMPDEST PUSH1 0x0 DUP2 MSTORE PUSH1 0x40 MLOAD SWAP2 DUP3 SWAP2 PUSH1 0x20 DUP4 MSTORE PUSH1 0x20 DUP4 ADD SWAP1 PUSH2 0x2DD JUMP JUMPDEST PUSH32 0xA14C4B5000000000000000000000000000000000000000000000000000000000 PUSH1 0x0 MSTORE PUSH1 0x4 PUSH1 0x0 REVERT JUMPDEST CALLVALUE PUSH2 0x206 JUMPI PUSH1 0x40 CALLDATASIZE PUSH1 0x3 NOT ADD SLT PUSH2 0x206 JUMPI PUSH1 0x20 PUSH1 0xFF PUSH2 0x13AB PUSH2 0x1375 PUSH2 0x4AD JUMP JUMPDEST PUSH1 0x1 PUSH1 0x1 PUSH1 0xA0 SHL SUB PUSH2 0x1385 PUSH2 0x4C3 JUMP JUMPDEST SWAP2 AND PUSH1 0x0 MSTORE PUSH1 0x7 DUP5 MSTORE PUSH1 0x40 PUSH1 0x0 KECCAK256 SWAP1 PUSH1 0x1 PUSH1 0x1 PUSH1 0xA0 SHL SUB AND PUSH1 0x0 MSTORE PUSH1 0x20 MSTORE PUSH1 0x40 PUSH1 0x0 KECCAK256 SWAP1 JUMP JUMPDEST SLOAD AND PUSH1 0x40 MLOAD SWAP1 ISZERO ISZERO DUP2 MSTORE RETURN JUMPDEST CALLVALUE PUSH2 0x206 JUMPI PUSH1 0x20 CALLDATASIZE PUSH1 0x3 NOT ADD SLT PUSH2 0x206 JUMPI PUSH2 0x13D0 PUSH2 0x4AD JUMP JUMPDEST PUSH2 0x13D8 PUSH2 0x1B3E JUMP JUMPDEST PUSH1 0x1 PUSH1 0x1 PUSH1 0xA0 SHL SUB DUP1 SWAP2 AND SWAP1 DUP2 ISZERO PUSH2 0x1432 JUMPI PUSH1 0x9 SLOAD DUP3 PUSH20 0xFFFFFFFFFFFFFFFFFFFFFFFFFFFFFFFFFFFFFFFF NOT DUP3 AND OR PUSH1 0x9 SSTORE AND PUSH32 0x8BE0079C531659141344CD1FD0A4F28419497F9722A3DAAFE3B4186F6B6457E0 PUSH1 0x0 DUP1 LOG3 STOP JUMPDEST PUSH1 0x24 PUSH1 0x40 MLOAD PUSH32 0x1E4FBDF700000000000000000000000000000000000000000000000000000000 DUP2 MSTORE PUSH1 0x0 PUSH1 0x4 DUP3 ADD MSTORE REVERT JUMPDEST PUSH1 0x1 PUSH1 0x20 SWAP2 DUP4 MLOAD DUP2 SSTORE ADD SWAP2 ADD MLOAD PUSH2 0x1479 DUP2 PUSH2 0x75D JUMP JUMPDEST PUSH2 0x1482 DUP2 PUSH2 0x75D JUMP JUMPDEST PUSH1 0xFF DUP1 NOT DUP4 SLOAD AND SWAP2 AND OR SWAP1 SSTORE JUMP JUMPDEST SWAP2 SWAP1 SWAP2 PUSH2 0x149C DUP3 PUSH2 0x1AC1 JUMP JUMPDEST SWAP3 PUSH1 0x1 PUSH1 0x1 PUSH1 0xA0 SHL SUB DUP1 SWAP3 AND SWAP4 DUP5 DUP4 DUP3 AND SUB PUSH2 0x163F JUMPI PUSH1 0x0 DUP5 DUP2 MSTORE PUSH1 0x6 PUSH1 0x20 MSTORE PUSH1 0x40 SWAP1 KECCAK256 DUP1 SLOAD PUSH2 0x14DB PUSH1 0x1 PUSH1 0x1 PUSH1 0xA0 SHL SUB DUP9 AND CALLER SWAP1 DUP2 EQ SWAP1 DUP4 EQ OR ISZERO SWAP1 JUMP JUMPDEST PUSH2 0x15EF JUMPI JUMPDEST PUSH2 0x15E5 JUMPI JUMPDEST POP PUSH2 0x1503 DUP6 PUSH1 0x1 PUSH1 0x1 PUSH1 0xA0 SHL SUB AND PUSH1 0x0 MSTORE PUSH1 0x5 PUSH1 0x20 MSTORE PUSH1 0x40 PUSH1 0x0 KECCAK256 SWAP1 JUMP JUMPDEST DUP1 SLOAD PUSH1 0x0 NOT ADD SWAP1 SSTORE PUSH2 0x1528 DUP3 PUSH1 0x1 PUSH1 0x1 PUSH1 0xA0 SHL SUB AND PUSH1 0x0 MSTORE PUSH1 0x5 PUSH1 0x20 MSTORE PUSH1 0x40 PUSH1 0x0 KECCAK256 SWAP1 JUMP JUMPDEST DUP1 SLOAD PUSH1 0x1 ADD SWAP1 SSTORE PUSH1 0x1 PUSH1 0x1 PUSH1 0xA0 SHL SUB DUP3 AND TIMESTAMP PUSH1 0xA0 SHL OR PUSH1 0x1 PUSH1 0xE1 SHL OR PUSH2 0x1558 DUP6 PUSH1 0x0 MSTORE PUSH1 0x4 PUSH1 0x20 MSTORE PUSH1 0x40 PUSH1 0x0 KECCAK256 SWAP1 JUMP JUMPDEST SSTORE PUSH1 0x1 PUSH1 0xE1 SHL DUP2 AND ISZERO PUSH2 0x159B JUMPI JUMPDEST POP AND DUP1 SWAP3 PUSH32 0xDDF252AD1BE2C89B69C2B068FC378DAA952BA7F163C4A11628F55A4DF523B3EF PUSH1 0x0 DUP1 LOG4 ISZERO PUSH2 0x1596 JUMPI JUMP JUMPDEST PUSH2 0x1A86 JUMP JUMPDEST PUSH1 0x1 DUP5 ADD PUSH2 0x15B3 DUP2 PUSH1 0x0 MSTORE PUSH1 0x4 PUSH1 0x20 MSTORE PUSH1 0x40 PUSH1 0x0 KECCAK256 SWAP1 JUMP JUMPDEST SLOAD ISZERO PUSH2 0x15C0 JUMPI JUMPDEST POP PUSH2 0x1566 JUMP JUMPDEST PUSH1 0x0 SLOAD DUP2 EQ PUSH2 0x15BA JUMPI PUSH2 0x15DD SWAP1 PUSH1 0x0 MSTORE PUSH1 0x4 PUSH1 0x20 MSTORE PUSH1 0x40 PUSH1 0x0 KECCAK256 SWAP1 JUMP JUMPDEST SSTORE CODESIZE DUP1 PUSH2 0x15BA JUMP JUMPDEST PUSH1 0x0 SWAP1 SSTORE CODESIZE PUSH2 0x14E5 JUMP JUMPDEST PUSH2 0x1635 PUSH2 0x6B3 PUSH2 0x162E CALLER PUSH2 0x1616 DUP12 PUSH1 0x1 PUSH1 0x1 PUSH1 0xA0 SHL SUB AND PUSH1 0x0 MSTORE PUSH1 0x7 PUSH1 0x20 MSTORE PUSH1 0x40 PUSH1 0x0 KECCAK256 SWAP1 JUMP JUMPDEST SWAP1 PUSH1 0x1 PUSH1 0x1 PUSH1 0xA0 SHL SUB AND PUSH1 0x0 MSTORE PUSH1 0x20 MSTORE PUSH1 0x40 PUSH1 0x0 KECCAK256 SWAP1 JUMP JUMPDEST SLOAD PUSH1 0xFF AND SWAP1 JUMP JUMPDEST ISZERO PUSH2 0x14E0 JUMPI PUSH2 0x1A5C JUMP JUMPDEST PUSH2 0x1A32 JUMP JUMPDEST RETURNDATASIZE ISZERO PUSH2 0x166F JUMPI RETURNDATASIZE SWAP1 PUSH2 0x1655 DUP3 PUSH2 0x1217 JUMP JUMPDEST SWAP2 PUSH2 0x1663 PUSH1 0x40 MLOAD SWAP4 DUP5 PUSH2 0x11B5 JUMP JUMPDEST DUP3 MSTORE RETURNDATASIZE PUSH1 0x0 PUSH1 0x20 DUP5 ADD RETURNDATACOPY JUMP JUMPDEST PUSH1 0x60 SWAP1 JUMP JUMPDEST ISZERO PUSH2 0x167B JUMPI JUMP JUMPDEST PUSH1 0x64 PUSH1 0x40 MLOAD PUSH3 0x461BCD PUSH1 0xE5 SHL DUP2 MSTORE PUSH1 0x20 PUSH1 0x4 DUP3 ADD MSTORE PUSH1 0x11 PUSH1 0x24 DUP3 ADD MSTORE PUSH32 0x5749544844524157414C5F4641494C4544000000000000000000000000000000 PUSH1 0x44 DUP3 ADD MSTORE REVERT JUMPDEST ISZERO PUSH2 0x16C6 JUMPI JUMP JUMPDEST PUSH1 0x64 PUSH1 0x40 MLOAD PUSH3 0x461BCD PUSH1 0xE5 SHL DUP2 MSTORE PUSH1 0x20 PUSH1 0x4 DUP3 ADD MSTORE PUSH1 0xD PUSH1 0x24 DUP3 ADD MSTORE PUSH32 0x4E4654206973206C6F636B656400000000000000000000000000000000000000 PUSH1 0x44 DUP3 ADD MSTORE REVERT JUMPDEST ISZERO PUSH2 0x1711 JUMPI JUMP JUMPDEST PUSH1 0x64 PUSH1 0x40 MLOAD PUSH3 0x461BCD PUSH1 0xE5 SHL DUP2 MSTORE PUSH1 0x20 PUSH1 0x4 DUP3 ADD MSTORE PUSH1 0xB PUSH1 0x24 DUP3 ADD MSTORE PUSH32 0x4E46542069732064656164000000000000000000000000000000000000000000 PUSH1 0x44 DUP3 ADD MSTORE REVERT JUMPDEST ISZERO PUSH2 0x175C JUMPI JUMP JUMPDEST PUSH1 0x64 PUSH1 0x40 MLOAD PUSH3 0x461BCD PUSH1 0xE5 SHL DUP2 MSTORE PUSH1 0x20 PUSH1 0x4 DUP3 ADD MSTORE PUSH1 0x11 PUSH1 0x24 DUP3 ADD MSTORE PUSH32 0x416C7265616479206D6178206C6576656C000000000000000000000000000000 PUSH1 0x44 DUP3 ADD MSTORE REVERT JUMPDEST SWAP1 DUP2 PUSH1 0x20 SWAP2 SUB SLT PUSH2 0x206 JUMPI MLOAD PUSH16 0xFFFFFFFFFFFFFFFFFFFFFFFFFFFFFFFF DUP2 AND DUP2 SUB PUSH2 0x206 JUMPI SWAP1 JUMP JUMPDEST PUSH1 0x40 MLOAD RETURNDATASIZE PUSH1 0x0 DUP3 RETURNDATACOPY RETURNDATASIZE SWAP1 REVERT JUMPDEST ISZERO PUSH2 0x17DB JUMPI JUMP JUMPDEST PUSH1 0x64 PUSH1 0x40 MLOAD PUSH3 0x461BCD PUSH1 0xE5 SHL DUP2 MSTORE PUSH1 0x20 PUSH1 0x4 DUP3 ADD MSTORE PUSH1 0xF PUSH1 0x24 DUP3 ADD MSTORE PUSH32 0x4E6F7420656E6F75676820666565730000000000000000000000000000000000 PUSH1 0x44 DUP3 ADD MSTORE REVERT JUMPDEST SWAP1 DUP2 PUSH1 0x20 SWAP2 SUB SLT PUSH2 0x206 JUMPI MLOAD PUSH2 0x32E DUP2 PUSH2 0x853 JUMP JUMPDEST SWAP1 PUSH1 0x40 PUSH1 0x2 SWAP2 PUSH2 0x1871 PUSH1 0x1 PUSH1 0x1 PUSH1 0xA0 SHL SUB DUP3 MLOAD AND DUP6 SWAP1 PUSH1 0x1 PUSH1 0x1 PUSH1 0xA0 SHL SUB AND PUSH20 0xFFFFFFFFFFFFFFFFFFFFFFFFFFFFFFFFFFFFFFFF NOT DUP3 SLOAD AND OR SWAP1 SSTORE JUMP JUMPDEST PUSH1 0x20 DUP2 ADD MLOAD PUSH1 0x1 DUP6 ADD SSTORE ADD MLOAD SWAP2 ADD SSTORE JUMP JUMPDEST PUSH1 0x1 PUSH1 0x1 PUSH1 0xA0 SHL SUB AND DUP1 ISZERO PUSH2 0x18AC JUMPI PUSH1 0x0 MSTORE PUSH1 0x5 PUSH1 0x20 MSTORE PUSH8 0xFFFFFFFFFFFFFFFF PUSH1 0x40 PUSH1 0x0 KECCAK256 SLOAD AND SWAP1 JUMP JUMPDEST PUSH32 0x8F4EB60400000000000000000000000000000000000000000000000000000000 PUSH1 0x0 MSTORE PUSH1 0x4 PUSH1 0x0 REVERT JUMPDEST PUSH8 0xFFFFFFFFFFFFFFFF DUP2 GT PUSH2 0x11B0 JUMPI PUSH1 0x5 SHL PUSH1 0x20 ADD SWAP1 JUMP JUMPDEST PUSH1 0x40 MLOAD SWAP1 PUSH1 0x80 DUP3 ADD DUP3 DUP2 LT PUSH8 0xFFFFFFFFFFFFFFFF DUP3 GT OR PUSH2 0x11B0 JUMPI PUSH1 0x40 MSTORE PUSH1 0x0 PUSH1 0x60 DUP4 DUP3 DUP2 MSTORE DUP3 PUSH1 0x20 DUP3 ADD MSTORE DUP3 PUSH1 0x40 DUP3 ADD MSTORE ADD MSTORE JUMP JUMPDEST DUP1 MLOAD DUP3 LT ISZERO PUSH2 0x1938 JUMPI PUSH1 0x20 SWAP2 PUSH1 0x5 SHL ADD ADD SWAP1 JUMP JUMPDEST PUSH4 0x4E487B71 PUSH1 0xE0 SHL PUSH1 0x0 MSTORE PUSH1 0x32 PUSH1 0x4 MSTORE PUSH1 0x24 PUSH1 0x0 REVERT JUMPDEST SWAP3 SWAP2 SWAP1 PUSH2 0x195C DUP3 DUP3 DUP7 PUSH2 0x1490 JUMP JUMPDEST DUP1 EXTCODESIZE PUSH2 0x1969 JUMPI JUMPDEST POP POP POP POP JUMP JUMPDEST PUSH2 0x1972 SWAP4 PUSH2 0x20B6 JUMP JUMPDEST ISZERO PUSH2 0x1980 JUMPI CODESIZE DUP1 DUP1 DUP1 PUSH2 0x1963 JUMP JUMPDEST PUSH32 0xD1A57ED600000000000000000000000000000000000000000000000000000000 PUSH1 0x0 MSTORE PUSH1 0x4 PUSH1 0x0 REVERT JUMPDEST PUSH4 0x4E487B71 PUSH1 0xE0 SHL PUSH1 0x0 MSTORE PUSH1 0x11 PUSH1 0x4 MSTORE PUSH1 0x24 PUSH1 0x0 REVERT JUMPDEST SWAP1 PUSH1 0x0 SWAP2 PUSH1 0x0 DUP1 SLOAD DUP3 LT PUSH2 0x19D2 JUMPI POP POP JUMP JUMPDEST SWAP3 POP JUMPDEST DUP1 DUP4 MSTORE PUSH1 0x4 PUSH1 0x20 MSTORE PUSH1 0x40 DUP4 KECCAK256 SLOAD DUP1 PUSH2 0x19FC JUMPI POP DUP1 ISZERO PUSH2 0x19F7 JUMPI PUSH1 0x0 NOT ADD PUSH2 0x19D5 JUMP JUMPDEST PUSH2 0x19AA JUMP JUMPDEST PUSH1 0x1 PUSH1 0xE0 SHL AND ISZERO SWAP3 POP POP JUMP JUMPDEST PUSH32 0x2E07630000000000000000000000000000000000000000000000000000000000 PUSH1 0x0 MSTORE PUSH1 0x4 PUSH1 0x0 REVERT JUMPDEST PUSH32 0xA114810000000000000000000000000000000000000000000000000000000000 PUSH1 0x0 MSTORE PUSH1 0x4 PUSH1 0x0 REVERT JUMPDEST PUSH32 0x59C896BE00000000000000000000000000000000000000000000000000000000 PUSH1 0x0 MSTORE PUSH1 0x4 PUSH1 0x0 REVERT JUMPDEST PUSH32 0xEA553B3400000000000000000000000000000000000000000000000000000000 PUSH1 0x0 MSTORE PUSH1 0x4 PUSH1 0x0 REVERT JUMPDEST PUSH4 0x6F96CDA1 PUSH1 0xE1 SHL PUSH1 0x0 MSTORE PUSH1 0x4 PUSH1 0x0 REVERT JUMPDEST PUSH2 0x1AD5 DUP2 PUSH1 0x0 MSTORE PUSH1 0x4 PUSH1 0x20 MSTORE PUSH1 0x40 PUSH1 0x0 KECCAK256 SWAP1 JUMP JUMPDEST SLOAD SWAP1 DUP2 ISZERO PUSH2 0x1AEC JUMPI POP PUSH1 0x1 PUSH1 0xE0 SHL DUP2 AND PUSH2 0x1AB0 JUMPI SWAP1 JUMP JUMPDEST SWAP1 POP PUSH1 0x0 SWAP1 PUSH1 0x0 SLOAD DUP2 LT ISZERO PUSH2 0x1AB0 JUMPI JUMPDEST PUSH1 0x0 NOT ADD PUSH1 0x0 DUP2 DUP2 MSTORE PUSH1 0x4 PUSH1 0x20 MSTORE PUSH1 0x40 SWAP1 KECCAK256 SLOAD SWAP1 DUP2 ISZERO PUSH2 0x1B37 JUMPI POP PUSH1 0x1 PUSH1 0xE0 SHL DUP2 AND ISZERO PUSH2 0x1B32 JUMPI PUSH1 0x4 DUP3 PUSH4 0x6F96CDA1 PUSH1 0xE1 SHL DUP2 MSTORE REVERT JUMPDEST SWAP1 POP SWAP1 JUMP JUMPDEST SWAP1 POP PUSH2 0x1AFC JUMP JUMPDEST PUSH1 0x1 PUSH1 0x1 PUSH1 0xA0 SHL SUB PUSH1 0x9 SLOAD AND CALLER SUB PUSH2 0x1B52 JUMPI JUMP JUMPDEST PUSH1 0x24 PUSH1 0x40 MLOAD PUSH32 0x118CDAA700000000000000000000000000000000000000000000000000000000 DUP2 MSTORE CALLER PUSH1 0x4 DUP3 ADD MSTORE REVERT JUMPDEST SWAP1 PUSH1 0x40 MLOAD PUSH1 0x60 DUP2 ADD DUP2 DUP2 LT PUSH8 0xFFFFFFFFFFFFFFFF DUP3 GT OR PUSH2 0x11B0 JUMPI PUSH1 0x40 MSTORE PUSH1 0x40 PUSH1 0x2 DUP3 SWAP5 PUSH1 0x1 PUSH1 0x1 PUSH1 0xA0 SHL SUB DUP2 SLOAD AND DUP5 MSTORE PUSH1 0x1 DUP2 ADD SLOAD PUSH1 0x20 DUP6 ADD MSTORE ADD SLOAD SWAP2 ADD MSTORE JUMP JUMPDEST ISZERO PUSH2 0x1BCB JUMPI JUMP JUMPDEST PUSH1 0x64 PUSH1 0x40 MLOAD PUSH3 0x461BCD PUSH1 0xE5 SHL DUP2 MSTORE PUSH1 0x20 PUSH1 0x4 DUP3 ADD MSTORE PUSH1 0x11 PUSH1 0x24 DUP3 ADD MSTORE PUSH32 0x52657175657374206E6F7420666F756E64000000000000000000000000000000 PUSH1 0x44 DUP3 ADD MSTORE REVERT JUMPDEST SWAP2 SWAP1 DUP3 ADD DUP1 SWAP3 GT PUSH2 0x19F7 JUMPI JUMP JUMPDEST PUSH1 0x0 NOT DUP2 EQ PUSH2 0x19F7 JUMPI PUSH1 0x1 ADD SWAP1 JUMP JUMPDEST SWAP1 SWAP4 SWAP3 SWAP2 PUSH1 0x1 PUSH1 0xFF SWAP2 PUSH8 0xFFFFFFFFFFFFFFFF PUSH1 0x80 DUP6 ADD SWAP8 AND DUP5 MSTORE DUP1 SLOAD PUSH1 0x20 DUP6 ADD MSTORE ADD SLOAD AND PUSH2 0x1C58 DUP2 PUSH2 0x75D JUMP JUMPDEST PUSH1 0x40 DUP3 ADD MSTORE PUSH1 0x3 DUP3 LT ISZERO PUSH2 0x767 JUMPI PUSH1 0x60 ADD MSTORE JUMP JUMPDEST PUSH32 0x995E99BB03FCA1F2CA0283C36EEE5C37717071261F5AEB6EFE7050167C2758FC PUSH2 0x1CB3 PUSH2 0x1CAE DUP4 PUSH8 0xFFFFFFFFFFFFFFFF AND PUSH1 0x0 MSTORE PUSH1 0x12 PUSH1 0x20 MSTORE PUSH1 0x40 PUSH1 0x0 KECCAK256 SWAP1 JUMP JUMPDEST PUSH2 0x1B82 JUMP JUMPDEST PUSH1 0x1 PUSH1 0x1 PUSH1 0xA0 SHL SUB SWAP1 PUSH2 0x1CD9 DUP3 PUSH2 0x1CD1 DUP4 MLOAD PUSH1 0x1 PUSH1 0x1 PUSH1 0xA0 SHL SUB AND SWAP1 JUMP JUMPDEST AND ISZERO ISZERO PUSH2 0x1BC4 JUMP JUMPDEST PUSH2 0x1DB7 PUSH1 0x20 DUP3 ADD SWAP2 PUSH2 0x2710 PUSH2 0x1CF9 DUP5 MLOAD PUSH1 0x0 MSTORE PUSH1 0x11 PUSH1 0x20 MSTORE PUSH1 0x40 PUSH1 0x0 KECCAK256 SWAP1 JUMP JUMPDEST SWAP8 MOD SWAP1 PUSH1 0xE SLOAD SWAP2 PUSH1 0xF SLOAD SWAP1 PUSH2 0x1D1A PUSH2 0x1D11 DUP4 DUP7 PUSH2 0x1C0F JUMP JUMPDEST PUSH1 0x10 SLOAD SWAP1 PUSH2 0x1C0F JUMP JUMPDEST SWAP2 PUSH1 0x0 SWAP5 DUP1 DUP4 LT PUSH1 0x0 EQ PUSH2 0x1DBC JUMPI POP POP POP POP SWAP1 POP PUSH2 0x1D38 DUP8 SLOAD PUSH2 0x1C1C JUMP JUMPDEST DUP8 SSTORE PUSH2 0x1DA6 PUSH1 0x0 SWAP2 JUMPDEST PUSH2 0x1D66 PUSH1 0x1 PUSH2 0x1D5B DUP8 MLOAD PUSH1 0x0 MSTORE PUSH1 0x13 PUSH1 0x20 MSTORE PUSH1 0x40 PUSH1 0x0 KECCAK256 SWAP1 JUMP JUMPDEST ADD DUP1 SLOAD PUSH1 0xFF NOT AND SWAP1 SSTORE JUMP JUMPDEST PUSH2 0x1D99 PUSH2 0x1D87 DUP10 PUSH8 0xFFFFFFFFFFFFFFFF AND PUSH1 0x0 MSTORE PUSH1 0x12 PUSH1 0x20 MSTORE PUSH1 0x40 PUSH1 0x0 KECCAK256 SWAP1 JUMP JUMPDEST PUSH1 0x2 PUSH1 0x0 SWAP2 DUP3 DUP2 SSTORE DUP3 PUSH1 0x1 DUP3 ADD SSTORE ADD SSTORE JUMP JUMPDEST MLOAD PUSH1 0x1 PUSH1 0x1 PUSH1 0xA0 SHL SUB AND SWAP1 JUMP JUMPDEST SWAP3 MLOAD SWAP7 PUSH1 0x40 MLOAD SWAP5 DUP6 SWAP5 AND SWAP7 DUP5 PUSH2 0x1C2B JUMP JUMPDEST SUB SWAP1 LOG3 JUMP JUMPDEST SWAP1 PUSH2 0x1DC6 SWAP2 PUSH2 0x1C0F JUMP JUMPDEST DUP2 LT ISZERO PUSH2 0x1DDC JUMPI POP POP SWAP1 POP PUSH2 0x1DA6 PUSH1 0x1 SWAP2 PUSH2 0x1D41 JUMP JUMPDEST LT PUSH2 0x1DEB JUMPI JUMPDEST PUSH2 0x1DA6 SWAP1 PUSH2 0x1D41 JUMP JUMPDEST SWAP1 POP PUSH2 0x1E01 PUSH1 0x1 DUP9 ADD PUSH1 0x1 PUSH1 0xFF NOT DUP3 SLOAD AND OR SWAP1 SSTORE JUMP JUMPDEST PUSH1 0x2 SWAP1 PUSH2 0x1DE2 JUMP JUMPDEST PUSH2 0x1E1A PUSH1 0x1 PUSH1 0x1 PUSH1 0xA0 SHL SUB SWAP2 PUSH2 0x1AC1 JUMP JUMPDEST AND CALLER SUB PUSH2 0x1E23 JUMPI JUMP JUMPDEST PUSH1 0x64 PUSH1 0x40 MLOAD PUSH3 0x461BCD PUSH1 0xE5 SHL DUP2 MSTORE PUSH1 0x20 PUSH1 0x4 DUP3 ADD MSTORE PUSH1 0x11 PUSH1 0x24 DUP3 ADD MSTORE PUSH32 0x5065726D697373696F6E2064656E696564000000000000000000000000000000 PUSH1 0x44 DUP3 ADD MSTORE REVERT JUMPDEST DUP1 PUSH1 0x0 MSTORE PUSH1 0x13 PUSH1 0x20 MSTORE PUSH1 0x1 PUSH1 0xFF DUP2 PUSH1 0x40 PUSH1 0x0 KECCAK256 ADD SLOAD AND PUSH2 0x1E86 DUP2 PUSH2 0x75D JUMP JUMPDEST SUB PUSH2 0x1EF8 JUMPI PUSH2 0x1E9F SWAP1 PUSH1 0x0 MSTORE PUSH1 0x13 PUSH1 0x20 MSTORE PUSH1 0x40 PUSH1 0x0 KECCAK256 SWAP1 JUMP JUMPDEST SLOAD PUSH2 0x258 DUP2 ADD DUP1 SWAP2 GT PUSH2 0x19F7 JUMPI TIMESTAMP LT PUSH2 0x1EB4 JUMPI JUMP JUMPDEST PUSH1 0x64 PUSH1 0x40 MLOAD PUSH3 0x461BCD PUSH1 0xE5 SHL DUP2 MSTORE PUSH1 0x20 PUSH1 0x4 DUP3 ADD MSTORE PUSH1 0x17 PUSH1 0x24 DUP3 ADD MSTORE PUSH32 0x4C6F636B20706572696F64206E6F742065787069726564000000000000000000 PUSH1 0x44 DUP3 ADD MSTORE REVERT JUMPDEST PUSH1 0x64 PUSH1 0x40 MLOAD PUSH3 0x461BCD PUSH1 0xE5 SHL DUP2 MSTORE PUSH1 0x20 PUSH1 0x4 DUP3 ADD MSTORE PUSH1 0xA PUSH1 0x24 DUP3 ADD MSTORE PUSH32 0x4E6F74206C6F636B656400000000000000000000000000000000000000000000 PUSH1 0x44 DUP3 ADD MSTORE REVERT JUMPDEST PUSH2 0x1F44 PUSH2 0x18EE JUMP JUMPDEST POP PUSH1 0x0 MSTORE PUSH1 0x4 PUSH1 0x20 MSTORE PUSH1 0x40 PUSH1 0x0 KECCAK256 SLOAD PUSH2 0x1F5B PUSH2 0x18EE JUMP JUMPDEST SWAP1 PUSH1 0x1 PUSH1 0x1 PUSH1 0xA0 SHL SUB DUP2 AND DUP3 MSTORE PUSH8 0xFFFFFFFFFFFFFFFF DUP2 PUSH1 0xA0 SHR AND PUSH1 0x20 DUP4 ADD MSTORE PUSH1 0x1 PUSH1 0xE0 SHL DUP2 AND ISZERO ISZERO PUSH1 0x40 DUP4 ADD MSTORE PUSH1 0xE8 SHR PUSH1 0x60 DUP3 ADD MSTORE SWAP1 JUMP JUMPDEST SWAP1 DUP2 PUSH1 0x20 SWAP2 SUB SLT PUSH2 0x206 JUMPI MLOAD PUSH2 0x32E DUP2 PUSH2 0x1DC JUMP JUMPDEST PUSH2 0x32E SWAP4 SWAP3 PUSH1 0x1 PUSH1 0x1 PUSH1 0xA0 SHL SUB PUSH1 0x80 SWAP4 AND DUP3 MSTORE PUSH1 0x0 PUSH1 0x20 DUP4 ADD MSTORE PUSH1 0x40 DUP3 ADD MSTORE DUP2 PUSH1 0x60 DUP3 ADD MSTORE ADD SWAP1 PUSH2 0x2DD JUMP JUMPDEST SWAP1 SWAP3 PUSH2 0x32E SWAP5 SWAP4 PUSH1 0x80 SWAP4 PUSH1 0x1 PUSH1 0x1 PUSH1 0xA0 SHL SUB DUP1 SWAP3 AND DUP5 MSTORE AND PUSH1 0x20 DUP4 ADD MSTORE PUSH1 0x40 DUP3 ADD MSTORE DUP2 PUSH1 0x60 DUP3 ADD MSTORE ADD SWAP1 PUSH2 0x2DD JUMP JUMPDEST PUSH2 0x2035 PUSH1 0x20 SWAP2 PUSH1 0x1 PUSH1 0x1 PUSH1 0xA0 SHL SUB SWAP4 SWAP5 PUSH1 0x0 PUSH1 0x40 MLOAD SWAP6 DUP7 DUP1 SWAP6 DUP2 SWAP5 PUSH4 0xA85BD01 PUSH1 0xE1 SHL SWAP11 DUP12 DUP5 MSTORE CALLER PUSH1 0x4 DUP6 ADD PUSH2 0x1FA9 JUMP JUMPDEST SUB SWAP4 AND GAS CALL PUSH1 0x0 SWAP2 DUP2 PUSH2 0x2085 JUMPI JUMPDEST POP PUSH2 0x205F JUMPI PUSH2 0x2050 PUSH2 0x1644 JUMP JUMPDEST DUP1 MLOAD ISZERO PUSH2 0x1980 JUMPI DUP1 MLOAD SWAP1 PUSH1 0x20 ADD REVERT JUMPDEST PUSH32 0xFFFFFFFF00000000000000000000000000000000000000000000000000000000 AND EQ SWAP1 JUMP JUMPDEST PUSH2 0x20A8 SWAP2 SWAP3 POP PUSH1 0x20 RETURNDATASIZE PUSH1 0x20 GT PUSH2 0x20AF JUMPI JUMPDEST PUSH2 0x20A0 DUP2 DUP4 PUSH2 0x11B5 JUMP JUMPDEST DUP2 ADD SWAP1 PUSH2 0x1F94 JUMP JUMPDEST SWAP1 CODESIZE PUSH2 0x2043 JUMP JUMPDEST POP RETURNDATASIZE PUSH2 0x2096 JUMP JUMPDEST SWAP3 PUSH1 0x20 SWAP2 PUSH2 0x2035 SWAP4 PUSH1 0x0 PUSH1 0x1 PUSH1 0x1 PUSH1 0xA0 SHL SUB PUSH1 0x40 MLOAD DUP1 SWAP8 DUP2 SWAP7 DUP3 SWAP6 PUSH4 0xA85BD01 PUSH1 0xE1 SHL SWAP12 DUP13 DUP6 MSTORE CALLER PUSH1 0x4 DUP7 ADD PUSH2 0x1FD5 JUMP INVALID LOG2 PUSH5 0x6970667358 0x22 SLT KECCAK256 0xAD DIV PUSH28 0xE2A092DDFB111C0C621A66645694CBFE5DADD72157F499A13690797B SDIV PUSH5 0x736F6C6343 STOP ADDMOD XOR STOP CALLER "
        },
        "methodIdentifiers": {
          "_entropyCallback(uint64,address,bytes32)": "52a5f1f8",
          "approve(address,uint256)": "095ea7b3",
          "balanceOf(address)": "70a08231",
          "getApproved(uint256)": "081812fc",
          "getGrowFee()": "a1ce12f7",
          "grow(uint256,bytes32)": "5e244893",
          "isApprovedForAll(address,address)": "e985e9c5",
          "mint()": "1249c58b",
          "name()": "06fdde03",
          "nftInfo(uint256)": "1f8bc790",
          "nftLock(uint256)": "495d8151",
          "owner()": "8da5cb5b",
          "ownerOf(uint256)": "6352211e",
          "ownerUnlockFlower(uint256)": "845274f1",
          "pendingRandomRequests(uint64)": "4d33930c",
          "renounceOwnership()": "715018a6",
          "safeTransferFrom(address,address,uint256)": "42842e0e",
          "safeTransferFrom(address,address,uint256,bytes)": "b88d4fde",
          "setApprovalForAll(address,bool)": "a22cb465",
          "supportsInterface(bytes4)": "01ffc9a7",
          "symbol()": "95d89b41",
          "tokenURI(uint256)": "c87b56dd",
          "tokensOfOwner(address)": "8462151c",
          "totalSupply()": "18160ddd",
          "transferFrom(address,address,uint256)": "23b872dd",
          "transferOwnership(address)": "f2fde38b",
          "unlockFlower(uint256)": "c1a74c26",
          "withdraw(address)": "51cff8d9"
        }
      }
    }
  }
}