{
  "contracts/NFT.sol": {
    "NFT": {
      "abi": [
        {
          "inputs": [],
          "stateMutability": "nonpayable",
          "type": "constructor"
        },
        {
          "inputs": [],
          "name": "ApprovalCallerNotOwnerNorApproved",
          "type": "error"
        },
        {
          "inputs": [],
          "name": "ApprovalQueryForNonexistentToken",
          "type": "error"
        },
        {
          "inputs": [],
          "name": "BalanceQueryForZeroAddress",
          "type": "error"
        },
        {
          "inputs": [],
          "name": "MintERC2309QuantityExceedsLimit",
          "type": "error"
        },
        {
          "inputs": [],
          "name": "MintToZeroAddress",
          "type": "error"
        },
        {
          "inputs": [],
          "name": "MintZeroQuantity",
          "type": "error"
        },
        {
          "inputs": [],
          "name": "NotCompatibleWithSpotMints",
          "type": "error"
        },
        {
          "inputs": [
            {
              "internalType": "address",
              "name": "owner",
              "type": "address"
            }
          ],
          "name": "OwnableInvalidOwner",
          "type": "error"
        },
        {
          "inputs": [
            {
              "internalType": "address",
              "name": "account",
              "type": "address"
            }
          ],
          "name": "OwnableUnauthorizedAccount",
          "type": "error"
        },
        {
          "inputs": [],
          "name": "OwnerQueryForNonexistentToken",
          "type": "error"
        },
        {
          "inputs": [],
          "name": "OwnershipNotInitializedForExtraData",
          "type": "error"
        },
        {
          "inputs": [],
          "name": "ReentrancyGuardReentrantCall",
          "type": "error"
        },
        {
          "inputs": [],
          "name": "SequentialMintExceedsLimit",
          "type": "error"
        },
        {
          "inputs": [],
          "name": "SequentialUpToTooSmall",
          "type": "error"
        },
        {
          "inputs": [],
          "name": "SpotMintTokenIdTooSmall",
          "type": "error"
        },
        {
          "inputs": [],
          "name": "TokenAlreadyExists",
          "type": "error"
        },
        {
          "inputs": [],
          "name": "TransferCallerNotOwnerNorApproved",
          "type": "error"
        },
        {
          "inputs": [],
          "name": "TransferFromIncorrectOwner",
          "type": "error"
        },
        {
          "inputs": [],
          "name": "TransferToNonERC721ReceiverImplementer",
          "type": "error"
        },
        {
          "inputs": [],
          "name": "TransferToZeroAddress",
          "type": "error"
        },
        {
          "inputs": [],
          "name": "URIQueryForNonexistentToken",
          "type": "error"
        },
        {
          "anonymous": false,
          "inputs": [
            {
              "indexed": true,
              "internalType": "address",
              "name": "owner",
              "type": "address"
            },
            {
              "indexed": true,
              "internalType": "address",
              "name": "approved",
              "type": "address"
            },
            {
              "indexed": true,
              "internalType": "uint256",
              "name": "tokenId",
              "type": "uint256"
            }
          ],
          "name": "Approval",
          "type": "event"
        },
        {
          "anonymous": false,
          "inputs": [
            {
              "indexed": true,
              "internalType": "address",
              "name": "owner",
              "type": "address"
            },
            {
              "indexed": true,
              "internalType": "address",
              "name": "operator",
              "type": "address"
            },
            {
              "indexed": false,
              "internalType": "bool",
              "name": "approved",
              "type": "bool"
            }
          ],
          "name": "ApprovalForAll",
          "type": "event"
        },
        {
          "anonymous": false,
          "inputs": [
            {
              "indexed": true,
              "internalType": "uint256",
              "name": "fromTokenId",
              "type": "uint256"
            },
            {
              "indexed": false,
              "internalType": "uint256",
              "name": "toTokenId",
              "type": "uint256"
            },
            {
              "indexed": true,
              "internalType": "address",
              "name": "from",
              "type": "address"
            },
            {
              "indexed": true,
              "internalType": "address",
              "name": "to",
              "type": "address"
            }
          ],
          "name": "ConsecutiveTransfer",
          "type": "event"
        },
        {
          "anonymous": false,
          "inputs": [
            {
              "indexed": true,
              "internalType": "address",
              "name": "previousOwner",
              "type": "address"
            },
            {
              "indexed": true,
              "internalType": "address",
              "name": "newOwner",
              "type": "address"
            }
          ],
          "name": "OwnershipTransferred",
          "type": "event"
        },
        {
          "anonymous": false,
          "inputs": [
            {
              "indexed": true,
              "internalType": "address",
              "name": "from",
              "type": "address"
            },
            {
              "indexed": true,
              "internalType": "address",
              "name": "to",
              "type": "address"
            },
            {
              "indexed": true,
              "internalType": "uint256",
              "name": "tokenId",
              "type": "uint256"
            }
          ],
          "name": "Transfer",
          "type": "event"
        },
        {
          "inputs": [
            {
              "internalType": "address",
              "name": "to",
              "type": "address"
            },
            {
              "internalType": "uint256",
              "name": "tokenId",
              "type": "uint256"
            }
          ],
          "name": "approve",
          "outputs": [],
          "stateMutability": "payable",
          "type": "function"
        },
        {
          "inputs": [
            {
              "internalType": "address",
              "name": "owner",
              "type": "address"
            }
          ],
          "name": "balanceOf",
          "outputs": [
            {
              "internalType": "uint256",
              "name": "",
              "type": "uint256"
            }
          ],
          "stateMutability": "view",
          "type": "function"
        },
        {
          "inputs": [
            {
              "internalType": "uint256",
              "name": "tokenId",
              "type": "uint256"
            }
          ],
          "name": "getApproved",
          "outputs": [
            {
              "internalType": "address",
              "name": "",
              "type": "address"
            }
          ],
          "stateMutability": "view",
          "type": "function"
        },
        {
          "inputs": [
            {
              "internalType": "address",
              "name": "owner",
              "type": "address"
            },
            {
              "internalType": "address",
              "name": "operator",
              "type": "address"
            }
          ],
          "name": "isApprovedForAll",
          "outputs": [
            {
              "internalType": "bool",
              "name": "",
              "type": "bool"
            }
          ],
          "stateMutability": "view",
          "type": "function"
        },
        {
          "inputs": [],
          "name": "name",
          "outputs": [
            {
              "internalType": "string",
              "name": "",
              "type": "string"
            }
          ],
          "stateMutability": "view",
          "type": "function"
        },
        {
          "inputs": [],
          "name": "owner",
          "outputs": [
            {
              "internalType": "address",
              "name": "",
              "type": "address"
            }
          ],
          "stateMutability": "view",
          "type": "function"
        },
        {
          "inputs": [
            {
              "internalType": "uint256",
              "name": "tokenId",
              "type": "uint256"
            }
          ],
          "name": "ownerOf",
          "outputs": [
            {
              "internalType": "address",
              "name": "",
              "type": "address"
            }
          ],
          "stateMutability": "view",
          "type": "function"
        },
        {
          "inputs": [],
          "name": "renounceOwnership",
          "outputs": [],
          "stateMutability": "nonpayable",
          "type": "function"
        },
        {
          "inputs": [
            {
              "internalType": "address",
              "name": "from",
              "type": "address"
            },
            {
              "internalType": "address",
              "name": "to",
              "type": "address"
            },
            {
              "internalType": "uint256",
              "name": "tokenId",
              "type": "uint256"
            }
          ],
          "name": "safeTransferFrom",
          "outputs": [],
          "stateMutability": "payable",
          "type": "function"
        },
        {
          "inputs": [
            {
              "internalType": "address",
              "name": "from",
              "type": "address"
            },
            {
              "internalType": "address",
              "name": "to",
              "type": "address"
            },
            {
              "internalType": "uint256",
              "name": "tokenId",
              "type": "uint256"
            },
            {
              "internalType": "bytes",
              "name": "_data",
              "type": "bytes"
            }
          ],
          "name": "safeTransferFrom",
          "outputs": [],
          "stateMutability": "payable",
          "type": "function"
        },
        {
          "inputs": [
            {
              "internalType": "address",
              "name": "operator",
              "type": "address"
            },
            {
              "internalType": "bool",
              "name": "approved",
              "type": "bool"
            }
          ],
          "name": "setApprovalForAll",
          "outputs": [],
          "stateMutability": "nonpayable",
          "type": "function"
        },
        {
          "inputs": [
            {
              "internalType": "bytes4",
              "name": "interfaceId",
              "type": "bytes4"
            }
          ],
          "name": "supportsInterface",
          "outputs": [
            {
              "internalType": "bool",
              "name": "",
              "type": "bool"
            }
          ],
          "stateMutability": "view",
          "type": "function"
        },
        {
          "inputs": [],
          "name": "symbol",
          "outputs": [
            {
              "internalType": "string",
              "name": "",
              "type": "string"
            }
          ],
          "stateMutability": "view",
          "type": "function"
        },
        {
          "inputs": [
            {
              "internalType": "uint256",
              "name": "tokenId",
              "type": "uint256"
            }
          ],
          "name": "tokenURI",
          "outputs": [
            {
              "internalType": "string",
              "name": "",
              "type": "string"
            }
          ],
          "stateMutability": "view",
          "type": "function"
        },
        {
          "inputs": [
            {
              "internalType": "address",
              "name": "owner",
              "type": "address"
            }
          ],
          "name": "tokensOfOwner",
          "outputs": [
            {
              "internalType": "uint256[]",
              "name": "",
              "type": "uint256[]"
            }
          ],
          "stateMutability": "view",
          "type": "function"
        },
        {
          "inputs": [],
          "name": "totalSupply",
          "outputs": [
            {
              "internalType": "uint256",
              "name": "result",
              "type": "uint256"
            }
          ],
          "stateMutability": "view",
          "type": "function"
        },
        {
          "inputs": [
            {
              "internalType": "address",
              "name": "from",
              "type": "address"
            },
            {
              "internalType": "address",
              "name": "to",
              "type": "address"
            },
            {
              "internalType": "uint256",
              "name": "tokenId",
              "type": "uint256"
            }
          ],
          "name": "transferFrom",
          "outputs": [],
          "stateMutability": "payable",
          "type": "function"
        },
        {
          "inputs": [
            {
              "internalType": "address",
              "name": "newOwner",
              "type": "address"
            }
          ],
          "name": "transferOwnership",
          "outputs": [],
          "stateMutability": "nonpayable",
          "type": "function"
        },
        {
          "inputs": [
            {
              "internalType": "address",
              "name": "to",
              "type": "address"
            }
          ],
          "name": "withdraw",
          "outputs": [],
          "stateMutability": "nonpayable",
          "type": "function"
        }
      ],
      "evm": {
        "bytecode": {
          "linkReferences": {},
          "object": "608060405234620001955762000014620001b0565b60206213999d60ea1b60208301526200002c620001b0565b6213919560ea1b60208201528251929091906001600160401b0384116200018f5762000065846200005f600254620001d4565b62000211565b602091601f8511600114620000fe575092806200009f92620000a895600092620000f2575b50508160011b916000199060031b1c19161790565b600255620002c7565b600080553315620000d957620000be33620003b5565b620000c96001600a55565b60405161130f9081620003ff8239f35b604051631e4fbdf760e01b815260006004820152602490fd5b0151905038806200008a565b60026000529190601f1985167f405787fa12a823e0f2b7631cc41b3ba8828b3321ca811111fa75cd3aa3bb5ace936000905b82821062000176575050916001939186620000a89794106200015c575b505050811b01600255620002c7565b015160001960f88460031b161c191690553880806200014d565b8060018697829497870151815501960194019062000130565b6200019a565b600080fd5b634e487b7160e01b600052604160045260246000fd5b60408051919082016001600160401b038111838210176200018f5760405260038252565b90600182811c9216801562000206575b6020831014620001f057565b634e487b7160e01b600052602260045260246000fd5b91607f1691620001e4565b601f81116200021e575050565b60009060026000526020600020906020601f850160051c8301941062000261575b601f0160051c01915b8281106200025557505050565b81815560010162000248565b90925082906200023f565b601f811162000279575050565b60009060036000526020600020906020601f850160051c83019410620002bc575b601f0160051c01915b828110620002b057505050565b818155600101620002a3565b90925082906200029a565b80519091906001600160401b0381116200018f57620002f381620002ed600354620001d4565b6200026c565b602080601f83116001146200032d57508190620003289394600092620000f25750508160011b916000199060031b1c19161790565b600355565b6003600052601f198316949091907fc2575a0e9e593c00f959f8c92f12db2869c3395a3b0502d05e2516446f71f85b926000905b8782106200039c57505083600195961062000382575b505050811b01600355565b015160001960f88460031b161c1916905538808062000377565b8060018596829496860151815501950193019062000361565b600980546001600160a01b039283166001600160a01b0319821681179092559091167f8be0079c531659141344cd1fd0a4f28419497f9722a3daafe3b4186f6b6457e0600080a356fe6080604052600436101561001257600080fd5b60003560e01c806301ffc9a71461014757806306fdde0314610142578063081812fc1461013d578063095ea7b31461013857806318160ddd1461013357806323b872dd1461012e57806342842e0e1461012957806351cff8d9146101245780636352211e1461011f57806370a082311461011a578063715018a6146101155780638462151c146101105780638da5cb5b1461010b57806395d89b4114610106578063a22cb46514610101578063b88d4fde146100fc578063c87b56dd146100f7578063e985e9c5146100f25763f2fde38b146100ed57600080fd5b610bd1565b610b6f565b610aee565b610a6a565b61095e565b610898565b610871565b610792565b6106ed565b6106c2565b610693565b6105bd565b61059a565b610586565b61052e565b610449565b6103b0565b6102a1565b61017b565b7fffffffff0000000000000000000000000000000000000000000000000000000081160361017657565b600080fd5b346101765760203660031901126101765760207fffffffff000000000000000000000000000000000000000000000000000000006004356101bb8161014c565b167f01ffc9a7000000000000000000000000000000000000000000000000000000008114908115610223575b81156101f9575b506040519015158152f35b7f5b5e139f00000000000000000000000000000000000000000000000000000000915014386101ee565b7f80ac58cd00000000000000000000000000000000000000000000000000000000811491506101e7565b919082519283825260005b848110610279575050826000602080949584010152601f8019910116010190565b602081830181015184830182015201610258565b90602061029e92818152019061024d565b90565b34610176576000806003193601126103ad576040519080600254906001918060011c92600182169283156103a3575b60209260208610851461038f57858852602088019490811561036e5750600114610315575b6103118761030581890382610a2c565b6040519182918261028d565b0390f35b600260005294509192917f405787fa12a823e0f2b7631cc41b3ba8828b3321ca811111fa75cd3aa3bb5ace5b83861061035d57505050910190506103058261031138806102f5565b805485870152948201948101610341565b60ff191685525050505090151560051b0190506103058261031138806102f5565b602482634e487b7160e01b81526022600452fd5b93607f16936102d0565b80fd5b34610176576020366003190112610176576004356103cd81610fd8565b156103f357600052600660205260206001600160a01b0360406000205416604051908152f35b7fcf4700e40000000000000000000000000000000000000000000000000000000060005260046000fd5b600435906001600160a01b038216820361017657565b602435906001600160a01b038216820361017657565b60403660031901126101765761045d61041d565b6024356001600160a01b039182610473836110c2565b168033036104d2575b6000938385526006602052604085209216918273ffffffffffffffffffffffffffffffffffffffff198254161790557f8c5be1e5ebec7d5bd14f71427d1e84f3dd0314c0f7b2291e5b200ac8c7c3b9258480a480f35b80600052600760205260ff6104fe336040600020906001600160a01b0316600052602052604060002090565b541661047c577fcfb3b9420000000000000000000000000000000000000000000000000000000060005260046000fd5b346101765760003660031901126101765760206000546001549003604051908152f35b6060906003190112610176576001600160a01b0390600435828116810361017657916024359081168103610176579060443590565b61059861059236610551565b91610c7d565b005b6105986105a636610551565b90604051926105b484610a0b565b60008452610f7c565b34610176576020366003190112610176576105d661041d565b6105de61113f565b6002600a5414610669576002600a556001600160a01b03168015610625576106186000808080809547905af1610612610e35565b50610e65565b6106226001600a55565b80f35b606460405162461bcd60e51b815260206004820152600f60248201527f494e56414c49445f4144445245535300000000000000000000000000000000006044820152fd5b60046040517f3ee5aeb5000000000000000000000000000000000000000000000000000000008152fd5b346101765760203660031901126101765760206001600160a01b036106b96004356110c2565b16604051908152f35b346101765760203660031901126101765760206106e56106e061041d565b610eb0565b604051908152f35b34610176576000806003193601126103ad5761070761113f565b806001600160a01b0360095473ffffffffffffffffffffffffffffffffffffffff198116600955167f8be0079c531659141344cd1fd0a4f28419497f9722a3daafe3b4186f6b6457e08280a380f35b602090602060408183019282815285518094520193019160005b82811061077e575050505090565b835185529381019392810192600101610770565b34610176576020366003190112610176576107ab61041d565b6000806107b783610eb0565b916107c183610f04565b936040916107d26040519687610a2c565b848652601f196107e186610f04565b013660208801376107f0610f1c565b506001600160a01b0391821692845b86860361081457604051806103118a82610756565b61081d81611183565b8083015161086857516001600160a01b031684811661085f575b50600190858585161461084b575b016107ff565b80610859838901988b610f52565b52610845565b92506001610837565b50600190610845565b346101765760003660031901126101765760206001600160a01b0360095416604051908152f35b34610176576000806003193601126103ad576040519080600354906001918060011c9260018216928315610954575b60209260208610851461038f57858852602088019490811561036e57506001146108fb576103118761030581890382610a2c565b600360005294509192917fc2575a0e9e593c00f959f8c92f12db2869c3395a3b0502d05e2516446f71f85b5b83861061094357505050910190506103058261031138806102f5565b805485870152948201948101610927565b93607f16936108c7565b346101765760403660031901126101765761097761041d565b60243590811515809203610176576001600160a01b03903360005260076020526109b8816040600020906001600160a01b0316600052602052604060002090565b60ff1981541660ff851617905560405192835216907f17307eab39ab6107e8899845ad3d59bd9653f200f220920489ca2b5937696c3160203392a3005b634e487b7160e01b600052604160045260246000fd5b6020810190811067ffffffffffffffff821117610a2757604052565b6109f5565b90601f8019910116810190811067ffffffffffffffff821117610a2757604052565b67ffffffffffffffff8111610a2757601f01601f191660200190565b608036600319011261017657610a7e61041d565b610a86610433565b6064359167ffffffffffffffff8311610176573660238401121561017657826004013591610ab383610a4e565b92610ac16040519485610a2c565b80845236602482870101116101765760208160009260246105989801838801378501015260443591610f7c565b3461017657602036600319011261017657610b0a600435610fd8565b15610b45576000604051610b1d81610a0b565b52610311604051610b2d81610a0b565b6000815260405191829160208352602083019061024d565b7fa14c4b500000000000000000000000000000000000000000000000000000000060005260046000fd5b3461017657604036600319011261017657602060ff610bc5610b8f61041d565b6001600160a01b03610b9f610433565b9116600052600784526040600020906001600160a01b0316600052602052604060002090565b54166040519015158152f35b3461017657602036600319011261017657610bea61041d565b610bf261113f565b6001600160a01b03809116908115610c4c576009548273ffffffffffffffffffffffffffffffffffffffff19821617600955167f8be0079c531659141344cd1fd0a4f28419497f9722a3daafe3b4186f6b6457e0600080a3005b60246040517f1e4fbdf700000000000000000000000000000000000000000000000000000000815260006004820152fd5b919091610c89826110c2565b926001600160a01b03809216938483821603610e305760008481526006602052604090208054610ccc6001600160a01b03881633908114908314171590565b1590565b610de0575b610dd6575b50610cf4856001600160a01b03166000526005602052604060002090565b8054600019019055610d19826001600160a01b03166000526005602052604060002090565b805460010190556001600160a01b0382164260a01b17600160e11b17610d49856000526004602052604060002090565b55600160e11b811615610d8c575b501680927fddf252ad1be2c89b69c2b068fc378daa952ba7f163c4a11628f55a4df523b3ef600080a415610d8757565b611087565b60018401610da4816000526004602052604060002090565b5415610db1575b50610d57565b6000548114610dab57610dce906000526004602052604060002090565b553880610dab565b6000905538610cd6565b610e26610cc8610e1f33610e078b6001600160a01b03166000526007602052604060002090565b906001600160a01b0316600052602052604060002090565b5460ff1690565b15610cd15761105d565b611033565b3d15610e60573d90610e4682610a4e565b91610e546040519384610a2c565b82523d6000602084013e565b606090565b15610e6c57565b606460405162461bcd60e51b815260206004820152601160248201527f5749544844524157414c5f4641494c45440000000000000000000000000000006044820152fd5b6001600160a01b03168015610eda57600052600560205267ffffffffffffffff6040600020541690565b7f8f4eb6040000000000000000000000000000000000000000000000000000000060005260046000fd5b67ffffffffffffffff8111610a275760051b60200190565b604051906080820182811067ffffffffffffffff821117610a275760405260006060838281528260208201528260408201520152565b8051821015610f665760209160051b010190565b634e487b7160e01b600052603260045260246000fd5b929190610f8a828286610c7d565b803b610f97575b50505050565b610fa0936111f0565b15610fae5738808080610f91565b7fd1a57ed60000000000000000000000000000000000000000000000000000000060005260046000fd5b90600091600080548210610fea575050565b9192505b80825260048060205260408320548061102557508115611012575060001901610fee565b826011602492634e487b7160e01b835252fd5b600160e01b16159392505050565b7fa11481000000000000000000000000000000000000000000000000000000000060005260046000fd5b7f59c896be0000000000000000000000000000000000000000000000000000000060005260046000fd5b7fea553b340000000000000000000000000000000000000000000000000000000060005260046000fd5b636f96cda160e11b60005260046000fd5b6110d6816000526004602052604060002090565b549081156110ed5750600160e01b81166110b15790565b90506000906000548110156110b1575b600019016000818152600460205260409020549081156111385750600160e01b81161561113357600482636f96cda160e11b8152fd5b905090565b90506110fd565b6001600160a01b0360095416330361115357565b60246040517f118cdaa7000000000000000000000000000000000000000000000000000000008152336004820152fd5b61118b610f1c565b5060005260046020526040600020546111a2610f1c565b906001600160a01b038116825267ffffffffffffffff8160a01c166020830152600160e01b81161515604083015260e81c606082015290565b90816020910312610176575161029e8161014c565b926020916112539360006001600160a01b03604051809781968295847f150b7a02000000000000000000000000000000000000000000000000000000009c8d8652336004870152166024850152604484015260806064840152608483019061024d565b0393165af1600091816112a8575b506112825761126e610e35565b80511561127d57805190602001fd5b610fae565b7fffffffff00000000000000000000000000000000000000000000000000000000161490565b6112cb91925060203d6020116112d2575b6112c38183610a2c565b8101906111db565b9038611261565b503d6112b956fea2646970667358221220651fac2f621da9b216242c0f54c66eeba21b906c55de678e346d6f1b9c29055364736f6c63430008180033",
          "opcodes": "PUSH1 0x80 PUSH1 0x40 MSTORE CALLVALUE PUSH3 0x195 JUMPI PUSH3 0x14 PUSH3 0x1B0 JUMP JUMPDEST PUSH1 0x20 PUSH3 0x13999D PUSH1 0xEA SHL PUSH1 0x20 DUP4 ADD MSTORE PUSH3 0x2C PUSH3 0x1B0 JUMP JUMPDEST PUSH3 0x139195 PUSH1 0xEA SHL PUSH1 0x20 DUP3 ADD MSTORE DUP3 MLOAD SWAP3 SWAP1 SWAP2 SWAP1 PUSH1 0x1 PUSH1 0x1 PUSH1 0x40 SHL SUB DUP5 GT PUSH3 0x18F JUMPI PUSH3 0x65 DUP5 PUSH3 0x5F PUSH1 0x2 SLOAD PUSH3 0x1D4 JUMP JUMPDEST PUSH3 0x211 JUMP JUMPDEST PUSH1 0x20 SWAP2 PUSH1 0x1F DUP6 GT PUSH1 0x1 EQ PUSH3 0xFE JUMPI POP SWAP3 DUP1 PUSH3 0x9F SWAP3 PUSH3 0xA8 SWAP6 PUSH1 0x0 SWAP3 PUSH3 0xF2 JUMPI JUMPDEST POP POP DUP2 PUSH1 0x1 SHL SWAP2 PUSH1 0x0 NOT SWAP1 PUSH1 0x3 SHL SHR NOT AND OR SWAP1 JUMP JUMPDEST PUSH1 0x2 SSTORE PUSH3 0x2C7 JUMP JUMPDEST PUSH1 0x0 DUP1 SSTORE CALLER ISZERO PUSH3 0xD9 JUMPI PUSH3 0xBE CALLER PUSH3 0x3B5 JUMP JUMPDEST PUSH3 0xC9 PUSH1 0x1 PUSH1 0xA SSTORE JUMP JUMPDEST PUSH1 0x40 MLOAD PUSH2 0x130F SWAP1 DUP2 PUSH3 0x3FF DUP3 CODECOPY RETURN JUMPDEST PUSH1 0x40 MLOAD PUSH4 0x1E4FBDF7 PUSH1 0xE0 SHL DUP2 MSTORE PUSH1 0x0 PUSH1 0x4 DUP3 ADD MSTORE PUSH1 0x24 SWAP1 REVERT JUMPDEST ADD MLOAD SWAP1 POP CODESIZE DUP1 PUSH3 0x8A JUMP JUMPDEST PUSH1 0x2 PUSH1 0x0 MSTORE SWAP2 SWAP1 PUSH1 0x1F NOT DUP6 AND PUSH32 0x405787FA12A823E0F2B7631CC41B3BA8828B3321CA811111FA75CD3AA3BB5ACE SWAP4 PUSH1 0x0 SWAP1 JUMPDEST DUP3 DUP3 LT PUSH3 0x176 JUMPI POP POP SWAP2 PUSH1 0x1 SWAP4 SWAP2 DUP7 PUSH3 0xA8 SWAP8 SWAP5 LT PUSH3 0x15C JUMPI JUMPDEST POP POP POP DUP2 SHL ADD PUSH1 0x2 SSTORE PUSH3 0x2C7 JUMP JUMPDEST ADD MLOAD PUSH1 0x0 NOT PUSH1 0xF8 DUP5 PUSH1 0x3 SHL AND SHR NOT AND SWAP1 SSTORE CODESIZE DUP1 DUP1 PUSH3 0x14D JUMP JUMPDEST DUP1 PUSH1 0x1 DUP7 SWAP8 DUP3 SWAP5 SWAP8 DUP8 ADD MLOAD DUP2 SSTORE ADD SWAP7 ADD SWAP5 ADD SWAP1 PUSH3 0x130 JUMP JUMPDEST PUSH3 0x19A JUMP JUMPDEST PUSH1 0x0 DUP1 REVERT JUMPDEST PUSH4 0x4E487B71 PUSH1 0xE0 SHL PUSH1 0x0 MSTORE PUSH1 0x41 PUSH1 0x4 MSTORE PUSH1 0x24 PUSH1 0x0 REVERT JUMPDEST PUSH1 0x40 DUP1 MLOAD SWAP2 SWAP1 DUP3 ADD PUSH1 0x1 PUSH1 0x1 PUSH1 0x40 SHL SUB DUP2 GT DUP4 DUP3 LT OR PUSH3 0x18F JUMPI PUSH1 0x40 MSTORE PUSH1 0x3 DUP3 MSTORE JUMP JUMPDEST SWAP1 PUSH1 0x1 DUP3 DUP2 SHR SWAP3 AND DUP1 ISZERO PUSH3 0x206 JUMPI JUMPDEST PUSH1 0x20 DUP4 LT EQ PUSH3 0x1F0 JUMPI JUMP JUMPDEST PUSH4 0x4E487B71 PUSH1 0xE0 SHL PUSH1 0x0 MSTORE PUSH1 0x22 PUSH1 0x4 MSTORE PUSH1 0x24 PUSH1 0x0 REVERT JUMPDEST SWAP2 PUSH1 0x7F AND SWAP2 PUSH3 0x1E4 JUMP JUMPDEST PUSH1 0x1F DUP2 GT PUSH3 0x21E JUMPI POP POP JUMP JUMPDEST PUSH1 0x0 SWAP1 PUSH1 0x2 PUSH1 0x0 MSTORE PUSH1 0x20 PUSH1 0x0 KECCAK256 SWAP1 PUSH1 0x20 PUSH1 0x1F DUP6 ADD PUSH1 0x5 SHR DUP4 ADD SWAP5 LT PUSH3 0x261 JUMPI JUMPDEST PUSH1 0x1F ADD PUSH1 0x5 SHR ADD SWAP2 JUMPDEST DUP3 DUP2 LT PUSH3 0x255 JUMPI POP POP POP JUMP JUMPDEST DUP2 DUP2 SSTORE PUSH1 0x1 ADD PUSH3 0x248 JUMP JUMPDEST SWAP1 SWAP3 POP DUP3 SWAP1 PUSH3 0x23F JUMP JUMPDEST PUSH1 0x1F DUP2 GT PUSH3 0x279 JUMPI POP POP JUMP JUMPDEST PUSH1 0x0 SWAP1 PUSH1 0x3 PUSH1 0x0 MSTORE PUSH1 0x20 PUSH1 0x0 KECCAK256 SWAP1 PUSH1 0x20 PUSH1 0x1F DUP6 ADD PUSH1 0x5 SHR DUP4 ADD SWAP5 LT PUSH3 0x2BC JUMPI JUMPDEST PUSH1 0x1F ADD PUSH1 0x5 SHR ADD SWAP2 JUMPDEST DUP3 DUP2 LT PUSH3 0x2B0 JUMPI POP POP POP JUMP JUMPDEST DUP2 DUP2 SSTORE PUSH1 0x1 ADD PUSH3 0x2A3 JUMP JUMPDEST SWAP1 SWAP3 POP DUP3 SWAP1 PUSH3 0x29A JUMP JUMPDEST DUP1 MLOAD SWAP1 SWAP2 SWAP1 PUSH1 0x1 PUSH1 0x1 PUSH1 0x40 SHL SUB DUP2 GT PUSH3 0x18F JUMPI PUSH3 0x2F3 DUP2 PUSH3 0x2ED PUSH1 0x3 SLOAD PUSH3 0x1D4 JUMP JUMPDEST PUSH3 0x26C JUMP JUMPDEST PUSH1 0x20 DUP1 PUSH1 0x1F DUP4 GT PUSH1 0x1 EQ PUSH3 0x32D JUMPI POP DUP2 SWAP1 PUSH3 0x328 SWAP4 SWAP5 PUSH1 0x0 SWAP3 PUSH3 0xF2 JUMPI POP POP DUP2 PUSH1 0x1 SHL SWAP2 PUSH1 0x0 NOT SWAP1 PUSH1 0x3 SHL SHR NOT AND OR SWAP1 JUMP JUMPDEST PUSH1 0x3 SSTORE JUMP JUMPDEST PUSH1 0x3 PUSH1 0x0 MSTORE PUSH1 0x1F NOT DUP4 AND SWAP5 SWAP1 SWAP2 SWAP1 PUSH32 0xC2575A0E9E593C00F959F8C92F12DB2869C3395A3B0502D05E2516446F71F85B SWAP3 PUSH1 0x0 SWAP1 JUMPDEST DUP8 DUP3 LT PUSH3 0x39C JUMPI POP POP DUP4 PUSH1 0x1 SWAP6 SWAP7 LT PUSH3 0x382 JUMPI JUMPDEST POP POP POP DUP2 SHL ADD PUSH1 0x3 SSTORE JUMP JUMPDEST ADD MLOAD PUSH1 0x0 NOT PUSH1 0xF8 DUP5 PUSH1 0x3 SHL AND SHR NOT AND SWAP1 SSTORE CODESIZE DUP1 DUP1 PUSH3 0x377 JUMP JUMPDEST DUP1 PUSH1 0x1 DUP6 SWAP7 DUP3 SWAP5 SWAP7 DUP7 ADD MLOAD DUP2 SSTORE ADD SWAP6 ADD SWAP4 ADD SWAP1 PUSH3 0x361 JUMP JUMPDEST PUSH1 0x9 DUP1 SLOAD PUSH1 0x1 PUSH1 0x1 PUSH1 0xA0 SHL SUB SWAP3 DUP4 AND PUSH1 0x1 PUSH1 0x1 PUSH1 0xA0 SHL SUB NOT DUP3 AND DUP2 OR SWAP1 SWAP3 SSTORE SWAP1 SWAP2 AND PUSH32 0x8BE0079C531659141344CD1FD0A4F28419497F9722A3DAAFE3B4186F6B6457E0 PUSH1 0x0 DUP1 LOG3 JUMP INVALID PUSH1 0x80 PUSH1 0x40 MSTORE PUSH1 0x4 CALLDATASIZE LT ISZERO PUSH2 0x12 JUMPI PUSH1 0x0 DUP1 REVERT JUMPDEST PUSH1 0x0 CALLDATALOAD PUSH1 0xE0 SHR DUP1 PUSH4 0x1FFC9A7 EQ PUSH2 0x147 JUMPI DUP1 PUSH4 0x6FDDE03 EQ PUSH2 0x142 JUMPI DUP1 PUSH4 0x81812FC EQ PUSH2 0x13D JUMPI DUP1 PUSH4 0x95EA7B3 EQ PUSH2 0x138 JUMPI DUP1 PUSH4 0x18160DDD EQ PUSH2 0x133 JUMPI DUP1 PUSH4 0x23B872DD EQ PUSH2 0x12E JUMPI DUP1 PUSH4 0x42842E0E EQ PUSH2 0x129 JUMPI DUP1 PUSH4 0x51CFF8D9 EQ PUSH2 0x124 JUMPI DUP1 PUSH4 0x6352211E EQ PUSH2 0x11F JUMPI DUP1 PUSH4 0x70A08231 EQ PUSH2 0x11A JUMPI DUP1 PUSH4 0x715018A6 EQ PUSH2 0x115 JUMPI DUP1 PUSH4 0x8462151C EQ PUSH2 0x110 JUMPI DUP1 PUSH4 0x8DA5CB5B EQ PUSH2 0x10B JUMPI DUP1 PUSH4 0x95D89B41 EQ PUSH2 0x106 JUMPI DUP1 PUSH4 0xA22CB465 EQ PUSH2 0x101 JUMPI DUP1 PUSH4 0xB88D4FDE EQ PUSH2 0xFC JUMPI DUP1 PUSH4 0xC87B56DD EQ PUSH2 0xF7 JUMPI DUP1 PUSH4 0xE985E9C5 EQ PUSH2 0xF2 JUMPI PUSH4 0xF2FDE38B EQ PUSH2 0xED JUMPI PUSH1 0x0 DUP1 REVERT JUMPDEST PUSH2 0xBD1 JUMP JUMPDEST PUSH2 0xB6F JUMP JUMPDEST PUSH2 0xAEE JUMP JUMPDEST PUSH2 0xA6A JUMP JUMPDEST PUSH2 0x95E JUMP JUMPDEST PUSH2 0x898 JUMP JUMPDEST PUSH2 0x871 JUMP JUMPDEST PUSH2 0x792 JUMP JUMPDEST PUSH2 0x6ED JUMP JUMPDEST PUSH2 0x6C2 JUMP JUMPDEST PUSH2 0x693 JUMP JUMPDEST PUSH2 0x5BD JUMP JUMPDEST PUSH2 0x59A JUMP JUMPDEST PUSH2 0x586 JUMP JUMPDEST PUSH2 0x52E JUMP JUMPDEST PUSH2 0x449 JUMP JUMPDEST PUSH2 0x3B0 JUMP JUMPDEST PUSH2 0x2A1 JUMP JUMPDEST PUSH2 0x17B JUMP JUMPDEST PUSH32 0xFFFFFFFF00000000000000000000000000000000000000000000000000000000 DUP2 AND SUB PUSH2 0x176 JUMPI JUMP JUMPDEST PUSH1 0x0 DUP1 REVERT JUMPDEST CALLVALUE PUSH2 0x176 JUMPI PUSH1 0x20 CALLDATASIZE PUSH1 0x3 NOT ADD SLT PUSH2 0x176 JUMPI PUSH1 0x20 PUSH32 0xFFFFFFFF00000000000000000000000000000000000000000000000000000000 PUSH1 0x4 CALLDATALOAD PUSH2 0x1BB DUP2 PUSH2 0x14C JUMP JUMPDEST AND PUSH32 0x1FFC9A700000000000000000000000000000000000000000000000000000000 DUP2 EQ SWAP1 DUP2 ISZERO PUSH2 0x223 JUMPI JUMPDEST DUP2 ISZERO PUSH2 0x1F9 JUMPI JUMPDEST POP PUSH1 0x40 MLOAD SWAP1 ISZERO ISZERO DUP2 MSTORE RETURN JUMPDEST PUSH32 0x5B5E139F00000000000000000000000000000000000000000000000000000000 SWAP2 POP EQ CODESIZE PUSH2 0x1EE JUMP JUMPDEST PUSH32 0x80AC58CD00000000000000000000000000000000000000000000000000000000 DUP2 EQ SWAP2 POP PUSH2 0x1E7 JUMP JUMPDEST SWAP2 SWAP1 DUP3 MLOAD SWAP3 DUP4 DUP3 MSTORE PUSH1 0x0 JUMPDEST DUP5 DUP2 LT PUSH2 0x279 JUMPI POP POP DUP3 PUSH1 0x0 PUSH1 0x20 DUP1 SWAP5 SWAP6 DUP5 ADD ADD MSTORE PUSH1 0x1F DUP1 NOT SWAP2 ADD AND ADD ADD SWAP1 JUMP JUMPDEST PUSH1 0x20 DUP2 DUP4 ADD DUP2 ADD MLOAD DUP5 DUP4 ADD DUP3 ADD MSTORE ADD PUSH2 0x258 JUMP JUMPDEST SWAP1 PUSH1 0x20 PUSH2 0x29E SWAP3 DUP2 DUP2 MSTORE ADD SWAP1 PUSH2 0x24D JUMP JUMPDEST SWAP1 JUMP JUMPDEST CALLVALUE PUSH2 0x176 JUMPI PUSH1 0x0 DUP1 PUSH1 0x3 NOT CALLDATASIZE ADD SLT PUSH2 0x3AD JUMPI PUSH1 0x40 MLOAD SWAP1 DUP1 PUSH1 0x2 SLOAD SWAP1 PUSH1 0x1 SWAP2 DUP1 PUSH1 0x1 SHR SWAP3 PUSH1 0x1 DUP3 AND SWAP3 DUP4 ISZERO PUSH2 0x3A3 JUMPI JUMPDEST PUSH1 0x20 SWAP3 PUSH1 0x20 DUP7 LT DUP6 EQ PUSH2 0x38F JUMPI DUP6 DUP9 MSTORE PUSH1 0x20 DUP9 ADD SWAP5 SWAP1 DUP2 ISZERO PUSH2 0x36E JUMPI POP PUSH1 0x1 EQ PUSH2 0x315 JUMPI JUMPDEST PUSH2 0x311 DUP8 PUSH2 0x305 DUP2 DUP10 SUB DUP3 PUSH2 0xA2C JUMP JUMPDEST PUSH1 0x40 MLOAD SWAP2 DUP3 SWAP2 DUP3 PUSH2 0x28D JUMP JUMPDEST SUB SWAP1 RETURN JUMPDEST PUSH1 0x2 PUSH1 0x0 MSTORE SWAP5 POP SWAP2 SWAP3 SWAP2 PUSH32 0x405787FA12A823E0F2B7631CC41B3BA8828B3321CA811111FA75CD3AA3BB5ACE JUMPDEST DUP4 DUP7 LT PUSH2 0x35D JUMPI POP POP POP SWAP2 ADD SWAP1 POP PUSH2 0x305 DUP3 PUSH2 0x311 CODESIZE DUP1 PUSH2 0x2F5 JUMP JUMPDEST DUP1 SLOAD DUP6 DUP8 ADD MSTORE SWAP5 DUP3 ADD SWAP5 DUP2 ADD PUSH2 0x341 JUMP JUMPDEST PUSH1 0xFF NOT AND DUP6 MSTORE POP POP POP POP SWAP1 ISZERO ISZERO PUSH1 0x5 SHL ADD SWAP1 POP PUSH2 0x305 DUP3 PUSH2 0x311 CODESIZE DUP1 PUSH2 0x2F5 JUMP JUMPDEST PUSH1 0x24 DUP3 PUSH4 0x4E487B71 PUSH1 0xE0 SHL DUP2 MSTORE PUSH1 0x22 PUSH1 0x4 MSTORE REVERT JUMPDEST SWAP4 PUSH1 0x7F AND SWAP4 PUSH2 0x2D0 JUMP JUMPDEST DUP1 REVERT JUMPDEST CALLVALUE PUSH2 0x176 JUMPI PUSH1 0x20 CALLDATASIZE PUSH1 0x3 NOT ADD SLT PUSH2 0x176 JUMPI PUSH1 0x4 CALLDATALOAD PUSH2 0x3CD DUP2 PUSH2 0xFD8 JUMP JUMPDEST ISZERO PUSH2 0x3F3 JUMPI PUSH1 0x0 MSTORE PUSH1 0x6 PUSH1 0x20 MSTORE PUSH1 0x20 PUSH1 0x1 PUSH1 0x1 PUSH1 0xA0 SHL SUB PUSH1 0x40 PUSH1 0x0 KECCAK256 SLOAD AND PUSH1 0x40 MLOAD SWAP1 DUP2 MSTORE RETURN JUMPDEST PUSH32 0xCF4700E400000000000000000000000000000000000000000000000000000000 PUSH1 0x0 MSTORE PUSH1 0x4 PUSH1 0x0 REVERT JUMPDEST PUSH1 0x4 CALLDATALOAD SWAP1 PUSH1 0x1 PUSH1 0x1 PUSH1 0xA0 SHL SUB DUP3 AND DUP3 SUB PUSH2 0x176 JUMPI JUMP JUMPDEST PUSH1 0x24 CALLDATALOAD SWAP1 PUSH1 0x1 PUSH1 0x1 PUSH1 0xA0 SHL SUB DUP3 AND DUP3 SUB PUSH2 0x176 JUMPI JUMP JUMPDEST PUSH1 0x40 CALLDATASIZE PUSH1 0x3 NOT ADD SLT PUSH2 0x176 JUMPI PUSH2 0x45D PUSH2 0x41D JUMP JUMPDEST PUSH1 0x24 CALLDATALOAD PUSH1 0x1 PUSH1 0x1 PUSH1 0xA0 SHL SUB SWAP2 DUP3 PUSH2 0x473 DUP4 PUSH2 0x10C2 JUMP JUMPDEST AND DUP1 CALLER SUB PUSH2 0x4D2 JUMPI JUMPDEST PUSH1 0x0 SWAP4 DUP4 DUP6 MSTORE PUSH1 0x6 PUSH1 0x20 MSTORE PUSH1 0x40 DUP6 KECCAK256 SWAP3 AND SWAP2 DUP3 PUSH20 0xFFFFFFFFFFFFFFFFFFFFFFFFFFFFFFFFFFFFFFFF NOT DUP3 SLOAD AND OR SWAP1 SSTORE PUSH32 0x8C5BE1E5EBEC7D5BD14F71427D1E84F3DD0314C0F7B2291E5B200AC8C7C3B925 DUP5 DUP1 LOG4 DUP1 RETURN JUMPDEST DUP1 PUSH1 0x0 MSTORE PUSH1 0x7 PUSH1 0x20 MSTORE PUSH1 0xFF PUSH2 0x4FE CALLER PUSH1 0x40 PUSH1 0x0 KECCAK256 SWAP1 PUSH1 0x1 PUSH1 0x1 PUSH1 0xA0 SHL SUB AND PUSH1 0x0 MSTORE PUSH1 0x20 MSTORE PUSH1 0x40 PUSH1 0x0 KECCAK256 SWAP1 JUMP JUMPDEST SLOAD AND PUSH2 0x47C JUMPI PUSH32 0xCFB3B94200000000000000000000000000000000000000000000000000000000 PUSH1 0x0 MSTORE PUSH1 0x4 PUSH1 0x0 REVERT JUMPDEST CALLVALUE PUSH2 0x176 JUMPI PUSH1 0x0 CALLDATASIZE PUSH1 0x3 NOT ADD SLT PUSH2 0x176 JUMPI PUSH1 0x20 PUSH1 0x0 SLOAD PUSH1 0x1 SLOAD SWAP1 SUB PUSH1 0x40 MLOAD SWAP1 DUP2 MSTORE RETURN JUMPDEST PUSH1 0x60 SWAP1 PUSH1 0x3 NOT ADD SLT PUSH2 0x176 JUMPI PUSH1 0x1 PUSH1 0x1 PUSH1 0xA0 SHL SUB SWAP1 PUSH1 0x4 CALLDATALOAD DUP3 DUP2 AND DUP2 SUB PUSH2 0x176 JUMPI SWAP2 PUSH1 0x24 CALLDATALOAD SWAP1 DUP2 AND DUP2 SUB PUSH2 0x176 JUMPI SWAP1 PUSH1 0x44 CALLDATALOAD SWAP1 JUMP JUMPDEST PUSH2 0x598 PUSH2 0x592 CALLDATASIZE PUSH2 0x551 JUMP JUMPDEST SWAP2 PUSH2 0xC7D JUMP JUMPDEST STOP JUMPDEST PUSH2 0x598 PUSH2 0x5A6 CALLDATASIZE PUSH2 0x551 JUMP JUMPDEST SWAP1 PUSH1 0x40 MLOAD SWAP3 PUSH2 0x5B4 DUP5 PUSH2 0xA0B JUMP JUMPDEST PUSH1 0x0 DUP5 MSTORE PUSH2 0xF7C JUMP JUMPDEST CALLVALUE PUSH2 0x176 JUMPI PUSH1 0x20 CALLDATASIZE PUSH1 0x3 NOT ADD SLT PUSH2 0x176 JUMPI PUSH2 0x5D6 PUSH2 0x41D JUMP JUMPDEST PUSH2 0x5DE PUSH2 0x113F JUMP JUMPDEST PUSH1 0x2 PUSH1 0xA SLOAD EQ PUSH2 0x669 JUMPI PUSH1 0x2 PUSH1 0xA SSTORE PUSH1 0x1 PUSH1 0x1 PUSH1 0xA0 SHL SUB AND DUP1 ISZERO PUSH2 0x625 JUMPI PUSH2 0x618 PUSH1 0x0 DUP1 DUP1 DUP1 DUP1 SWAP6 SELFBALANCE SWAP1 GAS CALL PUSH2 0x612 PUSH2 0xE35 JUMP JUMPDEST POP PUSH2 0xE65 JUMP JUMPDEST PUSH2 0x622 PUSH1 0x1 PUSH1 0xA SSTORE JUMP JUMPDEST DUP1 RETURN JUMPDEST PUSH1 0x64 PUSH1 0x40 MLOAD PUSH3 0x461BCD PUSH1 0xE5 SHL DUP2 MSTORE PUSH1 0x20 PUSH1 0x4 DUP3 ADD MSTORE PUSH1 0xF PUSH1 0x24 DUP3 ADD MSTORE PUSH32 0x494E56414C49445F414444524553530000000000000000000000000000000000 PUSH1 0x44 DUP3 ADD MSTORE REVERT JUMPDEST PUSH1 0x4 PUSH1 0x40 MLOAD PUSH32 0x3EE5AEB500000000000000000000000000000000000000000000000000000000 DUP2 MSTORE REVERT JUMPDEST CALLVALUE PUSH2 0x176 JUMPI PUSH1 0x20 CALLDATASIZE PUSH1 0x3 NOT ADD SLT PUSH2 0x176 JUMPI PUSH1 0x20 PUSH1 0x1 PUSH1 0x1 PUSH1 0xA0 SHL SUB PUSH2 0x6B9 PUSH1 0x4 CALLDATALOAD PUSH2 0x10C2 JUMP JUMPDEST AND PUSH1 0x40 MLOAD SWAP1 DUP2 MSTORE RETURN JUMPDEST CALLVALUE PUSH2 0x176 JUMPI PUSH1 0x20 CALLDATASIZE PUSH1 0x3 NOT ADD SLT PUSH2 0x176 JUMPI PUSH1 0x20 PUSH2 0x6E5 PUSH2 0x6E0 PUSH2 0x41D JUMP JUMPDEST PUSH2 0xEB0 JUMP JUMPDEST PUSH1 0x40 MLOAD SWAP1 DUP2 MSTORE RETURN JUMPDEST CALLVALUE PUSH2 0x176 JUMPI PUSH1 0x0 DUP1 PUSH1 0x3 NOT CALLDATASIZE ADD SLT PUSH2 0x3AD JUMPI PUSH2 0x707 PUSH2 0x113F JUMP JUMPDEST DUP1 PUSH1 0x1 PUSH1 0x1 PUSH1 0xA0 SHL SUB PUSH1 0x9 SLOAD PUSH20 0xFFFFFFFFFFFFFFFFFFFFFFFFFFFFFFFFFFFFFFFF NOT DUP2 AND PUSH1 0x9 SSTORE AND PUSH32 0x8BE0079C531659141344CD1FD0A4F28419497F9722A3DAAFE3B4186F6B6457E0 DUP3 DUP1 LOG3 DUP1 RETURN JUMPDEST PUSH1 0x20 SWAP1 PUSH1 0x20 PUSH1 0x40 DUP2 DUP4 ADD SWAP3 DUP3 DUP2 MSTORE DUP6 MLOAD DUP1 SWAP5 MSTORE ADD SWAP4 ADD SWAP2 PUSH1 0x0 JUMPDEST DUP3 DUP2 LT PUSH2 0x77E JUMPI POP POP POP POP SWAP1 JUMP JUMPDEST DUP4 MLOAD DUP6 MSTORE SWAP4 DUP2 ADD SWAP4 SWAP3 DUP2 ADD SWAP3 PUSH1 0x1 ADD PUSH2 0x770 JUMP JUMPDEST CALLVALUE PUSH2 0x176 JUMPI PUSH1 0x20 CALLDATASIZE PUSH1 0x3 NOT ADD SLT PUSH2 0x176 JUMPI PUSH2 0x7AB PUSH2 0x41D JUMP JUMPDEST PUSH1 0x0 DUP1 PUSH2 0x7B7 DUP4 PUSH2 0xEB0 JUMP JUMPDEST SWAP2 PUSH2 0x7C1 DUP4 PUSH2 0xF04 JUMP JUMPDEST SWAP4 PUSH1 0x40 SWAP2 PUSH2 0x7D2 PUSH1 0x40 MLOAD SWAP7 DUP8 PUSH2 0xA2C JUMP JUMPDEST DUP5 DUP7 MSTORE PUSH1 0x1F NOT PUSH2 0x7E1 DUP7 PUSH2 0xF04 JUMP JUMPDEST ADD CALLDATASIZE PUSH1 0x20 DUP9 ADD CALLDATACOPY PUSH2 0x7F0 PUSH2 0xF1C JUMP JUMPDEST POP PUSH1 0x1 PUSH1 0x1 PUSH1 0xA0 SHL SUB SWAP2 DUP3 AND SWAP3 DUP5 JUMPDEST DUP7 DUP7 SUB PUSH2 0x814 JUMPI PUSH1 0x40 MLOAD DUP1 PUSH2 0x311 DUP11 DUP3 PUSH2 0x756 JUMP JUMPDEST PUSH2 0x81D DUP2 PUSH2 0x1183 JUMP JUMPDEST DUP1 DUP4 ADD MLOAD PUSH2 0x868 JUMPI MLOAD PUSH1 0x1 PUSH1 0x1 PUSH1 0xA0 SHL SUB AND DUP5 DUP2 AND PUSH2 0x85F JUMPI JUMPDEST POP PUSH1 0x1 SWAP1 DUP6 DUP6 DUP6 AND EQ PUSH2 0x84B JUMPI JUMPDEST ADD PUSH2 0x7FF JUMP JUMPDEST DUP1 PUSH2 0x859 DUP4 DUP10 ADD SWAP9 DUP12 PUSH2 0xF52 JUMP JUMPDEST MSTORE PUSH2 0x845 JUMP JUMPDEST SWAP3 POP PUSH1 0x1 PUSH2 0x837 JUMP JUMPDEST POP PUSH1 0x1 SWAP1 PUSH2 0x845 JUMP JUMPDEST CALLVALUE PUSH2 0x176 JUMPI PUSH1 0x0 CALLDATASIZE PUSH1 0x3 NOT ADD SLT PUSH2 0x176 JUMPI PUSH1 0x20 PUSH1 0x1 PUSH1 0x1 PUSH1 0xA0 SHL SUB PUSH1 0x9 SLOAD AND PUSH1 0x40 MLOAD SWAP1 DUP2 MSTORE RETURN JUMPDEST CALLVALUE PUSH2 0x176 JUMPI PUSH1 0x0 DUP1 PUSH1 0x3 NOT CALLDATASIZE ADD SLT PUSH2 0x3AD JUMPI PUSH1 0x40 MLOAD SWAP1 DUP1 PUSH1 0x3 SLOAD SWAP1 PUSH1 0x1 SWAP2 DUP1 PUSH1 0x1 SHR SWAP3 PUSH1 0x1 DUP3 AND SWAP3 DUP4 ISZERO PUSH2 0x954 JUMPI JUMPDEST PUSH1 0x20 SWAP3 PUSH1 0x20 DUP7 LT DUP6 EQ PUSH2 0x38F JUMPI DUP6 DUP9 MSTORE PUSH1 0x20 DUP9 ADD SWAP5 SWAP1 DUP2 ISZERO PUSH2 0x36E JUMPI POP PUSH1 0x1 EQ PUSH2 0x8FB JUMPI PUSH2 0x311 DUP8 PUSH2 0x305 DUP2 DUP10 SUB DUP3 PUSH2 0xA2C JUMP JUMPDEST PUSH1 0x3 PUSH1 0x0 MSTORE SWAP5 POP SWAP2 SWAP3 SWAP2 PUSH32 0xC2575A0E9E593C00F959F8C92F12DB2869C3395A3B0502D05E2516446F71F85B JUMPDEST DUP4 DUP7 LT PUSH2 0x943 JUMPI POP POP POP SWAP2 ADD SWAP1 POP PUSH2 0x305 DUP3 PUSH2 0x311 CODESIZE DUP1 PUSH2 0x2F5 JUMP JUMPDEST DUP1 SLOAD DUP6 DUP8 ADD MSTORE SWAP5 DUP3 ADD SWAP5 DUP2 ADD PUSH2 0x927 JUMP JUMPDEST SWAP4 PUSH1 0x7F AND SWAP4 PUSH2 0x8C7 JUMP JUMPDEST CALLVALUE PUSH2 0x176 JUMPI PUSH1 0x40 CALLDATASIZE PUSH1 0x3 NOT ADD SLT PUSH2 0x176 JUMPI PUSH2 0x977 PUSH2 0x41D JUMP JUMPDEST PUSH1 0x24 CALLDATALOAD SWAP1 DUP2 ISZERO ISZERO DUP1 SWAP3 SUB PUSH2 0x176 JUMPI PUSH1 0x1 PUSH1 0x1 PUSH1 0xA0 SHL SUB SWAP1 CALLER PUSH1 0x0 MSTORE PUSH1 0x7 PUSH1 0x20 MSTORE PUSH2 0x9B8 DUP2 PUSH1 0x40 PUSH1 0x0 KECCAK256 SWAP1 PUSH1 0x1 PUSH1 0x1 PUSH1 0xA0 SHL SUB AND PUSH1 0x0 MSTORE PUSH1 0x20 MSTORE PUSH1 0x40 PUSH1 0x0 KECCAK256 SWAP1 JUMP JUMPDEST PUSH1 0xFF NOT DUP2 SLOAD AND PUSH1 0xFF DUP6 AND OR SWAP1 SSTORE PUSH1 0x40 MLOAD SWAP3 DUP4 MSTORE AND SWAP1 PUSH32 0x17307EAB39AB6107E8899845AD3D59BD9653F200F220920489CA2B5937696C31 PUSH1 0x20 CALLER SWAP3 LOG3 STOP JUMPDEST PUSH4 0x4E487B71 PUSH1 0xE0 SHL PUSH1 0x0 MSTORE PUSH1 0x41 PUSH1 0x4 MSTORE PUSH1 0x24 PUSH1 0x0 REVERT JUMPDEST PUSH1 0x20 DUP2 ADD SWAP1 DUP2 LT PUSH8 0xFFFFFFFFFFFFFFFF DUP3 GT OR PUSH2 0xA27 JUMPI PUSH1 0x40 MSTORE JUMP JUMPDEST PUSH2 0x9F5 JUMP JUMPDEST SWAP1 PUSH1 0x1F DUP1 NOT SWAP2 ADD AND DUP2 ADD SWAP1 DUP2 LT PUSH8 0xFFFFFFFFFFFFFFFF DUP3 GT OR PUSH2 0xA27 JUMPI PUSH1 0x40 MSTORE JUMP JUMPDEST PUSH8 0xFFFFFFFFFFFFFFFF DUP2 GT PUSH2 0xA27 JUMPI PUSH1 0x1F ADD PUSH1 0x1F NOT AND PUSH1 0x20 ADD SWAP1 JUMP JUMPDEST PUSH1 0x80 CALLDATASIZE PUSH1 0x3 NOT ADD SLT PUSH2 0x176 JUMPI PUSH2 0xA7E PUSH2 0x41D JUMP JUMPDEST PUSH2 0xA86 PUSH2 0x433 JUMP JUMPDEST PUSH1 0x64 CALLDATALOAD SWAP2 PUSH8 0xFFFFFFFFFFFFFFFF DUP4 GT PUSH2 0x176 JUMPI CALLDATASIZE PUSH1 0x23 DUP5 ADD SLT ISZERO PUSH2 0x176 JUMPI DUP3 PUSH1 0x4 ADD CALLDATALOAD SWAP2 PUSH2 0xAB3 DUP4 PUSH2 0xA4E JUMP JUMPDEST SWAP3 PUSH2 0xAC1 PUSH1 0x40 MLOAD SWAP5 DUP6 PUSH2 0xA2C JUMP JUMPDEST DUP1 DUP5 MSTORE CALLDATASIZE PUSH1 0x24 DUP3 DUP8 ADD ADD GT PUSH2 0x176 JUMPI PUSH1 0x20 DUP2 PUSH1 0x0 SWAP3 PUSH1 0x24 PUSH2 0x598 SWAP9 ADD DUP4 DUP9 ADD CALLDATACOPY DUP6 ADD ADD MSTORE PUSH1 0x44 CALLDATALOAD SWAP2 PUSH2 0xF7C JUMP JUMPDEST CALLVALUE PUSH2 0x176 JUMPI PUSH1 0x20 CALLDATASIZE PUSH1 0x3 NOT ADD SLT PUSH2 0x176 JUMPI PUSH2 0xB0A PUSH1 0x4 CALLDATALOAD PUSH2 0xFD8 JUMP JUMPDEST ISZERO PUSH2 0xB45 JUMPI PUSH1 0x0 PUSH1 0x40 MLOAD PUSH2 0xB1D DUP2 PUSH2 0xA0B JUMP JUMPDEST MSTORE PUSH2 0x311 PUSH1 0x40 MLOAD PUSH2 0xB2D DUP2 PUSH2 0xA0B JUMP JUMPDEST PUSH1 0x0 DUP2 MSTORE PUSH1 0x40 MLOAD SWAP2 DUP3 SWAP2 PUSH1 0x20 DUP4 MSTORE PUSH1 0x20 DUP4 ADD SWAP1 PUSH2 0x24D JUMP JUMPDEST PUSH32 0xA14C4B5000000000000000000000000000000000000000000000000000000000 PUSH1 0x0 MSTORE PUSH1 0x4 PUSH1 0x0 REVERT JUMPDEST CALLVALUE PUSH2 0x176 JUMPI PUSH1 0x40 CALLDATASIZE PUSH1 0x3 NOT ADD SLT PUSH2 0x176 JUMPI PUSH1 0x20 PUSH1 0xFF PUSH2 0xBC5 PUSH2 0xB8F PUSH2 0x41D JUMP JUMPDEST PUSH1 0x1 PUSH1 0x1 PUSH1 0xA0 SHL SUB PUSH2 0xB9F PUSH2 0x433 JUMP JUMPDEST SWAP2 AND PUSH1 0x0 MSTORE PUSH1 0x7 DUP5 MSTORE PUSH1 0x40 PUSH1 0x0 KECCAK256 SWAP1 PUSH1 0x1 PUSH1 0x1 PUSH1 0xA0 SHL SUB AND PUSH1 0x0 MSTORE PUSH1 0x20 MSTORE PUSH1 0x40 PUSH1 0x0 KECCAK256 SWAP1 JUMP JUMPDEST SLOAD AND PUSH1 0x40 MLOAD SWAP1 ISZERO ISZERO DUP2 MSTORE RETURN JUMPDEST CALLVALUE PUSH2 0x176 JUMPI PUSH1 0x20 CALLDATASIZE PUSH1 0x3 NOT ADD SLT PUSH2 0x176 JUMPI PUSH2 0xBEA PUSH2 0x41D JUMP JUMPDEST PUSH2 0xBF2 PUSH2 0x113F JUMP JUMPDEST PUSH1 0x1 PUSH1 0x1 PUSH1 0xA0 SHL SUB DUP1 SWAP2 AND SWAP1 DUP2 ISZERO PUSH2 0xC4C JUMPI PUSH1 0x9 SLOAD DUP3 PUSH20 0xFFFFFFFFFFFFFFFFFFFFFFFFFFFFFFFFFFFFFFFF NOT DUP3 AND OR PUSH1 0x9 SSTORE AND PUSH32 0x8BE0079C531659141344CD1FD0A4F28419497F9722A3DAAFE3B4186F6B6457E0 PUSH1 0x0 DUP1 LOG3 STOP JUMPDEST PUSH1 0x24 PUSH1 0x40 MLOAD PUSH32 0x1E4FBDF700000000000000000000000000000000000000000000000000000000 DUP2 MSTORE PUSH1 0x0 PUSH1 0x4 DUP3 ADD MSTORE REVERT JUMPDEST SWAP2 SWAP1 SWAP2 PUSH2 0xC89 DUP3 PUSH2 0x10C2 JUMP JUMPDEST SWAP3 PUSH1 0x1 PUSH1 0x1 PUSH1 0xA0 SHL SUB DUP1 SWAP3 AND SWAP4 DUP5 DUP4 DUP3 AND SUB PUSH2 0xE30 JUMPI PUSH1 0x0 DUP5 DUP2 MSTORE PUSH1 0x6 PUSH1 0x20 MSTORE PUSH1 0x40 SWAP1 KECCAK256 DUP1 SLOAD PUSH2 0xCCC PUSH1 0x1 PUSH1 0x1 PUSH1 0xA0 SHL SUB DUP9 AND CALLER SWAP1 DUP2 EQ SWAP1 DUP4 EQ OR ISZERO SWAP1 JUMP JUMPDEST ISZERO SWAP1 JUMP JUMPDEST PUSH2 0xDE0 JUMPI JUMPDEST PUSH2 0xDD6 JUMPI JUMPDEST POP PUSH2 0xCF4 DUP6 PUSH1 0x1 PUSH1 0x1 PUSH1 0xA0 SHL SUB AND PUSH1 0x0 MSTORE PUSH1 0x5 PUSH1 0x20 MSTORE PUSH1 0x40 PUSH1 0x0 KECCAK256 SWAP1 JUMP JUMPDEST DUP1 SLOAD PUSH1 0x0 NOT ADD SWAP1 SSTORE PUSH2 0xD19 DUP3 PUSH1 0x1 PUSH1 0x1 PUSH1 0xA0 SHL SUB AND PUSH1 0x0 MSTORE PUSH1 0x5 PUSH1 0x20 MSTORE PUSH1 0x40 PUSH1 0x0 KECCAK256 SWAP1 JUMP JUMPDEST DUP1 SLOAD PUSH1 0x1 ADD SWAP1 SSTORE PUSH1 0x1 PUSH1 0x1 PUSH1 0xA0 SHL SUB DUP3 AND TIMESTAMP PUSH1 0xA0 SHL OR PUSH1 0x1 PUSH1 0xE1 SHL OR PUSH2 0xD49 DUP6 PUSH1 0x0 MSTORE PUSH1 0x4 PUSH1 0x20 MSTORE PUSH1 0x40 PUSH1 0x0 KECCAK256 SWAP1 JUMP JUMPDEST SSTORE PUSH1 0x1 PUSH1 0xE1 SHL DUP2 AND ISZERO PUSH2 0xD8C JUMPI JUMPDEST POP AND DUP1 SWAP3 PUSH32 0xDDF252AD1BE2C89B69C2B068FC378DAA952BA7F163C4A11628F55A4DF523B3EF PUSH1 0x0 DUP1 LOG4 ISZERO PUSH2 0xD87 JUMPI JUMP JUMPDEST PUSH2 0x1087 JUMP JUMPDEST PUSH1 0x1 DUP5 ADD PUSH2 0xDA4 DUP2 PUSH1 0x0 MSTORE PUSH1 0x4 PUSH1 0x20 MSTORE PUSH1 0x40 PUSH1 0x0 KECCAK256 SWAP1 JUMP JUMPDEST SLOAD ISZERO PUSH2 0xDB1 JUMPI JUMPDEST POP PUSH2 0xD57 JUMP JUMPDEST PUSH1 0x0 SLOAD DUP2 EQ PUSH2 0xDAB JUMPI PUSH2 0xDCE SWAP1 PUSH1 0x0 MSTORE PUSH1 0x4 PUSH1 0x20 MSTORE PUSH1 0x40 PUSH1 0x0 KECCAK256 SWAP1 JUMP JUMPDEST SSTORE CODESIZE DUP1 PUSH2 0xDAB JUMP JUMPDEST PUSH1 0x0 SWAP1 SSTORE CODESIZE PUSH2 0xCD6 JUMP JUMPDEST PUSH2 0xE26 PUSH2 0xCC8 PUSH2 0xE1F CALLER PUSH2 0xE07 DUP12 PUSH1 0x1 PUSH1 0x1 PUSH1 0xA0 SHL SUB AND PUSH1 0x0 MSTORE PUSH1 0x7 PUSH1 0x20 MSTORE PUSH1 0x40 PUSH1 0x0 KECCAK256 SWAP1 JUMP JUMPDEST SWAP1 PUSH1 0x1 PUSH1 0x1 PUSH1 0xA0 SHL SUB AND PUSH1 0x0 MSTORE PUSH1 0x20 MSTORE PUSH1 0x40 PUSH1 0x0 KECCAK256 SWAP1 JUMP JUMPDEST SLOAD PUSH1 0xFF AND SWAP1 JUMP JUMPDEST ISZERO PUSH2 0xCD1 JUMPI PUSH2 0x105D JUMP JUMPDEST PUSH2 0x1033 JUMP JUMPDEST RETURNDATASIZE ISZERO PUSH2 0xE60 JUMPI RETURNDATASIZE SWAP1 PUSH2 0xE46 DUP3 PUSH2 0xA4E JUMP JUMPDEST SWAP2 PUSH2 0xE54 PUSH1 0x40 MLOAD SWAP4 DUP5 PUSH2 0xA2C JUMP JUMPDEST DUP3 MSTORE RETURNDATASIZE PUSH1 0x0 PUSH1 0x20 DUP5 ADD RETURNDATACOPY JUMP JUMPDEST PUSH1 0x60 SWAP1 JUMP JUMPDEST ISZERO PUSH2 0xE6C JUMPI JUMP JUMPDEST PUSH1 0x64 PUSH1 0x40 MLOAD PUSH3 0x461BCD PUSH1 0xE5 SHL DUP2 MSTORE PUSH1 0x20 PUSH1 0x4 DUP3 ADD MSTORE PUSH1 0x11 PUSH1 0x24 DUP3 ADD MSTORE PUSH32 0x5749544844524157414C5F4641494C4544000000000000000000000000000000 PUSH1 0x44 DUP3 ADD MSTORE REVERT JUMPDEST PUSH1 0x1 PUSH1 0x1 PUSH1 0xA0 SHL SUB AND DUP1 ISZERO PUSH2 0xEDA JUMPI PUSH1 0x0 MSTORE PUSH1 0x5 PUSH1 0x20 MSTORE PUSH8 0xFFFFFFFFFFFFFFFF PUSH1 0x40 PUSH1 0x0 KECCAK256 SLOAD AND SWAP1 JUMP JUMPDEST PUSH32 0x8F4EB60400000000000000000000000000000000000000000000000000000000 PUSH1 0x0 MSTORE PUSH1 0x4 PUSH1 0x0 REVERT JUMPDEST PUSH8 0xFFFFFFFFFFFFFFFF DUP2 GT PUSH2 0xA27 JUMPI PUSH1 0x5 SHL PUSH1 0x20 ADD SWAP1 JUMP JUMPDEST PUSH1 0x40 MLOAD SWAP1 PUSH1 0x80 DUP3 ADD DUP3 DUP2 LT PUSH8 0xFFFFFFFFFFFFFFFF DUP3 GT OR PUSH2 0xA27 JUMPI PUSH1 0x40 MSTORE PUSH1 0x0 PUSH1 0x60 DUP4 DUP3 DUP2 MSTORE DUP3 PUSH1 0x20 DUP3 ADD MSTORE DUP3 PUSH1 0x40 DUP3 ADD MSTORE ADD MSTORE JUMP JUMPDEST DUP1 MLOAD DUP3 LT ISZERO PUSH2 0xF66 JUMPI PUSH1 0x20 SWAP2 PUSH1 0x5 SHL ADD ADD SWAP1 JUMP JUMPDEST PUSH4 0x4E487B71 PUSH1 0xE0 SHL PUSH1 0x0 MSTORE PUSH1 0x32 PUSH1 0x4 MSTORE PUSH1 0x24 PUSH1 0x0 REVERT JUMPDEST SWAP3 SWAP2 SWAP1 PUSH2 0xF8A DUP3 DUP3 DUP7 PUSH2 0xC7D JUMP JUMPDEST DUP1 EXTCODESIZE PUSH2 0xF97 JUMPI JUMPDEST POP POP POP POP JUMP JUMPDEST PUSH2 0xFA0 SWAP4 PUSH2 0x11F0 JUMP JUMPDEST ISZERO PUSH2 0xFAE JUMPI CODESIZE DUP1 DUP1 DUP1 PUSH2 0xF91 JUMP JUMPDEST PUSH32 0xD1A57ED600000000000000000000000000000000000000000000000000000000 PUSH1 0x0 MSTORE PUSH1 0x4 PUSH1 0x0 REVERT JUMPDEST SWAP1 PUSH1 0x0 SWAP2 PUSH1 0x0 DUP1 SLOAD DUP3 LT PUSH2 0xFEA JUMPI POP POP JUMP JUMPDEST SWAP2 SWAP3 POP JUMPDEST DUP1 DUP3 MSTORE PUSH1 0x4 DUP1 PUSH1 0x20 MSTORE PUSH1 0x40 DUP4 KECCAK256 SLOAD DUP1 PUSH2 0x1025 JUMPI POP DUP2 ISZERO PUSH2 0x1012 JUMPI POP PUSH1 0x0 NOT ADD PUSH2 0xFEE JUMP JUMPDEST DUP3 PUSH1 0x11 PUSH1 0x24 SWAP3 PUSH4 0x4E487B71 PUSH1 0xE0 SHL DUP4 MSTORE MSTORE REVERT JUMPDEST PUSH1 0x1 PUSH1 0xE0 SHL AND ISZERO SWAP4 SWAP3 POP POP POP JUMP JUMPDEST PUSH32 0xA114810000000000000000000000000000000000000000000000000000000000 PUSH1 0x0 MSTORE PUSH1 0x4 PUSH1 0x0 REVERT JUMPDEST PUSH32 0x59C896BE00000000000000000000000000000000000000000000000000000000 PUSH1 0x0 MSTORE PUSH1 0x4 PUSH1 0x0 REVERT JUMPDEST PUSH32 0xEA553B3400000000000000000000000000000000000000000000000000000000 PUSH1 0x0 MSTORE PUSH1 0x4 PUSH1 0x0 REVERT JUMPDEST PUSH4 0x6F96CDA1 PUSH1 0xE1 SHL PUSH1 0x0 MSTORE PUSH1 0x4 PUSH1 0x0 REVERT JUMPDEST PUSH2 0x10D6 DUP2 PUSH1 0x0 MSTORE PUSH1 0x4 PUSH1 0x20 MSTORE PUSH1 0x40 PUSH1 0x0 KECCAK256 SWAP1 JUMP JUMPDEST SLOAD SWAP1 DUP2 ISZERO PUSH2 0x10ED JUMPI POP PUSH1 0x1 PUSH1 0xE0 SHL DUP2 AND PUSH2 0x10B1 JUMPI SWAP1 JUMP JUMPDEST SWAP1 POP PUSH1 0x0 SWAP1 PUSH1 0x0 SLOAD DUP2 LT ISZERO PUSH2 0x10B1 JUMPI JUMPDEST PUSH1 0x0 NOT ADD PUSH1 0x0 DUP2 DUP2 MSTORE PUSH1 0x4 PUSH1 0x20 MSTORE PUSH1 0x40 SWAP1 KECCAK256 SLOAD SWAP1 DUP2 ISZERO PUSH2 0x1138 JUMPI POP PUSH1 0x1 PUSH1 0xE0 SHL DUP2 AND ISZERO PUSH2 0x1133 JUMPI PUSH1 0x4 DUP3 PUSH4 0x6F96CDA1 PUSH1 0xE1 SHL DUP2 MSTORE REVERT JUMPDEST SWAP1 POP SWAP1 JUMP JUMPDEST SWAP1 POP PUSH2 0x10FD JUMP JUMPDEST PUSH1 0x1 PUSH1 0x1 PUSH1 0xA0 SHL SUB PUSH1 0x9 SLOAD AND CALLER SUB PUSH2 0x1153 JUMPI JUMP JUMPDEST PUSH1 0x24 PUSH1 0x40 MLOAD PUSH32 0x118CDAA700000000000000000000000000000000000000000000000000000000 DUP2 MSTORE CALLER PUSH1 0x4 DUP3 ADD MSTORE REVERT JUMPDEST PUSH2 0x118B PUSH2 0xF1C JUMP JUMPDEST POP PUSH1 0x0 MSTORE PUSH1 0x4 PUSH1 0x20 MSTORE PUSH1 0x40 PUSH1 0x0 KECCAK256 SLOAD PUSH2 0x11A2 PUSH2 0xF1C JUMP JUMPDEST SWAP1 PUSH1 0x1 PUSH1 0x1 PUSH1 0xA0 SHL SUB DUP2 AND DUP3 MSTORE PUSH8 0xFFFFFFFFFFFFFFFF DUP2 PUSH1 0xA0 SHR AND PUSH1 0x20 DUP4 ADD MSTORE PUSH1 0x1 PUSH1 0xE0 SHL DUP2 AND ISZERO ISZERO PUSH1 0x40 DUP4 ADD MSTORE PUSH1 0xE8 SHR PUSH1 0x60 DUP3 ADD MSTORE SWAP1 JUMP JUMPDEST SWAP1 DUP2 PUSH1 0x20 SWAP2 SUB SLT PUSH2 0x176 JUMPI MLOAD PUSH2 0x29E DUP2 PUSH2 0x14C JUMP JUMPDEST SWAP3 PUSH1 0x20 SWAP2 PUSH2 0x1253 SWAP4 PUSH1 0x0 PUSH1 0x1 PUSH1 0x1 PUSH1 0xA0 SHL SUB PUSH1 0x40 MLOAD DUP1 SWAP8 DUP2 SWAP7 DUP3 SWAP6 DUP5 PUSH32 0x150B7A0200000000000000000000000000000000000000000000000000000000 SWAP13 DUP14 DUP7 MSTORE CALLER PUSH1 0x4 DUP8 ADD MSTORE AND PUSH1 0x24 DUP6 ADD MSTORE PUSH1 0x44 DUP5 ADD MSTORE PUSH1 0x80 PUSH1 0x64 DUP5 ADD MSTORE PUSH1 0x84 DUP4 ADD SWAP1 PUSH2 0x24D JUMP JUMPDEST SUB SWAP4 AND GAS CALL PUSH1 0x0 SWAP2 DUP2 PUSH2 0x12A8 JUMPI JUMPDEST POP PUSH2 0x1282 JUMPI PUSH2 0x126E PUSH2 0xE35 JUMP JUMPDEST DUP1 MLOAD ISZERO PUSH2 0x127D JUMPI DUP1 MLOAD SWAP1 PUSH1 0x20 ADD REVERT JUMPDEST PUSH2 0xFAE JUMP JUMPDEST PUSH32 0xFFFFFFFF00000000000000000000000000000000000000000000000000000000 AND EQ SWAP1 JUMP JUMPDEST PUSH2 0x12CB SWAP2 SWAP3 POP PUSH1 0x20 RETURNDATASIZE PUSH1 0x20 GT PUSH2 0x12D2 JUMPI JUMPDEST PUSH2 0x12C3 DUP2 DUP4 PUSH2 0xA2C JUMP JUMPDEST DUP2 ADD SWAP1 PUSH2 0x11DB JUMP JUMPDEST SWAP1 CODESIZE PUSH2 0x1261 JUMP JUMPDEST POP RETURNDATASIZE PUSH2 0x12B9 JUMP INVALID LOG2 PUSH5 0x6970667358 0x22 SLT KECCAK256 PUSH6 0x1FAC2F621DA9 0xB2 AND 0x24 0x2C 0xF SLOAD 0xC6 PUSH15 0xEBA21B906C55DE678E346D6F1B9C29 SDIV MSTORE8 PUSH5 0x736F6C6343 STOP ADDMOD XOR STOP CALLER "
        },
        "methodIdentifiers": {
          "approve(address,uint256)": "095ea7b3",
          "balanceOf(address)": "70a08231",
          "getApproved(uint256)": "081812fc",
          "isApprovedForAll(address,address)": "e985e9c5",
          "name()": "06fdde03",
          "owner()": "8da5cb5b",
          "ownerOf(uint256)": "6352211e",
          "renounceOwnership()": "715018a6",
          "safeTransferFrom(address,address,uint256)": "42842e0e",
          "safeTransferFrom(address,address,uint256,bytes)": "b88d4fde",
          "setApprovalForAll(address,bool)": "a22cb465",
          "supportsInterface(bytes4)": "01ffc9a7",
          "symbol()": "95d89b41",
          "tokenURI(uint256)": "c87b56dd",
          "tokensOfOwner(address)": "8462151c",
          "totalSupply()": "18160ddd",
          "transferFrom(address,address,uint256)": "23b872dd",
          "transferOwnership(address)": "f2fde38b",
          "withdraw(address)": "51cff8d9"
        }
      }
    }
  }
}