{
  "_format": "hh-sol-artifact-1",
  "contractName": "CoinFlip",
  "sourceName": "contracts/CoinFlip.sol",
  "abi": [
    {
      "inputs": [
        {
          "internalType": "address",
          "name": "_entropy",
          "type": "address"
        },
        {
          "internalType": "address",
          "name": "_entropyProvider",
          "type": "address"
        }
      ],
      "stateMutability": "nonpayable",
      "type": "constructor"
    },
    {
      "inputs": [],
      "name": "InsufficientFee",
      "type": "error"
    },
    {
      "anonymous": false,
      "inputs": [
        {
          "indexed": false,
          "internalType": "uint64",
          "name": "sequenceNumber",
          "type": "uint64"
        },
        {
          "indexed": false,
          "internalType": "address",
          "name": "user",
          "type": "address"
        }
      ],
      "name": "RandomRequest",
      "type": "event"
    },
    {
      "anonymous": false,
      "inputs": [
        {
          "indexed": false,
          "internalType": "address",
          "name": "user",
          "type": "address"
        },
        {
          "indexed": false,
          "internalType": "bytes32",
          "name": "randomNumber",
          "type": "bytes32"
        },
        {
          "indexed": false,
          "internalType": "bool",
          "name": "isHeads",
          "type": "bool"
        }
      ],
      "name": "RandomResult",
      "type": "event"
    },
    {
      "inputs": [
        {
          "internalType": "uint64",
          "name": "sequence",
          "type": "uint64"
        },
        {
          "internalType": "address",
          "name": "provider",
          "type": "address"
        },
        {
          "internalType": "bytes32",
          "name": "randomNumber",
          "type": "bytes32"
        }
      ],
      "name": "_entropyCallback",
      "outputs": [],
      "stateMutability": "nonpayable",
      "type": "function"
    },
    {
      "inputs": [],
      "name": "getRequestFee",
      "outputs": [
        {
          "internalType": "uint256",
          "name": "",
          "type": "uint256"
        }
      ],
      "stateMutability": "view",
      "type": "function"
    },
    {
      "inputs": [
        {
          "internalType": "address",
          "name": "user",
          "type": "address"
        }
      ],
      "name": "getUserResult",
      "outputs": [
        {
          "internalType": "bytes32",
          "name": "randomNumber",
          "type": "bytes32"
        },
        {
          "internalType": "bool",
          "name": "isHeads",
          "type": "bool"
        },
        {
          "internalType": "uint256",
          "name": "timestamp",
          "type": "uint256"
        },
        {
          "internalType": "bool",
          "name": "exists",
          "type": "bool"
        }
      ],
      "stateMutability": "view",
      "type": "function"
    },
    {
      "inputs": [
        {
          "internalType": "address",
          "name": "user",
          "type": "address"
        }
      ],
      "name": "hasUserResult",
      "outputs": [
        {
          "internalType": "bool",
          "name": "",
          "type": "bool"
        }
      ],
      "stateMutability": "view",
      "type": "function"
    },
    {
      "inputs": [],
      "name": "requestRandom",
      "outputs": [
        {
          "internalType": "uint64",
          "name": "",
          "type": "uint64"
        }
      ],
      "stateMutability": "payable",
      "type": "function"
    },
    {
      "inputs": [
        {
          "internalType": "uint64",
          "name": "",
          "type": "uint64"
        }
      ],
      "name": "requestToUser",
      "outputs": [
        {
          "internalType": "address",
          "name": "",
          "type": "address"
        }
      ],
      "stateMutability": "view",
      "type": "function"
    },
    {
      "inputs": [
        {
          "internalType": "address",
          "name": "",
          "type": "address"
        }
      ],
      "name": "userLatestResult",
      "outputs": [
        {
          "internalType": "bytes32",
          "name": "randomNumber",
          "type": "bytes32"
        },
        {
          "internalType": "bool",
          "name": "isHeads",
          "type": "bool"
        },
        {
          "internalType": "uint256",
          "name": "timestamp",
          "type": "uint256"
        },
        {
          "internalType": "bool",
          "name": "exists",
          "type": "bool"
        }
      ],
      "stateMutability": "view",
      "type": "function"
    },
    {
      "stateMutability": "payable",
      "type": "receive"
    }
  ],
  "bytecode": "0x60803461008d57601f61077f38819003918201601f19168301916001600160401b0383118484101761009257808492604094855283398101031261008d57610052602061004b836100a8565b92016100a8565b600080546001600160a01b039384166001600160a01b031991821617909155600180549290931691161790556040516106c290816100bd8239f35b600080fd5b634e487b7160e01b600052604160045260246000fd5b51906001600160a01b038216820361008d5756fe608060409080825260049182361015610023575b505050361561002157600080fd5b005b600091823560e01c9081630d37b537146105655750806337e61d6f146102315780633bba000b1461052857806352a5f1f8146102e75780639f392c2b146102a7578063a3333e59146102315763da9f755003610013578160031936011261022d576001600160a01b03825416928151936341025b3d60e11b855260209485818481855afa90811561022357906fffffffffffffffffffffffffffffffff9186916101f6575b5016918234106101cf579085918451809481937f7b43155d0000000000000000000000000000000000000000000000000000000083525af19081156101c3579082918491610175575b5067ffffffffffffffff169283815260028552203373ffffffffffffffffffffffffffffffffffffffff198254161790557f50290f0ecdf820ec0a238e6e34494463b11e1f2e7e5dfaf475541266aab117d18180518481523386820152a151908152f35b809250858092503d83116101bc575b61018e818361062c565b810103126101b8575167ffffffffffffffff811681036101b857819067ffffffffffffffff610111565b8280fd5b503d610184565b505051903d90823e3d90fd5b83517f025dbdd4000000000000000000000000000000000000000000000000000000008152fd5b6102169150873d891161021c575b61020e818361062c565b810190610664565b386100c8565b503d610204565b84513d87823e3d90fd5b5080fd5b503461022d57602036600319011261022d5780916001600160a01b036102556105fa565b168152600360205220906102a382549160ff6001850154169360ff60036002830154920154169151948594859260609295949195608085019685521515602085015260408401521515910152565b0390f35b503461022d57602036600319011261022d576001600160a01b038160209367ffffffffffffffff6102d6610615565b168152600285522054169051908152f35b503461022d57606036600319011261022d57610301610615565b6001600160a01b039160243583811603610524576044358385541680156104e15733036104785767ffffffffffffffff80931693848652602090600282528387205416948515610436578351600184161595608082019081118282101761042357916103f086949260609896947f6386b02f5ac582b91afce0d71662e77cdc26d30336dc9e5af24a6d2d659fda939a98528481526003888c6103d48785018b81528a808701934285528f880195600187528152868b522095518655511515600186019060ff801983541691151516179055565b51600284015551151591019060ff801983541691151516179055565b88526002815282882073ffffffffffffffffffffffffffffffffffffffff1981541690558251948552840152820152a180f35b60248960418c634e487b7160e01b835252fd5b6064888386519162461bcd60e51b8352820152600f60248201527f496e76616c6964207265717565737400000000000000000000000000000000006044820152fd5b608486602084519162461bcd60e51b8352820152602360248201527f4f6e6c7920456e74726f70792063616e2063616c6c20746869732066756e637460448201527f696f6e00000000000000000000000000000000000000000000000000000000006064820152fd5b606487602085519162461bcd60e51b8352820152601760248201527f456e74726f70792061646472657373206e6f74207365740000000000000000006044820152fd5b8380fd5b503461022d57602036600319011261022d5760ff6003826020946001600160a01b036105526105fa565b1681528286522001541690519015158152f35b929390503461052457836003193601126105245782602091816001600160a01b038754166341025b3d60e11b82525afa9182156105f057602093926105bf575b506fffffffffffffffffffffffffffffffff905191168152f35b6fffffffffffffffffffffffffffffffff9192506105e990843d861161021c5761020e818361062c565b91906105a5565b81513d85823e3d90fd5b600435906001600160a01b038216820361061057565b600080fd5b6004359067ffffffffffffffff8216820361061057565b90601f8019910116810190811067ffffffffffffffff82111761064e57604052565b634e487b7160e01b600052604160045260246000fd5b9081602091031261061057516fffffffffffffffffffffffffffffffff81168103610610579056fea264697066735822122048e072da4fa8f2a219aa7973eff209bfd0c1c381c67926fd30361497ef53717064736f6c63430008180033",
  "linkReferences": {},
  "deployedLinkReferences": {}
}