{
  "contracts/RandomSeed.sol": {
    "RandomSeed": {
      "abi": [
        {
          "inputs": [
            {
              "internalType": "address",
              "name": "entropyAddress",
              "type": "address"
            }
          ],
          "stateMutability": "nonpayable",
          "type": "constructor"
        },
        {
          "anonymous": false,
          "inputs": [
            {
              "indexed": false,
              "internalType": "bytes32",
              "name": "seed",
              "type": "bytes32"
            }
          ],
          "name": "RandomSeedGenerated",
          "type": "event"
        },
        {
          "inputs": [
            {
              "internalType": "uint64",
              "name": "sequence",
              "type": "uint64"
            },
            {
              "internalType": "address",
              "name": "provider",
              "type": "address"
            },
            {
              "internalType": "bytes32",
              "name": "randomNumber",
              "type": "bytes32"
            }
          ],
          "name": "_entropyCallback",
          "outputs": [],
          "stateMutability": "nonpayable",
          "type": "function"
        },
        {
          "inputs": [],
          "name": "currentSeed",
          "outputs": [
            {
              "internalType": "bytes32",
              "name": "",
              "type": "bytes32"
            }
          ],
          "stateMutability": "view",
          "type": "function"
        },
        {
          "inputs": [],
          "name": "entropy",
          "outputs": [
            {
              "internalType": "contract IEntropyV2",
              "name": "",
              "type": "address"
            }
          ],
          "stateMutability": "view",
          "type": "function"
        },
        {
          "inputs": [],
          "name": "requestRandomSeed",
          "outputs": [],
          "stateMutability": "payable",
          "type": "function"
        }
      ],
      "evm": {
        "bytecode": {
          "linkReferences": {},
          "object": "60803461007457601f61049e38819003918201601f19168301916001600160401b038311848410176100795780849260209460405283398101031261007457516001600160a01b0381169081900361007457600080546001600160a01b03191691909117905560405161040e90816100908239f35b600080fd5b634e487b7160e01b600052604160045260246000fdfe608060408181526004908136101561001657600080fd5b600092833560e01c90816347ce07cc146103575750806352a5f1f81461021e57806383220626146101ff5763e1da26c61461005057600080fd5b826003193601126101fb5773ffffffffffffffffffffffffffffffffffffffff835416908051917f8204b67a00000000000000000000000000000000000000000000000000000000835260209283818681855afa80156101f1578690610197575b6fffffffffffffffffffffffffffffffff91501693843410610155579083918351809681937f7b43155d0000000000000000000000000000000000000000000000000000000083525af190811561014c575061010b578280f35b81813d8311610145575b61011f8183610387565b81010312610141575167ffffffffffffffff81160361013e5738808280f35b80fd5b5080fd5b503d610115565b513d85823e3d90fd5b6064908484519162461bcd60e51b8352820152601060248201527f496e73756666696369656e7420666565000000000000000000000000000000006044820152fd5b508381813d83116101ea575b6101ad8183610387565b810103126101e657516fffffffffffffffffffffffffffffffff811681036101e6576fffffffffffffffffffffffffffffffff906100b1565b8580fd5b503d6101a3565b83513d88823e3d90fd5b8280fd5b8382346101415781600319360112610141576020906001549051908152f35b50346101fb5760603660031901126101fb57813567ffffffffffffffff8116036101fb5773ffffffffffffffffffffffffffffffffffffffff9160243583811603610353576044359284541680156103105733036102a85750816020917fc600f4f27b95655ff15fbda8c260832f9b9f6523c218ffcfaa2afda37ad563909360015551908152a180f35b6020608492519162461bcd60e51b8352820152602360248201527f4f6e6c7920456e74726f70792063616e2063616c6c20746869732066756e637460448201527f696f6e00000000000000000000000000000000000000000000000000000000006064820152fd5b506020606492519162461bcd60e51b8352820152601760248201527f456e74726f70792061646472657373206e6f74207365740000000000000000006044820152fd5b8380fd5b84903461014157816003193601126101415773ffffffffffffffffffffffffffffffffffffffff60209254168152f35b90601f8019910116810190811067ffffffffffffffff8211176103a957604052565b7f4e487b7100000000000000000000000000000000000000000000000000000000600052604160045260246000fdfea264697066735822122040148961cbcee2b836102c073a7110e4e3b136bd516b7c37267477a91d1b03b064736f6c63430008180033",
          "opcodes": "PUSH1 0x80 CALLVALUE PUSH2 0x74 JUMPI PUSH1 0x1F PUSH2 0x49E CODESIZE DUP2 SWAP1 SUB SWAP2 DUP3 ADD PUSH1 0x1F NOT AND DUP4 ADD SWAP2 PUSH1 0x1 PUSH1 0x1 PUSH1 0x40 SHL SUB DUP4 GT DUP5 DUP5 LT OR PUSH2 0x79 JUMPI DUP1 DUP5 SWAP3 PUSH1 0x20 SWAP5 PUSH1 0x40 MSTORE DUP4 CODECOPY DUP2 ADD SUB SLT PUSH2 0x74 JUMPI MLOAD PUSH1 0x1 PUSH1 0x1 PUSH1 0xA0 SHL SUB DUP2 AND SWAP1 DUP2 SWAP1 SUB PUSH2 0x74 JUMPI PUSH1 0x0 DUP1 SLOAD PUSH1 0x1 PUSH1 0x1 PUSH1 0xA0 SHL SUB NOT AND SWAP2 SWAP1 SWAP2 OR SWAP1 SSTORE PUSH1 0x40 MLOAD PUSH2 0x40E SWAP1 DUP2 PUSH2 0x90 DUP3 CODECOPY RETURN JUMPDEST PUSH1 0x0 DUP1 REVERT JUMPDEST PUSH4 0x4E487B71 PUSH1 0xE0 SHL PUSH1 0x0 MSTORE PUSH1 0x41 PUSH1 0x4 MSTORE PUSH1 0x24 PUSH1 0x0 REVERT INVALID PUSH1 0x80 PUSH1 0x40 DUP2 DUP2 MSTORE PUSH1 0x4 SWAP1 DUP2 CALLDATASIZE LT ISZERO PUSH2 0x16 JUMPI PUSH1 0x0 DUP1 REVERT JUMPDEST PUSH1 0x0 SWAP3 DUP4 CALLDATALOAD PUSH1 0xE0 SHR SWAP1 DUP2 PUSH4 0x47CE07CC EQ PUSH2 0x357 JUMPI POP DUP1 PUSH4 0x52A5F1F8 EQ PUSH2 0x21E JUMPI DUP1 PUSH4 0x83220626 EQ PUSH2 0x1FF JUMPI PUSH4 0xE1DA26C6 EQ PUSH2 0x50 JUMPI PUSH1 0x0 DUP1 REVERT JUMPDEST DUP3 PUSH1 0x3 NOT CALLDATASIZE ADD SLT PUSH2 0x1FB JUMPI PUSH20 0xFFFFFFFFFFFFFFFFFFFFFFFFFFFFFFFFFFFFFFFF DUP4 SLOAD AND SWAP1 DUP1 MLOAD SWAP2 PUSH32 0x8204B67A00000000000000000000000000000000000000000000000000000000 DUP4 MSTORE PUSH1 0x20 SWAP3 DUP4 DUP2 DUP7 DUP2 DUP6 GAS STATICCALL DUP1 ISZERO PUSH2 0x1F1 JUMPI DUP7 SWAP1 PUSH2 0x197 JUMPI JUMPDEST PUSH16 0xFFFFFFFFFFFFFFFFFFFFFFFFFFFFFFFF SWAP2 POP AND SWAP4 DUP5 CALLVALUE LT PUSH2 0x155 JUMPI SWAP1 DUP4 SWAP2 DUP4 MLOAD DUP1 SWAP7 DUP2 SWAP4 PUSH32 0x7B43155D00000000000000000000000000000000000000000000000000000000 DUP4 MSTORE GAS CALL SWAP1 DUP2 ISZERO PUSH2 0x14C JUMPI POP PUSH2 0x10B JUMPI DUP3 DUP1 RETURN JUMPDEST DUP2 DUP2 RETURNDATASIZE DUP4 GT PUSH2 0x145 JUMPI JUMPDEST PUSH2 0x11F DUP2 DUP4 PUSH2 0x387 JUMP JUMPDEST DUP2 ADD SUB SLT PUSH2 0x141 JUMPI MLOAD PUSH8 0xFFFFFFFFFFFFFFFF DUP2 AND SUB PUSH2 0x13E JUMPI CODESIZE DUP1 DUP3 DUP1 RETURN JUMPDEST DUP1 REVERT JUMPDEST POP DUP1 REVERT JUMPDEST POP RETURNDATASIZE PUSH2 0x115 JUMP JUMPDEST MLOAD RETURNDATASIZE DUP6 DUP3 RETURNDATACOPY RETURNDATASIZE SWAP1 REVERT JUMPDEST PUSH1 0x64 SWAP1 DUP5 DUP5 MLOAD SWAP2 PUSH3 0x461BCD PUSH1 0xE5 SHL DUP4 MSTORE DUP3 ADD MSTORE PUSH1 0x10 PUSH1 0x24 DUP3 ADD MSTORE PUSH32 0x496E73756666696369656E742066656500000000000000000000000000000000 PUSH1 0x44 DUP3 ADD MSTORE REVERT JUMPDEST POP DUP4 DUP2 DUP2 RETURNDATASIZE DUP4 GT PUSH2 0x1EA JUMPI JUMPDEST PUSH2 0x1AD DUP2 DUP4 PUSH2 0x387 JUMP JUMPDEST DUP2 ADD SUB SLT PUSH2 0x1E6 JUMPI MLOAD PUSH16 0xFFFFFFFFFFFFFFFFFFFFFFFFFFFFFFFF DUP2 AND DUP2 SUB PUSH2 0x1E6 JUMPI PUSH16 0xFFFFFFFFFFFFFFFFFFFFFFFFFFFFFFFF SWAP1 PUSH2 0xB1 JUMP JUMPDEST DUP6 DUP1 REVERT JUMPDEST POP RETURNDATASIZE PUSH2 0x1A3 JUMP JUMPDEST DUP4 MLOAD RETURNDATASIZE DUP9 DUP3 RETURNDATACOPY RETURNDATASIZE SWAP1 REVERT JUMPDEST DUP3 DUP1 REVERT JUMPDEST DUP4 DUP3 CALLVALUE PUSH2 0x141 JUMPI DUP2 PUSH1 0x3 NOT CALLDATASIZE ADD SLT PUSH2 0x141 JUMPI PUSH1 0x20 SWAP1 PUSH1 0x1 SLOAD SWAP1 MLOAD SWAP1 DUP2 MSTORE RETURN JUMPDEST POP CALLVALUE PUSH2 0x1FB JUMPI PUSH1 0x60 CALLDATASIZE PUSH1 0x3 NOT ADD SLT PUSH2 0x1FB JUMPI DUP2 CALLDATALOAD PUSH8 0xFFFFFFFFFFFFFFFF DUP2 AND SUB PUSH2 0x1FB JUMPI PUSH20 0xFFFFFFFFFFFFFFFFFFFFFFFFFFFFFFFFFFFFFFFF SWAP2 PUSH1 0x24 CALLDATALOAD DUP4 DUP2 AND SUB PUSH2 0x353 JUMPI PUSH1 0x44 CALLDATALOAD SWAP3 DUP5 SLOAD AND DUP1 ISZERO PUSH2 0x310 JUMPI CALLER SUB PUSH2 0x2A8 JUMPI POP DUP2 PUSH1 0x20 SWAP2 PUSH32 0xC600F4F27B95655FF15FBDA8C260832F9B9F6523C218FFCFAA2AFDA37AD56390 SWAP4 PUSH1 0x1 SSTORE MLOAD SWAP1 DUP2 MSTORE LOG1 DUP1 RETURN JUMPDEST PUSH1 0x20 PUSH1 0x84 SWAP3 MLOAD SWAP2 PUSH3 0x461BCD PUSH1 0xE5 SHL DUP4 MSTORE DUP3 ADD MSTORE PUSH1 0x23 PUSH1 0x24 DUP3 ADD MSTORE PUSH32 0x4F6E6C7920456E74726F70792063616E2063616C6C20746869732066756E6374 PUSH1 0x44 DUP3 ADD MSTORE PUSH32 0x696F6E0000000000000000000000000000000000000000000000000000000000 PUSH1 0x64 DUP3 ADD MSTORE REVERT JUMPDEST POP PUSH1 0x20 PUSH1 0x64 SWAP3 MLOAD SWAP2 PUSH3 0x461BCD PUSH1 0xE5 SHL DUP4 MSTORE DUP3 ADD MSTORE PUSH1 0x17 PUSH1 0x24 DUP3 ADD MSTORE PUSH32 0x456E74726F70792061646472657373206E6F7420736574000000000000000000 PUSH1 0x44 DUP3 ADD MSTORE REVERT JUMPDEST DUP4 DUP1 REVERT JUMPDEST DUP5 SWAP1 CALLVALUE PUSH2 0x141 JUMPI DUP2 PUSH1 0x3 NOT CALLDATASIZE ADD SLT PUSH2 0x141 JUMPI PUSH20 0xFFFFFFFFFFFFFFFFFFFFFFFFFFFFFFFFFFFFFFFF PUSH1 0x20 SWAP3 SLOAD AND DUP2 MSTORE RETURN JUMPDEST SWAP1 PUSH1 0x1F DUP1 NOT SWAP2 ADD AND DUP2 ADD SWAP1 DUP2 LT PUSH8 0xFFFFFFFFFFFFFFFF DUP3 GT OR PUSH2 0x3A9 JUMPI PUSH1 0x40 MSTORE JUMP JUMPDEST PUSH32 0x4E487B7100000000000000000000000000000000000000000000000000000000 PUSH1 0x0 MSTORE PUSH1 0x41 PUSH1 0x4 MSTORE PUSH1 0x24 PUSH1 0x0 REVERT INVALID LOG2 PUSH5 0x6970667358 0x22 SLT KECCAK256 BLOCKHASH EQ DUP10 PUSH2 0xCBCE 0xE2 0xB8 CALLDATASIZE LT 0x2C SMOD GASPRICE PUSH18 0x10E4E3B136BD516B7C37267477A91D1B03B0 PUSH5 0x736F6C6343 STOP ADDMOD XOR STOP CALLER "
        },
        "methodIdentifiers": {
          "_entropyCallback(uint64,address,bytes32)": "52a5f1f8",
          "currentSeed()": "83220626",
          "entropy()": "47ce07cc",
          "requestRandomSeed()": "e1da26c6"
        }
      }
    }
  }
}