{
  "contracts/CoinFlip.sol": {
    "CoinFlip": {
      "abi": [
        {
          "inputs": [
            {
              "internalType": "address",
              "name": "_entropy",
              "type": "address"
            },
            {
              "internalType": "address",
              "name": "_entropyProvider",
              "type": "address"
            }
          ],
          "stateMutability": "nonpayable",
          "type": "constructor"
        },
        {
          "inputs": [],
          "name": "InsufficientFee",
          "type": "error"
        },
        {
          "anonymous": false,
          "inputs": [
            {
              "indexed": false,
              "internalType": "uint64",
              "name": "sequenceNumber",
              "type": "uint64"
            },
            {
              "indexed": false,
              "internalType": "address",
              "name": "user",
              "type": "address"
            }
          ],
          "name": "RandomRequest",
          "type": "event"
        },
        {
          "anonymous": false,
          "inputs": [
            {
              "indexed": false,
              "internalType": "address",
              "name": "user",
              "type": "address"
            },
            {
              "indexed": false,
              "internalType": "bytes32",
              "name": "randomNumber",
              "type": "bytes32"
            },
            {
              "indexed": false,
              "internalType": "bool",
              "name": "isHeads",
              "type": "bool"
            }
          ],
          "name": "RandomResult",
          "type": "event"
        },
        {
          "inputs": [
            {
              "internalType": "uint64",
              "name": "sequence",
              "type": "uint64"
            },
            {
              "internalType": "address",
              "name": "provider",
              "type": "address"
            },
            {
              "internalType": "bytes32",
              "name": "randomNumber",
              "type": "bytes32"
            }
          ],
          "name": "_entropyCallback",
          "outputs": [],
          "stateMutability": "nonpayable",
          "type": "function"
        },
        {
          "inputs": [],
          "name": "getRequestFee",
          "outputs": [
            {
              "internalType": "uint256",
              "name": "",
              "type": "uint256"
            }
          ],
          "stateMutability": "view",
          "type": "function"
        },
        {
          "inputs": [
            {
              "internalType": "address",
              "name": "user",
              "type": "address"
            }
          ],
          "name": "getUserResult",
          "outputs": [
            {
              "internalType": "bytes32",
              "name": "randomNumber",
              "type": "bytes32"
            },
            {
              "internalType": "bool",
              "name": "isHeads",
              "type": "bool"
            },
            {
              "internalType": "uint256",
              "name": "timestamp",
              "type": "uint256"
            },
            {
              "internalType": "bool",
              "name": "exists",
              "type": "bool"
            }
          ],
          "stateMutability": "view",
          "type": "function"
        },
        {
          "inputs": [
            {
              "internalType": "address",
              "name": "user",
              "type": "address"
            }
          ],
          "name": "hasUserResult",
          "outputs": [
            {
              "internalType": "bool",
              "name": "",
              "type": "bool"
            }
          ],
          "stateMutability": "view",
          "type": "function"
        },
        {
          "inputs": [],
          "name": "requestRandom",
          "outputs": [
            {
              "internalType": "uint64",
              "name": "",
              "type": "uint64"
            }
          ],
          "stateMutability": "payable",
          "type": "function"
        },
        {
          "inputs": [
            {
              "internalType": "uint64",
              "name": "",
              "type": "uint64"
            }
          ],
          "name": "requestToUser",
          "outputs": [
            {
              "internalType": "address",
              "name": "",
              "type": "address"
            }
          ],
          "stateMutability": "view",
          "type": "function"
        },
        {
          "inputs": [
            {
              "internalType": "address",
              "name": "",
              "type": "address"
            }
          ],
          "name": "userLatestResult",
          "outputs": [
            {
              "internalType": "bytes32",
              "name": "randomNumber",
              "type": "bytes32"
            },
            {
              "internalType": "bool",
              "name": "isHeads",
              "type": "bool"
            },
            {
              "internalType": "uint256",
              "name": "timestamp",
              "type": "uint256"
            },
            {
              "internalType": "bool",
              "name": "exists",
              "type": "bool"
            }
          ],
          "stateMutability": "view",
          "type": "function"
        },
        {
          "stateMutability": "payable",
          "type": "receive"
        }
      ],
      "evm": {
        "bytecode": {
          "linkReferences": {},
          "object": "60803461008d57601f61077f38819003918201601f19168301916001600160401b0383118484101761009257808492604094855283398101031261008d57610052602061004b836100a8565b92016100a8565b600080546001600160a01b039384166001600160a01b031991821617909155600180549290931691161790556040516106c290816100bd8239f35b600080fd5b634e487b7160e01b600052604160045260246000fd5b51906001600160a01b038216820361008d5756fe608060409080825260049182361015610023575b505050361561002157600080fd5b005b600091823560e01c9081630d37b537146105655750806337e61d6f146102315780633bba000b1461052857806352a5f1f8146102e75780639f392c2b146102a7578063a3333e59146102315763da9f755003610013578160031936011261022d576001600160a01b03825416928151936341025b3d60e11b855260209485818481855afa90811561022357906fffffffffffffffffffffffffffffffff9186916101f6575b5016918234106101cf579085918451809481937f7b43155d0000000000000000000000000000000000000000000000000000000083525af19081156101c3579082918491610175575b5067ffffffffffffffff169283815260028552203373ffffffffffffffffffffffffffffffffffffffff198254161790557f50290f0ecdf820ec0a238e6e34494463b11e1f2e7e5dfaf475541266aab117d18180518481523386820152a151908152f35b809250858092503d83116101bc575b61018e818361062c565b810103126101b8575167ffffffffffffffff811681036101b857819067ffffffffffffffff610111565b8280fd5b503d610184565b505051903d90823e3d90fd5b83517f025dbdd4000000000000000000000000000000000000000000000000000000008152fd5b6102169150873d891161021c575b61020e818361062c565b810190610664565b386100c8565b503d610204565b84513d87823e3d90fd5b5080fd5b503461022d57602036600319011261022d5780916001600160a01b036102556105fa565b168152600360205220906102a382549160ff6001850154169360ff60036002830154920154169151948594859260609295949195608085019685521515602085015260408401521515910152565b0390f35b503461022d57602036600319011261022d576001600160a01b038160209367ffffffffffffffff6102d6610615565b168152600285522054169051908152f35b503461022d57606036600319011261022d57610301610615565b6001600160a01b039160243583811603610524576044358385541680156104e15733036104785767ffffffffffffffff80931693848652602090600282528387205416948515610436578351600184161595608082019081118282101761042357916103f086949260609896947f6386b02f5ac582b91afce0d71662e77cdc26d30336dc9e5af24a6d2d659fda939a98528481526003888c6103d48785018b81528a808701934285528f880195600187528152868b522095518655511515600186019060ff801983541691151516179055565b51600284015551151591019060ff801983541691151516179055565b88526002815282882073ffffffffffffffffffffffffffffffffffffffff1981541690558251948552840152820152a180f35b60248960418c634e487b7160e01b835252fd5b6064888386519162461bcd60e51b8352820152600f60248201527f496e76616c6964207265717565737400000000000000000000000000000000006044820152fd5b608486602084519162461bcd60e51b8352820152602360248201527f4f6e6c7920456e74726f70792063616e2063616c6c20746869732066756e637460448201527f696f6e00000000000000000000000000000000000000000000000000000000006064820152fd5b606487602085519162461bcd60e51b8352820152601760248201527f456e74726f70792061646472657373206e6f74207365740000000000000000006044820152fd5b8380fd5b503461022d57602036600319011261022d5760ff6003826020946001600160a01b036105526105fa565b1681528286522001541690519015158152f35b929390503461052457836003193601126105245782602091816001600160a01b038754166341025b3d60e11b82525afa9182156105f057602093926105bf575b506fffffffffffffffffffffffffffffffff905191168152f35b6fffffffffffffffffffffffffffffffff9192506105e990843d861161021c5761020e818361062c565b91906105a5565b81513d85823e3d90fd5b600435906001600160a01b038216820361061057565b600080fd5b6004359067ffffffffffffffff8216820361061057565b90601f8019910116810190811067ffffffffffffffff82111761064e57604052565b634e487b7160e01b600052604160045260246000fd5b9081602091031261061057516fffffffffffffffffffffffffffffffff81168103610610579056fea264697066735822122048e072da4fa8f2a219aa7973eff209bfd0c1c381c67926fd30361497ef53717064736f6c63430008180033",
          "opcodes": "PUSH1 0x80 CALLVALUE PUSH2 0x8D JUMPI PUSH1 0x1F PUSH2 0x77F CODESIZE DUP2 SWAP1 SUB SWAP2 DUP3 ADD PUSH1 0x1F NOT AND DUP4 ADD SWAP2 PUSH1 0x1 PUSH1 0x1 PUSH1 0x40 SHL SUB DUP4 GT DUP5 DUP5 LT OR PUSH2 0x92 JUMPI DUP1 DUP5 SWAP3 PUSH1 0x40 SWAP5 DUP6 MSTORE DUP4 CODECOPY DUP2 ADD SUB SLT PUSH2 0x8D JUMPI PUSH2 0x52 PUSH1 0x20 PUSH2 0x4B DUP4 PUSH2 0xA8 JUMP JUMPDEST SWAP3 ADD PUSH2 0xA8 JUMP JUMPDEST PUSH1 0x0 DUP1 SLOAD PUSH1 0x1 PUSH1 0x1 PUSH1 0xA0 SHL SUB SWAP4 DUP5 AND PUSH1 0x1 PUSH1 0x1 PUSH1 0xA0 SHL SUB NOT SWAP2 DUP3 AND OR SWAP1 SWAP2 SSTORE PUSH1 0x1 DUP1 SLOAD SWAP3 SWAP1 SWAP4 AND SWAP2 AND OR SWAP1 SSTORE PUSH1 0x40 MLOAD PUSH2 0x6C2 SWAP1 DUP2 PUSH2 0xBD DUP3 CODECOPY RETURN JUMPDEST PUSH1 0x0 DUP1 REVERT JUMPDEST PUSH4 0x4E487B71 PUSH1 0xE0 SHL PUSH1 0x0 MSTORE PUSH1 0x41 PUSH1 0x4 MSTORE PUSH1 0x24 PUSH1 0x0 REVERT JUMPDEST MLOAD SWAP1 PUSH1 0x1 PUSH1 0x1 PUSH1 0xA0 SHL SUB DUP3 AND DUP3 SUB PUSH2 0x8D JUMPI JUMP INVALID PUSH1 0x80 PUSH1 0x40 SWAP1 DUP1 DUP3 MSTORE PUSH1 0x4 SWAP2 DUP3 CALLDATASIZE LT ISZERO PUSH2 0x23 JUMPI JUMPDEST POP POP POP CALLDATASIZE ISZERO PUSH2 0x21 JUMPI PUSH1 0x0 DUP1 REVERT JUMPDEST STOP JUMPDEST PUSH1 0x0 SWAP2 DUP3 CALLDATALOAD PUSH1 0xE0 SHR SWAP1 DUP2 PUSH4 0xD37B537 EQ PUSH2 0x565 JUMPI POP DUP1 PUSH4 0x37E61D6F EQ PUSH2 0x231 JUMPI DUP1 PUSH4 0x3BBA000B EQ PUSH2 0x528 JUMPI DUP1 PUSH4 0x52A5F1F8 EQ PUSH2 0x2E7 JUMPI DUP1 PUSH4 0x9F392C2B EQ PUSH2 0x2A7 JUMPI DUP1 PUSH4 0xA3333E59 EQ PUSH2 0x231 JUMPI PUSH4 0xDA9F7550 SUB PUSH2 0x13 JUMPI DUP2 PUSH1 0x3 NOT CALLDATASIZE ADD SLT PUSH2 0x22D JUMPI PUSH1 0x1 PUSH1 0x1 PUSH1 0xA0 SHL SUB DUP3 SLOAD AND SWAP3 DUP2 MLOAD SWAP4 PUSH4 0x41025B3D PUSH1 0xE1 SHL DUP6 MSTORE PUSH1 0x20 SWAP5 DUP6 DUP2 DUP5 DUP2 DUP6 GAS STATICCALL SWAP1 DUP2 ISZERO PUSH2 0x223 JUMPI SWAP1 PUSH16 0xFFFFFFFFFFFFFFFFFFFFFFFFFFFFFFFF SWAP2 DUP7 SWAP2 PUSH2 0x1F6 JUMPI JUMPDEST POP AND SWAP2 DUP3 CALLVALUE LT PUSH2 0x1CF JUMPI SWAP1 DUP6 SWAP2 DUP5 MLOAD DUP1 SWAP5 DUP2 SWAP4 PUSH32 0x7B43155D00000000000000000000000000000000000000000000000000000000 DUP4 MSTORE GAS CALL SWAP1 DUP2 ISZERO PUSH2 0x1C3 JUMPI SWAP1 DUP3 SWAP2 DUP5 SWAP2 PUSH2 0x175 JUMPI JUMPDEST POP PUSH8 0xFFFFFFFFFFFFFFFF AND SWAP3 DUP4 DUP2 MSTORE PUSH1 0x2 DUP6 MSTORE KECCAK256 CALLER PUSH20 0xFFFFFFFFFFFFFFFFFFFFFFFFFFFFFFFFFFFFFFFF NOT DUP3 SLOAD AND OR SWAP1 SSTORE PUSH32 0x50290F0ECDF820EC0A238E6E34494463B11E1F2E7E5DFAF475541266AAB117D1 DUP2 DUP1 MLOAD DUP5 DUP2 MSTORE CALLER DUP7 DUP3 ADD MSTORE LOG1 MLOAD SWAP1 DUP2 MSTORE RETURN JUMPDEST DUP1 SWAP3 POP DUP6 DUP1 SWAP3 POP RETURNDATASIZE DUP4 GT PUSH2 0x1BC JUMPI JUMPDEST PUSH2 0x18E DUP2 DUP4 PUSH2 0x62C JUMP JUMPDEST DUP2 ADD SUB SLT PUSH2 0x1B8 JUMPI MLOAD PUSH8 0xFFFFFFFFFFFFFFFF DUP2 AND DUP2 SUB PUSH2 0x1B8 JUMPI DUP2 SWAP1 PUSH8 0xFFFFFFFFFFFFFFFF PUSH2 0x111 JUMP JUMPDEST DUP3 DUP1 REVERT JUMPDEST POP RETURNDATASIZE PUSH2 0x184 JUMP JUMPDEST POP POP MLOAD SWAP1 RETURNDATASIZE SWAP1 DUP3 RETURNDATACOPY RETURNDATASIZE SWAP1 REVERT JUMPDEST DUP4 MLOAD PUSH32 0x25DBDD400000000000000000000000000000000000000000000000000000000 DUP2 MSTORE REVERT JUMPDEST PUSH2 0x216 SWAP2 POP DUP8 RETURNDATASIZE DUP10 GT PUSH2 0x21C JUMPI JUMPDEST PUSH2 0x20E DUP2 DUP4 PUSH2 0x62C JUMP JUMPDEST DUP2 ADD SWAP1 PUSH2 0x664 JUMP JUMPDEST CODESIZE PUSH2 0xC8 JUMP JUMPDEST POP RETURNDATASIZE PUSH2 0x204 JUMP JUMPDEST DUP5 MLOAD RETURNDATASIZE DUP8 DUP3 RETURNDATACOPY RETURNDATASIZE SWAP1 REVERT JUMPDEST POP DUP1 REVERT JUMPDEST POP CALLVALUE PUSH2 0x22D JUMPI PUSH1 0x20 CALLDATASIZE PUSH1 0x3 NOT ADD SLT PUSH2 0x22D JUMPI DUP1 SWAP2 PUSH1 0x1 PUSH1 0x1 PUSH1 0xA0 SHL SUB PUSH2 0x255 PUSH2 0x5FA JUMP JUMPDEST AND DUP2 MSTORE PUSH1 0x3 PUSH1 0x20 MSTORE KECCAK256 SWAP1 PUSH2 0x2A3 DUP3 SLOAD SWAP2 PUSH1 0xFF PUSH1 0x1 DUP6 ADD SLOAD AND SWAP4 PUSH1 0xFF PUSH1 0x3 PUSH1 0x2 DUP4 ADD SLOAD SWAP3 ADD SLOAD AND SWAP2 MLOAD SWAP5 DUP6 SWAP5 DUP6 SWAP3 PUSH1 0x60 SWAP3 SWAP6 SWAP5 SWAP2 SWAP6 PUSH1 0x80 DUP6 ADD SWAP7 DUP6 MSTORE ISZERO ISZERO PUSH1 0x20 DUP6 ADD MSTORE PUSH1 0x40 DUP5 ADD MSTORE ISZERO ISZERO SWAP2 ADD MSTORE JUMP JUMPDEST SUB SWAP1 RETURN JUMPDEST POP CALLVALUE PUSH2 0x22D JUMPI PUSH1 0x20 CALLDATASIZE PUSH1 0x3 NOT ADD SLT PUSH2 0x22D JUMPI PUSH1 0x1 PUSH1 0x1 PUSH1 0xA0 SHL SUB DUP2 PUSH1 0x20 SWAP4 PUSH8 0xFFFFFFFFFFFFFFFF PUSH2 0x2D6 PUSH2 0x615 JUMP JUMPDEST AND DUP2 MSTORE PUSH1 0x2 DUP6 MSTORE KECCAK256 SLOAD AND SWAP1 MLOAD SWAP1 DUP2 MSTORE RETURN JUMPDEST POP CALLVALUE PUSH2 0x22D JUMPI PUSH1 0x60 CALLDATASIZE PUSH1 0x3 NOT ADD SLT PUSH2 0x22D JUMPI PUSH2 0x301 PUSH2 0x615 JUMP JUMPDEST PUSH1 0x1 PUSH1 0x1 PUSH1 0xA0 SHL SUB SWAP2 PUSH1 0x24 CALLDATALOAD DUP4 DUP2 AND SUB PUSH2 0x524 JUMPI PUSH1 0x44 CALLDATALOAD DUP4 DUP6 SLOAD AND DUP1 ISZERO PUSH2 0x4E1 JUMPI CALLER SUB PUSH2 0x478 JUMPI PUSH8 0xFFFFFFFFFFFFFFFF DUP1 SWAP4 AND SWAP4 DUP5 DUP7 MSTORE PUSH1 0x20 SWAP1 PUSH1 0x2 DUP3 MSTORE DUP4 DUP8 KECCAK256 SLOAD AND SWAP5 DUP6 ISZERO PUSH2 0x436 JUMPI DUP4 MLOAD PUSH1 0x1 DUP5 AND ISZERO SWAP6 PUSH1 0x80 DUP3 ADD SWAP1 DUP2 GT DUP3 DUP3 LT OR PUSH2 0x423 JUMPI SWAP2 PUSH2 0x3F0 DUP7 SWAP5 SWAP3 PUSH1 0x60 SWAP9 SWAP7 SWAP5 PUSH32 0x6386B02F5AC582B91AFCE0D71662E77CDC26D30336DC9E5AF24A6D2D659FDA93 SWAP11 SWAP9 MSTORE DUP5 DUP2 MSTORE PUSH1 0x3 DUP9 DUP13 PUSH2 0x3D4 DUP8 DUP6 ADD DUP12 DUP2 MSTORE DUP11 DUP1 DUP8 ADD SWAP4 TIMESTAMP DUP6 MSTORE DUP16 DUP9 ADD SWAP6 PUSH1 0x1 DUP8 MSTORE DUP2 MSTORE DUP7 DUP12 MSTORE KECCAK256 SWAP6 MLOAD DUP7 SSTORE MLOAD ISZERO ISZERO PUSH1 0x1 DUP7 ADD SWAP1 PUSH1 0xFF DUP1 NOT DUP4 SLOAD AND SWAP2 ISZERO ISZERO AND OR SWAP1 SSTORE JUMP JUMPDEST MLOAD PUSH1 0x2 DUP5 ADD SSTORE MLOAD ISZERO ISZERO SWAP2 ADD SWAP1 PUSH1 0xFF DUP1 NOT DUP4 SLOAD AND SWAP2 ISZERO ISZERO AND OR SWAP1 SSTORE JUMP JUMPDEST DUP9 MSTORE PUSH1 0x2 DUP2 MSTORE DUP3 DUP9 KECCAK256 PUSH20 0xFFFFFFFFFFFFFFFFFFFFFFFFFFFFFFFFFFFFFFFF NOT DUP2 SLOAD AND SWAP1 SSTORE DUP3 MLOAD SWAP5 DUP6 MSTORE DUP5 ADD MSTORE DUP3 ADD MSTORE LOG1 DUP1 RETURN JUMPDEST PUSH1 0x24 DUP10 PUSH1 0x41 DUP13 PUSH4 0x4E487B71 PUSH1 0xE0 SHL DUP4 MSTORE MSTORE REVERT JUMPDEST PUSH1 0x64 DUP9 DUP4 DUP7 MLOAD SWAP2 PUSH3 0x461BCD PUSH1 0xE5 SHL DUP4 MSTORE DUP3 ADD MSTORE PUSH1 0xF PUSH1 0x24 DUP3 ADD MSTORE PUSH32 0x496E76616C696420726571756573740000000000000000000000000000000000 PUSH1 0x44 DUP3 ADD MSTORE REVERT JUMPDEST PUSH1 0x84 DUP7 PUSH1 0x20 DUP5 MLOAD SWAP2 PUSH3 0x461BCD PUSH1 0xE5 SHL DUP4 MSTORE DUP3 ADD MSTORE PUSH1 0x23 PUSH1 0x24 DUP3 ADD MSTORE PUSH32 0x4F6E6C7920456E74726F70792063616E2063616C6C20746869732066756E6374 PUSH1 0x44 DUP3 ADD MSTORE PUSH32 0x696F6E0000000000000000000000000000000000000000000000000000000000 PUSH1 0x64 DUP3 ADD MSTORE REVERT JUMPDEST PUSH1 0x64 DUP8 PUSH1 0x20 DUP6 MLOAD SWAP2 PUSH3 0x461BCD PUSH1 0xE5 SHL DUP4 MSTORE DUP3 ADD MSTORE PUSH1 0x17 PUSH1 0x24 DUP3 ADD MSTORE PUSH32 0x456E74726F70792061646472657373206E6F7420736574000000000000000000 PUSH1 0x44 DUP3 ADD MSTORE REVERT JUMPDEST DUP4 DUP1 REVERT JUMPDEST POP CALLVALUE PUSH2 0x22D JUMPI PUSH1 0x20 CALLDATASIZE PUSH1 0x3 NOT ADD SLT PUSH2 0x22D JUMPI PUSH1 0xFF PUSH1 0x3 DUP3 PUSH1 0x20 SWAP5 PUSH1 0x1 PUSH1 0x1 PUSH1 0xA0 SHL SUB PUSH2 0x552 PUSH2 0x5FA JUMP JUMPDEST AND DUP2 MSTORE DUP3 DUP7 MSTORE KECCAK256 ADD SLOAD AND SWAP1 MLOAD SWAP1 ISZERO ISZERO DUP2 MSTORE RETURN JUMPDEST SWAP3 SWAP4 SWAP1 POP CALLVALUE PUSH2 0x524 JUMPI DUP4 PUSH1 0x3 NOT CALLDATASIZE ADD SLT PUSH2 0x524 JUMPI DUP3 PUSH1 0x20 SWAP2 DUP2 PUSH1 0x1 PUSH1 0x1 PUSH1 0xA0 SHL SUB DUP8 SLOAD AND PUSH4 0x41025B3D PUSH1 0xE1 SHL DUP3 MSTORE GAS STATICCALL SWAP2 DUP3 ISZERO PUSH2 0x5F0 JUMPI PUSH1 0x20 SWAP4 SWAP3 PUSH2 0x5BF JUMPI JUMPDEST POP PUSH16 0xFFFFFFFFFFFFFFFFFFFFFFFFFFFFFFFF SWAP1 MLOAD SWAP2 AND DUP2 MSTORE RETURN JUMPDEST PUSH16 0xFFFFFFFFFFFFFFFFFFFFFFFFFFFFFFFF SWAP2 SWAP3 POP PUSH2 0x5E9 SWAP1 DUP5 RETURNDATASIZE DUP7 GT PUSH2 0x21C JUMPI PUSH2 0x20E DUP2 DUP4 PUSH2 0x62C JUMP JUMPDEST SWAP2 SWAP1 PUSH2 0x5A5 JUMP JUMPDEST DUP2 MLOAD RETURNDATASIZE DUP6 DUP3 RETURNDATACOPY RETURNDATASIZE SWAP1 REVERT JUMPDEST PUSH1 0x4 CALLDATALOAD SWAP1 PUSH1 0x1 PUSH1 0x1 PUSH1 0xA0 SHL SUB DUP3 AND DUP3 SUB PUSH2 0x610 JUMPI JUMP JUMPDEST PUSH1 0x0 DUP1 REVERT JUMPDEST PUSH1 0x4 CALLDATALOAD SWAP1 PUSH8 0xFFFFFFFFFFFFFFFF DUP3 AND DUP3 SUB PUSH2 0x610 JUMPI JUMP JUMPDEST SWAP1 PUSH1 0x1F DUP1 NOT SWAP2 ADD AND DUP2 ADD SWAP1 DUP2 LT PUSH8 0xFFFFFFFFFFFFFFFF DUP3 GT OR PUSH2 0x64E JUMPI PUSH1 0x40 MSTORE JUMP JUMPDEST PUSH4 0x4E487B71 PUSH1 0xE0 SHL PUSH1 0x0 MSTORE PUSH1 0x41 PUSH1 0x4 MSTORE PUSH1 0x24 PUSH1 0x0 REVERT JUMPDEST SWAP1 DUP2 PUSH1 0x20 SWAP2 SUB SLT PUSH2 0x610 JUMPI MLOAD PUSH16 0xFFFFFFFFFFFFFFFFFFFFFFFFFFFFFFFF DUP2 AND DUP2 SUB PUSH2 0x610 JUMPI SWAP1 JUMP INVALID LOG2 PUSH5 0x6970667358 0x22 SLT KECCAK256 BASEFEE 0xE0 PUSH19 0xDA4FA8F2A219AA7973EFF209BFD0C1C381C679 0x26 REVERT ADDRESS CALLDATASIZE EQ SWAP8 0xEF MSTORE8 PUSH18 0x7064736F6C63430008180033000000000000 "
        },
        "methodIdentifiers": {
          "_entropyCallback(uint64,address,bytes32)": "52a5f1f8",
          "getRequestFee()": "0d37b537",
          "getUserResult(address)": "37e61d6f",
          "hasUserResult(address)": "3bba000b",
          "requestRandom()": "da9f7550",
          "requestToUser(uint64)": "9f392c2b",
          "userLatestResult(address)": "a3333e59"
        }
      }
    }
  }
}