{
  "contracts/PlaylistReputationNFT.sol": {
    "PlaylistReputationNFT": {
      "abi": [
        {
          "inputs": [
            {
              "internalType": "address",
              "name": "_entropy",
              "type": "address"
            },
            {
              "internalType": "address",
              "name": "_provider",
              "type": "address"
            }
          ],
          "stateMutability": "nonpayable",
          "type": "constructor"
        },
        {
          "inputs": [],
          "name": "ApprovalCallerNotOwnerNorApproved",
          "type": "error"
        },
        {
          "inputs": [],
          "name": "ApprovalQueryForNonexistentToken",
          "type": "error"
        },
        {
          "inputs": [],
          "name": "BalanceQueryForZeroAddress",
          "type": "error"
        },
        {
          "inputs": [],
          "name": "MintERC2309QuantityExceedsLimit",
          "type": "error"
        },
        {
          "inputs": [],
          "name": "MintToZeroAddress",
          "type": "error"
        },
        {
          "inputs": [],
          "name": "MintZeroQuantity",
          "type": "error"
        },
        {
          "inputs": [],
          "name": "NotCompatibleWithSpotMints",
          "type": "error"
        },
        {
          "inputs": [
            {
              "internalType": "address",
              "name": "owner",
              "type": "address"
            }
          ],
          "name": "OwnableInvalidOwner",
          "type": "error"
        },
        {
          "inputs": [
            {
              "internalType": "address",
              "name": "account",
              "type": "address"
            }
          ],
          "name": "OwnableUnauthorizedAccount",
          "type": "error"
        },
        {
          "inputs": [],
          "name": "OwnerQueryForNonexistentToken",
          "type": "error"
        },
        {
          "inputs": [],
          "name": "OwnershipNotInitializedForExtraData",
          "type": "error"
        },
        {
          "inputs": [],
          "name": "SequentialMintExceedsLimit",
          "type": "error"
        },
        {
          "inputs": [],
          "name": "SequentialUpToTooSmall",
          "type": "error"
        },
        {
          "inputs": [],
          "name": "SpotMintTokenIdTooSmall",
          "type": "error"
        },
        {
          "inputs": [],
          "name": "TokenAlreadyExists",
          "type": "error"
        },
        {
          "inputs": [],
          "name": "TransferCallerNotOwnerNorApproved",
          "type": "error"
        },
        {
          "inputs": [],
          "name": "TransferFromIncorrectOwner",
          "type": "error"
        },
        {
          "inputs": [],
          "name": "TransferToNonERC721ReceiverImplementer",
          "type": "error"
        },
        {
          "inputs": [],
          "name": "TransferToZeroAddress",
          "type": "error"
        },
        {
          "inputs": [],
          "name": "URIQueryForNonexistentToken",
          "type": "error"
        },
        {
          "anonymous": false,
          "inputs": [
            {
              "indexed": true,
              "internalType": "address",
              "name": "owner",
              "type": "address"
            },
            {
              "indexed": true,
              "internalType": "address",
              "name": "approved",
              "type": "address"
            },
            {
              "indexed": true,
              "internalType": "uint256",
              "name": "tokenId",
              "type": "uint256"
            }
          ],
          "name": "Approval",
          "type": "event"
        },
        {
          "anonymous": false,
          "inputs": [
            {
              "indexed": true,
              "internalType": "address",
              "name": "owner",
              "type": "address"
            },
            {
              "indexed": true,
              "internalType": "address",
              "name": "operator",
              "type": "address"
            },
            {
              "indexed": false,
              "internalType": "bool",
              "name": "approved",
              "type": "bool"
            }
          ],
          "name": "ApprovalForAll",
          "type": "event"
        },
        {
          "anonymous": false,
          "inputs": [
            {
              "indexed": true,
              "internalType": "uint256",
              "name": "fromTokenId",
              "type": "uint256"
            },
            {
              "indexed": false,
              "internalType": "uint256",
              "name": "toTokenId",
              "type": "uint256"
            },
            {
              "indexed": true,
              "internalType": "address",
              "name": "from",
              "type": "address"
            },
            {
              "indexed": true,
              "internalType": "address",
              "name": "to",
              "type": "address"
            }
          ],
          "name": "ConsecutiveTransfer",
          "type": "event"
        },
        {
          "anonymous": false,
          "inputs": [
            {
              "indexed": true,
              "internalType": "uint256",
              "name": "tokenId",
              "type": "uint256"
            },
            {
              "indexed": false,
              "internalType": "uint64",
              "name": "sequenceNumber",
              "type": "uint64"
            }
          ],
          "name": "DecayTriggered",
          "type": "event"
        },
        {
          "anonymous": false,
          "inputs": [
            {
              "indexed": true,
              "internalType": "address",
              "name": "previousOwner",
              "type": "address"
            },
            {
              "indexed": true,
              "internalType": "address",
              "name": "newOwner",
              "type": "address"
            }
          ],
          "name": "OwnershipTransferred",
          "type": "event"
        },
        {
          "anonymous": false,
          "inputs": [
            {
              "indexed": true,
              "internalType": "uint256",
              "name": "tokenId",
              "type": "uint256"
            },
            {
              "indexed": false,
              "internalType": "string",
              "name": "name",
              "type": "string"
            },
            {
              "indexed": false,
              "internalType": "string",
              "name": "playlistId",
              "type": "string"
            }
          ],
          "name": "PlaylistMinted",
          "type": "event"
        },
        {
          "anonymous": false,
          "inputs": [
            {
              "indexed": true,
              "internalType": "uint256",
              "name": "tokenId",
              "type": "uint256"
            },
            {
              "indexed": false,
              "internalType": "uint256",
              "name": "newReputation",
              "type": "uint256"
            }
          ],
          "name": "ReputationDecayed",
          "type": "event"
        },
        {
          "anonymous": false,
          "inputs": [
            {
              "indexed": true,
              "internalType": "uint256",
              "name": "tokenId",
              "type": "uint256"
            },
            {
              "indexed": false,
              "internalType": "uint256",
              "name": "newReputation",
              "type": "uint256"
            },
            {
              "indexed": false,
              "internalType": "address",
              "name": "voter",
              "type": "address"
            }
          ],
          "name": "ReputationGrown",
          "type": "event"
        },
        {
          "anonymous": false,
          "inputs": [
            {
              "indexed": true,
              "internalType": "address",
              "name": "from",
              "type": "address"
            },
            {
              "indexed": true,
              "internalType": "address",
              "name": "to",
              "type": "address"
            },
            {
              "indexed": true,
              "internalType": "uint256",
              "name": "tokenId",
              "type": "uint256"
            }
          ],
          "name": "Transfer",
          "type": "event"
        },
        {
          "inputs": [],
          "name": "DECAY_CHANCE",
          "outputs": [
            {
              "internalType": "uint256",
              "name": "",
              "type": "uint256"
            }
          ],
          "stateMutability": "view",
          "type": "function"
        },
        {
          "inputs": [],
          "name": "GROWTH_PER_VOTE",
          "outputs": [
            {
              "internalType": "uint256",
              "name": "",
              "type": "uint256"
            }
          ],
          "stateMutability": "view",
          "type": "function"
        },
        {
          "inputs": [],
          "name": "MAX_REPUTATION",
          "outputs": [
            {
              "internalType": "uint256",
              "name": "",
              "type": "uint256"
            }
          ],
          "stateMutability": "view",
          "type": "function"
        },
        {
          "inputs": [
            {
              "internalType": "uint64",
              "name": "sequence",
              "type": "uint64"
            },
            {
              "internalType": "address",
              "name": "provider",
              "type": "address"
            },
            {
              "internalType": "bytes32",
              "name": "randomNumber",
              "type": "bytes32"
            }
          ],
          "name": "_entropyCallback",
          "outputs": [],
          "stateMutability": "nonpayable",
          "type": "function"
        },
        {
          "inputs": [
            {
              "internalType": "address",
              "name": "to",
              "type": "address"
            },
            {
              "internalType": "uint256",
              "name": "tokenId",
              "type": "uint256"
            }
          ],
          "name": "approve",
          "outputs": [],
          "stateMutability": "payable",
          "type": "function"
        },
        {
          "inputs": [
            {
              "internalType": "address",
              "name": "owner",
              "type": "address"
            }
          ],
          "name": "balanceOf",
          "outputs": [
            {
              "internalType": "uint256",
              "name": "",
              "type": "uint256"
            }
          ],
          "stateMutability": "view",
          "type": "function"
        },
        {
          "inputs": [
            {
              "internalType": "uint256",
              "name": "tokenId",
              "type": "uint256"
            }
          ],
          "name": "getApproved",
          "outputs": [
            {
              "internalType": "address",
              "name": "",
              "type": "address"
            }
          ],
          "stateMutability": "view",
          "type": "function"
        },
        {
          "inputs": [
            {
              "internalType": "uint256",
              "name": "tokenId",
              "type": "uint256"
            }
          ],
          "name": "getPlaylistInfo",
          "outputs": [
            {
              "components": [
                {
                  "internalType": "string",
                  "name": "name",
                  "type": "string"
                },
                {
                  "internalType": "string",
                  "name": "playlistId",
                  "type": "string"
                },
                {
                  "internalType": "uint256",
                  "name": "reputation",
                  "type": "uint256"
                },
                {
                  "internalType": "uint256",
                  "name": "createdAt",
                  "type": "uint256"
                },
                {
                  "internalType": "bool",
                  "name": "isActive",
                  "type": "bool"
                }
              ],
              "internalType": "struct PlaylistReputationNFT.PlaylistInfo",
              "name": "",
              "type": "tuple"
            }
          ],
          "stateMutability": "view",
          "type": "function"
        },
        {
          "inputs": [
            {
              "internalType": "address",
              "name": "",
              "type": "address"
            },
            {
              "internalType": "uint256",
              "name": "",
              "type": "uint256"
            }
          ],
          "name": "hasVoted",
          "outputs": [
            {
              "internalType": "bool",
              "name": "",
              "type": "bool"
            }
          ],
          "stateMutability": "view",
          "type": "function"
        },
        {
          "inputs": [
            {
              "internalType": "address",
              "name": "owner",
              "type": "address"
            },
            {
              "internalType": "address",
              "name": "operator",
              "type": "address"
            }
          ],
          "name": "isApprovedForAll",
          "outputs": [
            {
              "internalType": "bool",
              "name": "",
              "type": "bool"
            }
          ],
          "stateMutability": "view",
          "type": "function"
        },
        {
          "inputs": [
            {
              "internalType": "address",
              "name": "to",
              "type": "address"
            },
            {
              "internalType": "string",
              "name": "name",
              "type": "string"
            },
            {
              "internalType": "string",
              "name": "playlistId",
              "type": "string"
            }
          ],
          "name": "mintPlaylist",
          "outputs": [
            {
              "internalType": "uint256",
              "name": "",
              "type": "uint256"
            }
          ],
          "stateMutability": "nonpayable",
          "type": "function"
        },
        {
          "inputs": [],
          "name": "name",
          "outputs": [
            {
              "internalType": "string",
              "name": "",
              "type": "string"
            }
          ],
          "stateMutability": "view",
          "type": "function"
        },
        {
          "inputs": [],
          "name": "owner",
          "outputs": [
            {
              "internalType": "address",
              "name": "",
              "type": "address"
            }
          ],
          "stateMutability": "view",
          "type": "function"
        },
        {
          "inputs": [
            {
              "internalType": "uint256",
              "name": "tokenId",
              "type": "uint256"
            }
          ],
          "name": "ownerOf",
          "outputs": [
            {
              "internalType": "address",
              "name": "",
              "type": "address"
            }
          ],
          "stateMutability": "view",
          "type": "function"
        },
        {
          "inputs": [
            {
              "internalType": "uint64",
              "name": "",
              "type": "uint64"
            }
          ],
          "name": "pendingDecayRequests",
          "outputs": [
            {
              "internalType": "uint256",
              "name": "",
              "type": "uint256"
            }
          ],
          "stateMutability": "view",
          "type": "function"
        },
        {
          "inputs": [
            {
              "internalType": "uint256",
              "name": "",
              "type": "uint256"
            }
          ],
          "name": "playlists",
          "outputs": [
            {
              "internalType": "string",
              "name": "name",
              "type": "string"
            },
            {
              "internalType": "string",
              "name": "playlistId",
              "type": "string"
            },
            {
              "internalType": "uint256",
              "name": "reputation",
              "type": "uint256"
            },
            {
              "internalType": "uint256",
              "name": "createdAt",
              "type": "uint256"
            },
            {
              "internalType": "bool",
              "name": "isActive",
              "type": "bool"
            }
          ],
          "stateMutability": "view",
          "type": "function"
        },
        {
          "inputs": [],
          "name": "renounceOwnership",
          "outputs": [],
          "stateMutability": "nonpayable",
          "type": "function"
        },
        {
          "inputs": [
            {
              "internalType": "address",
              "name": "from",
              "type": "address"
            },
            {
              "internalType": "address",
              "name": "to",
              "type": "address"
            },
            {
              "internalType": "uint256",
              "name": "tokenId",
              "type": "uint256"
            }
          ],
          "name": "safeTransferFrom",
          "outputs": [],
          "stateMutability": "payable",
          "type": "function"
        },
        {
          "inputs": [
            {
              "internalType": "address",
              "name": "from",
              "type": "address"
            },
            {
              "internalType": "address",
              "name": "to",
              "type": "address"
            },
            {
              "internalType": "uint256",
              "name": "tokenId",
              "type": "uint256"
            },
            {
              "internalType": "bytes",
              "name": "_data",
              "type": "bytes"
            }
          ],
          "name": "safeTransferFrom",
          "outputs": [],
          "stateMutability": "payable",
          "type": "function"
        },
        {
          "inputs": [
            {
              "internalType": "address",
              "name": "operator",
              "type": "address"
            },
            {
              "internalType": "bool",
              "name": "approved",
              "type": "bool"
            }
          ],
          "name": "setApprovalForAll",
          "outputs": [],
          "stateMutability": "nonpayable",
          "type": "function"
        },
        {
          "inputs": [
            {
              "internalType": "bytes4",
              "name": "interfaceId",
              "type": "bytes4"
            }
          ],
          "name": "supportsInterface",
          "outputs": [
            {
              "internalType": "bool",
              "name": "",
              "type": "bool"
            }
          ],
          "stateMutability": "view",
          "type": "function"
        },
        {
          "inputs": [],
          "name": "symbol",
          "outputs": [
            {
              "internalType": "string",
              "name": "",
              "type": "string"
            }
          ],
          "stateMutability": "view",
          "type": "function"
        },
        {
          "inputs": [
            {
              "internalType": "uint256",
              "name": "tokenId",
              "type": "uint256"
            }
          ],
          "name": "tokenURI",
          "outputs": [
            {
              "internalType": "string",
              "name": "",
              "type": "string"
            }
          ],
          "stateMutability": "view",
          "type": "function"
        },
        {
          "inputs": [
            {
              "internalType": "address",
              "name": "owner",
              "type": "address"
            }
          ],
          "name": "tokensOfOwner",
          "outputs": [
            {
              "internalType": "uint256[]",
              "name": "",
              "type": "uint256[]"
            }
          ],
          "stateMutability": "view",
          "type": "function"
        },
        {
          "inputs": [],
          "name": "totalSupply",
          "outputs": [
            {
              "internalType": "uint256",
              "name": "result",
              "type": "uint256"
            }
          ],
          "stateMutability": "view",
          "type": "function"
        },
        {
          "inputs": [
            {
              "internalType": "address",
              "name": "from",
              "type": "address"
            },
            {
              "internalType": "address",
              "name": "to",
              "type": "address"
            },
            {
              "internalType": "uint256",
              "name": "tokenId",
              "type": "uint256"
            }
          ],
          "name": "transferFrom",
          "outputs": [],
          "stateMutability": "payable",
          "type": "function"
        },
        {
          "inputs": [
            {
              "internalType": "address",
              "name": "newOwner",
              "type": "address"
            }
          ],
          "name": "transferOwnership",
          "outputs": [],
          "stateMutability": "nonpayable",
          "type": "function"
        },
        {
          "inputs": [
            {
              "internalType": "uint256",
              "name": "tokenId",
              "type": "uint256"
            }
          ],
          "name": "triggerDecay",
          "outputs": [],
          "stateMutability": "payable",
          "type": "function"
        },
        {
          "inputs": [
            {
              "internalType": "uint256",
              "name": "tokenId",
              "type": "uint256"
            }
          ],
          "name": "voteForPlaylist",
          "outputs": [],
          "stateMutability": "nonpayable",
          "type": "function"
        }
      ],
      "evm": {
        "bytecode": {
          "linkReferences": {},
          "object": "6080604052346200021e57620026d960408138039182620000208162000259565b9384928339810103126200021e5762000039816200027f565b6200004860208093016200027f565b6200005262000294565b926a0506c61796c6973745265760ac1b8185015262000070620002a5565b640504c5245560dc1b82820152845190916001600160401b0382116200021857620000a882620000a2600254620002b6565b620002f3565b80601f83116001146200018357509080620000e292620000eb95969760009262000177575b50508160011b916000199060031b1c19161790565b600255620003a9565b6000805533156200015e576200012c6200014e926200010a3362000497565b600a80546001600160a01b0319166001600160a01b0392909216919091179055565b600b80546001600160a01b0319166001600160a01b0392909216919091179055565b6040516121f89081620004e18239f35b604051631e4fbdf760e01b815260006004820152602490fd5b015190503880620000cd565b6002600052601f198316969091907f405787fa12a823e0f2b7631cc41b3ba8828b3321ca811111fa75cd3aa3bb5ace926000905b898210620001ff57505090839291600194620000eb97989910620001e5575b505050811b01600255620003a9565b015160001960f88460031b161c19169055388080620001d6565b80600185968294968601518155019501930190620001b7565b62000223565b600080fd5b634e487b7160e01b600052604160045260246000fd5b60408051919082016001600160401b038111838210176200021857604052565b6040519190601f01601f191682016001600160401b038111838210176200021857604052565b51906001600160a01b03821682036200021e57565b6200029e62000239565b90600b8252565b620002af62000239565b9060058252565b90600182811c92168015620002e8575b6020831014620002d257565b634e487b7160e01b600052602260045260246000fd5b91607f1691620002c6565b601f811162000300575050565b60009060026000526020600020906020601f850160051c8301941062000343575b601f0160051c01915b8281106200033757505050565b8181556001016200032a565b909250829062000321565b601f81116200035b575050565b60009060036000526020600020906020601f850160051c830194106200039e575b601f0160051c01915b8281106200039257505050565b81815560010162000385565b90925082906200037c565b80519091906001600160401b0381116200021857620003d581620003cf600354620002b6565b6200034e565b602080601f83116001146200040f575081906200040a9394600092620001775750508160011b916000199060031b1c19161790565b600355565b6003600052601f198316949091907fc2575a0e9e593c00f959f8c92f12db2869c3395a3b0502d05e2516446f71f85b926000905b8782106200047e57505083600195961062000464575b505050811b01600355565b015160001960f88460031b161c1916905538808062000459565b8060018596829496860151815501950193019062000443565b600980546001600160a01b039283166001600160a01b0319821681179092559091167f8be0079c531659141344cd1fd0a4f28419497f9722a3daafe3b4186f6b6457e0600080a356fe6080604052600436101561001257600080fd5b60003560e01c806301ffc9a7146101e757806306fdde03146101e2578063081812fc146101dd578063095ea7b3146101d857806318160ddd146101d357806323b872dd146101ce57806341ac50b3146101c957806342545825146101c457806342842e0e146101bf5780634535f1c1146101ba57806352a5f1f8146101b55780636352211e146101b057806370a08231146101ab578063715018a6146101a657806377ee63f1146101a15780638462151c1461019c57806385de8b3c146101975780638da5cb5b1461019257806395d89b411461018d578063a22cb46514610188578063a7384a4c14610183578063a9182f3f1461017e578063b88d4fde14610179578063baccd1d214610174578063c87b56dd1461016f578063d213c0f21461016a578063e985e9c514610165578063ecc6362f146101605763f2fde38b1461015b57600080fd5b61154b565b6114c2565b611383565b611367565b6112e6565b6112a7565b61124c565b6110c8565b610ea9565b610ddd565b610d35565b610d0e565b610aeb565b610a0c565b6109b4565b61094b565b610920565b6108f1565b6107f8565b6107ca565b6107a7565b61075a565b610614565b610600565b6105a8565b6104c3565b61042a565b610341565b61021b565b7fffffffff0000000000000000000000000000000000000000000000000000000081160361021657565b600080fd5b346102165760203660031901126102165760207fffffffff0000000000000000000000000000000000000000000000000000000060043561025b816101ec565b167f01ffc9a70000000000000000000000000000000000000000000000000000000081149081156102c3575b8115610299575b506040519015158152f35b7f5b5e139f000000000000000000000000000000000000000000000000000000009150143861028e565b7f80ac58cd0000000000000000000000000000000000000000000000000000000081149150610287565b919082519283825260005b848110610319575050826000602080949584010152601f8019910116010190565b6020818301810151848301820152016102f8565b90602061033e9281815201906102ed565b90565b346102165760008060031936011261042757604051908060025490610365826113e5565b808552916020916001918281169081156103fa57506001146103a2575b61039e86610392818803826111c8565b6040519182918261032d565b0390f35b9350600284527f405787fa12a823e0f2b7631cc41b3ba8828b3321ca811111fa75cd3aa3bb5ace5b8385106103e7575050505081016020016103928261039e38610382565b80548686018401529382019381016103ca565b905086955061039e9693506020925061039294915060ff191682840152151560051b820101929338610382565b80fd5b346102165760203660031901126102165760043561044781611d50565b1561046d57600052600660205260206001600160a01b0360406000205416604051908152f35b7fcf4700e40000000000000000000000000000000000000000000000000000000060005260046000fd5b600435906001600160a01b038216820361021657565b602435906001600160a01b038216820361021657565b6040366003190112610216576104d7610497565b6024356001600160a01b0391826104ed83611e4c565b1680330361054c575b6000938385526006602052604085209216918273ffffffffffffffffffffffffffffffffffffffff198254161790557f8c5be1e5ebec7d5bd14f71427d1e84f3dd0314c0f7b2291e5b200ac8c7c3b9258480a480f35b80600052600760205260ff610578336040600020906001600160a01b0316600052602052604060002090565b54166104f6577fcfb3b9420000000000000000000000000000000000000000000000000000000060005260046000fd5b346102165760003660031901126102165760206000546001549003604051908152f35b6060906003190112610216576001600160a01b0390600435828116810361021657916024359081168103610216579060443590565b61061261060c366105cb565b916115f7565b005b346102165760203660031901126102165760043561063961063482611d50565b6117a4565b33600052600e60205261067361066e61066a61066384604060002090600052602052604060002090565b5460ff1690565b1590565b6117ef565b61069c610697600461068f84600052600c602052604060002090565b015460ff1690565b61183a565b7fa15ea89cb51fc8f208d4fa88319ed1c6e182726c46c64f91dca36f6d7fe2ab2061074c60026106d684600052600c602052604060002090565b0160646106e3825461189b565b11610751576106f2815461189b565b81555b61073561072885610719336001600160a01b0316600052600e602052604060002090565b90600052602052604060002090565b805460ff19166001179055565b546040805191825233602083015290918291820190565b0390a2005b606481556106f5565b34610216576040366003190112610216576001600160a01b0361077b610497565b16600052600e6020526040600020602435600052602052602060ff604060002054166040519015158152f35b6106126107b3366105cb565b90604051926107c1846111ac565b60008452611cf4565b34610216576000366003190112610216576020604051601e8152f35b67ffffffffffffffff81160361021657565b3461021657606036600319011261021657600435610815816107e6565b61081d6104ad565b506001600160a01b03600a541680156108ad573303610843576106129060443590611ed6565b608460405162461bcd60e51b815260206004820152602360248201527f4f6e6c7920456e74726f70792063616e2063616c6c20746869732066756e637460448201527f696f6e00000000000000000000000000000000000000000000000000000000006064820152fd5b606460405162461bcd60e51b815260206004820152601760248201527f456e74726f70792061646472657373206e6f74207365740000000000000000006044820152fd5b346102165760203660031901126102165760206001600160a01b03610917600435611e4c565b16604051908152f35b3461021657602036600319011261021657602061094361093e610497565b6118ae565b604051908152f35b346102165760008060031936011261042757610965611ff8565b806001600160a01b0360095473ffffffffffffffffffffffffffffffffffffffff198116600955167f8be0079c531659141344cd1fd0a4f28419497f9722a3daafe3b4186f6b6457e08280a380f35b3461021657600036600319011261021657602060405160058152f35b602090602060408183019282815285518094520193019160005b8281106109f8575050505090565b8351855293810193928101926001016109ea565b3461021657602036600319011261021657610a25610497565b600080610a31836118ae565b91610a3b83611902565b93604091610a4c60405196876111c8565b848652601f19610a5b86611902565b01366020880137610a6a61191a565b506001600160a01b0391821692845b868603610a8e576040518061039e8a826109d0565b610a978161203c565b80830151610ae257516001600160a01b0316848116610ad9575b506001908585851614610ac5575b01610a79565b80610ad3838901988b611950565b52610abf565b92506001610ab1565b50600190610abf565b6020806003193601126102165760043590610b0861063483611d50565b610b24610697600461068f85600052600c602052604060002090565b610b466002610b3d84600052600c602052604060002090565b0154151561197a565b610b67610b5b600a546001600160a01b031690565b6001600160a01b031690565b90610b7a600b546001600160a01b031690565b6040517fb88c91480000000000000000000000000000000000000000000000000000000081526001600160a01b038216600482015290928282602481845afa908115610cdc576fffffffffffffffffffffffffffffffff610c3a928594600091610ce1575b501694610bee863410156119f9565b6040519586809481937f19cb825f0000000000000000000000000000000000000000000000000000000083526004830160206000919392936001600160a01b0360408201951681520152565b03925af18015610cdc577f6b73c3afb9de0065bce909a5c6990021f060efc3b19313411293559b0238e0739261074c92600092610caf575b505083610c938267ffffffffffffffff16600052600d602052604060002090565b5560405167ffffffffffffffff90911681529081906020820190565b610cce9250803d10610cd5575b610cc681836111c8565b810190611a44565b3880610c72565b503d610cbc565b6119ed565b610d019150853d8711610d07575b610cf981836111c8565b8101906119c5565b38610bdf565b503d610cef565b346102165760003660031901126102165760206001600160a01b0360095416604051908152f35b346102165760008060031936011261042757604051908060035490610d59826113e5565b808552916020916001918281169081156103fa5750600114610d855761039e86610392818803826111c8565b9350600384527fc2575a0e9e593c00f959f8c92f12db2869c3395a3b0502d05e2516446f71f85b5b838510610dca575050505081016020016103928261039e38610382565b8054868601840152938201938101610dad565b3461021657604036600319011261021657610df6610497565b6024358015159182820361021657610e4b6001600160a01b0392336000526007602052610e3a836040600020906001600160a01b0316600052602052604060002090565b9060ff801983541691151516179055565b60405192835216907f17307eab39ab6107e8899845ad3d59bd9653f200f220920489ca2b5937696c3160203392a3005b9181601f840112156102165782359167ffffffffffffffff8311610216576020838186019501011161021657565b3461021657606036600319011261021657610ec2610497565b67ffffffffffffffff9060243582811161021657610ee4903690600401610e7b565b909260443590811161021657610efe903690600401610e7b565b600094916001600160a01b03865495610f2a81600160e11b906001600160a01b034260a01b9116171790565b610f3e886000526004602052604060002090565b55610f5c816001600160a01b03166000526005602052604060002090565b6801000000000000000181540190551695861561106f57600186810197879180805b61102a575b505050508594927fc3c15e44adc8e6b4ddd1ca6261359e4970bb28b9530420d68222c21d2e80bcc2949261039e98611017935561100b610fc16111ea565b610fcc368888611215565b8152610fd9368585611215565b6020820152603260408201524260608201526001608082015261100689600052600c602052604060002090565b611b85565b60405194859485611ccd565b0390a26040519081529081906020820190565b1561105e575b83818484877fddf252ad1be2c89b69c2b068fc378daa952ba7f163c4a11628f55a4df523b3ef8180a4610f7e565b809201918983036110305780610f83565b611d93565b6020815260a060806110aa611094855184602087015260c08601906102ed565b6020860151858203601f190160408701526102ed565b93604081015160608501526060810151828501520151151591015290565b346102165760203660031901126102165761039e6004356040906000608083516110f18161118b565b60608152606060208201528285820152826060820152015261111561063482611d50565b600052600c602052806000209060ff60048251936111328561118b565b61113b8161141f565b85526111496001820161141f565b602086015260028101548486015260038101546060860152015416151560808301525191829182611074565b634e487b7160e01b600052604160045260246000fd5b60a0810190811067ffffffffffffffff8211176111a757604052565b611175565b6020810190811067ffffffffffffffff8211176111a757604052565b90601f8019910116810190811067ffffffffffffffff8211176111a757604052565b604051906111f78261118b565b565b67ffffffffffffffff81116111a757601f01601f191660200190565b929192611221826111f9565b9161122f60405193846111c8565b829481845281830111610216578281602093846000960137010152565b608036600319011261021657611260610497565b6112686104ad565b6064359167ffffffffffffffff831161021657366023840112156102165761129d610612933690602481600401359101611215565b9160443591611cf4565b346102165760203660031901126102165767ffffffffffffffff6004356112cd816107e6565b16600052600d6020526020604060002054604051908152f35b3461021657602036600319011261021657611302600435611d50565b1561133d576000604051611315816111ac565b5261039e604051611325816111ac565b600081526040519182916020835260208301906102ed565b7fa14c4b500000000000000000000000000000000000000000000000000000000060005260046000fd5b3461021657600036600319011261021657602060405160648152f35b3461021657604036600319011261021657602060ff6113d96113a3610497565b6001600160a01b036113b36104ad565b9116600052600784526040600020906001600160a01b0316600052602052604060002090565b54166040519015158152f35b90600182811c92168015611415575b60208310146113ff57565b634e487b7160e01b600052602260045260246000fd5b91607f16916113f4565b90604051918260008254611432816113e5565b908184526020946001916001811690816000146114a05750600114611461575b5050506111f7925003836111c8565b600090815285812095935091905b8183106114885750506111f79350820101388080611452565b8554888401850152948501948794509183019161146f565b925050506111f794925060ff191682840152151560051b820101388080611452565b3461021657602036600319011261021657600435600052600c60205261152760406000206114ef8161141f565b906114fc6001820161141f565b60028201549161153560ff60046003840154930154169260405196879660a0885260a08801906102ed565b9086820360208801526102ed565b9260408501526060840152151560808301520390f35b3461021657602036600319011261021657611564610497565b61156c611ff8565b6001600160a01b038091169081156115c6576009548273ffffffffffffffffffffffffffffffffffffffff19821617600955167f8be0079c531659141344cd1fd0a4f28419497f9722a3daafe3b4186f6b6457e0600080a3005b60246040517f1e4fbdf700000000000000000000000000000000000000000000000000000000815260006004820152fd5b91909161160382611e4c565b926001600160a01b0380921693848382160361179f57600084815260066020526040902080546116426001600160a01b03881633908114908314171590565b611756575b61174c575b5061166a856001600160a01b03166000526005602052604060002090565b805460001901905561168f826001600160a01b03166000526005602052604060002090565b805460010190556001600160a01b0382164260a01b17600160e11b176116bf856000526004602052604060002090565b55600160e11b811615611702575b501680927fddf252ad1be2c89b69c2b068fc378daa952ba7f163c4a11628f55a4df523b3ef600080a4156116fd57565b611e11565b6001840161171a816000526004602052604060002090565b5415611727575b506116cd565b600054811461172157611744906000526004602052604060002090565b553880611721565b600090553861164c565b61179561066a6106633361177d8b6001600160a01b03166000526007602052604060002090565b906001600160a01b0316600052602052604060002090565b1561164757611de7565b611dbd565b156117ab57565b606460405162461bcd60e51b815260206004820152601760248201527f506c61796c69737420646f6573206e6f742065786973740000000000000000006044820152fd5b156117f657565b606460405162461bcd60e51b815260206004820152601f60248201527f416c726561647920766f74656420666f72207468697320706c61796c697374006044820152fd5b1561184157565b606460405162461bcd60e51b815260206004820152601460248201527f506c61796c69737420697320696e6163746976650000000000000000000000006044820152fd5b634e487b7160e01b600052601160045260246000fd5b90600582018092116118a957565b611885565b6001600160a01b031680156118d857600052600560205267ffffffffffffffff6040600020541690565b7f8f4eb6040000000000000000000000000000000000000000000000000000000060005260046000fd5b67ffffffffffffffff81116111a75760051b60200190565b604051906080820182811067ffffffffffffffff8211176111a75760405260006060838281528260208201528260408201520152565b80518210156119645760209160051b010190565b634e487b7160e01b600052603260045260246000fd5b1561198157565b606460405162461bcd60e51b815260206004820152601d60248201527f52657075746174696f6e20616c7265616479206174206d696e696d756d0000006044820152fd5b9081602091031261021657516fffffffffffffffffffffffffffffffff811681036102165790565b6040513d6000823e3d90fd5b15611a0057565b606460405162461bcd60e51b815260206004820152600f60248201527f4e6f7420656e6f756768206665657300000000000000000000000000000000006044820152fd5b90816020910312610216575161033e816107e6565b90601f8111611a6757505050565b6000916000526020600020906020601f850160051c83019410611aa5575b601f0160051c01915b828110611a9a57505050565b818155600101611a8e565b9092508290611a85565b919091825167ffffffffffffffff81116111a757611ad781611ad184546113e5565b84611a59565b602080601f8311600114611b1a57508190611b0b939495600092611b0f575b50508160011b916000199060031b1c19161790565b9055565b015190503880611af6565b90601f19831695611b3085600052602060002090565b926000905b888210611b6d57505083600195969710611b54575b505050811b019055565b015160001960f88460031b161c19169055388080611b4a565b80600185968294968601518155019501930190611b35565b919091825192835167ffffffffffffffff81116111a757611bb081611baa85546113e5565b85611a59565b602080601f8311600114611c305750600492611bee83611c1d946080946111f7999a600092611b0f5750508160011b916000199060031b1c19161790565b85555b611c02602082015160018701611aaf565b60408101516002860155606081015160038601550151151590565b91019060ff801983541691151516179055565b90601f19831696611c4686600052602060002090565b926000905b898210611c945750508360809360049693600193611c1d976111f79b9c10611c7b575b505050811b018555611bf1565b015160001960f88460031b161c19169055388080611c6e565b80600185968294968601518155019501930190611c4b565b908060209392818452848401376000828201840152601f01601f1916010190565b9290611ce69061033e9593604086526040860191611cac565b926020818503910152611cac565b929190611d028282866115f7565b803b611d0f575b50505050565b611d18936120d9565b15611d265738808080611d09565b7fd1a57ed60000000000000000000000000000000000000000000000000000000060005260046000fd5b90600091600080548210611d62575050565b92505b8083526004602052604083205480611d87575080156118a95760001901611d65565b600160e01b1615925050565b7f2e0763000000000000000000000000000000000000000000000000000000000060005260046000fd5b7fa11481000000000000000000000000000000000000000000000000000000000060005260046000fd5b7f59c896be0000000000000000000000000000000000000000000000000000000060005260046000fd5b7fea553b340000000000000000000000000000000000000000000000000000000060005260046000fd5b636f96cda160e11b60005260046000fd5b611e60816000526004602052604060002090565b54908115611e775750600160e01b8116611e3b5790565b9050600090600054811015611e3b575b60001901600081815260046020526040902054908115611ec25750600160e01b811615611ebd57600482636f96cda160e11b8152fd5b905090565b9050611e87565b919082039182116118a957565b9067ffffffffffffffff8216600052600d602052604060002054918215611fb45782611f3a92601e6064611f16600097600052600c602052604060002090565b920610611f3d575b505067ffffffffffffffff16600052600d602052604060002090565b55565b611f968160027f7a497b48779931a19dd3c9f9f85ea0edf18e2ed7f9e0478ed1fcd451fd9d56b39301908154600a81048091118914611fa057611f8291508254611ec9565b81555b546040519081529081906020820190565b0390a23880611f1e565b50878255600401805460ff19169055611f85565b606460405162461bcd60e51b815260206004820152601160248201527f52657175657374206e6f7420666f756e640000000000000000000000000000006044820152fd5b6001600160a01b0360095416330361200c57565b60246040517f118cdaa7000000000000000000000000000000000000000000000000000000008152336004820152fd5b61204461191a565b50600052600460205260406000205461205b61191a565b906001600160a01b038116825267ffffffffffffffff8160a01c166020830152600160e01b81161515604083015260e81c606082015290565b90816020910312610216575161033e816101ec565b3d156120d4573d906120ba826111f9565b916120c860405193846111c8565b82523d6000602084013e565b606090565b9260209161213c9360006001600160a01b03604051809781968295847f150b7a02000000000000000000000000000000000000000000000000000000009c8d865233600487015216602485015260448401526080606484015260848301906102ed565b0393165af160009181612191575b5061216b576121576120a9565b80511561216657805190602001fd5b611d26565b7fffffffff00000000000000000000000000000000000000000000000000000000161490565b6121b491925060203d6020116121bb575b6121ac81836111c8565b810190612094565b903861214a565b503d6121a256fea2646970667358221220649ab3cc62c09364c79c73543aa7b741fe67ac724ca30a13292c9240418700c164736f6c63430008180033",
          "opcodes": "PUSH1 0x80 PUSH1 0x40 MSTORE CALLVALUE PUSH3 0x21E JUMPI PUSH3 0x26D9 PUSH1 0x40 DUP2 CODESIZE SUB SWAP2 DUP3 PUSH3 0x20 DUP2 PUSH3 0x259 JUMP JUMPDEST SWAP4 DUP5 SWAP3 DUP4 CODECOPY DUP2 ADD SUB SLT PUSH3 0x21E JUMPI PUSH3 0x39 DUP2 PUSH3 0x27F JUMP JUMPDEST PUSH3 0x48 PUSH1 0x20 DUP1 SWAP4 ADD PUSH3 0x27F JUMP JUMPDEST PUSH3 0x52 PUSH3 0x294 JUMP JUMPDEST SWAP3 PUSH11 0x506C61796C69737452657 PUSH1 0xAC SHL DUP2 DUP6 ADD MSTORE PUSH3 0x70 PUSH3 0x2A5 JUMP JUMPDEST PUSH5 0x504C52455 PUSH1 0xDC SHL DUP3 DUP3 ADD MSTORE DUP5 MLOAD SWAP1 SWAP2 PUSH1 0x1 PUSH1 0x1 PUSH1 0x40 SHL SUB DUP3 GT PUSH3 0x218 JUMPI PUSH3 0xA8 DUP3 PUSH3 0xA2 PUSH1 0x2 SLOAD PUSH3 0x2B6 JUMP JUMPDEST PUSH3 0x2F3 JUMP JUMPDEST DUP1 PUSH1 0x1F DUP4 GT PUSH1 0x1 EQ PUSH3 0x183 JUMPI POP SWAP1 DUP1 PUSH3 0xE2 SWAP3 PUSH3 0xEB SWAP6 SWAP7 SWAP8 PUSH1 0x0 SWAP3 PUSH3 0x177 JUMPI JUMPDEST POP POP DUP2 PUSH1 0x1 SHL SWAP2 PUSH1 0x0 NOT SWAP1 PUSH1 0x3 SHL SHR NOT AND OR SWAP1 JUMP JUMPDEST PUSH1 0x2 SSTORE PUSH3 0x3A9 JUMP JUMPDEST PUSH1 0x0 DUP1 SSTORE CALLER ISZERO PUSH3 0x15E JUMPI PUSH3 0x12C PUSH3 0x14E SWAP3 PUSH3 0x10A CALLER PUSH3 0x497 JUMP JUMPDEST PUSH1 0xA DUP1 SLOAD PUSH1 0x1 PUSH1 0x1 PUSH1 0xA0 SHL SUB NOT AND PUSH1 0x1 PUSH1 0x1 PUSH1 0xA0 SHL SUB SWAP3 SWAP1 SWAP3 AND SWAP2 SWAP1 SWAP2 OR SWAP1 SSTORE JUMP JUMPDEST PUSH1 0xB DUP1 SLOAD PUSH1 0x1 PUSH1 0x1 PUSH1 0xA0 SHL SUB NOT AND PUSH1 0x1 PUSH1 0x1 PUSH1 0xA0 SHL SUB SWAP3 SWAP1 SWAP3 AND SWAP2 SWAP1 SWAP2 OR SWAP1 SSTORE JUMP JUMPDEST PUSH1 0x40 MLOAD PUSH2 0x21F8 SWAP1 DUP2 PUSH3 0x4E1 DUP3 CODECOPY RETURN JUMPDEST PUSH1 0x40 MLOAD PUSH4 0x1E4FBDF7 PUSH1 0xE0 SHL DUP2 MSTORE PUSH1 0x0 PUSH1 0x4 DUP3 ADD MSTORE PUSH1 0x24 SWAP1 REVERT JUMPDEST ADD MLOAD SWAP1 POP CODESIZE DUP1 PUSH3 0xCD JUMP JUMPDEST PUSH1 0x2 PUSH1 0x0 MSTORE PUSH1 0x1F NOT DUP4 AND SWAP7 SWAP1 SWAP2 SWAP1 PUSH32 0x405787FA12A823E0F2B7631CC41B3BA8828B3321CA811111FA75CD3AA3BB5ACE SWAP3 PUSH1 0x0 SWAP1 JUMPDEST DUP10 DUP3 LT PUSH3 0x1FF JUMPI POP POP SWAP1 DUP4 SWAP3 SWAP2 PUSH1 0x1 SWAP5 PUSH3 0xEB SWAP8 SWAP9 SWAP10 LT PUSH3 0x1E5 JUMPI JUMPDEST POP POP POP DUP2 SHL ADD PUSH1 0x2 SSTORE PUSH3 0x3A9 JUMP JUMPDEST ADD MLOAD PUSH1 0x0 NOT PUSH1 0xF8 DUP5 PUSH1 0x3 SHL AND SHR NOT AND SWAP1 SSTORE CODESIZE DUP1 DUP1 PUSH3 0x1D6 JUMP JUMPDEST DUP1 PUSH1 0x1 DUP6 SWAP7 DUP3 SWAP5 SWAP7 DUP7 ADD MLOAD DUP2 SSTORE ADD SWAP6 ADD SWAP4 ADD SWAP1 PUSH3 0x1B7 JUMP JUMPDEST PUSH3 0x223 JUMP JUMPDEST PUSH1 0x0 DUP1 REVERT JUMPDEST PUSH4 0x4E487B71 PUSH1 0xE0 SHL PUSH1 0x0 MSTORE PUSH1 0x41 PUSH1 0x4 MSTORE PUSH1 0x24 PUSH1 0x0 REVERT JUMPDEST PUSH1 0x40 DUP1 MLOAD SWAP2 SWAP1 DUP3 ADD PUSH1 0x1 PUSH1 0x1 PUSH1 0x40 SHL SUB DUP2 GT DUP4 DUP3 LT OR PUSH3 0x218 JUMPI PUSH1 0x40 MSTORE JUMP JUMPDEST PUSH1 0x40 MLOAD SWAP2 SWAP1 PUSH1 0x1F ADD PUSH1 0x1F NOT AND DUP3 ADD PUSH1 0x1 PUSH1 0x1 PUSH1 0x40 SHL SUB DUP2 GT DUP4 DUP3 LT OR PUSH3 0x218 JUMPI PUSH1 0x40 MSTORE JUMP JUMPDEST MLOAD SWAP1 PUSH1 0x1 PUSH1 0x1 PUSH1 0xA0 SHL SUB DUP3 AND DUP3 SUB PUSH3 0x21E JUMPI JUMP JUMPDEST PUSH3 0x29E PUSH3 0x239 JUMP JUMPDEST SWAP1 PUSH1 0xB DUP3 MSTORE JUMP JUMPDEST PUSH3 0x2AF PUSH3 0x239 JUMP JUMPDEST SWAP1 PUSH1 0x5 DUP3 MSTORE JUMP JUMPDEST SWAP1 PUSH1 0x1 DUP3 DUP2 SHR SWAP3 AND DUP1 ISZERO PUSH3 0x2E8 JUMPI JUMPDEST PUSH1 0x20 DUP4 LT EQ PUSH3 0x2D2 JUMPI JUMP JUMPDEST PUSH4 0x4E487B71 PUSH1 0xE0 SHL PUSH1 0x0 MSTORE PUSH1 0x22 PUSH1 0x4 MSTORE PUSH1 0x24 PUSH1 0x0 REVERT JUMPDEST SWAP2 PUSH1 0x7F AND SWAP2 PUSH3 0x2C6 JUMP JUMPDEST PUSH1 0x1F DUP2 GT PUSH3 0x300 JUMPI POP POP JUMP JUMPDEST PUSH1 0x0 SWAP1 PUSH1 0x2 PUSH1 0x0 MSTORE PUSH1 0x20 PUSH1 0x0 KECCAK256 SWAP1 PUSH1 0x20 PUSH1 0x1F DUP6 ADD PUSH1 0x5 SHR DUP4 ADD SWAP5 LT PUSH3 0x343 JUMPI JUMPDEST PUSH1 0x1F ADD PUSH1 0x5 SHR ADD SWAP2 JUMPDEST DUP3 DUP2 LT PUSH3 0x337 JUMPI POP POP POP JUMP JUMPDEST DUP2 DUP2 SSTORE PUSH1 0x1 ADD PUSH3 0x32A JUMP JUMPDEST SWAP1 SWAP3 POP DUP3 SWAP1 PUSH3 0x321 JUMP JUMPDEST PUSH1 0x1F DUP2 GT PUSH3 0x35B JUMPI POP POP JUMP JUMPDEST PUSH1 0x0 SWAP1 PUSH1 0x3 PUSH1 0x0 MSTORE PUSH1 0x20 PUSH1 0x0 KECCAK256 SWAP1 PUSH1 0x20 PUSH1 0x1F DUP6 ADD PUSH1 0x5 SHR DUP4 ADD SWAP5 LT PUSH3 0x39E JUMPI JUMPDEST PUSH1 0x1F ADD PUSH1 0x5 SHR ADD SWAP2 JUMPDEST DUP3 DUP2 LT PUSH3 0x392 JUMPI POP POP POP JUMP JUMPDEST DUP2 DUP2 SSTORE PUSH1 0x1 ADD PUSH3 0x385 JUMP JUMPDEST SWAP1 SWAP3 POP DUP3 SWAP1 PUSH3 0x37C JUMP JUMPDEST DUP1 MLOAD SWAP1 SWAP2 SWAP1 PUSH1 0x1 PUSH1 0x1 PUSH1 0x40 SHL SUB DUP2 GT PUSH3 0x218 JUMPI PUSH3 0x3D5 DUP2 PUSH3 0x3CF PUSH1 0x3 SLOAD PUSH3 0x2B6 JUMP JUMPDEST PUSH3 0x34E JUMP JUMPDEST PUSH1 0x20 DUP1 PUSH1 0x1F DUP4 GT PUSH1 0x1 EQ PUSH3 0x40F JUMPI POP DUP2 SWAP1 PUSH3 0x40A SWAP4 SWAP5 PUSH1 0x0 SWAP3 PUSH3 0x177 JUMPI POP POP DUP2 PUSH1 0x1 SHL SWAP2 PUSH1 0x0 NOT SWAP1 PUSH1 0x3 SHL SHR NOT AND OR SWAP1 JUMP JUMPDEST PUSH1 0x3 SSTORE JUMP JUMPDEST PUSH1 0x3 PUSH1 0x0 MSTORE PUSH1 0x1F NOT DUP4 AND SWAP5 SWAP1 SWAP2 SWAP1 PUSH32 0xC2575A0E9E593C00F959F8C92F12DB2869C3395A3B0502D05E2516446F71F85B SWAP3 PUSH1 0x0 SWAP1 JUMPDEST DUP8 DUP3 LT PUSH3 0x47E JUMPI POP POP DUP4 PUSH1 0x1 SWAP6 SWAP7 LT PUSH3 0x464 JUMPI JUMPDEST POP POP POP DUP2 SHL ADD PUSH1 0x3 SSTORE JUMP JUMPDEST ADD MLOAD PUSH1 0x0 NOT PUSH1 0xF8 DUP5 PUSH1 0x3 SHL AND SHR NOT AND SWAP1 SSTORE CODESIZE DUP1 DUP1 PUSH3 0x459 JUMP JUMPDEST DUP1 PUSH1 0x1 DUP6 SWAP7 DUP3 SWAP5 SWAP7 DUP7 ADD MLOAD DUP2 SSTORE ADD SWAP6 ADD SWAP4 ADD SWAP1 PUSH3 0x443 JUMP JUMPDEST PUSH1 0x9 DUP1 SLOAD PUSH1 0x1 PUSH1 0x1 PUSH1 0xA0 SHL SUB SWAP3 DUP4 AND PUSH1 0x1 PUSH1 0x1 PUSH1 0xA0 SHL SUB NOT DUP3 AND DUP2 OR SWAP1 SWAP3 SSTORE SWAP1 SWAP2 AND PUSH32 0x8BE0079C531659141344CD1FD0A4F28419497F9722A3DAAFE3B4186F6B6457E0 PUSH1 0x0 DUP1 LOG3 JUMP INVALID PUSH1 0x80 PUSH1 0x40 MSTORE PUSH1 0x4 CALLDATASIZE LT ISZERO PUSH2 0x12 JUMPI PUSH1 0x0 DUP1 REVERT JUMPDEST PUSH1 0x0 CALLDATALOAD PUSH1 0xE0 SHR DUP1 PUSH4 0x1FFC9A7 EQ PUSH2 0x1E7 JUMPI DUP1 PUSH4 0x6FDDE03 EQ PUSH2 0x1E2 JUMPI DUP1 PUSH4 0x81812FC EQ PUSH2 0x1DD JUMPI DUP1 PUSH4 0x95EA7B3 EQ PUSH2 0x1D8 JUMPI DUP1 PUSH4 0x18160DDD EQ PUSH2 0x1D3 JUMPI DUP1 PUSH4 0x23B872DD EQ PUSH2 0x1CE JUMPI DUP1 PUSH4 0x41AC50B3 EQ PUSH2 0x1C9 JUMPI DUP1 PUSH4 0x42545825 EQ PUSH2 0x1C4 JUMPI DUP1 PUSH4 0x42842E0E EQ PUSH2 0x1BF JUMPI DUP1 PUSH4 0x4535F1C1 EQ PUSH2 0x1BA JUMPI DUP1 PUSH4 0x52A5F1F8 EQ PUSH2 0x1B5 JUMPI DUP1 PUSH4 0x6352211E EQ PUSH2 0x1B0 JUMPI DUP1 PUSH4 0x70A08231 EQ PUSH2 0x1AB JUMPI DUP1 PUSH4 0x715018A6 EQ PUSH2 0x1A6 JUMPI DUP1 PUSH4 0x77EE63F1 EQ PUSH2 0x1A1 JUMPI DUP1 PUSH4 0x8462151C EQ PUSH2 0x19C JUMPI DUP1 PUSH4 0x85DE8B3C EQ PUSH2 0x197 JUMPI DUP1 PUSH4 0x8DA5CB5B EQ PUSH2 0x192 JUMPI DUP1 PUSH4 0x95D89B41 EQ PUSH2 0x18D JUMPI DUP1 PUSH4 0xA22CB465 EQ PUSH2 0x188 JUMPI DUP1 PUSH4 0xA7384A4C EQ PUSH2 0x183 JUMPI DUP1 PUSH4 0xA9182F3F EQ PUSH2 0x17E JUMPI DUP1 PUSH4 0xB88D4FDE EQ PUSH2 0x179 JUMPI DUP1 PUSH4 0xBACCD1D2 EQ PUSH2 0x174 JUMPI DUP1 PUSH4 0xC87B56DD EQ PUSH2 0x16F JUMPI DUP1 PUSH4 0xD213C0F2 EQ PUSH2 0x16A JUMPI DUP1 PUSH4 0xE985E9C5 EQ PUSH2 0x165 JUMPI DUP1 PUSH4 0xECC6362F EQ PUSH2 0x160 JUMPI PUSH4 0xF2FDE38B EQ PUSH2 0x15B JUMPI PUSH1 0x0 DUP1 REVERT JUMPDEST PUSH2 0x154B JUMP JUMPDEST PUSH2 0x14C2 JUMP JUMPDEST PUSH2 0x1383 JUMP JUMPDEST PUSH2 0x1367 JUMP JUMPDEST PUSH2 0x12E6 JUMP JUMPDEST PUSH2 0x12A7 JUMP JUMPDEST PUSH2 0x124C JUMP JUMPDEST PUSH2 0x10C8 JUMP JUMPDEST PUSH2 0xEA9 JUMP JUMPDEST PUSH2 0xDDD JUMP JUMPDEST PUSH2 0xD35 JUMP JUMPDEST PUSH2 0xD0E JUMP JUMPDEST PUSH2 0xAEB JUMP JUMPDEST PUSH2 0xA0C JUMP JUMPDEST PUSH2 0x9B4 JUMP JUMPDEST PUSH2 0x94B JUMP JUMPDEST PUSH2 0x920 JUMP JUMPDEST PUSH2 0x8F1 JUMP JUMPDEST PUSH2 0x7F8 JUMP JUMPDEST PUSH2 0x7CA JUMP JUMPDEST PUSH2 0x7A7 JUMP JUMPDEST PUSH2 0x75A JUMP JUMPDEST PUSH2 0x614 JUMP JUMPDEST PUSH2 0x600 JUMP JUMPDEST PUSH2 0x5A8 JUMP JUMPDEST PUSH2 0x4C3 JUMP JUMPDEST PUSH2 0x42A JUMP JUMPDEST PUSH2 0x341 JUMP JUMPDEST PUSH2 0x21B JUMP JUMPDEST PUSH32 0xFFFFFFFF00000000000000000000000000000000000000000000000000000000 DUP2 AND SUB PUSH2 0x216 JUMPI JUMP JUMPDEST PUSH1 0x0 DUP1 REVERT JUMPDEST CALLVALUE PUSH2 0x216 JUMPI PUSH1 0x20 CALLDATASIZE PUSH1 0x3 NOT ADD SLT PUSH2 0x216 JUMPI PUSH1 0x20 PUSH32 0xFFFFFFFF00000000000000000000000000000000000000000000000000000000 PUSH1 0x4 CALLDATALOAD PUSH2 0x25B DUP2 PUSH2 0x1EC JUMP JUMPDEST AND PUSH32 0x1FFC9A700000000000000000000000000000000000000000000000000000000 DUP2 EQ SWAP1 DUP2 ISZERO PUSH2 0x2C3 JUMPI JUMPDEST DUP2 ISZERO PUSH2 0x299 JUMPI JUMPDEST POP PUSH1 0x40 MLOAD SWAP1 ISZERO ISZERO DUP2 MSTORE RETURN JUMPDEST PUSH32 0x5B5E139F00000000000000000000000000000000000000000000000000000000 SWAP2 POP EQ CODESIZE PUSH2 0x28E JUMP JUMPDEST PUSH32 0x80AC58CD00000000000000000000000000000000000000000000000000000000 DUP2 EQ SWAP2 POP PUSH2 0x287 JUMP JUMPDEST SWAP2 SWAP1 DUP3 MLOAD SWAP3 DUP4 DUP3 MSTORE PUSH1 0x0 JUMPDEST DUP5 DUP2 LT PUSH2 0x319 JUMPI POP POP DUP3 PUSH1 0x0 PUSH1 0x20 DUP1 SWAP5 SWAP6 DUP5 ADD ADD MSTORE PUSH1 0x1F DUP1 NOT SWAP2 ADD AND ADD ADD SWAP1 JUMP JUMPDEST PUSH1 0x20 DUP2 DUP4 ADD DUP2 ADD MLOAD DUP5 DUP4 ADD DUP3 ADD MSTORE ADD PUSH2 0x2F8 JUMP JUMPDEST SWAP1 PUSH1 0x20 PUSH2 0x33E SWAP3 DUP2 DUP2 MSTORE ADD SWAP1 PUSH2 0x2ED JUMP JUMPDEST SWAP1 JUMP JUMPDEST CALLVALUE PUSH2 0x216 JUMPI PUSH1 0x0 DUP1 PUSH1 0x3 NOT CALLDATASIZE ADD SLT PUSH2 0x427 JUMPI PUSH1 0x40 MLOAD SWAP1 DUP1 PUSH1 0x2 SLOAD SWAP1 PUSH2 0x365 DUP3 PUSH2 0x13E5 JUMP JUMPDEST DUP1 DUP6 MSTORE SWAP2 PUSH1 0x20 SWAP2 PUSH1 0x1 SWAP2 DUP3 DUP2 AND SWAP1 DUP2 ISZERO PUSH2 0x3FA JUMPI POP PUSH1 0x1 EQ PUSH2 0x3A2 JUMPI JUMPDEST PUSH2 0x39E DUP7 PUSH2 0x392 DUP2 DUP9 SUB DUP3 PUSH2 0x11C8 JUMP JUMPDEST PUSH1 0x40 MLOAD SWAP2 DUP3 SWAP2 DUP3 PUSH2 0x32D JUMP JUMPDEST SUB SWAP1 RETURN JUMPDEST SWAP4 POP PUSH1 0x2 DUP5 MSTORE PUSH32 0x405787FA12A823E0F2B7631CC41B3BA8828B3321CA811111FA75CD3AA3BB5ACE JUMPDEST DUP4 DUP6 LT PUSH2 0x3E7 JUMPI POP POP POP POP DUP2 ADD PUSH1 0x20 ADD PUSH2 0x392 DUP3 PUSH2 0x39E CODESIZE PUSH2 0x382 JUMP JUMPDEST DUP1 SLOAD DUP7 DUP7 ADD DUP5 ADD MSTORE SWAP4 DUP3 ADD SWAP4 DUP2 ADD PUSH2 0x3CA JUMP JUMPDEST SWAP1 POP DUP7 SWAP6 POP PUSH2 0x39E SWAP7 SWAP4 POP PUSH1 0x20 SWAP3 POP PUSH2 0x392 SWAP5 SWAP2 POP PUSH1 0xFF NOT AND DUP3 DUP5 ADD MSTORE ISZERO ISZERO PUSH1 0x5 SHL DUP3 ADD ADD SWAP3 SWAP4 CODESIZE PUSH2 0x382 JUMP JUMPDEST DUP1 REVERT JUMPDEST CALLVALUE PUSH2 0x216 JUMPI PUSH1 0x20 CALLDATASIZE PUSH1 0x3 NOT ADD SLT PUSH2 0x216 JUMPI PUSH1 0x4 CALLDATALOAD PUSH2 0x447 DUP2 PUSH2 0x1D50 JUMP JUMPDEST ISZERO PUSH2 0x46D JUMPI PUSH1 0x0 MSTORE PUSH1 0x6 PUSH1 0x20 MSTORE PUSH1 0x20 PUSH1 0x1 PUSH1 0x1 PUSH1 0xA0 SHL SUB PUSH1 0x40 PUSH1 0x0 KECCAK256 SLOAD AND PUSH1 0x40 MLOAD SWAP1 DUP2 MSTORE RETURN JUMPDEST PUSH32 0xCF4700E400000000000000000000000000000000000000000000000000000000 PUSH1 0x0 MSTORE PUSH1 0x4 PUSH1 0x0 REVERT JUMPDEST PUSH1 0x4 CALLDATALOAD SWAP1 PUSH1 0x1 PUSH1 0x1 PUSH1 0xA0 SHL SUB DUP3 AND DUP3 SUB PUSH2 0x216 JUMPI JUMP JUMPDEST PUSH1 0x24 CALLDATALOAD SWAP1 PUSH1 0x1 PUSH1 0x1 PUSH1 0xA0 SHL SUB DUP3 AND DUP3 SUB PUSH2 0x216 JUMPI JUMP JUMPDEST PUSH1 0x40 CALLDATASIZE PUSH1 0x3 NOT ADD SLT PUSH2 0x216 JUMPI PUSH2 0x4D7 PUSH2 0x497 JUMP JUMPDEST PUSH1 0x24 CALLDATALOAD PUSH1 0x1 PUSH1 0x1 PUSH1 0xA0 SHL SUB SWAP2 DUP3 PUSH2 0x4ED DUP4 PUSH2 0x1E4C JUMP JUMPDEST AND DUP1 CALLER SUB PUSH2 0x54C JUMPI JUMPDEST PUSH1 0x0 SWAP4 DUP4 DUP6 MSTORE PUSH1 0x6 PUSH1 0x20 MSTORE PUSH1 0x40 DUP6 KECCAK256 SWAP3 AND SWAP2 DUP3 PUSH20 0xFFFFFFFFFFFFFFFFFFFFFFFFFFFFFFFFFFFFFFFF NOT DUP3 SLOAD AND OR SWAP1 SSTORE PUSH32 0x8C5BE1E5EBEC7D5BD14F71427D1E84F3DD0314C0F7B2291E5B200AC8C7C3B925 DUP5 DUP1 LOG4 DUP1 RETURN JUMPDEST DUP1 PUSH1 0x0 MSTORE PUSH1 0x7 PUSH1 0x20 MSTORE PUSH1 0xFF PUSH2 0x578 CALLER PUSH1 0x40 PUSH1 0x0 KECCAK256 SWAP1 PUSH1 0x1 PUSH1 0x1 PUSH1 0xA0 SHL SUB AND PUSH1 0x0 MSTORE PUSH1 0x20 MSTORE PUSH1 0x40 PUSH1 0x0 KECCAK256 SWAP1 JUMP JUMPDEST SLOAD AND PUSH2 0x4F6 JUMPI PUSH32 0xCFB3B94200000000000000000000000000000000000000000000000000000000 PUSH1 0x0 MSTORE PUSH1 0x4 PUSH1 0x0 REVERT JUMPDEST CALLVALUE PUSH2 0x216 JUMPI PUSH1 0x0 CALLDATASIZE PUSH1 0x3 NOT ADD SLT PUSH2 0x216 JUMPI PUSH1 0x20 PUSH1 0x0 SLOAD PUSH1 0x1 SLOAD SWAP1 SUB PUSH1 0x40 MLOAD SWAP1 DUP2 MSTORE RETURN JUMPDEST PUSH1 0x60 SWAP1 PUSH1 0x3 NOT ADD SLT PUSH2 0x216 JUMPI PUSH1 0x1 PUSH1 0x1 PUSH1 0xA0 SHL SUB SWAP1 PUSH1 0x4 CALLDATALOAD DUP3 DUP2 AND DUP2 SUB PUSH2 0x216 JUMPI SWAP2 PUSH1 0x24 CALLDATALOAD SWAP1 DUP2 AND DUP2 SUB PUSH2 0x216 JUMPI SWAP1 PUSH1 0x44 CALLDATALOAD SWAP1 JUMP JUMPDEST PUSH2 0x612 PUSH2 0x60C CALLDATASIZE PUSH2 0x5CB JUMP JUMPDEST SWAP2 PUSH2 0x15F7 JUMP JUMPDEST STOP JUMPDEST CALLVALUE PUSH2 0x216 JUMPI PUSH1 0x20 CALLDATASIZE PUSH1 0x3 NOT ADD SLT PUSH2 0x216 JUMPI PUSH1 0x4 CALLDATALOAD PUSH2 0x639 PUSH2 0x634 DUP3 PUSH2 0x1D50 JUMP JUMPDEST PUSH2 0x17A4 JUMP JUMPDEST CALLER PUSH1 0x0 MSTORE PUSH1 0xE PUSH1 0x20 MSTORE PUSH2 0x673 PUSH2 0x66E PUSH2 0x66A PUSH2 0x663 DUP5 PUSH1 0x40 PUSH1 0x0 KECCAK256 SWAP1 PUSH1 0x0 MSTORE PUSH1 0x20 MSTORE PUSH1 0x40 PUSH1 0x0 KECCAK256 SWAP1 JUMP JUMPDEST SLOAD PUSH1 0xFF AND SWAP1 JUMP JUMPDEST ISZERO SWAP1 JUMP JUMPDEST PUSH2 0x17EF JUMP JUMPDEST PUSH2 0x69C PUSH2 0x697 PUSH1 0x4 PUSH2 0x68F DUP5 PUSH1 0x0 MSTORE PUSH1 0xC PUSH1 0x20 MSTORE PUSH1 0x40 PUSH1 0x0 KECCAK256 SWAP1 JUMP JUMPDEST ADD SLOAD PUSH1 0xFF AND SWAP1 JUMP JUMPDEST PUSH2 0x183A JUMP JUMPDEST PUSH32 0xA15EA89CB51FC8F208D4FA88319ED1C6E182726C46C64F91DCA36F6D7FE2AB20 PUSH2 0x74C PUSH1 0x2 PUSH2 0x6D6 DUP5 PUSH1 0x0 MSTORE PUSH1 0xC PUSH1 0x20 MSTORE PUSH1 0x40 PUSH1 0x0 KECCAK256 SWAP1 JUMP JUMPDEST ADD PUSH1 0x64 PUSH2 0x6E3 DUP3 SLOAD PUSH2 0x189B JUMP JUMPDEST GT PUSH2 0x751 JUMPI PUSH2 0x6F2 DUP2 SLOAD PUSH2 0x189B JUMP JUMPDEST DUP2 SSTORE JUMPDEST PUSH2 0x735 PUSH2 0x728 DUP6 PUSH2 0x719 CALLER PUSH1 0x1 PUSH1 0x1 PUSH1 0xA0 SHL SUB AND PUSH1 0x0 MSTORE PUSH1 0xE PUSH1 0x20 MSTORE PUSH1 0x40 PUSH1 0x0 KECCAK256 SWAP1 JUMP JUMPDEST SWAP1 PUSH1 0x0 MSTORE PUSH1 0x20 MSTORE PUSH1 0x40 PUSH1 0x0 KECCAK256 SWAP1 JUMP JUMPDEST DUP1 SLOAD PUSH1 0xFF NOT AND PUSH1 0x1 OR SWAP1 SSTORE JUMP JUMPDEST SLOAD PUSH1 0x40 DUP1 MLOAD SWAP2 DUP3 MSTORE CALLER PUSH1 0x20 DUP4 ADD MSTORE SWAP1 SWAP2 DUP3 SWAP2 DUP3 ADD SWAP1 JUMP JUMPDEST SUB SWAP1 LOG2 STOP JUMPDEST PUSH1 0x64 DUP2 SSTORE PUSH2 0x6F5 JUMP JUMPDEST CALLVALUE PUSH2 0x216 JUMPI PUSH1 0x40 CALLDATASIZE PUSH1 0x3 NOT ADD SLT PUSH2 0x216 JUMPI PUSH1 0x1 PUSH1 0x1 PUSH1 0xA0 SHL SUB PUSH2 0x77B PUSH2 0x497 JUMP JUMPDEST AND PUSH1 0x0 MSTORE PUSH1 0xE PUSH1 0x20 MSTORE PUSH1 0x40 PUSH1 0x0 KECCAK256 PUSH1 0x24 CALLDATALOAD PUSH1 0x0 MSTORE PUSH1 0x20 MSTORE PUSH1 0x20 PUSH1 0xFF PUSH1 0x40 PUSH1 0x0 KECCAK256 SLOAD AND PUSH1 0x40 MLOAD SWAP1 ISZERO ISZERO DUP2 MSTORE RETURN JUMPDEST PUSH2 0x612 PUSH2 0x7B3 CALLDATASIZE PUSH2 0x5CB JUMP JUMPDEST SWAP1 PUSH1 0x40 MLOAD SWAP3 PUSH2 0x7C1 DUP5 PUSH2 0x11AC JUMP JUMPDEST PUSH1 0x0 DUP5 MSTORE PUSH2 0x1CF4 JUMP JUMPDEST CALLVALUE PUSH2 0x216 JUMPI PUSH1 0x0 CALLDATASIZE PUSH1 0x3 NOT ADD SLT PUSH2 0x216 JUMPI PUSH1 0x20 PUSH1 0x40 MLOAD PUSH1 0x1E DUP2 MSTORE RETURN JUMPDEST PUSH8 0xFFFFFFFFFFFFFFFF DUP2 AND SUB PUSH2 0x216 JUMPI JUMP JUMPDEST CALLVALUE PUSH2 0x216 JUMPI PUSH1 0x60 CALLDATASIZE PUSH1 0x3 NOT ADD SLT PUSH2 0x216 JUMPI PUSH1 0x4 CALLDATALOAD PUSH2 0x815 DUP2 PUSH2 0x7E6 JUMP JUMPDEST PUSH2 0x81D PUSH2 0x4AD JUMP JUMPDEST POP PUSH1 0x1 PUSH1 0x1 PUSH1 0xA0 SHL SUB PUSH1 0xA SLOAD AND DUP1 ISZERO PUSH2 0x8AD JUMPI CALLER SUB PUSH2 0x843 JUMPI PUSH2 0x612 SWAP1 PUSH1 0x44 CALLDATALOAD SWAP1 PUSH2 0x1ED6 JUMP JUMPDEST PUSH1 0x84 PUSH1 0x40 MLOAD PUSH3 0x461BCD PUSH1 0xE5 SHL DUP2 MSTORE PUSH1 0x20 PUSH1 0x4 DUP3 ADD MSTORE PUSH1 0x23 PUSH1 0x24 DUP3 ADD MSTORE PUSH32 0x4F6E6C7920456E74726F70792063616E2063616C6C20746869732066756E6374 PUSH1 0x44 DUP3 ADD MSTORE PUSH32 0x696F6E0000000000000000000000000000000000000000000000000000000000 PUSH1 0x64 DUP3 ADD MSTORE REVERT JUMPDEST PUSH1 0x64 PUSH1 0x40 MLOAD PUSH3 0x461BCD PUSH1 0xE5 SHL DUP2 MSTORE PUSH1 0x20 PUSH1 0x4 DUP3 ADD MSTORE PUSH1 0x17 PUSH1 0x24 DUP3 ADD MSTORE PUSH32 0x456E74726F70792061646472657373206E6F7420736574000000000000000000 PUSH1 0x44 DUP3 ADD MSTORE REVERT JUMPDEST CALLVALUE PUSH2 0x216 JUMPI PUSH1 0x20 CALLDATASIZE PUSH1 0x3 NOT ADD SLT PUSH2 0x216 JUMPI PUSH1 0x20 PUSH1 0x1 PUSH1 0x1 PUSH1 0xA0 SHL SUB PUSH2 0x917 PUSH1 0x4 CALLDATALOAD PUSH2 0x1E4C JUMP JUMPDEST AND PUSH1 0x40 MLOAD SWAP1 DUP2 MSTORE RETURN JUMPDEST CALLVALUE PUSH2 0x216 JUMPI PUSH1 0x20 CALLDATASIZE PUSH1 0x3 NOT ADD SLT PUSH2 0x216 JUMPI PUSH1 0x20 PUSH2 0x943 PUSH2 0x93E PUSH2 0x497 JUMP JUMPDEST PUSH2 0x18AE JUMP JUMPDEST PUSH1 0x40 MLOAD SWAP1 DUP2 MSTORE RETURN JUMPDEST CALLVALUE PUSH2 0x216 JUMPI PUSH1 0x0 DUP1 PUSH1 0x3 NOT CALLDATASIZE ADD SLT PUSH2 0x427 JUMPI PUSH2 0x965 PUSH2 0x1FF8 JUMP JUMPDEST DUP1 PUSH1 0x1 PUSH1 0x1 PUSH1 0xA0 SHL SUB PUSH1 0x9 SLOAD PUSH20 0xFFFFFFFFFFFFFFFFFFFFFFFFFFFFFFFFFFFFFFFF NOT DUP2 AND PUSH1 0x9 SSTORE AND PUSH32 0x8BE0079C531659141344CD1FD0A4F28419497F9722A3DAAFE3B4186F6B6457E0 DUP3 DUP1 LOG3 DUP1 RETURN JUMPDEST CALLVALUE PUSH2 0x216 JUMPI PUSH1 0x0 CALLDATASIZE PUSH1 0x3 NOT ADD SLT PUSH2 0x216 JUMPI PUSH1 0x20 PUSH1 0x40 MLOAD PUSH1 0x5 DUP2 MSTORE RETURN JUMPDEST PUSH1 0x20 SWAP1 PUSH1 0x20 PUSH1 0x40 DUP2 DUP4 ADD SWAP3 DUP3 DUP2 MSTORE DUP6 MLOAD DUP1 SWAP5 MSTORE ADD SWAP4 ADD SWAP2 PUSH1 0x0 JUMPDEST DUP3 DUP2 LT PUSH2 0x9F8 JUMPI POP POP POP POP SWAP1 JUMP JUMPDEST DUP4 MLOAD DUP6 MSTORE SWAP4 DUP2 ADD SWAP4 SWAP3 DUP2 ADD SWAP3 PUSH1 0x1 ADD PUSH2 0x9EA JUMP JUMPDEST CALLVALUE PUSH2 0x216 JUMPI PUSH1 0x20 CALLDATASIZE PUSH1 0x3 NOT ADD SLT PUSH2 0x216 JUMPI PUSH2 0xA25 PUSH2 0x497 JUMP JUMPDEST PUSH1 0x0 DUP1 PUSH2 0xA31 DUP4 PUSH2 0x18AE JUMP JUMPDEST SWAP2 PUSH2 0xA3B DUP4 PUSH2 0x1902 JUMP JUMPDEST SWAP4 PUSH1 0x40 SWAP2 PUSH2 0xA4C PUSH1 0x40 MLOAD SWAP7 DUP8 PUSH2 0x11C8 JUMP JUMPDEST DUP5 DUP7 MSTORE PUSH1 0x1F NOT PUSH2 0xA5B DUP7 PUSH2 0x1902 JUMP JUMPDEST ADD CALLDATASIZE PUSH1 0x20 DUP9 ADD CALLDATACOPY PUSH2 0xA6A PUSH2 0x191A JUMP JUMPDEST POP PUSH1 0x1 PUSH1 0x1 PUSH1 0xA0 SHL SUB SWAP2 DUP3 AND SWAP3 DUP5 JUMPDEST DUP7 DUP7 SUB PUSH2 0xA8E JUMPI PUSH1 0x40 MLOAD DUP1 PUSH2 0x39E DUP11 DUP3 PUSH2 0x9D0 JUMP JUMPDEST PUSH2 0xA97 DUP2 PUSH2 0x203C JUMP JUMPDEST DUP1 DUP4 ADD MLOAD PUSH2 0xAE2 JUMPI MLOAD PUSH1 0x1 PUSH1 0x1 PUSH1 0xA0 SHL SUB AND DUP5 DUP2 AND PUSH2 0xAD9 JUMPI JUMPDEST POP PUSH1 0x1 SWAP1 DUP6 DUP6 DUP6 AND EQ PUSH2 0xAC5 JUMPI JUMPDEST ADD PUSH2 0xA79 JUMP JUMPDEST DUP1 PUSH2 0xAD3 DUP4 DUP10 ADD SWAP9 DUP12 PUSH2 0x1950 JUMP JUMPDEST MSTORE PUSH2 0xABF JUMP JUMPDEST SWAP3 POP PUSH1 0x1 PUSH2 0xAB1 JUMP JUMPDEST POP PUSH1 0x1 SWAP1 PUSH2 0xABF JUMP JUMPDEST PUSH1 0x20 DUP1 PUSH1 0x3 NOT CALLDATASIZE ADD SLT PUSH2 0x216 JUMPI PUSH1 0x4 CALLDATALOAD SWAP1 PUSH2 0xB08 PUSH2 0x634 DUP4 PUSH2 0x1D50 JUMP JUMPDEST PUSH2 0xB24 PUSH2 0x697 PUSH1 0x4 PUSH2 0x68F DUP6 PUSH1 0x0 MSTORE PUSH1 0xC PUSH1 0x20 MSTORE PUSH1 0x40 PUSH1 0x0 KECCAK256 SWAP1 JUMP JUMPDEST PUSH2 0xB46 PUSH1 0x2 PUSH2 0xB3D DUP5 PUSH1 0x0 MSTORE PUSH1 0xC PUSH1 0x20 MSTORE PUSH1 0x40 PUSH1 0x0 KECCAK256 SWAP1 JUMP JUMPDEST ADD SLOAD ISZERO ISZERO PUSH2 0x197A JUMP JUMPDEST PUSH2 0xB67 PUSH2 0xB5B PUSH1 0xA SLOAD PUSH1 0x1 PUSH1 0x1 PUSH1 0xA0 SHL SUB AND SWAP1 JUMP JUMPDEST PUSH1 0x1 PUSH1 0x1 PUSH1 0xA0 SHL SUB AND SWAP1 JUMP JUMPDEST SWAP1 PUSH2 0xB7A PUSH1 0xB SLOAD PUSH1 0x1 PUSH1 0x1 PUSH1 0xA0 SHL SUB AND SWAP1 JUMP JUMPDEST PUSH1 0x40 MLOAD PUSH32 0xB88C914800000000000000000000000000000000000000000000000000000000 DUP2 MSTORE PUSH1 0x1 PUSH1 0x1 PUSH1 0xA0 SHL SUB DUP3 AND PUSH1 0x4 DUP3 ADD MSTORE SWAP1 SWAP3 DUP3 DUP3 PUSH1 0x24 DUP2 DUP5 GAS STATICCALL SWAP1 DUP2 ISZERO PUSH2 0xCDC JUMPI PUSH16 0xFFFFFFFFFFFFFFFFFFFFFFFFFFFFFFFF PUSH2 0xC3A SWAP3 DUP6 SWAP5 PUSH1 0x0 SWAP2 PUSH2 0xCE1 JUMPI JUMPDEST POP AND SWAP5 PUSH2 0xBEE DUP7 CALLVALUE LT ISZERO PUSH2 0x19F9 JUMP JUMPDEST PUSH1 0x40 MLOAD SWAP6 DUP7 DUP1 SWAP5 DUP2 SWAP4 PUSH32 0x19CB825F00000000000000000000000000000000000000000000000000000000 DUP4 MSTORE PUSH1 0x4 DUP4 ADD PUSH1 0x20 PUSH1 0x0 SWAP2 SWAP4 SWAP3 SWAP4 PUSH1 0x1 PUSH1 0x1 PUSH1 0xA0 SHL SUB PUSH1 0x40 DUP3 ADD SWAP6 AND DUP2 MSTORE ADD MSTORE JUMP JUMPDEST SUB SWAP3 GAS CALL DUP1 ISZERO PUSH2 0xCDC JUMPI PUSH32 0x6B73C3AFB9DE0065BCE909A5C6990021F060EFC3B19313411293559B0238E073 SWAP3 PUSH2 0x74C SWAP3 PUSH1 0x0 SWAP3 PUSH2 0xCAF JUMPI JUMPDEST POP POP DUP4 PUSH2 0xC93 DUP3 PUSH8 0xFFFFFFFFFFFFFFFF AND PUSH1 0x0 MSTORE PUSH1 0xD PUSH1 0x20 MSTORE PUSH1 0x40 PUSH1 0x0 KECCAK256 SWAP1 JUMP JUMPDEST SSTORE PUSH1 0x40 MLOAD PUSH8 0xFFFFFFFFFFFFFFFF SWAP1 SWAP2 AND DUP2 MSTORE SWAP1 DUP2 SWAP1 PUSH1 0x20 DUP3 ADD SWAP1 JUMP JUMPDEST PUSH2 0xCCE SWAP3 POP DUP1 RETURNDATASIZE LT PUSH2 0xCD5 JUMPI JUMPDEST PUSH2 0xCC6 DUP2 DUP4 PUSH2 0x11C8 JUMP JUMPDEST DUP2 ADD SWAP1 PUSH2 0x1A44 JUMP JUMPDEST CODESIZE DUP1 PUSH2 0xC72 JUMP JUMPDEST POP RETURNDATASIZE PUSH2 0xCBC JUMP JUMPDEST PUSH2 0x19ED JUMP JUMPDEST PUSH2 0xD01 SWAP2 POP DUP6 RETURNDATASIZE DUP8 GT PUSH2 0xD07 JUMPI JUMPDEST PUSH2 0xCF9 DUP2 DUP4 PUSH2 0x11C8 JUMP JUMPDEST DUP2 ADD SWAP1 PUSH2 0x19C5 JUMP JUMPDEST CODESIZE PUSH2 0xBDF JUMP JUMPDEST POP RETURNDATASIZE PUSH2 0xCEF JUMP JUMPDEST CALLVALUE PUSH2 0x216 JUMPI PUSH1 0x0 CALLDATASIZE PUSH1 0x3 NOT ADD SLT PUSH2 0x216 JUMPI PUSH1 0x20 PUSH1 0x1 PUSH1 0x1 PUSH1 0xA0 SHL SUB PUSH1 0x9 SLOAD AND PUSH1 0x40 MLOAD SWAP1 DUP2 MSTORE RETURN JUMPDEST CALLVALUE PUSH2 0x216 JUMPI PUSH1 0x0 DUP1 PUSH1 0x3 NOT CALLDATASIZE ADD SLT PUSH2 0x427 JUMPI PUSH1 0x40 MLOAD SWAP1 DUP1 PUSH1 0x3 SLOAD SWAP1 PUSH2 0xD59 DUP3 PUSH2 0x13E5 JUMP JUMPDEST DUP1 DUP6 MSTORE SWAP2 PUSH1 0x20 SWAP2 PUSH1 0x1 SWAP2 DUP3 DUP2 AND SWAP1 DUP2 ISZERO PUSH2 0x3FA JUMPI POP PUSH1 0x1 EQ PUSH2 0xD85 JUMPI PUSH2 0x39E DUP7 PUSH2 0x392 DUP2 DUP9 SUB DUP3 PUSH2 0x11C8 JUMP JUMPDEST SWAP4 POP PUSH1 0x3 DUP5 MSTORE PUSH32 0xC2575A0E9E593C00F959F8C92F12DB2869C3395A3B0502D05E2516446F71F85B JUMPDEST DUP4 DUP6 LT PUSH2 0xDCA JUMPI POP POP POP POP DUP2 ADD PUSH1 0x20 ADD PUSH2 0x392 DUP3 PUSH2 0x39E CODESIZE PUSH2 0x382 JUMP JUMPDEST DUP1 SLOAD DUP7 DUP7 ADD DUP5 ADD MSTORE SWAP4 DUP3 ADD SWAP4 DUP2 ADD PUSH2 0xDAD JUMP JUMPDEST CALLVALUE PUSH2 0x216 JUMPI PUSH1 0x40 CALLDATASIZE PUSH1 0x3 NOT ADD SLT PUSH2 0x216 JUMPI PUSH2 0xDF6 PUSH2 0x497 JUMP JUMPDEST PUSH1 0x24 CALLDATALOAD DUP1 ISZERO ISZERO SWAP2 DUP3 DUP3 SUB PUSH2 0x216 JUMPI PUSH2 0xE4B PUSH1 0x1 PUSH1 0x1 PUSH1 0xA0 SHL SUB SWAP3 CALLER PUSH1 0x0 MSTORE PUSH1 0x7 PUSH1 0x20 MSTORE PUSH2 0xE3A DUP4 PUSH1 0x40 PUSH1 0x0 KECCAK256 SWAP1 PUSH1 0x1 PUSH1 0x1 PUSH1 0xA0 SHL SUB AND PUSH1 0x0 MSTORE PUSH1 0x20 MSTORE PUSH1 0x40 PUSH1 0x0 KECCAK256 SWAP1 JUMP JUMPDEST SWAP1 PUSH1 0xFF DUP1 NOT DUP4 SLOAD AND SWAP2 ISZERO ISZERO AND OR SWAP1 SSTORE JUMP JUMPDEST PUSH1 0x40 MLOAD SWAP3 DUP4 MSTORE AND SWAP1 PUSH32 0x17307EAB39AB6107E8899845AD3D59BD9653F200F220920489CA2B5937696C31 PUSH1 0x20 CALLER SWAP3 LOG3 STOP JUMPDEST SWAP2 DUP2 PUSH1 0x1F DUP5 ADD SLT ISZERO PUSH2 0x216 JUMPI DUP3 CALLDATALOAD SWAP2 PUSH8 0xFFFFFFFFFFFFFFFF DUP4 GT PUSH2 0x216 JUMPI PUSH1 0x20 DUP4 DUP2 DUP7 ADD SWAP6 ADD ADD GT PUSH2 0x216 JUMPI JUMP JUMPDEST CALLVALUE PUSH2 0x216 JUMPI PUSH1 0x60 CALLDATASIZE PUSH1 0x3 NOT ADD SLT PUSH2 0x216 JUMPI PUSH2 0xEC2 PUSH2 0x497 JUMP JUMPDEST PUSH8 0xFFFFFFFFFFFFFFFF SWAP1 PUSH1 0x24 CALLDATALOAD DUP3 DUP2 GT PUSH2 0x216 JUMPI PUSH2 0xEE4 SWAP1 CALLDATASIZE SWAP1 PUSH1 0x4 ADD PUSH2 0xE7B JUMP JUMPDEST SWAP1 SWAP3 PUSH1 0x44 CALLDATALOAD SWAP1 DUP2 GT PUSH2 0x216 JUMPI PUSH2 0xEFE SWAP1 CALLDATASIZE SWAP1 PUSH1 0x4 ADD PUSH2 0xE7B JUMP JUMPDEST PUSH1 0x0 SWAP5 SWAP2 PUSH1 0x1 PUSH1 0x1 PUSH1 0xA0 SHL SUB DUP7 SLOAD SWAP6 PUSH2 0xF2A DUP2 PUSH1 0x1 PUSH1 0xE1 SHL SWAP1 PUSH1 0x1 PUSH1 0x1 PUSH1 0xA0 SHL SUB TIMESTAMP PUSH1 0xA0 SHL SWAP2 AND OR OR SWAP1 JUMP JUMPDEST PUSH2 0xF3E DUP9 PUSH1 0x0 MSTORE PUSH1 0x4 PUSH1 0x20 MSTORE PUSH1 0x40 PUSH1 0x0 KECCAK256 SWAP1 JUMP JUMPDEST SSTORE PUSH2 0xF5C DUP2 PUSH1 0x1 PUSH1 0x1 PUSH1 0xA0 SHL SUB AND PUSH1 0x0 MSTORE PUSH1 0x5 PUSH1 0x20 MSTORE PUSH1 0x40 PUSH1 0x0 KECCAK256 SWAP1 JUMP JUMPDEST PUSH9 0x10000000000000001 DUP2 SLOAD ADD SWAP1 SSTORE AND SWAP6 DUP7 ISZERO PUSH2 0x106F JUMPI PUSH1 0x1 DUP7 DUP2 ADD SWAP8 DUP8 SWAP2 DUP1 DUP1 JUMPDEST PUSH2 0x102A JUMPI JUMPDEST POP POP POP POP DUP6 SWAP5 SWAP3 PUSH32 0xC3C15E44ADC8E6B4DDD1CA6261359E4970BB28B9530420D68222C21D2E80BCC2 SWAP5 SWAP3 PUSH2 0x39E SWAP9 PUSH2 0x1017 SWAP4 SSTORE PUSH2 0x100B PUSH2 0xFC1 PUSH2 0x11EA JUMP JUMPDEST PUSH2 0xFCC CALLDATASIZE DUP9 DUP9 PUSH2 0x1215 JUMP JUMPDEST DUP2 MSTORE PUSH2 0xFD9 CALLDATASIZE DUP6 DUP6 PUSH2 0x1215 JUMP JUMPDEST PUSH1 0x20 DUP3 ADD MSTORE PUSH1 0x32 PUSH1 0x40 DUP3 ADD MSTORE TIMESTAMP PUSH1 0x60 DUP3 ADD MSTORE PUSH1 0x1 PUSH1 0x80 DUP3 ADD MSTORE PUSH2 0x1006 DUP10 PUSH1 0x0 MSTORE PUSH1 0xC PUSH1 0x20 MSTORE PUSH1 0x40 PUSH1 0x0 KECCAK256 SWAP1 JUMP JUMPDEST PUSH2 0x1B85 JUMP JUMPDEST PUSH1 0x40 MLOAD SWAP5 DUP6 SWAP5 DUP6 PUSH2 0x1CCD JUMP JUMPDEST SUB SWAP1 LOG2 PUSH1 0x40 MLOAD SWAP1 DUP2 MSTORE SWAP1 DUP2 SWAP1 PUSH1 0x20 DUP3 ADD SWAP1 JUMP JUMPDEST ISZERO PUSH2 0x105E JUMPI JUMPDEST DUP4 DUP2 DUP5 DUP5 DUP8 PUSH32 0xDDF252AD1BE2C89B69C2B068FC378DAA952BA7F163C4A11628F55A4DF523B3EF DUP2 DUP1 LOG4 PUSH2 0xF7E JUMP JUMPDEST DUP1 SWAP3 ADD SWAP2 DUP10 DUP4 SUB PUSH2 0x1030 JUMPI DUP1 PUSH2 0xF83 JUMP JUMPDEST PUSH2 0x1D93 JUMP JUMPDEST PUSH1 0x20 DUP2 MSTORE PUSH1 0xA0 PUSH1 0x80 PUSH2 0x10AA PUSH2 0x1094 DUP6 MLOAD DUP5 PUSH1 0x20 DUP8 ADD MSTORE PUSH1 0xC0 DUP7 ADD SWAP1 PUSH2 0x2ED JUMP JUMPDEST PUSH1 0x20 DUP7 ADD MLOAD DUP6 DUP3 SUB PUSH1 0x1F NOT ADD PUSH1 0x40 DUP8 ADD MSTORE PUSH2 0x2ED JUMP JUMPDEST SWAP4 PUSH1 0x40 DUP2 ADD MLOAD PUSH1 0x60 DUP6 ADD MSTORE PUSH1 0x60 DUP2 ADD MLOAD DUP3 DUP6 ADD MSTORE ADD MLOAD ISZERO ISZERO SWAP2 ADD MSTORE SWAP1 JUMP JUMPDEST CALLVALUE PUSH2 0x216 JUMPI PUSH1 0x20 CALLDATASIZE PUSH1 0x3 NOT ADD SLT PUSH2 0x216 JUMPI PUSH2 0x39E PUSH1 0x4 CALLDATALOAD PUSH1 0x40 SWAP1 PUSH1 0x0 PUSH1 0x80 DUP4 MLOAD PUSH2 0x10F1 DUP2 PUSH2 0x118B JUMP JUMPDEST PUSH1 0x60 DUP2 MSTORE PUSH1 0x60 PUSH1 0x20 DUP3 ADD MSTORE DUP3 DUP6 DUP3 ADD MSTORE DUP3 PUSH1 0x60 DUP3 ADD MSTORE ADD MSTORE PUSH2 0x1115 PUSH2 0x634 DUP3 PUSH2 0x1D50 JUMP JUMPDEST PUSH1 0x0 MSTORE PUSH1 0xC PUSH1 0x20 MSTORE DUP1 PUSH1 0x0 KECCAK256 SWAP1 PUSH1 0xFF PUSH1 0x4 DUP3 MLOAD SWAP4 PUSH2 0x1132 DUP6 PUSH2 0x118B JUMP JUMPDEST PUSH2 0x113B DUP2 PUSH2 0x141F JUMP JUMPDEST DUP6 MSTORE PUSH2 0x1149 PUSH1 0x1 DUP3 ADD PUSH2 0x141F JUMP JUMPDEST PUSH1 0x20 DUP7 ADD MSTORE PUSH1 0x2 DUP2 ADD SLOAD DUP5 DUP7 ADD MSTORE PUSH1 0x3 DUP2 ADD SLOAD PUSH1 0x60 DUP7 ADD MSTORE ADD SLOAD AND ISZERO ISZERO PUSH1 0x80 DUP4 ADD MSTORE MLOAD SWAP2 DUP3 SWAP2 DUP3 PUSH2 0x1074 JUMP JUMPDEST PUSH4 0x4E487B71 PUSH1 0xE0 SHL PUSH1 0x0 MSTORE PUSH1 0x41 PUSH1 0x4 MSTORE PUSH1 0x24 PUSH1 0x0 REVERT JUMPDEST PUSH1 0xA0 DUP2 ADD SWAP1 DUP2 LT PUSH8 0xFFFFFFFFFFFFFFFF DUP3 GT OR PUSH2 0x11A7 JUMPI PUSH1 0x40 MSTORE JUMP JUMPDEST PUSH2 0x1175 JUMP JUMPDEST PUSH1 0x20 DUP2 ADD SWAP1 DUP2 LT PUSH8 0xFFFFFFFFFFFFFFFF DUP3 GT OR PUSH2 0x11A7 JUMPI PUSH1 0x40 MSTORE JUMP JUMPDEST SWAP1 PUSH1 0x1F DUP1 NOT SWAP2 ADD AND DUP2 ADD SWAP1 DUP2 LT PUSH8 0xFFFFFFFFFFFFFFFF DUP3 GT OR PUSH2 0x11A7 JUMPI PUSH1 0x40 MSTORE JUMP JUMPDEST PUSH1 0x40 MLOAD SWAP1 PUSH2 0x11F7 DUP3 PUSH2 0x118B JUMP JUMPDEST JUMP JUMPDEST PUSH8 0xFFFFFFFFFFFFFFFF DUP2 GT PUSH2 0x11A7 JUMPI PUSH1 0x1F ADD PUSH1 0x1F NOT AND PUSH1 0x20 ADD SWAP1 JUMP JUMPDEST SWAP3 SWAP2 SWAP3 PUSH2 0x1221 DUP3 PUSH2 0x11F9 JUMP JUMPDEST SWAP2 PUSH2 0x122F PUSH1 0x40 MLOAD SWAP4 DUP5 PUSH2 0x11C8 JUMP JUMPDEST DUP3 SWAP5 DUP2 DUP5 MSTORE DUP2 DUP4 ADD GT PUSH2 0x216 JUMPI DUP3 DUP2 PUSH1 0x20 SWAP4 DUP5 PUSH1 0x0 SWAP7 ADD CALLDATACOPY ADD ADD MSTORE JUMP JUMPDEST PUSH1 0x80 CALLDATASIZE PUSH1 0x3 NOT ADD SLT PUSH2 0x216 JUMPI PUSH2 0x1260 PUSH2 0x497 JUMP JUMPDEST PUSH2 0x1268 PUSH2 0x4AD JUMP JUMPDEST PUSH1 0x64 CALLDATALOAD SWAP2 PUSH8 0xFFFFFFFFFFFFFFFF DUP4 GT PUSH2 0x216 JUMPI CALLDATASIZE PUSH1 0x23 DUP5 ADD SLT ISZERO PUSH2 0x216 JUMPI PUSH2 0x129D PUSH2 0x612 SWAP4 CALLDATASIZE SWAP1 PUSH1 0x24 DUP2 PUSH1 0x4 ADD CALLDATALOAD SWAP2 ADD PUSH2 0x1215 JUMP JUMPDEST SWAP2 PUSH1 0x44 CALLDATALOAD SWAP2 PUSH2 0x1CF4 JUMP JUMPDEST CALLVALUE PUSH2 0x216 JUMPI PUSH1 0x20 CALLDATASIZE PUSH1 0x3 NOT ADD SLT PUSH2 0x216 JUMPI PUSH8 0xFFFFFFFFFFFFFFFF PUSH1 0x4 CALLDATALOAD PUSH2 0x12CD DUP2 PUSH2 0x7E6 JUMP JUMPDEST AND PUSH1 0x0 MSTORE PUSH1 0xD PUSH1 0x20 MSTORE PUSH1 0x20 PUSH1 0x40 PUSH1 0x0 KECCAK256 SLOAD PUSH1 0x40 MLOAD SWAP1 DUP2 MSTORE RETURN JUMPDEST CALLVALUE PUSH2 0x216 JUMPI PUSH1 0x20 CALLDATASIZE PUSH1 0x3 NOT ADD SLT PUSH2 0x216 JUMPI PUSH2 0x1302 PUSH1 0x4 CALLDATALOAD PUSH2 0x1D50 JUMP JUMPDEST ISZERO PUSH2 0x133D JUMPI PUSH1 0x0 PUSH1 0x40 MLOAD PUSH2 0x1315 DUP2 PUSH2 0x11AC JUMP JUMPDEST MSTORE PUSH2 0x39E PUSH1 0x40 MLOAD PUSH2 0x1325 DUP2 PUSH2 0x11AC JUMP JUMPDEST PUSH1 0x0 DUP2 MSTORE PUSH1 0x40 MLOAD SWAP2 DUP3 SWAP2 PUSH1 0x20 DUP4 MSTORE PUSH1 0x20 DUP4 ADD SWAP1 PUSH2 0x2ED JUMP JUMPDEST PUSH32 0xA14C4B5000000000000000000000000000000000000000000000000000000000 PUSH1 0x0 MSTORE PUSH1 0x4 PUSH1 0x0 REVERT JUMPDEST CALLVALUE PUSH2 0x216 JUMPI PUSH1 0x0 CALLDATASIZE PUSH1 0x3 NOT ADD SLT PUSH2 0x216 JUMPI PUSH1 0x20 PUSH1 0x40 MLOAD PUSH1 0x64 DUP2 MSTORE RETURN JUMPDEST CALLVALUE PUSH2 0x216 JUMPI PUSH1 0x40 CALLDATASIZE PUSH1 0x3 NOT ADD SLT PUSH2 0x216 JUMPI PUSH1 0x20 PUSH1 0xFF PUSH2 0x13D9 PUSH2 0x13A3 PUSH2 0x497 JUMP JUMPDEST PUSH1 0x1 PUSH1 0x1 PUSH1 0xA0 SHL SUB PUSH2 0x13B3 PUSH2 0x4AD JUMP JUMPDEST SWAP2 AND PUSH1 0x0 MSTORE PUSH1 0x7 DUP5 MSTORE PUSH1 0x40 PUSH1 0x0 KECCAK256 SWAP1 PUSH1 0x1 PUSH1 0x1 PUSH1 0xA0 SHL SUB AND PUSH1 0x0 MSTORE PUSH1 0x20 MSTORE PUSH1 0x40 PUSH1 0x0 KECCAK256 SWAP1 JUMP JUMPDEST SLOAD AND PUSH1 0x40 MLOAD SWAP1 ISZERO ISZERO DUP2 MSTORE RETURN JUMPDEST SWAP1 PUSH1 0x1 DUP3 DUP2 SHR SWAP3 AND DUP1 ISZERO PUSH2 0x1415 JUMPI JUMPDEST PUSH1 0x20 DUP4 LT EQ PUSH2 0x13FF JUMPI JUMP JUMPDEST PUSH4 0x4E487B71 PUSH1 0xE0 SHL PUSH1 0x0 MSTORE PUSH1 0x22 PUSH1 0x4 MSTORE PUSH1 0x24 PUSH1 0x0 REVERT JUMPDEST SWAP2 PUSH1 0x7F AND SWAP2 PUSH2 0x13F4 JUMP JUMPDEST SWAP1 PUSH1 0x40 MLOAD SWAP2 DUP3 PUSH1 0x0 DUP3 SLOAD PUSH2 0x1432 DUP2 PUSH2 0x13E5 JUMP JUMPDEST SWAP1 DUP2 DUP5 MSTORE PUSH1 0x20 SWAP5 PUSH1 0x1 SWAP2 PUSH1 0x1 DUP2 AND SWAP1 DUP2 PUSH1 0x0 EQ PUSH2 0x14A0 JUMPI POP PUSH1 0x1 EQ PUSH2 0x1461 JUMPI JUMPDEST POP POP POP PUSH2 0x11F7 SWAP3 POP SUB DUP4 PUSH2 0x11C8 JUMP JUMPDEST PUSH1 0x0 SWAP1 DUP2 MSTORE DUP6 DUP2 KECCAK256 SWAP6 SWAP4 POP SWAP2 SWAP1 JUMPDEST DUP2 DUP4 LT PUSH2 0x1488 JUMPI POP POP PUSH2 0x11F7 SWAP4 POP DUP3 ADD ADD CODESIZE DUP1 DUP1 PUSH2 0x1452 JUMP JUMPDEST DUP6 SLOAD DUP9 DUP5 ADD DUP6 ADD MSTORE SWAP5 DUP6 ADD SWAP5 DUP8 SWAP5 POP SWAP2 DUP4 ADD SWAP2 PUSH2 0x146F JUMP JUMPDEST SWAP3 POP POP POP PUSH2 0x11F7 SWAP5 SWAP3 POP PUSH1 0xFF NOT AND DUP3 DUP5 ADD MSTORE ISZERO ISZERO PUSH1 0x5 SHL DUP3 ADD ADD CODESIZE DUP1 DUP1 PUSH2 0x1452 JUMP JUMPDEST CALLVALUE PUSH2 0x216 JUMPI PUSH1 0x20 CALLDATASIZE PUSH1 0x3 NOT ADD SLT PUSH2 0x216 JUMPI PUSH1 0x4 CALLDATALOAD PUSH1 0x0 MSTORE PUSH1 0xC PUSH1 0x20 MSTORE PUSH2 0x1527 PUSH1 0x40 PUSH1 0x0 KECCAK256 PUSH2 0x14EF DUP2 PUSH2 0x141F JUMP JUMPDEST SWAP1 PUSH2 0x14FC PUSH1 0x1 DUP3 ADD PUSH2 0x141F JUMP JUMPDEST PUSH1 0x2 DUP3 ADD SLOAD SWAP2 PUSH2 0x1535 PUSH1 0xFF PUSH1 0x4 PUSH1 0x3 DUP5 ADD SLOAD SWAP4 ADD SLOAD AND SWAP3 PUSH1 0x40 MLOAD SWAP7 DUP8 SWAP7 PUSH1 0xA0 DUP9 MSTORE PUSH1 0xA0 DUP9 ADD SWAP1 PUSH2 0x2ED JUMP JUMPDEST SWAP1 DUP7 DUP3 SUB PUSH1 0x20 DUP9 ADD MSTORE PUSH2 0x2ED JUMP JUMPDEST SWAP3 PUSH1 0x40 DUP6 ADD MSTORE PUSH1 0x60 DUP5 ADD MSTORE ISZERO ISZERO PUSH1 0x80 DUP4 ADD MSTORE SUB SWAP1 RETURN JUMPDEST CALLVALUE PUSH2 0x216 JUMPI PUSH1 0x20 CALLDATASIZE PUSH1 0x3 NOT ADD SLT PUSH2 0x216 JUMPI PUSH2 0x1564 PUSH2 0x497 JUMP JUMPDEST PUSH2 0x156C PUSH2 0x1FF8 JUMP JUMPDEST PUSH1 0x1 PUSH1 0x1 PUSH1 0xA0 SHL SUB DUP1 SWAP2 AND SWAP1 DUP2 ISZERO PUSH2 0x15C6 JUMPI PUSH1 0x9 SLOAD DUP3 PUSH20 0xFFFFFFFFFFFFFFFFFFFFFFFFFFFFFFFFFFFFFFFF NOT DUP3 AND OR PUSH1 0x9 SSTORE AND PUSH32 0x8BE0079C531659141344CD1FD0A4F28419497F9722A3DAAFE3B4186F6B6457E0 PUSH1 0x0 DUP1 LOG3 STOP JUMPDEST PUSH1 0x24 PUSH1 0x40 MLOAD PUSH32 0x1E4FBDF700000000000000000000000000000000000000000000000000000000 DUP2 MSTORE PUSH1 0x0 PUSH1 0x4 DUP3 ADD MSTORE REVERT JUMPDEST SWAP2 SWAP1 SWAP2 PUSH2 0x1603 DUP3 PUSH2 0x1E4C JUMP JUMPDEST SWAP3 PUSH1 0x1 PUSH1 0x1 PUSH1 0xA0 SHL SUB DUP1 SWAP3 AND SWAP4 DUP5 DUP4 DUP3 AND SUB PUSH2 0x179F JUMPI PUSH1 0x0 DUP5 DUP2 MSTORE PUSH1 0x6 PUSH1 0x20 MSTORE PUSH1 0x40 SWAP1 KECCAK256 DUP1 SLOAD PUSH2 0x1642 PUSH1 0x1 PUSH1 0x1 PUSH1 0xA0 SHL SUB DUP9 AND CALLER SWAP1 DUP2 EQ SWAP1 DUP4 EQ OR ISZERO SWAP1 JUMP JUMPDEST PUSH2 0x1756 JUMPI JUMPDEST PUSH2 0x174C JUMPI JUMPDEST POP PUSH2 0x166A DUP6 PUSH1 0x1 PUSH1 0x1 PUSH1 0xA0 SHL SUB AND PUSH1 0x0 MSTORE PUSH1 0x5 PUSH1 0x20 MSTORE PUSH1 0x40 PUSH1 0x0 KECCAK256 SWAP1 JUMP JUMPDEST DUP1 SLOAD PUSH1 0x0 NOT ADD SWAP1 SSTORE PUSH2 0x168F DUP3 PUSH1 0x1 PUSH1 0x1 PUSH1 0xA0 SHL SUB AND PUSH1 0x0 MSTORE PUSH1 0x5 PUSH1 0x20 MSTORE PUSH1 0x40 PUSH1 0x0 KECCAK256 SWAP1 JUMP JUMPDEST DUP1 SLOAD PUSH1 0x1 ADD SWAP1 SSTORE PUSH1 0x1 PUSH1 0x1 PUSH1 0xA0 SHL SUB DUP3 AND TIMESTAMP PUSH1 0xA0 SHL OR PUSH1 0x1 PUSH1 0xE1 SHL OR PUSH2 0x16BF DUP6 PUSH1 0x0 MSTORE PUSH1 0x4 PUSH1 0x20 MSTORE PUSH1 0x40 PUSH1 0x0 KECCAK256 SWAP1 JUMP JUMPDEST SSTORE PUSH1 0x1 PUSH1 0xE1 SHL DUP2 AND ISZERO PUSH2 0x1702 JUMPI JUMPDEST POP AND DUP1 SWAP3 PUSH32 0xDDF252AD1BE2C89B69C2B068FC378DAA952BA7F163C4A11628F55A4DF523B3EF PUSH1 0x0 DUP1 LOG4 ISZERO PUSH2 0x16FD JUMPI JUMP JUMPDEST PUSH2 0x1E11 JUMP JUMPDEST PUSH1 0x1 DUP5 ADD PUSH2 0x171A DUP2 PUSH1 0x0 MSTORE PUSH1 0x4 PUSH1 0x20 MSTORE PUSH1 0x40 PUSH1 0x0 KECCAK256 SWAP1 JUMP JUMPDEST SLOAD ISZERO PUSH2 0x1727 JUMPI JUMPDEST POP PUSH2 0x16CD JUMP JUMPDEST PUSH1 0x0 SLOAD DUP2 EQ PUSH2 0x1721 JUMPI PUSH2 0x1744 SWAP1 PUSH1 0x0 MSTORE PUSH1 0x4 PUSH1 0x20 MSTORE PUSH1 0x40 PUSH1 0x0 KECCAK256 SWAP1 JUMP JUMPDEST SSTORE CODESIZE DUP1 PUSH2 0x1721 JUMP JUMPDEST PUSH1 0x0 SWAP1 SSTORE CODESIZE PUSH2 0x164C JUMP JUMPDEST PUSH2 0x1795 PUSH2 0x66A PUSH2 0x663 CALLER PUSH2 0x177D DUP12 PUSH1 0x1 PUSH1 0x1 PUSH1 0xA0 SHL SUB AND PUSH1 0x0 MSTORE PUSH1 0x7 PUSH1 0x20 MSTORE PUSH1 0x40 PUSH1 0x0 KECCAK256 SWAP1 JUMP JUMPDEST SWAP1 PUSH1 0x1 PUSH1 0x1 PUSH1 0xA0 SHL SUB AND PUSH1 0x0 MSTORE PUSH1 0x20 MSTORE PUSH1 0x40 PUSH1 0x0 KECCAK256 SWAP1 JUMP JUMPDEST ISZERO PUSH2 0x1647 JUMPI PUSH2 0x1DE7 JUMP JUMPDEST PUSH2 0x1DBD JUMP JUMPDEST ISZERO PUSH2 0x17AB JUMPI JUMP JUMPDEST PUSH1 0x64 PUSH1 0x40 MLOAD PUSH3 0x461BCD PUSH1 0xE5 SHL DUP2 MSTORE PUSH1 0x20 PUSH1 0x4 DUP3 ADD MSTORE PUSH1 0x17 PUSH1 0x24 DUP3 ADD MSTORE PUSH32 0x506C61796C69737420646F6573206E6F74206578697374000000000000000000 PUSH1 0x44 DUP3 ADD MSTORE REVERT JUMPDEST ISZERO PUSH2 0x17F6 JUMPI JUMP JUMPDEST PUSH1 0x64 PUSH1 0x40 MLOAD PUSH3 0x461BCD PUSH1 0xE5 SHL DUP2 MSTORE PUSH1 0x20 PUSH1 0x4 DUP3 ADD MSTORE PUSH1 0x1F PUSH1 0x24 DUP3 ADD MSTORE PUSH32 0x416C726561647920766F74656420666F72207468697320706C61796C69737400 PUSH1 0x44 DUP3 ADD MSTORE REVERT JUMPDEST ISZERO PUSH2 0x1841 JUMPI JUMP JUMPDEST PUSH1 0x64 PUSH1 0x40 MLOAD PUSH3 0x461BCD PUSH1 0xE5 SHL DUP2 MSTORE PUSH1 0x20 PUSH1 0x4 DUP3 ADD MSTORE PUSH1 0x14 PUSH1 0x24 DUP3 ADD MSTORE PUSH32 0x506C61796C69737420697320696E616374697665000000000000000000000000 PUSH1 0x44 DUP3 ADD MSTORE REVERT JUMPDEST PUSH4 0x4E487B71 PUSH1 0xE0 SHL PUSH1 0x0 MSTORE PUSH1 0x11 PUSH1 0x4 MSTORE PUSH1 0x24 PUSH1 0x0 REVERT JUMPDEST SWAP1 PUSH1 0x5 DUP3 ADD DUP1 SWAP3 GT PUSH2 0x18A9 JUMPI JUMP JUMPDEST PUSH2 0x1885 JUMP JUMPDEST PUSH1 0x1 PUSH1 0x1 PUSH1 0xA0 SHL SUB AND DUP1 ISZERO PUSH2 0x18D8 JUMPI PUSH1 0x0 MSTORE PUSH1 0x5 PUSH1 0x20 MSTORE PUSH8 0xFFFFFFFFFFFFFFFF PUSH1 0x40 PUSH1 0x0 KECCAK256 SLOAD AND SWAP1 JUMP JUMPDEST PUSH32 0x8F4EB60400000000000000000000000000000000000000000000000000000000 PUSH1 0x0 MSTORE PUSH1 0x4 PUSH1 0x0 REVERT JUMPDEST PUSH8 0xFFFFFFFFFFFFFFFF DUP2 GT PUSH2 0x11A7 JUMPI PUSH1 0x5 SHL PUSH1 0x20 ADD SWAP1 JUMP JUMPDEST PUSH1 0x40 MLOAD SWAP1 PUSH1 0x80 DUP3 ADD DUP3 DUP2 LT PUSH8 0xFFFFFFFFFFFFFFFF DUP3 GT OR PUSH2 0x11A7 JUMPI PUSH1 0x40 MSTORE PUSH1 0x0 PUSH1 0x60 DUP4 DUP3 DUP2 MSTORE DUP3 PUSH1 0x20 DUP3 ADD MSTORE DUP3 PUSH1 0x40 DUP3 ADD MSTORE ADD MSTORE JUMP JUMPDEST DUP1 MLOAD DUP3 LT ISZERO PUSH2 0x1964 JUMPI PUSH1 0x20 SWAP2 PUSH1 0x5 SHL ADD ADD SWAP1 JUMP JUMPDEST PUSH4 0x4E487B71 PUSH1 0xE0 SHL PUSH1 0x0 MSTORE PUSH1 0x32 PUSH1 0x4 MSTORE PUSH1 0x24 PUSH1 0x0 REVERT JUMPDEST ISZERO PUSH2 0x1981 JUMPI JUMP JUMPDEST PUSH1 0x64 PUSH1 0x40 MLOAD PUSH3 0x461BCD PUSH1 0xE5 SHL DUP2 MSTORE PUSH1 0x20 PUSH1 0x4 DUP3 ADD MSTORE PUSH1 0x1D PUSH1 0x24 DUP3 ADD MSTORE PUSH32 0x52657075746174696F6E20616C7265616479206174206D696E696D756D000000 PUSH1 0x44 DUP3 ADD MSTORE REVERT JUMPDEST SWAP1 DUP2 PUSH1 0x20 SWAP2 SUB SLT PUSH2 0x216 JUMPI MLOAD PUSH16 0xFFFFFFFFFFFFFFFFFFFFFFFFFFFFFFFF DUP2 AND DUP2 SUB PUSH2 0x216 JUMPI SWAP1 JUMP JUMPDEST PUSH1 0x40 MLOAD RETURNDATASIZE PUSH1 0x0 DUP3 RETURNDATACOPY RETURNDATASIZE SWAP1 REVERT JUMPDEST ISZERO PUSH2 0x1A00 JUMPI JUMP JUMPDEST PUSH1 0x64 PUSH1 0x40 MLOAD PUSH3 0x461BCD PUSH1 0xE5 SHL DUP2 MSTORE PUSH1 0x20 PUSH1 0x4 DUP3 ADD MSTORE PUSH1 0xF PUSH1 0x24 DUP3 ADD MSTORE PUSH32 0x4E6F7420656E6F75676820666565730000000000000000000000000000000000 PUSH1 0x44 DUP3 ADD MSTORE REVERT JUMPDEST SWAP1 DUP2 PUSH1 0x20 SWAP2 SUB SLT PUSH2 0x216 JUMPI MLOAD PUSH2 0x33E DUP2 PUSH2 0x7E6 JUMP JUMPDEST SWAP1 PUSH1 0x1F DUP2 GT PUSH2 0x1A67 JUMPI POP POP POP JUMP JUMPDEST PUSH1 0x0 SWAP2 PUSH1 0x0 MSTORE PUSH1 0x20 PUSH1 0x0 KECCAK256 SWAP1 PUSH1 0x20 PUSH1 0x1F DUP6 ADD PUSH1 0x5 SHR DUP4 ADD SWAP5 LT PUSH2 0x1AA5 JUMPI JUMPDEST PUSH1 0x1F ADD PUSH1 0x5 SHR ADD SWAP2 JUMPDEST DUP3 DUP2 LT PUSH2 0x1A9A JUMPI POP POP POP JUMP JUMPDEST DUP2 DUP2 SSTORE PUSH1 0x1 ADD PUSH2 0x1A8E JUMP JUMPDEST SWAP1 SWAP3 POP DUP3 SWAP1 PUSH2 0x1A85 JUMP JUMPDEST SWAP2 SWAP1 SWAP2 DUP3 MLOAD PUSH8 0xFFFFFFFFFFFFFFFF DUP2 GT PUSH2 0x11A7 JUMPI PUSH2 0x1AD7 DUP2 PUSH2 0x1AD1 DUP5 SLOAD PUSH2 0x13E5 JUMP JUMPDEST DUP5 PUSH2 0x1A59 JUMP JUMPDEST PUSH1 0x20 DUP1 PUSH1 0x1F DUP4 GT PUSH1 0x1 EQ PUSH2 0x1B1A JUMPI POP DUP2 SWAP1 PUSH2 0x1B0B SWAP4 SWAP5 SWAP6 PUSH1 0x0 SWAP3 PUSH2 0x1B0F JUMPI JUMPDEST POP POP DUP2 PUSH1 0x1 SHL SWAP2 PUSH1 0x0 NOT SWAP1 PUSH1 0x3 SHL SHR NOT AND OR SWAP1 JUMP JUMPDEST SWAP1 SSTORE JUMP JUMPDEST ADD MLOAD SWAP1 POP CODESIZE DUP1 PUSH2 0x1AF6 JUMP JUMPDEST SWAP1 PUSH1 0x1F NOT DUP4 AND SWAP6 PUSH2 0x1B30 DUP6 PUSH1 0x0 MSTORE PUSH1 0x20 PUSH1 0x0 KECCAK256 SWAP1 JUMP JUMPDEST SWAP3 PUSH1 0x0 SWAP1 JUMPDEST DUP9 DUP3 LT PUSH2 0x1B6D JUMPI POP POP DUP4 PUSH1 0x1 SWAP6 SWAP7 SWAP8 LT PUSH2 0x1B54 JUMPI JUMPDEST POP POP POP DUP2 SHL ADD SWAP1 SSTORE JUMP JUMPDEST ADD MLOAD PUSH1 0x0 NOT PUSH1 0xF8 DUP5 PUSH1 0x3 SHL AND SHR NOT AND SWAP1 SSTORE CODESIZE DUP1 DUP1 PUSH2 0x1B4A JUMP JUMPDEST DUP1 PUSH1 0x1 DUP6 SWAP7 DUP3 SWAP5 SWAP7 DUP7 ADD MLOAD DUP2 SSTORE ADD SWAP6 ADD SWAP4 ADD SWAP1 PUSH2 0x1B35 JUMP JUMPDEST SWAP2 SWAP1 SWAP2 DUP3 MLOAD SWAP3 DUP4 MLOAD PUSH8 0xFFFFFFFFFFFFFFFF DUP2 GT PUSH2 0x11A7 JUMPI PUSH2 0x1BB0 DUP2 PUSH2 0x1BAA DUP6 SLOAD PUSH2 0x13E5 JUMP JUMPDEST DUP6 PUSH2 0x1A59 JUMP JUMPDEST PUSH1 0x20 DUP1 PUSH1 0x1F DUP4 GT PUSH1 0x1 EQ PUSH2 0x1C30 JUMPI POP PUSH1 0x4 SWAP3 PUSH2 0x1BEE DUP4 PUSH2 0x1C1D SWAP5 PUSH1 0x80 SWAP5 PUSH2 0x11F7 SWAP10 SWAP11 PUSH1 0x0 SWAP3 PUSH2 0x1B0F JUMPI POP POP DUP2 PUSH1 0x1 SHL SWAP2 PUSH1 0x0 NOT SWAP1 PUSH1 0x3 SHL SHR NOT AND OR SWAP1 JUMP JUMPDEST DUP6 SSTORE JUMPDEST PUSH2 0x1C02 PUSH1 0x20 DUP3 ADD MLOAD PUSH1 0x1 DUP8 ADD PUSH2 0x1AAF JUMP JUMPDEST PUSH1 0x40 DUP2 ADD MLOAD PUSH1 0x2 DUP7 ADD SSTORE PUSH1 0x60 DUP2 ADD MLOAD PUSH1 0x3 DUP7 ADD SSTORE ADD MLOAD ISZERO ISZERO SWAP1 JUMP JUMPDEST SWAP2 ADD SWAP1 PUSH1 0xFF DUP1 NOT DUP4 SLOAD AND SWAP2 ISZERO ISZERO AND OR SWAP1 SSTORE JUMP JUMPDEST SWAP1 PUSH1 0x1F NOT DUP4 AND SWAP7 PUSH2 0x1C46 DUP7 PUSH1 0x0 MSTORE PUSH1 0x20 PUSH1 0x0 KECCAK256 SWAP1 JUMP JUMPDEST SWAP3 PUSH1 0x0 SWAP1 JUMPDEST DUP10 DUP3 LT PUSH2 0x1C94 JUMPI POP POP DUP4 PUSH1 0x80 SWAP4 PUSH1 0x4 SWAP7 SWAP4 PUSH1 0x1 SWAP4 PUSH2 0x1C1D SWAP8 PUSH2 0x11F7 SWAP12 SWAP13 LT PUSH2 0x1C7B JUMPI JUMPDEST POP POP POP DUP2 SHL ADD DUP6 SSTORE PUSH2 0x1BF1 JUMP JUMPDEST ADD MLOAD PUSH1 0x0 NOT PUSH1 0xF8 DUP5 PUSH1 0x3 SHL AND SHR NOT AND SWAP1 SSTORE CODESIZE DUP1 DUP1 PUSH2 0x1C6E JUMP JUMPDEST DUP1 PUSH1 0x1 DUP6 SWAP7 DUP3 SWAP5 SWAP7 DUP7 ADD MLOAD DUP2 SSTORE ADD SWAP6 ADD SWAP4 ADD SWAP1 PUSH2 0x1C4B JUMP JUMPDEST SWAP1 DUP1 PUSH1 0x20 SWAP4 SWAP3 DUP2 DUP5 MSTORE DUP5 DUP5 ADD CALLDATACOPY PUSH1 0x0 DUP3 DUP3 ADD DUP5 ADD MSTORE PUSH1 0x1F ADD PUSH1 0x1F NOT AND ADD ADD SWAP1 JUMP JUMPDEST SWAP3 SWAP1 PUSH2 0x1CE6 SWAP1 PUSH2 0x33E SWAP6 SWAP4 PUSH1 0x40 DUP7 MSTORE PUSH1 0x40 DUP7 ADD SWAP2 PUSH2 0x1CAC JUMP JUMPDEST SWAP3 PUSH1 0x20 DUP2 DUP6 SUB SWAP2 ADD MSTORE PUSH2 0x1CAC JUMP JUMPDEST SWAP3 SWAP2 SWAP1 PUSH2 0x1D02 DUP3 DUP3 DUP7 PUSH2 0x15F7 JUMP JUMPDEST DUP1 EXTCODESIZE PUSH2 0x1D0F JUMPI JUMPDEST POP POP POP POP JUMP JUMPDEST PUSH2 0x1D18 SWAP4 PUSH2 0x20D9 JUMP JUMPDEST ISZERO PUSH2 0x1D26 JUMPI CODESIZE DUP1 DUP1 DUP1 PUSH2 0x1D09 JUMP JUMPDEST PUSH32 0xD1A57ED600000000000000000000000000000000000000000000000000000000 PUSH1 0x0 MSTORE PUSH1 0x4 PUSH1 0x0 REVERT JUMPDEST SWAP1 PUSH1 0x0 SWAP2 PUSH1 0x0 DUP1 SLOAD DUP3 LT PUSH2 0x1D62 JUMPI POP POP JUMP JUMPDEST SWAP3 POP JUMPDEST DUP1 DUP4 MSTORE PUSH1 0x4 PUSH1 0x20 MSTORE PUSH1 0x40 DUP4 KECCAK256 SLOAD DUP1 PUSH2 0x1D87 JUMPI POP DUP1 ISZERO PUSH2 0x18A9 JUMPI PUSH1 0x0 NOT ADD PUSH2 0x1D65 JUMP JUMPDEST PUSH1 0x1 PUSH1 0xE0 SHL AND ISZERO SWAP3 POP POP JUMP JUMPDEST PUSH32 0x2E07630000000000000000000000000000000000000000000000000000000000 PUSH1 0x0 MSTORE PUSH1 0x4 PUSH1 0x0 REVERT JUMPDEST PUSH32 0xA114810000000000000000000000000000000000000000000000000000000000 PUSH1 0x0 MSTORE PUSH1 0x4 PUSH1 0x0 REVERT JUMPDEST PUSH32 0x59C896BE00000000000000000000000000000000000000000000000000000000 PUSH1 0x0 MSTORE PUSH1 0x4 PUSH1 0x0 REVERT JUMPDEST PUSH32 0xEA553B3400000000000000000000000000000000000000000000000000000000 PUSH1 0x0 MSTORE PUSH1 0x4 PUSH1 0x0 REVERT JUMPDEST PUSH4 0x6F96CDA1 PUSH1 0xE1 SHL PUSH1 0x0 MSTORE PUSH1 0x4 PUSH1 0x0 REVERT JUMPDEST PUSH2 0x1E60 DUP2 PUSH1 0x0 MSTORE PUSH1 0x4 PUSH1 0x20 MSTORE PUSH1 0x40 PUSH1 0x0 KECCAK256 SWAP1 JUMP JUMPDEST SLOAD SWAP1 DUP2 ISZERO PUSH2 0x1E77 JUMPI POP PUSH1 0x1 PUSH1 0xE0 SHL DUP2 AND PUSH2 0x1E3B JUMPI SWAP1 JUMP JUMPDEST SWAP1 POP PUSH1 0x0 SWAP1 PUSH1 0x0 SLOAD DUP2 LT ISZERO PUSH2 0x1E3B JUMPI JUMPDEST PUSH1 0x0 NOT ADD PUSH1 0x0 DUP2 DUP2 MSTORE PUSH1 0x4 PUSH1 0x20 MSTORE PUSH1 0x40 SWAP1 KECCAK256 SLOAD SWAP1 DUP2 ISZERO PUSH2 0x1EC2 JUMPI POP PUSH1 0x1 PUSH1 0xE0 SHL DUP2 AND ISZERO PUSH2 0x1EBD JUMPI PUSH1 0x4 DUP3 PUSH4 0x6F96CDA1 PUSH1 0xE1 SHL DUP2 MSTORE REVERT JUMPDEST SWAP1 POP SWAP1 JUMP JUMPDEST SWAP1 POP PUSH2 0x1E87 JUMP JUMPDEST SWAP2 SWAP1 DUP3 SUB SWAP2 DUP3 GT PUSH2 0x18A9 JUMPI JUMP JUMPDEST SWAP1 PUSH8 0xFFFFFFFFFFFFFFFF DUP3 AND PUSH1 0x0 MSTORE PUSH1 0xD PUSH1 0x20 MSTORE PUSH1 0x40 PUSH1 0x0 KECCAK256 SLOAD SWAP2 DUP3 ISZERO PUSH2 0x1FB4 JUMPI DUP3 PUSH2 0x1F3A SWAP3 PUSH1 0x1E PUSH1 0x64 PUSH2 0x1F16 PUSH1 0x0 SWAP8 PUSH1 0x0 MSTORE PUSH1 0xC PUSH1 0x20 MSTORE PUSH1 0x40 PUSH1 0x0 KECCAK256 SWAP1 JUMP JUMPDEST SWAP3 MOD LT PUSH2 0x1F3D JUMPI JUMPDEST POP POP PUSH8 0xFFFFFFFFFFFFFFFF AND PUSH1 0x0 MSTORE PUSH1 0xD PUSH1 0x20 MSTORE PUSH1 0x40 PUSH1 0x0 KECCAK256 SWAP1 JUMP JUMPDEST SSTORE JUMP JUMPDEST PUSH2 0x1F96 DUP2 PUSH1 0x2 PUSH32 0x7A497B48779931A19DD3C9F9F85EA0EDF18E2ED7F9E0478ED1FCD451FD9D56B3 SWAP4 ADD SWAP1 DUP2 SLOAD PUSH1 0xA DUP2 DIV DUP1 SWAP2 GT DUP10 EQ PUSH2 0x1FA0 JUMPI PUSH2 0x1F82 SWAP2 POP DUP3 SLOAD PUSH2 0x1EC9 JUMP JUMPDEST DUP2 SSTORE JUMPDEST SLOAD PUSH1 0x40 MLOAD SWAP1 DUP2 MSTORE SWAP1 DUP2 SWAP1 PUSH1 0x20 DUP3 ADD SWAP1 JUMP JUMPDEST SUB SWAP1 LOG2 CODESIZE DUP1 PUSH2 0x1F1E JUMP JUMPDEST POP DUP8 DUP3 SSTORE PUSH1 0x4 ADD DUP1 SLOAD PUSH1 0xFF NOT AND SWAP1 SSTORE PUSH2 0x1F85 JUMP JUMPDEST PUSH1 0x64 PUSH1 0x40 MLOAD PUSH3 0x461BCD PUSH1 0xE5 SHL DUP2 MSTORE PUSH1 0x20 PUSH1 0x4 DUP3 ADD MSTORE PUSH1 0x11 PUSH1 0x24 DUP3 ADD MSTORE PUSH32 0x52657175657374206E6F7420666F756E64000000000000000000000000000000 PUSH1 0x44 DUP3 ADD MSTORE REVERT JUMPDEST PUSH1 0x1 PUSH1 0x1 PUSH1 0xA0 SHL SUB PUSH1 0x9 SLOAD AND CALLER SUB PUSH2 0x200C JUMPI JUMP JUMPDEST PUSH1 0x24 PUSH1 0x40 MLOAD PUSH32 0x118CDAA700000000000000000000000000000000000000000000000000000000 DUP2 MSTORE CALLER PUSH1 0x4 DUP3 ADD MSTORE REVERT JUMPDEST PUSH2 0x2044 PUSH2 0x191A JUMP JUMPDEST POP PUSH1 0x0 MSTORE PUSH1 0x4 PUSH1 0x20 MSTORE PUSH1 0x40 PUSH1 0x0 KECCAK256 SLOAD PUSH2 0x205B PUSH2 0x191A JUMP JUMPDEST SWAP1 PUSH1 0x1 PUSH1 0x1 PUSH1 0xA0 SHL SUB DUP2 AND DUP3 MSTORE PUSH8 0xFFFFFFFFFFFFFFFF DUP2 PUSH1 0xA0 SHR AND PUSH1 0x20 DUP4 ADD MSTORE PUSH1 0x1 PUSH1 0xE0 SHL DUP2 AND ISZERO ISZERO PUSH1 0x40 DUP4 ADD MSTORE PUSH1 0xE8 SHR PUSH1 0x60 DUP3 ADD MSTORE SWAP1 JUMP JUMPDEST SWAP1 DUP2 PUSH1 0x20 SWAP2 SUB SLT PUSH2 0x216 JUMPI MLOAD PUSH2 0x33E DUP2 PUSH2 0x1EC JUMP JUMPDEST RETURNDATASIZE ISZERO PUSH2 0x20D4 JUMPI RETURNDATASIZE SWAP1 PUSH2 0x20BA DUP3 PUSH2 0x11F9 JUMP JUMPDEST SWAP2 PUSH2 0x20C8 PUSH1 0x40 MLOAD SWAP4 DUP5 PUSH2 0x11C8 JUMP JUMPDEST DUP3 MSTORE RETURNDATASIZE PUSH1 0x0 PUSH1 0x20 DUP5 ADD RETURNDATACOPY JUMP JUMPDEST PUSH1 0x60 SWAP1 JUMP JUMPDEST SWAP3 PUSH1 0x20 SWAP2 PUSH2 0x213C SWAP4 PUSH1 0x0 PUSH1 0x1 PUSH1 0x1 PUSH1 0xA0 SHL SUB PUSH1 0x40 MLOAD DUP1 SWAP8 DUP2 SWAP7 DUP3 SWAP6 DUP5 PUSH32 0x150B7A0200000000000000000000000000000000000000000000000000000000 SWAP13 DUP14 DUP7 MSTORE CALLER PUSH1 0x4 DUP8 ADD MSTORE AND PUSH1 0x24 DUP6 ADD MSTORE PUSH1 0x44 DUP5 ADD MSTORE PUSH1 0x80 PUSH1 0x64 DUP5 ADD MSTORE PUSH1 0x84 DUP4 ADD SWAP1 PUSH2 0x2ED JUMP JUMPDEST SUB SWAP4 AND GAS CALL PUSH1 0x0 SWAP2 DUP2 PUSH2 0x2191 JUMPI JUMPDEST POP PUSH2 0x216B JUMPI PUSH2 0x2157 PUSH2 0x20A9 JUMP JUMPDEST DUP1 MLOAD ISZERO PUSH2 0x2166 JUMPI DUP1 MLOAD SWAP1 PUSH1 0x20 ADD REVERT JUMPDEST PUSH2 0x1D26 JUMP JUMPDEST PUSH32 0xFFFFFFFF00000000000000000000000000000000000000000000000000000000 AND EQ SWAP1 JUMP JUMPDEST PUSH2 0x21B4 SWAP2 SWAP3 POP PUSH1 0x20 RETURNDATASIZE PUSH1 0x20 GT PUSH2 0x21BB JUMPI JUMPDEST PUSH2 0x21AC DUP2 DUP4 PUSH2 0x11C8 JUMP JUMPDEST DUP2 ADD SWAP1 PUSH2 0x2094 JUMP JUMPDEST SWAP1 CODESIZE PUSH2 0x214A JUMP JUMPDEST POP RETURNDATASIZE PUSH2 0x21A2 JUMP INVALID LOG2 PUSH5 0x6970667358 0x22 SLT KECCAK256 PUSH5 0x9AB3CC62C0 SWAP4 PUSH5 0xC79C73543A 0xA7 0xB7 COINBASE INVALID PUSH8 0xAC724CA30A13292C SWAP3 BLOCKHASH COINBASE DUP8 STOP 0xC1 PUSH5 0x736F6C6343 STOP ADDMOD XOR STOP CALLER "
        },
        "methodIdentifiers": {
          "DECAY_CHANCE()": "4535f1c1",
          "GROWTH_PER_VOTE()": "77ee63f1",
          "MAX_REPUTATION()": "d213c0f2",
          "_entropyCallback(uint64,address,bytes32)": "52a5f1f8",
          "approve(address,uint256)": "095ea7b3",
          "balanceOf(address)": "70a08231",
          "getApproved(uint256)": "081812fc",
          "getPlaylistInfo(uint256)": "a9182f3f",
          "hasVoted(address,uint256)": "42545825",
          "isApprovedForAll(address,address)": "e985e9c5",
          "mintPlaylist(address,string,string)": "a7384a4c",
          "name()": "06fdde03",
          "owner()": "8da5cb5b",
          "ownerOf(uint256)": "6352211e",
          "pendingDecayRequests(uint64)": "baccd1d2",
          "playlists(uint256)": "ecc6362f",
          "renounceOwnership()": "715018a6",
          "safeTransferFrom(address,address,uint256)": "42842e0e",
          "safeTransferFrom(address,address,uint256,bytes)": "b88d4fde",
          "setApprovalForAll(address,bool)": "a22cb465",
          "supportsInterface(bytes4)": "01ffc9a7",
          "symbol()": "95d89b41",
          "tokenURI(uint256)": "c87b56dd",
          "tokensOfOwner(address)": "8462151c",
          "totalSupply()": "18160ddd",
          "transferFrom(address,address,uint256)": "23b872dd",
          "transferOwnership(address)": "f2fde38b",
          "triggerDecay(uint256)": "85de8b3c",
          "voteForPlaylist(uint256)": "41ac50b3"
        }
      }
    }
  }
}